:06000000020319020403D3
:03000B0002040BE1
:03001300020413D1
:03001B0002041BC1
:03002300020423B1
:03002B0002042BA1
:0300330002043391
:03003B0002043B81
:0300430002044371
:03004B0002044B61
:0300530002045351
:03005B0002045B41
:0300630002046331
:03006B0002046B21
:0300730002047311
:03007B0002047B01
:03008300020483F1
:03008B0002048BE1
:03009300020493D1
:03009B0002049BC1
:0300A3000204A3B1
:0300AB000204ABA1
:0300B3000204B391
:080319007581641200BB80FE37
:2000BB001202ACE5EFF56130E10375610212F800E58224FF9200D2867562007FFF208602D4
:2000DB0005628F061EEEFF70F4C2A0E56120E61630001374382562400D90FBFEE493F5C45A
:2000FB0075C30212040012010680FBC2A012032BAF82D2A0BF21028017BF22028012BF23EC
:20011B0002800DBF26028008BF29028003BF310FC00712032BAE82D007BE2002800122BF0A
:20013B002100500122EF24CE500122EF24DFFE240A83F582EE241583F583E473797C8F9B0C
:20015B00BEE8FF5F959B9B9B9B9B9B969901010101010101020102020202020202020202FC
:20017B009C75824D12032190FBFEE493F58212032102029C12F83602029C12F85C02029C1B
:20019B0012032BAE828E6375640012032BAE828E05E44263ED426412032BAE82BE20030298
:2001BB00029C2212032BAF82C00712032BAE82D007BE20028001228563828564830563E440
:2001DB00B5630205648F0812F86C02029C8563828564830563E4B56302056412F89612037A
:2001FB002102029C12032BE582FE24BF5001227D00C3ED9E5019ED2421F9C006C005C0017D
:20021B0012032BE582D001D005D006F70D80E2C00612032BAD82D006BD20697D00C3ED9E1E
:20023B00505F8563828564830563E4B563020564ED2421F98708C006C00512F86CD005D0EF
:20025B00060D80D912032BAE82C00612032BAD82D006BD202F7D00C3ED9E50258563828561
:20027B0064830563E4B563020564C006C00512F896120321D005D0060D80DC43EF10800175
:20029B00220202A02275821212032175821002032175A700C2AFAFD974BF5FF5D975B6400F
:2002BB0075B28F75A900758840758920758E08758D9675981275FF807E5E7F01EE24FFFCD5
:2002DB00EF34FFFD8C068D07EC4D70F075EF0675A41075A70F75A41075A70075E10143D4B4
:1E02FB004043D56043D62175A70F43A62175A700740F55E44407F5E4C28875E34022BE
:20F8000090F7FEE493FFBF3D0B90F7FFE493FFBFC20280047F0080027F018F8222AE82AF50
:20F820008374FC2F500574082F5002C322D32275B7A575B7F1227E007FF4C007C00612F8E2
:20F840002FD006D007758F038E828F8374FFF0758F00EF24FCFFC3940450DF2212F82F75D4
:20F860008F0790000074FFF0758F0022AE82AF83C007C00612F81DD006D0075018C007C027
:1BF880000612F82FD006D007758F018E828F83E508F0758F0022E493F5822247
:02FBFE0043FEC4
:13032100AF8210990280FB8F992210980280FB8599822241
:00000001FF

