:060000000203AA02040342
:03000B0002040BE1
:03001300020413D1
:03001B0002041BC1
:03002300020423B1
:03002B0002042BA1
:0300330002043391
:03003B0002043B81
:0300430002044371
:03004B0002044B61
:0300530002045351
:03005B0002045B41
:0300630002046331
:03006B0002046B21
:0300730002047311
:03007B0002047B01
:03008300020483F1
:03008B0002048BE1
:03009300020493D1
:03009B0002049BC1
:0300A3000204A3B1
:0300AB000204ABA1
:0300B3000204B391
:0803AA007581671200BB80FEA3
:2000BB00AF84C007120333D007758433E5EFF56130E103756102C00712FC00AE82D007EE00
:2000DB0024FF9200D2827562007EFF20820205628E051DEDFE70F4D2B6E56120E618300082
:2000FB001574382562400F90FFFEE493F5C475C3028F8412040012011680FBD2B61203BC31
:20011B00AF82C2B6BF21028017BF22028012BF2302800DBF26028008BF29028003BF310FE1
:20013B00C0071203BCAE82D007BE2002800122BF2100500122EF24CE500122EF24DFFE24C7
:20015B000A83F582EE241583F583E473898C9FABF4315BD4A52222222222221D20010101A3
:20017B0001010202020103030303030303030203237582811203B290FFFEE493F58212034C
:20019B00B202032312FCA502032312FD2B0203231203BCAE828E63756400756500756600AD
:2001BB001203BCAD82E4FEFCFBEE4263ED4264EC4265EB42661203BCAE827D008D038E045F
:2001DB00E4FD4263ED4264EC4265EB42661203BCAE82BE2003020323221203BCAF82C007D0
:2001FB001203BCAE82D007BE2002800122AB63AC64AD65AE660563E4B5630C0564B564074C
:20021B000565B5650205668F088B828C838DF0EE12FD3B020323AB63AC64AD65AE66056396
:20023B00E4B5630C0564B564070565B5650205668B828C838DF0EE12FDF31203B2020323A9
:20025B001203BCE582FE24BF5001227D00C3ED9E5019ED2421F9C006C005C0011203BCE596
:20027B0082D001D005D006F70D80E2C0061203BCAD82D006BD2002800122756700C3E567F6
:20029B009E4003020323AA63AB64AC65AD660563E4B5630C0564B564070565B56502056610
:2002BB00E5672421F987088A828B838CF0EDC00612FD3BD006056780C41203BCAE82C0062A
:2002DB001203BCAD82D006BD2041756700C3E5679E5035AA63AB64AC65AD660563E4B5635D
:2002FB000C0564B564070565B5650205668A828B838CF0EDC00612FDF31203B2D006056709
:20031B0080CB43EF10800122020327227582121203B27582100203B275A700C2AFAFD9742D
:20033B00BF5FF5D975B64043B28075A900758840758920758E08758D9675981275FF807E29
:20035B005E7F01EE24FFFCEF34FFFD8C068D07EC4D70F075EF0675A41075A70F75A410755D
:20037B00A70075E10175A70F43B14043A14075A700AF89740F5F4420F589D28ED299740F7B
:0F039B0055E44401F5E4C28875A0FF75E34022E4
:20FC000090F7FEE493FFBF3D0B90F7FFE493FFBFC20280047F0080027F018F8222AC82AD50
:20FC200083AEF0FF8E008F017A007B00C3740398E499E49AE49B4062E8282890FC3F73022B
:20FC4000FC7302FC5D02FC5D8C008D017A007B00C3E994F8EA9400EB94004001228C008DBF
:20FC6000017A007B00C3E99480EA9400EB9400502BC3228C008D017A007B00C3E99404EA34
:20FC80009400EB940040117E007F00C374FF9C747F9DE49EE49F5004C322C322D32275B75D
:20FCA000A575B7F122AF8474035FFE7D03EDC454F0FC4EF584BD0102801CBD0202800DBDBA
:20FCC000031E7B007CF479007A80801C7BFF7CFF79007A8080127BFF7CFF79007A0480089B
:20FCE0007B017C0079007A00C3EB99EC9A4032C007C006C005C004C003C002C00112FC9ED2
:20FD0000D001D002D003D004D005D006D007758F038B828C8374FFF0758F00EC24FCFC8005
:20FD2000C7DD02800302FCAD8F842212FC9E758F0390F80074FFF0758F00228582098583DE
:20FD40000A85F00BF50C85840DA809A90A7A007B00C374FF98747F99E49AE49B501AA80937
:20FD6000A90A7A007B00C3E894FFE994FFEA9400EB94005003430B03850982850A83850BCE
:20FD8000F0E50C12FC1D506AA80BA90CE4FAFBE8494A4B700A7403550D4410F584803C7446
:20FDA00003550DFBA80AE50BC4C8C4540F68C8540FC868C8F9E50CC454F049E50CC4540FB0
:20FDC0005300F079007A007F00E4FEFDFCEB4200EE4201ED4202EC4207888412FC9E758F13
:20FDE00001AC09AD0A8C828D83E508F0758F00850D842285820E85830F85F010F51185849F
:20FE000012A80EA90F7A007B00C374FF98747F99E49AE49B501AA80EA90F7A007B00C3E89E
:20FE200094FFE994FFEA9400EB94005003431003A810A9117A007B00C3740398E499E49AD9
:20FE4000E49B405DE8494A4B700A740355124410F584803C74035512FBA80FE510C4C8C40A
:20FE6000540F68C8540FC868C8F9E511C454F049E511C4540F5300F079007A007F00E4FEA0
:20FE8000FDFCEB4200EE4201ED4202EC42078884AC0EAD0F8C828D83E493FF8512848F8263
:05FEA000227582FF2223
:02FFFE0086FE7D
:1303B200AF8210990280FB8F992210980280FB85998222B0
:00000001FF

