:06000000020327020403C5
:03000B0002040BE1
:03001300020413D1
:03001B0002041BC1
:03002300020423B1
:03002B0002042BA1
:0300330002043391
:03003B0002043B81
:0300430002044371
:03004B0002044B61
:0300530002045351
:03005B0002045B41
:0300630002046331
:03006B0002046B21
:0300730002047311
:03007B0002047B01
:03008300020483F1
:03008B0002048BE1
:03009300020493D1
:03009B0002049BC1
:0300A3000204A3B1
:0300AB000204ABA1
:0300B3000204B391
:080327007581641200BB80FE29
:2000BB001202AFE5EFF56130E10375610212F800E58224FF9200D2827562007FFF208202D9
:2000DB0005628F061EEEFF70F4D296E56120E61930001674382562401012F89B90FBFEE4F2
:2000FB0093F5C475C30212040012010980FBD296120339AF82C296BF21028017BF22028097
:20011B0012BF2302800DBF26028008BF29028003BF310FC007120339AE82D007BE200280EA
:20013B000122BF2100500122EF24CE500122EF24DFFE240A83F582EE241583F583E4737CCD
:20015B007F929EC1EB0262989E9E9E9E9E9E999C010101010101020201020202020202022B
:20017B000202029F75824312032F90FBFEE493F58212032F02029F12F83602029F12F85C9A
:20019B0002029F120339AE828E63756400120339AE828E05E44263ED4264120339AE82BEF0
:2001BB00200302029F22120339AF82C007120339AE82D007BE200280012285638285648348
:2001DB000563E4B5630205648F0812F86C02029F8563828564830563E4B56302056412F8D6
:2001FB009612032F02029F120339E582FE24BF5001227D00C3ED9E5019ED2421F9C006C079
:20021B0005C001120339E582D001D005D006F70D80E2C006120339AD82D006BD20697D008A
:20023B00C3ED9E505F8563828564830563E4B563020564ED2421F98708C006C00512F86C46
:20025B00D005D0060D80D9120339AE82C006120339AD82D006BD202F7D00C3ED9E5025850A
:20027B0063828564830563E4B563020564C006C00512F89612032FD005D0060D80DC43EF8E
:20029B00108001220202A32275821212032F75821002032F75A700C2AFAFD974BF5FF5D9CA
:2002BB0075B64075B28F75A900758840758920758E08758D9675981275FF807E5E7F01EE89
:2002DB0024FFFCEF34FFFD8C068D07EC4D70F075EF0675A41075A70F75A41075A70075E1AD
:2002FB000143D4CF43D578E5D675D6FF75A70F43A5F543A5F543A62043A62075A700740FD1
:0C031B0055E44407F5E4C28875E3402275
:20F8000090F7FEE493FFBF3D0B90F7FFE493FFBFC20280047F0080027F018F8222AE82AF50
:20F820008374FC2F500574082F5002C322D32275B7A575B7F1227E007FF4C007C00612F8E2
:20F840002FD006D007758F038E828F8374FFF0758F00EF24FCFFC3940450DF2212F82F75D4
:20F860008F0790000074FFF0758F0022AE82AF83C007C00612F81DD006D0075018C007C027
:20F880000612F82FD006D007758F018E828F83E508F0758F0022E493F582227F007E008EB7
:20F8A000047D0074DE2CF58274F73DF583C007C00612F896AD82D006D007BDFF0280012248
:20F8C0000EBE1F0040D990F7FDC00712F896AE82D007BEFF4D7E00EE90FBDE93FD62070E4C
:20F8E000BE1F0040F290FBFDE493FEEFB506337F008F057E0074DE2DFD74F73EFEEF90FBF1
:20F90000DE93F5088D828E83C00712F86CD0070FBF1F0040DC90FBFDE493F50890F7FD02BA
:03F92000F86C225E
:01FBFE009175
:13032F00AF8210990280FB8F992210980280FB8599822233
:00000001FF

