:060000000203B10204033B
:03000B0002040BE1
:03001300020413D1
:03001B0002041BC1
:03002300020423B1
:03002B0002042BA1
:0300330002043391
:03003B0002043B81
:0300430002044371
:03004B0002044B61
:0300530002045351
:03005B0002045B41
:0300630002046331
:03006B0002046B21
:0300730002047311
:03007B0002047B01
:03008300020483F1
:03008B0002048BE1
:03009300020493D1
:03009B0002049BC1
:0300A3000204A3B1
:0300AB000204ABA1
:0300B3000204B391
:0803B1007581671200BB80FE9C
:2000BB00AF84C00712033AD007758433E5EFF56130E103756102C00712FC00AE82D007EEF9
:2000DB0024FF9200D2827562007EFF20820205628E051DEDFE70F4D2B6E56120E61F30007B
:2000FB001C743825624016C00712FEA5D00790FFFEE493F5C475C3028F8412040012011D9D
:20011B0080FBD2B61203C3AF82C2B6BF21028017BF22028012BF2302800DBF26028008BFB3
:20013B0029028003BF310FC0071203C3AE82D007BE2002800122BF2100500122EF24CE504A
:20015B000122EF24DFFE240A83F582EE241583F583E4739093A6B2FB3862DBAC2929292995
:20017B0029292427010101010102020201030303030303030302032A7582821203B990FF9E
:20019B00FEE493F5821203B902032A12FCA502032A12FD2B02032A1203C3AE828E6375643E
:2001BB00007565007566001203C3AD82E4FEFCFBEE4263ED4264EC4265EB42661203C3AEBD
:2001DB00827D008D038E04E4FD4263ED4264EC4265EB42661203C3AE82BE200302032A226A
:2001FB001203C3AF82C0071203C3AE82D007BE2002800122AB63AC64AD65AE660563E4B56D
:20021B00630C0564B564070565B5650205668F088B828C838DF0EE12FD3B02032AAB63AC89
:20023B0064AD65AE660563E4B5630C0564B564070565B5650205668B828C838DF0EE12FD99
:20025B00F31203B902032A1203C3E582FE24BF5001227D00C3ED9E5019ED2421F9C006C01B
:20027B0005C0011203C3E582D001D005D006F70D80E2C0061203C3AD82D006BD2002800179
:20029B0022756700C3E5679E400302032AAA63AB64AC65AD660563E4B5630C0564B56407ED
:2002BB000565B565020566E5672421F987088A828B838CF0EDC00612FD3BD006056780C400
:2002DB001203C3AE82C0061203C3AD82D006BD2041756700C3E5679E5035AA63AB64AC65FF
:2002FB00AD660563E4B5630C0564B564070565B5650205668A828B838CF0EDC00612FDF39B
:20031B001203B9D006056780CB43EF1080012202032E227582121203B97582100203B9751C
:20033B00A700C2AFAFD974BF5FF5D975B64043B28075A900758840758920758E08758D96A6
:20035B0075981275FF807E5E7F01EE24FFFCEF34FFFD8C068D07EC4D70F075EF0675A41095
:20037B0075A70F75A41075A70075E10175A70F43B14043A14075A700AF89740F5F4420F589
:16039B0089D28ED299740F55E44401F5E4C28875A0FF75E3402206
:20FC000090F7FEE493FFBF3D0B90F7FFE493FFBFC20280047F0080027F018F8222AC82AD50
:20FC200083AEF0FF8E008F017A007B00C3740398E499E49AE49B4062E8282890FC3F73022B
:20FC4000FC7302FC5D02FC5D8C008D017A007B00C3E994F8EA9400EB94004001228C008DBF
:20FC6000017A007B00C3E99480EA9400EB9400502BC3228C008D017A007B00C3E99404EA34
:20FC80009400EB940040117E007F00C374FF9C747F9DE49EE49F5004C322C322D32275B75D
:20FCA000A575B7F122AF8474035FFE7D03EDC454F0FC4EF584BD0102801CBD0202800DBDBA
:20FCC000031E7B007CF479007A80801C7BFF7CFF79007A8080127BFF7CFF79007A0480089B
:20FCE0007B017C0079007A00C3EB99EC9A4032C007C006C005C004C003C002C00112FC9ED2
:20FD0000D001D002D003D004D005D006D007758F038B828C8374FFF0758F00EC24FCFC8005
:20FD2000C7DD02800302FCAD8F842212FC9E758F0390F80074FFF0758F00228582098583DE
:20FD40000A85F00BF50C85840DA809A90A7A007B00C374FF98747F99E49AE49B501AA80937
:20FD6000A90A7A007B00C3E894FFE994FFEA9400EB94005003430B03850982850A83850BCE
:20FD8000F0E50C12FC1D506AA80BA90CE4FAFBE8494A4B700A7403550D4410F584803C7446
:20FDA00003550DFBA80AE50BC4C8C4540F68C8540FC868C8F9E50CC454F049E50CC4540FB0
:20FDC0005300F079007A007F00E4FEFDFCEB4200EE4201ED4202EC4207888412FC9E758F13
:20FDE00001AC09AD0A8C828D83E508F0758F00850D842285820E85830F85F010F51185849F
:20FE000012A80EA90F7A007B00C374FF98747F99E49AE49B501AA80EA90F7A007B00C3E89E
:20FE200094FFE994FFEA9400EB94005003431003A810A9117A007B00C3740398E499E49AD9
:20FE4000E49B405DE8494A4B700A740355124410F584803C74035512FBA80FE510C4C8C40A
:20FE6000540F68C8540FC868C8F9E511C454F049E511C4540F5300F079007A007F00E4FEA0
:20FE8000FDFCEB4200EE4201ED4202EC42078884AC0EAD0F8C828D83E493FF8512848F8263
:20FEA000227582FF227F007E008E047D0074DE2CFC74F73DFD7B007A008C828D838BF0EA65
:20FEC000C007C00612FDF3AD82D006D007BDFF028001220EBE1F0040D090F7FDE4F5F0C04E
:20FEE0000712FDF3AE82D007BEFF567E00EE90FFDE93FD62070EBE1F0040F290FFFDE493ED
:20FF0000FEEFB5063C7F008F057E0074DE2DFD74F73EFEE4FCFBEF90FFDE93F5088D828EE5
:20FF2000838CF0EBC00712FD3BD0070FBF1F0040D690FFFDE493F50890F7FDE4F5F002FDA0
:02FF40003B2262
:01FFFE00867C
:1303B900AF8210990280FB8F992210980280FB85998222A9
:00000001FF

