:0804FA00C200C201C202C203EC
:20052700AF822004058F82025A2A78067905C3E3F5F0E295F0501A7806E2FE780604F29009
:2005470000BAE0FCA3E0FDEE2CF582E43DF583EFF022AF83E5829000BDF0EFA3F09000BDAE
:20056700E0FEA3E0FF9000BAEEF0EFA3F07806E4F29000BCE07805F2D20422C2047806E25D
:20058700F58222AD82AE83AFF08D828E838FF01276FDFC700122BC25028003020814C203C0
:2005A700C202C201C2000DBD00010E8D828E838FF01276FDFBBB6802800CBB6C10D2000D2C
:2005C700BD000A0E8007D2020DBD00010E8D828E838FF01276FDFBBB63028030BB6402807B
:2005E70018BB6F02802BBB7302800ABB7502800EBB78238010D201801D75080A8018750899
:200607000AD2038011750810D203800A7508008005750808D203300171A8811818E624FD19
:20062700FBA8811818A6038B01870909870A09870B1919C005C006C007AA09AB0AAF0B8A35
:20064700828B838FF01276FDD007D006D0057003020825C005C006C007AA09AB0AAF0B8ADD
:20066700828B838FF01276FDFA0509E4B50902050A8A82C007C006C005120527D005D006DD
:20068700D007D007D006D00580A930036D300026A8811818E624FCFBA8811818A6038B01F3
:2006A7007801E7F209E708F209E708F209E708F219191902077230021DA8811818E614F9C2
:2006C700A8811818A60187037801EBF208E4F208F208F2020772A8811818E624FEFBA88161
:2006E7001818A6038B018702098703197801EAF208EBF208E4F208F28071300025A88118C0
:2007070018E624FCFBA8811818A6038B017801E7F209E708F209E708F209E708F2191919D0
:200727008049300221A8811818E614FBA8811818A6038B0187037801EBF2EB3395E008F24D
:2007470008F208F28025A8811818E624FEFBA8811818A6038B018702098703197801EAF285
:2007670008EBF2EB3395E008F208F2E50870030207FE300333900697747AF0E4A3F0744003
:20078700A3F090069AE508F07801E2F58208E2F58308E2F5F008E2C007C006C005126B3DB9
:2007A700D005D006D00780319006C0747AF0E4A3F07440A3F09006C3E508F07801E2F58205
:2007C70008E2F58308E2F5F008E2C007C006C005126C53D005D006D007797AE7FB603F8B53
:2007E70082C007C006C005C001120527D001D005D006D0070980E47801E2F582C007C00600
:20080700C005120527D005D006D00780118C82C007C006C005120527D005D006D0070DBDD1
:2008270000010E020590E58124FCFFC007E58124FBF886820886830886F012058A15812252
:20084700AF827E007D00AB0CAC0D8F021FEA603B8B828C83E0FAA3AB82AC83ED2DF9ED309B
:20086700E714890009E89078A0936EFDE99078A093F86AFE80D4890009E89077A093F86E64
:1B088700FDE99077A093F96AFE80BF8D07E4FDFCEE4205EC42078D828F832278
:2077A0000000102120423063408450A560C670E781089129A14AB16BC18CD1ADE1CEF1EFC9
:2077C000123102103273225252B5429472F762D693398318B37BA35AD3BDC39CF3FFE3DE89
:2077E000246234430420140164E674C744A45485A56AB54B85289509E5EEF5CFC5ACD58D49
:20780000365326721611063076D766F6569546B4B75BA77A97198738F7DFE7FED79DC7BC08
:2078200048C458E5688678A70840186128023823C9CCD9EDE98EF9AF89489969A90AB92BC8
:207840005AF54AD47AB76A961A710A503A332A12DBFDCBDCFBBFEB9E9B798B58BB3BAB1A88
:207860006CA67C874CE45CC52C223C030C601C41EDAEFD8FCDECDDCDAD2ABD0B8D689D4948
:207880007E976EB65ED54EF43E132E321E510E70FF9FEFBEDFDDCFFCBF1BAF3A9F598F7808
:2078A000918881A9B1CAA1EBD10CC12DF14EE16F108000A130C220E35004402570466067C8
:2078C00083B99398A3FBB3DAC33DD31CE37FF35E02B1129022F332D2423552146277725688
:2078E000B5EAA5CB95A88589F56EE54FD52CC50D34E224C314A00481746664475424440548
:20790000A7DBB7FA879997B8E75FF77EC71DD73C26D336F2069116B0665776764615563407
:20792000D94CC96DF90EE92F99C889E9B98AA9AB584448657806682718C008E1388228A3C7
:20794000CB7DDB5CEB3FFB1E8BF99BD8ABBBBB9A4A755A546A377A160AF11AD02AB33A9287
:20796000FD2EED0FDD6CCD4DBDAAAD8B9DE88DC97C266C075C644C453CA22C831CE00CC147
:20798000EF1FFF3ECF5DDF7CAF9BBFBA8FD99FF86E177E364E555E742E933EB20ED11EF007
:2008A200AF829002CDE0F5759000BF74FFF0A3F07406257524CCF582E43402F583EFF074B7
:2008C200072575FF7D01C3ED9F505AED24CCF582E43402F583E0FC9000BFE0FAA3E0FB8A0C
:2008E20000E86CF576C454F062768B027B00A87679008806E46202EE6203E9C40354F8C8CB
:20090200C403C868C854F8C868F9E86202E96203E576C4540FFE7C009000BFEE6AF0EC6B1D
:20092200A3F00D80A17406257524CCFEE43402FF9000BFE0FCA3E0FD8C028E828F83EAF0A4
:200942007407257524CCF582E43402F5838D04ECF0229002CC74FEF09002CD7409F07807ED
:20096200E2FF780704F29002CEEFF09002CF7433F09002D07444F09002D1746DF07890E2C0
:20098200FE08E2FF9002D2EEF0EFA3F0789AE2FE08E2FF9002D475F000EE127042A3EF12AE
:2009A20070421259EAAF829002D875F000EF127042789EE2FF9002D675F000EF127042788C
:2009C200A2E2FF9002D775F000EF127042789FE2FF9002D975F000EF12704278A3E2FF900A
:2009E20002DA75F000EF1270427582B91208A21256A4AE82AF83C3EE9411EF9400500122DB
:0B0A020078B87411F29002CC02556C21
:200A0D00AE82AF83A3E0FDBD09178E828F83E0FCBCFE0E74052EFBE43FFC8B828C83E06027
:200A2D0038ED24F640358E828F83E0FDBDFD2C74072EFCE43FFD8C828D83E0701E74082E15
:200A4D00FCE43FFD8C828D83E0701074092EFEE43FFF8E828F83E07002D20A22E5829002B9
:200A6D00BBF09002B9E4F0780AF212599685820E85830F9002BBE0FDC3E50E9408E50F94FA
:200A8D00005003020BDE900000C0051257D1858210D00575110874FEB51002800E74FDB515
:200AAD00100280079002B9E0F5822274FDB5101BE5112404F511900002C0051257D1E5825F
:200ACD00D00530E006740D2511F511900001C0051257D1858210D00585111275130074FF42
:200AED00C39512FAE49513FF851014751500C3E5149AE51564808FF063F08095F040030277
:200B0D000BDEE5122514FEE5133515FF8D027B009002B9E0F516C005AC167D00EAC39CFAE9
:200B2D00EB9DFBC3EA9EEB64808FF063F08095F0D0055003020BDEE5122514FEE5133515B1
:200B4D00FFC3E50E9EE50F9F5003020BDEE5112510F510E51624BDFEE43401FF78B9E5101C
:200B6D00F28E828F83C00512581B9002B9E0FF7810E22FFC08E23400FE7B00EF24BDFFE401
:200B8D003401FA9006D9EFF0EAA3F0E4A3F09006DCE510F0E4A3F08C828E838BF0126FA24C
:200BAD009002B9E0FF7810E22FFF08E23400FE8F828E83120A0DD0059002B9E02510F0AC2E
:200BCD00107F00E50EC39CF50EE50F9FF50F020A859002B9E0F58222AF83E5829002C0F05D
:200BED00EFA3F0126196E58260569002BDE0FEA3E0FF9002BFE0FD9002C0E0FBA3E0FC9027
:200C0D000663EDF0900664EBF0ECA3F090066674BCF07402A3F0E4A3F08E828F83126319E1
:200C2D00E582601574A0C0E07479C0E07480C0E01246D11581158115819002BCE0F5822244
:200C4D009002C0E0FEA3E0FF7D009002BDE0FBA3E0FC8B178C188D199002BFE0F9F87C0025
:200C6D009006D9E517F0E518A3F0E519A3F09006DCE8F0ECA3F08E828F838DF0C001126F41
:200C8D00A2D001898222AF82C007126196E582D0076017EF24EF400475820022EF24DF4060
:200CAD00027F0FEF24E050027F1F200903020D6B9002B9E0FE8E1A751B00EF24DF50027FEA
:200CCD00208F027B00C3EA951AEB951B506EAB1A9002B9EBC39FF09002C2E0FAA3E0FB909D
:200CED0002BD74BDF07401A3F09002BFEFF08A828B83C007120BE5AB82D0078B1A751B00B3
:200D0D00EF24BDFAE43401FB8A1D8B1E751F009002B9E0FC7D009006D9E51DF0E51EA3F069
:200D2D00E51FA3F09006DCECF0EDA3F09001BD75F000126FA2D206AC1A8C8222C209D206FA
:200D4D009002C2E0FCA3E0FD9002BD74BDF07401A3F09002BFEEF08C828D83020BE5C20657
:200D6D00C00712599685821A85831BD0073008309002B9E0FEC3EF9E500475820022D2055E
:200D8D00C2089002C2E0FCA3E0FD9002BD74BDF07401A3F09002BFEEF08C828D83020BE515
:200DAD00C2058F057E00C3ED951AEE951B50048D1A8E1B9002B9E4F0E51A451B7003F58244
:200DCD002290059BE07045E51A451B603B9002C2E0FDA3E0FEAC1A78B9ECF28D828E83C0BE
:200DED000412581BD00450209002B9ECF09002C2E0FDA3E0FE9002BDEDF0EEA3F09002BF42
:200E0D00ECF09001BD020BE575820022780AE2B401028003020EA17401B51A06E4B51B0241
:200E2D008002806C125CC1AD82AE83780BD3E29DF4B3FDB308E29EF4FE780DC3E29D08E251
:200E4D009E50499002B9E0FE04F0EE24BDFEE43401FDC006C005125707AC82D005D0068EEC
:200E6D00828D83ECF0780AE4F29002C2E0FDA3E0FE9002B9E0FC9002BD74BDF07401A3F04E
:200E8D009002BFECF08D828E83020BE575820022780AE4F2780AE27003020F26780AE2FD26
:200EAD007E00C3E51A9DE51B9E505A125CC1AD82AE83780BD3E29DF4B3FDB308E29EF4FECB
:200ECD00780DC3E29D08E29E5037AC1A78B9ECF29001BDC00412581BD0049002B9ECF07850
:200EED000AE4F29002C2E0FDA3E0FE9002BD74BDF07401A3F09002BFECF08D828E83020B81
:200F0D00E5758200229002C2E0FDA3E0FE7810EDF208EEF28F82020A69E51A451B7003026B
:200F2D00110D900000C0071257D185821CD00774FEB51C02800A74FDB51C0280030210DB78
:200F4D007401B51A06E4B51B028002802F9002B9E0600302110D780A7401F2125CC1E58226
:200F6D008583F0780BF208E5F0F27808E2FC08E2FD780DECF208EDF275820022900001C02F
:200F8D00071257D1AD82D007780AEDF2BDE60050208D037C0074192BFBE43CFC780FE2FA4B
:200FAD007E00C3EA9BEE64808CF063F08095F05036780AE4F29002B9E0FE04F0EE24BDFEF0
:200FCD00E43401FCC007C006C004125707AB82D004D006D0078E828C83EBF0151A74FFB52F
:200FED001A02151B020F2674082DFE780AF274FDB51C25780A74042EF2C37402951AE49564
:20100D001B5015900002C0071257D1E582D00730E006780AE2240DF29002B9E06056125C86
:20102D00C1E5828583F0780BF208E5F0F2780AE2FD7E0078089006E4E2F008E2A3F08D8208
:20104D008E8312708DE5828583F0780DF208E5F0F29002C2E0FDA3E0FE9002B9E0FC900253
:20106D00BD74BDF07401A3F09002BFECF08D828E83020BE5780AE2FD7E00C3E51A9DE51B00
:20108D009E5037125CC1E5828583F0780BF208E5F0F2780AE2FD7E0078089006E4E2F00899
:2010AD00E2A3F08D828E8312708DE5828583F0780DF208E5F0F2758200229002C2E0FDA3ED
:2010CD00E0FE7810EDF208EEF28F82020A699002B9E0FE04F0EE24BDFEE43401FDC007C0C9
:2010ED0006C005125707AC82D005D006D0078E828D83ECF0151A74FFB51A02151B020F2622
:20110D009002C2E0FEA3E0FF9002B9E0FD9002BD74BDF07401A3F09002BFEDF08E828F831E
:20112D00020BE5A20522A20622D20822E5829002C4F0E0780FF222AF83E5829002C5F0EF2A
:20114D00A3F09002C5E0FEA3E0FF9006CAEEF0EFA3F0E4A3F0A3F090000075F001E4126E14
:20116D003CAC82AD83AEF0FF0CBC00090DBD00050EBE00010F7808ECF208EDF222E5829051
:20118D0002C9F0200B3B9002C7E0FEA3E0FF7D009002C9E0FCFA7B009006D9EEF0EFA3F070
:2011AD00EDA3F09006DCEAF0EBA3F09000C175F000C004126FA2D0049002BAECF0C207C3B3
:2011CD002220073F9002C9E0FF9002BAE0FEEFB506319002C7E0FDA3E0FE9006F9EDF0EE2A
:2011ED00A3F0E4A3F09006FCEFF0E4A3F09000C175F0001272C3E5828583F045F07004C229
:20120D0007D322D207C322AF83E5829002CAF0EFA3F07812C3E2F5F074FC95F050057812B8
:20122D0074FCF29002CAE0FEA3E0FF9006D9EEF0EFA3F0E4A3F078129006DCE2F0E4A3F0F8
:15124D009001BD75F000126FA278129002B9E2F0C205D209224B
:2079A0006572726F72207768696C6520747279696E6720746F20656E63727970742064619A
:0379C000746100EF
:060502009003C9740AF029
:2012620078A0E2FE08E2FF78A3E2FD7C00789FE2FB8B288C2978A2E2FB8B2A8C2B789EE25E
:20128200FB7A00C006C007C005C004C028C029C02AC02BC003C00274C3C0E07479C0E074BE
:2012A20080C0E012082DE58124F3F5817826E2FE7F00C007C0061239D0AC82AD83D006D029
:2012C20007789CE2F52A08E2F52B789AE2F52808E2F5297898E2F52C08E2F52D7896E2F5C9
:2012E2002E08E2F52F7894E2F53008E2F5317890E2F53208E2F5337892E2FA08E2FBC006D9
:20130200C007C004C005C02AC02BC028C029C02CC02DC02EC02FC030C031C032C033C00297
:20132200C00374EFC0E07479C0E07480C0E012082DE58124EBF58178A0E4F208F2229003F5
:20134200C8E0FF30E00302126222AF827E00781D9006E4E2F008E2A3F08F828E8312708DFB
:20136200AE82AF83781BE22EFE08E23F8E82F58322AF827813E2F5347814E2FC08E2FD7805
:2013820031E230E6467401B534107819E2FA08E2FB7814EAF208EBF280467402B534028028
:2013A200057403B5340F78137403F278147401F208E4F2802B7813E4F27830E2FA08E25424
:2013C2001FFB7814EAF208EBF2801578137402F27830E2FA08E2541FFB7814EAF208EBF2F3
:2013E2007813E2B40203EF6004C2138002D213A213920C7813E26002C20D7850E2540270D5
:20140200012278147945D3E29CF4B3F3B308E29DF409F37813E2B5346EC007781BE2FA0846
:20142200E2FB9007017402F0E4A3F08A828B83C003C0021273A2AE82AF83D002D0037845CE
:20144200C3E2F5F0EE95F008E2F5F0EF648063F08095F0D0074030E49AFAE49BFB900701C2
:201462007402F0E4A3F08A828B83C0071273A2AB82AE83D0077845C3E29B08E264808EF007
:2014820063F08095F0504B7E007813E2FA7B00AC347D00C007C006C002C003C004C005748B
:2014A2002EC0E0747AC0E07480C0E012082DE58124F7F5817845E2C0E008E2C0E07441C0BE
:2014C200E0747AC0E07480C0E012082DE58124FBF58122AE82AF83781FC3E29E08E29F508F
:2014E20008781FE4F208F2800A781FE2C39EF208E29FF27814C3E2F5F0EE95F008E2F5F052
:20150200EF95F050030217407813E2FC7D000CBC00010D9006EC7404F0E4A3F08C828D836E
:20152200C007C006127141AC82AD83D006D0077813ECF27814D3E29EF4B3FEB308E29FF430
:20154200FF7813E260067813E2B402107816E2FC08E2FD7814ECF208EDF2800E7819E2FCE3
:2015620008E2FD7814ECF208EDF27813E260067813E2B40125C007C006122DB91231C4D0BB
:2015820006D0077853C3E2F5F0740195F0500B782AE4F208F2782EF208F27813E2600302EC
:2015A2001733C006C0077821E2FC7D007826E2F5358D36ECC39535FEED9536FFBE640ABFD8
:2015C2000007D007D006021733D007D006C006C007C007C006C005C0047822E2C0E008E2B3
:2015E200C0E008E2C0E008E2C0E090333375F073743F126D6B85823785833885F039F53A6F
:20160200E58124FCF581D004D005D006D0077827E2F58208E2F583C005C0041274FDAA82E4
:20162200AB83AEF0FFD004D005C007C006C005C004C002C003C006C00790000075F0A07403
:2016420040126D6B85823B85833C85F03DF53EE58124FCF581D004D005D006D00778197997
:2016620016E3C5F0E225F0FE09E3C5F008E235F0CE25E0CE33FF8E828F83C005C004127411
:20168200FDAA82AB83AEF0FFC002C003C006C007853B82853C83853DF0E53E12763AAA82F9
:2016A200AB83AEF0FFE58124FCF581C002C003C006C0078537828538838539F0E53A12747E
:2016C20013AA82AB83AEF0FFE58124FCF581D004D0057822EAF208EBF208EEF208EFF278B5
:2016E20027E4F208F2ECC39535FCED9536FD8C828D831274B5AC82AD83AEF0FFC007C006E6
:20170200C004C005C006C0077822E2F58208E2F58308E2F5F008E212705DE58124FCF581C8
:20172200D006D007E58224FF9214B39210D007D006C20CC20D781FE4F208F20214F578142D
:20174200E2C39EF208E29FF2227813E2FE7F0074022EFEE43FFF9006EC7404F0E4A3F08E18
:20176200828F83127141AE827813EEF222123605E582FF24EB40057826E4F2221239D0E5B5
:20178200828583F0249CFEE5F034FFFFC3E49E74808FF063F08095F0E433FD700C7826E2E8
:2017A20060077826E214F28037C3740A9E74808FF063F08095F050087826E2240AF2802041
:2017C200C374059E74808FF063F08095F050087826E22405F28009ED60067826E22401F2FC
:2017E2007821E2FE7F007826E2FC7D00EEC39CFEEF9DFFC3EE9414EF6480948050087821EF
:201802007926E224ECF322300F099003C9E4F0C20F80079003C9E02401F09003C9E0FFBF05
:2018220002005004D2958006A20E9295B20EEF24D740030218C09003C97405F0125D17E595
:201842008230E0597814E2FE08E2FF7819C3E29E08E29F5017781BD3E29EF4B3FCB308E25C
:201862009FF4FD7814ECF208EDF2800878147401F208E4F27850E2540260227814E2C0E09C
:2018820008E2C0E0C006C007744DC0E0747AC0E07480C0E012082DE58124F9F5817850E2C2
:2018A200540260157467C0E0747AC0E07480C0E012082D158115811581C21A122E1B9003EB
:2018C200C9E0603D122F42AF827E00789EE29006E4F0E4A3F0900003C007C00612708DACDA
:2018E20082AD83D006D007EC2FFCED3EC313CC13CCC313CC13CCFD789EECF278A0E4F2085C
:20190200F29003C9E0FF24FA50179006D6E4F09006D77404F0E4A3F09000A275F060126F0F
:201922007A78509003C8E2F0D2119003CAE02401F0E0FFBF040812176F9003CAE4F02290DC
:2019420003D175F000127622E5828583F02401FEE435F0FF9006D974D1F07403A3F0E4A3E3
:20196200F09006DCEEF0EFA3F090003475F060126FA2D21222AF82BF02004017EF24EF4066
:20198200129002CCE0FEBE520A9002CDE0FEBE54028002D3229006D974CCF07402A3F0E489
:2019A200A3F09006DCEFF0E4A3F09003D175F000C007126FA2D007EF24D1F582E43403F5D5
:2019C20083E4F09003D17441F0784FEFF2D2179000BC74FCF09002CC1205591225FC120550
:2019E20082E582FF600A7812EFF29002CC121214C322125CC1784AE582F208E583F2784A3F
:201A0200794CE2F308E209F378FF762A78FFB62A0280157476C0E0747AC0E07480C0E01281
:201A220046D1158115811581784EE2B4410280157483C0E0747AC0E07480C0E01246D115A0
:201A420081158115811225FC9003C8E060081213409003C8E4F0300A0E90059BE06008208D
:201A62001605C20A120954122DA91232C5125CC1AA82AB83786774CCF2087402F29000473C
:201A820075F060C003C002122E4BD002D0034003021C5DD20FD21AC003C002122E1B122F1E
:201AA20042AD82D002D0037C00789EE29006E4F0E4A3F0900007C005C004C003C002127092
:201AC2008DAE82AF83D002D003D004D005EE2DFEEF3CC423CEC423541F6ECE541FCE6ECEBB
:201AE200789EEEF278A0E2FE08E2FF0EBE00010F78A0EEF208EFF2781FE4F208F27847E248
:201B0200B402005003021A0E7847E224FC24CCFEE43402FF9006D9EEF0EFA3F0E4A3F090F2
:201B220006DC7404F0E4A3F090003075F060C003C002126FA2D002D0037847E2141414141F
:201B4200F27830E2FE08E2541FFF4E70417847E2603C7847E2B404209006D974CCF07402E3
:201B6200A3F0E4A3F078479006DCE2F0E4A3F09000A275F060126FA278A0E2FE08E2FF1EC6
:201B8200BEFF011F78A0EEF208EFF2021A0E7830E2FE08E2541FFF4E7003021A0E7847E2EB
:201BA200F582C003C002121373D002D003784AEAF208EBF27831E2C4035401FFBF010A787F
:201BC20047E2F58212197740387847E27003021A0E7831E230E503021A0E7831E22354013B
:201BE20024FF920B9002C774CCF07402A3F07847E2F58212118A5003021A0E301603021AEA
:201C02000E750CCC750D027847E2F582120847AE82AF837832E2FC08E2FDEEB50417EFB537
:201C22000513D296784779B7E2F39002CC125452C296021A0E789CE2FE08E2FFBEFF06BF67
:201C4200FF03021A0E789CE2FE08E2FF0EBE00010F789CEEF208EFF2021A0E125CC1AA823B
:201C6200AB83784A7948D3E29AF4B3F3B308E29BF409F37848E2F58208E2F583C003C002A0
:201C82001214D5D002D003784AEAF208EBF2784CD3E29AF4B3FCB308E29BF4FD7E007F0043
:201CA200C3E49C74809DE49E74808FF063F08095F05012C003C002121809D002D003784C7E
:201CC200EAF208EBF27829E27003021D4C122F48AF827829C3E2F5F0EF95F05016782A7906
:201CE20048E3C5F0E225F0F209E3C5F008E235F0F28036782AE4F208F2782EE2F5F008E2F8
:201D020045F07025126CF0AE82AF83782C9006F4E2F008E2A3F08E828F83127216E5828502
:201D220083F0782EF208E5F0F2782C792EE3C5F0E225F0FE09E3C5F008E235F0FF782AC3DB
:201D4200E29E08E29F5003021A0E7813E26011200C03021A0E7813E2B402028003021A0EF2
:201D6200300D03021A0E781FE2F5F008E245F06003021A0E200F05122F2B4005122F125065
:201D820011781BE2FE08E2FF781FEEF208EFF2021A0E122F48AF827E00789FE29006E4F0AF
:201DA200E4A3F0900003C007C00612708DAC82AD83D006D007EC2FFCED3EC313CC13CCC3EA
:201DC20013CC13CCFD789FECF2301003021A0E7814791BC3E3F5F0E295F009E3F5F008E217
:201DE20095F05003021A0E7814791BE3F5F0C3E295F0FE09E3F5F008E295F0FF781D900665
:201E020088E2F008E2A3F08E828F83126962AE82AF83BE14005003021A0EEE24FBFEC00668
:201E2200126196E582D006600CBE10005003021A0EEE24F0FE7818C3E29E50047818E2FE0C
:201E420030125790003475F060C006127622AD82AF83D0068E037C00C3EB9DEC9F403B90C9
:201E6200003475F060C006127622AD827847EDF29006D97434F0E4A3F07460A3F09006DCD3
:201E8200EDF0E4A3F09002CC75F000126FA2D0067831E24420F2C21280559002C274CCF022
:201EA2007402A3F08E82C006120C93AF82D0067847EFF2EF6019C007C006121133D006D0F8
:201EC200079215E433FD783113E292E5F280067831E254DFF2750CCC750D028F82C0061247
:201EE2000847AD82AF83D0067832EDF208EFF278477918C3E2F5F0E395F05019C00674996A
:201F0200C0E0747AC0E07480C0E01246D1158115811581D0067813E2B40203D38001C3926D
:201F220015E433783113E292E6F2C006121130D0069215E433FF783113E292E7F27813E249
:201F420070447847E2703F30113CBE04004037C2119006D9749EF0E4A3F07460A3F090060D
:201F6200DC7404F0E4A3F09002CC75F000126FA278477404F27830E4F208E254E0F278315E
:201F8200E2547FF28077126196E58260487847E2FE7F0074042EFEE43FFFC4CEC4540F6E7E
:201FA200CE540FCE6ECE30E30244F00EEEC454F0F58212134CAE82AF837814E2C39EFE0878
:201FC200E29FFF7830EEF208EF541FF5F0E254E045F0F280287847E22404F58212134CAE64
:201FE20082AF837814E2C39EFE08E29FFF7830EEF208EF541FF5F0E254E045F0F2122D99EA
:202002001232C57847E224CCFEE43402FF7D009006D97430F0E4A3F07460A3F09006DC74C9
:2020220004F0E4A3F08E828F838DF0126FA27847E2600E7830E2FE08E2541FFF4E6002D2FC
:20204200967847E27002D20D781BE2FE08E2FF781FEEF208EFF27821E2FE7F007826E2FCC6
:202062007D00EEC39CFEEF9DFFBE6405BF000280177847E22404F58212134CAE82AF837801
:2020820027E22EF208E23FF27847E22404FF7819E2FD08E2C313CD13CDFE7814E22DFD08B7
:2020A200E23EFE786F74CCF2087402F27871EDF208EEF28F8212318D401A7847E2601578FE
:2020C20030E2FE08E2541FFF4E60097831E220E5031211367829E2600B782AE4F208F27817
:2020E2002EF208F27847E2600E7830E2FE08E2541FFF4E6002C2967816E2FE08E2C313CECD
:2021020013CEFF7814C3E2F5F0EE95F008E2F5F0EF95F05012125AD7500A125B3240081219
:20212200535380F6125353122DA91232C51231C4021A0E122F4EAF829006F0EFF0E4A3F00B
:20214200A3F0A3F09003E8E4F5F01271AAAC82AD83AEF0FF9006CAECF0EDA3F0EEA3F0EFBF
:20216200A3F090120075F07AE4126E3CAC82AD83AEF0FF74082CFCE43DFDE43EFEE43FFFAA
:20218200EDC4CCC4540F6CCC540FCC6CCCFDEEC454F04DFDEFC4CEC4540F6ECE540FCE6E3A
:2021A200CE74012CFEE43DFF781DEEF208EFF29006E4EEF0EFA3F090000DC007C0061270AC
:2021C2008DE5828583F0D006D007240DFCE435F0FD781BECF208EDF230232E78187474F2EE
:2021E200EFCE25E0CE33FF781DEEF208EFF2EFCE25E0CE33CE25E0CE33FFEE2CFCEF3DFDE8
:20220200781BECF208EDF28005781874F8F2781B7919E2F308E2F5F0E325E0C5F033C5F0A3
:20222200F309E5F0F3781D9006F0E2F008E2A3F0E4A3F0A3F07818E2FC7D007E007F008CF0
:20224200828D838EF0EF1271AA85823F85834085F041F542781BE2FA08E2FB7E007F0090F4
:2022620006F0E53F2AF0E5403BA3F0E5413EA3F0E5423FA3F0900003E4F5F01271AAAC828E
:20228200AD83AEF0FF9003CDECF0EDA3F0EEA3F0EFA3F0782C7438F2087401F27829E2601C
:2022A2003A788474A8F2087403F208E4F208F27888ECF208EDF208EEF208EFF28C828D83DB
:2022C2008EF0EF124233AC82AD83AEF0FF9003CDECF0EDA3F0EEA3F0EFA3F09003CDE0FC12
:2022E200A3E0FDA3E0FEA3E0FFC3EC94A8ED9461EE9400EF9400401B7853C3E2F5F0740162
:2023020095F0500F9003CD74A8F07461A3F0E4A3F0A3F075820F123E93AC82AD83AEF0FF15
:202322009006F0ECF0EDA3F0EEA3F0EFA3F090003EE4F5F01271AA85823F85834085F041AE
:20234200F5429003CDE0FAA3E0FBA3E0FEA3E0FFC3E53F9AE5409BE5419EE5429F503975C0
:20236200820F123E93AC82AD83AEF0FF9006F0ECF0EDA3F0EEA3F0EFA3F090003EE4F5F070
:202382001271AAAC82AD83AEF0FF9003CDECF0EDA3F0EEA3F0EFA3F09003CDE0FCA3E0FD98
:2023A200A3E0FEA3E0FFC374FF9C741F9DE49EE49F500F9003CD74FFF0741FA3F0E4A3F052
:2023C200A3F09003CDE0FCA3E0FDA3E0A3E07816ECF208EDF27866E27E0024F6FFEE34FFDB
:2023E200FE9007017402F0E4A3F08F828E83C005C0041273A2AE82AF83781D9006E4E2F053
:2024020008E2A3F08E828F8312708DAE82AF83D004D005781BE22EF208E23FF2781BD3E209
:202422009CF4B3FCB308E29DF4FD781D900688E2F008E2A3F08C828D83126962AE82AF83D1
:202442009003CBEEF0EFA3F07818E2FC7D00C3EC9EED9F50089003CBECF0EDA3F09003CB88
:20246200E0FEA3E08E820211397819E2C0E008E2C0E074AEC0E0747AC0E07480C0E0120802
:202482002DE58124FBF581900001125C507816E2C0E008E2C0E074C2C0E0747AC0E07480D1
:2024A200C0E012082DE58124FBF581900001125C507818E2FE7F00C006C00774D7C0E0740E
:1624C2007AC0E07480C0E012082DE58124FBF581900001025C50D5
:2079C3004C2F5220525353493A2025752F257520204C2F52206E6F6973653A2025752F2526
:2079E3007520706B74733A2025752000207478653D2575207278653D2575207374783D25AA
:207A030075207372783D2575206563633D25752F257520637263653D25752074656D703D08
:207A230025642064636F3D25750A0054444D3A2025752F2575206C656E3D25752000206407
:207A4300656C74613A2025640A0054444D3A206368616E67652074696D696E672025752F5A
:207A630025750A0054444D3A207363616E6E696E670A00737461636B20626C6F776E0A0063
:207A830070646174612063616E617279206368616E6765640A006F76657273697A6564204C
:207AA30074646D207061636B65740073696C656E63655F706572696F643A2025750A0074AF
:207AC300785F77696E646F775F77696474683A2025750A006D61785F646174615F706163E5
:107AE3006B65745F6C656E6774683A2025750A0070
:0A050800784E7441F278527464F2E8
:2024D800AF828F06BE08028021BE0D028005BE7F36801775820A125A2A784FE224D1F582AD
:2024F800E43403F583E4F0D21722784FE26066758208125A2A758220125A2A758208125A36
:202518002A784FE214F222784FE2B4100050408F057E008D828E83C006C0051274C2E5823F
:202538008583F0D005D00645F0602A8D828E83127587AD828D07784FE2FE784F04F2EE24BA
:20255800D1F582E43403F583EFF08F82025A2AC216784FE4F222AF82BF2B0280047851E42D
:20257800F27851C3E2F5F0740495F0402C7851E275F003A4902590730225B502259F02255D
:202598009F0225A60225B57851E22401F22278517404F278527464F2227851E4F278527431
:2025B80064F2227852E2603B7852E214F27852E270317851E260087851E2B40426800678AB
:2025D800517401F222D2167851E4F29003D17441F09003D27454F09003D3E4F0784F7402E5
:2025F800F2D2172220170122784FE2B40200E433FF701A9003D1E0FEBE52129003D2E0FEC6
:20261800BE540A121941784FE4F2C21722EF60030226949003D1E0FFBF41619003D2E0FF8C
:20263800BF54599003D3E0FF6023BF26028023BF2B028023BF49028023BF4F028028BF50C1
:2026580002801EBF53028027BF5A2E802712269B802A1229DC8025122AE380201228348033
:202678001B122AE0801678527464F2C216800D122935800843EF1080FE1226BD784FE4F232
:20269800C2172274F7C0E0747AC0E07480C0E074F3C0E0747AC0E07480C0E012082DE58124
:2026B80024FAF5812274FAC0E0747AC0E07480C0E074F3C0E0747AC0E07480C0E012082DAC
:2026D800E58124FAF58122E5812404F5819003E3E4F0A3F0A3F0A3F09003E2E024D1F582FE
:2026F800E43403F583E0FFFD7E008D828E83C007127016E5828583F0D00745F0606E90038A
:20271800E3E0FBA3E0FCA3E0FDA3E0FE9006F0EBF0ECA3F0EDA3F0EEA3F090000AE4F5F01F
:20273800C0071271AAC8E58124FCC8A68208A68308A6F008F6D0077A00EF24D0FFEA34FF32
:20275800FA8F053395E0FEFFE58124FDF89003E3ED26F0EA0836A3F0EE0836A3F0EF08368F
:20277800A3F09003E2E02401F00226F0E58124FCF58122E5829003ECF0E0F5449003E7E0C5
:20279800FE754300C3E5439E400122C006C0061227AC800E9003EAE0C0E0A3E0C0E0854398
:2027B8008222A982AA83ABF0FCD006C006C004C003C002C0011227D2800E9003E8E0C0E034
:2027D800A3E0C0E08543822285824585834685F047D001D002D003D004D006AE437F00E587
:2027F80044F83395E0FDC006C001C002C003C004C045C046C047C006C007C000C005740078
:20281800C0E0747BC0E07480C0E012082DE58124F2F581D0060543D00602279C9003D4E0A4
:20283800FF6030BF3002802BBF31028048BF32028065BF33030228CCBF34030228ECBF35D8
:202858000302290CBF360302292CBF370302292F0229327440C0E0747FC0E07480C0E07438
:20287800F3C0E0747AC0E07480C0E012082DE58124FAF581227457C0E0747FC0E07480C076
:20289800E074F3C0E0747AC0E07480C0E012082DE58124FAF581227443C0E0E4C0E0740D58
:2028B800C0E0747BC0E07480C0E012082DE58124FBF58122788EE2FE7F00C006C007740D66
:2028D800C0E0747BC0E07480C0E012082DE58124FBF58122788FE2FE7F00C006C007740D45
:2028F800C0E0747BC0E07480C0E012082DE58124FBF581229003E77411F09003E87404F0C7
:202918007442A3F09003EA7493F0743EA3F075825302278B02246B0212620226BD9003E23E
:202938007403F01226DF9003E3E0FCA3E0FDA3E0FEA3E0FFBC110040030226BD9003E2E0E2
:20295800FF24D1F582E43403F583E0FEBE3D02803BBE3F6D8C82123E93AA82AB83ADF0FE7B
:202978009003E3EAF0EBA3F0EDA3F0EEA3F0C002C003C005C0067411C0E0747BC0E07480B8
:20299800C0E012082DE58124F9F58122EC60329003E2EF04F0C0041226DFD0049003E3E042
:2029B800FBA3E0FDA3E0FEA3E0FF7880EBF208EDF208EEF208EFF28C82123D2F50030226ED
:2029D8009B0226BD9003D4E0FFBF4503022AC2BF46028017BF50028058BF54028056BF559E
:2029F800028014BF57028009022ADD12416A02269B12410D02269B9006E67416F0747BA354
:202A1800F07480A3F09003D575F0001270ADE5828583F045F0701775B7A575B7F1758F031B
:202A380090F7FE74FFF0758F0043EF1080FE0226BD02174B9006E6741CF0747BA3F0748017
:202A5800A3F09003D575F0001270ADE5828583F045F070057850E4F2229006E6741DF07495
:202A78007BA3F07480A3F09003D575F0001270ADE5828583F045F070077850E26401F2227F
:202A98009006E67423F0747BA3F07480A3F09003D575F0001270ADE5828583F045F070070B
:202AB8007850E26402F2220226BD9003D5E0FFBF3D028006BF3F0E0245AB9003D61244DF8E
:202AD800500302269B0226BD0226BD9003E27404F01226DF9003E3E0FCA3E0FDA3E0FEA314
:202AF800E09003D4E0FFBF4103022C28BF43028040BF4603022BCABF4C03022C1ABF500215
:202B18008003022C649003D5E0FFBF3D028003022C649003E27405F01226DF9003E3E0FBE8
:202B3800A3E0A3E0A3E08BFC758201123A2C02269B9003E2E0FF24D1F582E43403F583E007
:202B5800FEBE3D028041BE3F028003022C648C82124302AE827D007B007A009003E3EEF032
:202B7800EDA3F0EBA3F0EAA3F0C006C005C003C0027411C0E0747BC0E07480C0E012082D23
:202B9800E58124F9F581229003E2EF04F0C0041226DFD0049003E3E0FBA3E0A3E0A3E0C061
:202BB800038C821242B815819218500302269B0226BD9003E2E024D1F582E43403F583E071
:202BD800FFBF3F028003022C648C8212433BAF827E007D007C009003E3EFF0EEA3F0EDA31D
:202BF800F0ECA3F0C007C006C005C0047411C0E0747BC0E07480C0E012082DE58124F9F531
:202C1800812212434E500512269B80030226BD229003D5E0FFBF3D349003E27405F0122617
:202C3800DF9003E3E0FCA3E0FDA3E0FEA3E0FFBC0111BD000EBE000BBF0008758202123A5A
:0F2C58002C8006758203123A2C02269B0226BDA1
:207AF30025730A004F4B004552524F5200256325753A25733D256C750A0025750A00256C37
:157B1300750A00504441544500003D52535349003D54444D00D0
:202C6700AF83E582900420F0EFA3F0900420E0FEA3E0FF90041FE0FD7C008D027B001ABA90
:202C8700FF011B8C007900C3E89AE964808BF063F08095F05046C007C006C005C004126CFE
:202CA700F0AA82D004D005D006D0078DF0EA84E5F02EFAE43FFB8A828B83E0F548C005ECAD
:202CC7002EF8E43FFD88828D83E0F98A828B83F088828D83E548F00CD005809E2275820358
:202CE700123E93126D4A758210123E93AC82AD83AEF0FFEC4D4E4F601412463B85820C85C7
:202D0700830D758220120847AF83026D4A227F007853C3E2F5F0EF95F0500FEF24EDF58279
:202D2700E43403F583EFF00F80E6122CE47853E2FF7E008F047D001CBCFF011D8E027B0049
:202D4700C3EA9CEB64808DF063F08095F05042C007C006126CF0AC82D006D0078FF0EC8428
:202D6700E5F024EDFCE43403FD8C828D83E0F549C007EE24EDFAE43403FF8A828F83E0FB43
:202D87008C828D83F08A828F83E549F00ED00780A2227854E224EDF582E43403F583E0F51B
:202DA70082227855E224EDF582E43403F583E0F582227854E2FE7F000EBE00010F7853E271
:202DC700FC7D009006ECECF0EDA3F08E828F83C005C004127141AE82AF83D004D00578544F
:202DE700EEF230190778547955E2F3227854E270227855E2FE7F000EBE00010F9006ECEC55
:202E0700F0EDA3F08E828F83127141AE82AF837855EEF222A21A9219500778557954E2F3F7
:202E2700227855E2FE7F000EBE00010F78539006ECE2F0E4A3F08E828F83127141AE82783D
:042E470055EEF22230
:202E4B00AFF0AE83E582900520F0EEA3F0EFA3F0201B02C3227856C3E2F5F074FC95F050C9
:202E6B00051231C48045900520E0FDA3E0FEA3E0FF8D828E838FF07856E21270427867E20D
:202E8B00FD08E2FE7F009006D97424F07404A3F0E4A3F078569006DCE2F0E4A3F08D828E24
:202EAB00838FF0126FA21231C4D3227890E2FE08E2FFBEFF05BFFF02800C0EBE00010F78B3
:202ECB0090EEF208EFF2C322AF8275A700C294C2B77586FF7869E2FD08E2FE8F041FEC60ED
:202EEB001130B1FD8D828E83E0F586A3AD82AE8380E930B1FD74805584FFBF800280F6C2CE
:202F0B00B7D29475A70022201B057857E26002D322758231123698E58230E402D322C322A4
:202F2B00A2A8921DC2A8101C028006A21D92A8D322A21D92A8C3227858E2F582227582263B
:202F4B000236987863E2F58222758208123698AF8274014FFEC007C0067582081236621523
:202F6B0081D0075307FEC007758208123662158122758208123698AF8274024FFEC007C014
:202F8B00067582081236621581D0075307FDC007758208123662158122E582FF2403501995
:202FAB00C0077428C0E0747BC0E07480C0E01246D1158115811581D007C007122F54D007EB
:202FCB00C007C00775823E1236621581D007EFFE24DF50027E20786B7969E2F308E209F3AC
:202FEB008E82C007C006122ED3D006D007EFC39EFF786BE22EF208E23400F2C007E4C0E0DA
:20300B007582051236621581E4C0E07582061236621581C21CC21E7409C0E0758207123687
:20302B00621581125CC1AC82AD83D007C007C005C004125CC1AA82AB83D004D005D007EAE6
:20304B00C39CFAEB9DFB786DC3E2F5F0EA95F008E2F5F0EB95F04003023170758203C007C5
:20306B00C005C004123698AB82D004D005D007301E40EF603DEB30E5397E04BF0400500245
:20308B008F06786B7969E2F308E209F38E82C007C006C005C004122ED3D004D005D006D088
:2030AB0007EFC39EFF786BE22EF208E23400F2023037301E40EF603DEB20E6397E04BF04C8
:2030CB000050028F06786B7969E2F308E209F38E82C007C006C005C004122ED3D004D0059C
:2030EB00D006D007EFC39EFF786BE22EF208E23400F2023037EB30E720122F547892E2FACE
:20310B0008E2FEBAFF05BEFF02800C0ABA00010E7892EAF208EEF2C322758202C007C005A8
:20312B00C004123698AB82D004D005D007EB30E105D21E023037201E03023037EB30E10330
:20314B00023037EF601D7892E2FE08E2FFBEFF05BFFF02800C0EBE00010F7892EEF208EFF1
:20316B00F2C322D3227892E2FE08E2FFBEFF05BFFF02800C0EBE00010F7892EEF208EFF2E8
:20318B00C322E582900523F0A2A89220C2A8D2A5900523E0FF786F796BE2F308E209F378BE
:2031AB0071796DE2F308E209F38F82122FA4921FC2A5A22092A8A21F22C2A8C21B7856E40C
:2031CB00F2C21C7857E4F27413C0E075820512366215817440C0E075820612366215811269
:2031EB00370C122F54122F7C7405C0E07582071236621581D2A8D322900032125C507582F2
:20320B0001123698AF82BFFF028005BF05005002C32212376C758201123698E582FF20E05E
:20322B000612376C922122EF30E102D322C322AC82AD83AEF0FFC3ED941CEE944EEF940E5B
:20324B00400E74C09C74F79D74BA9E74379F5002C322785BECF208EDF208EEF208EFF28CFB
:20326B00828D838EF0EF1237D8D322AC82AD83AEF0FFC374F09C74E89D74269EE49F50026A
:20328B00C32278737410F2087427F208E4F208F28C828D838EF0EF123718AC82AD83AEF088
:2032AB00FF785FECF208EDF208EEF208EFF2C00475827A1236621581D322E582900524F01D
:2032CB007864E2FFE0FEB50701227864EEF2C0067582791236621581C21C227864E2F58202
:2032EB0022AF82C007E4C0E07582051236621581E4C0E0758206123662158112370C74154A
:20330B00C0E075820B12366215817412C0E075820C1236621581758200123A2C74B6C0E01E
:20332B007582091236621581D007EF249B5010C00774C0C0E07582581236621581D00778E4
:20334B005BE2FB08E2FC08E2FD08E28B828C838DF0C0071237D8785FE2FB08E208E208E280
:20336B00C00375827A1236621581D007302329C0077488C0E075823012366215817402C07B
:20338B00E07582331236621581E4C0E07582321236621581D0078040C007748DC0E07582F5
:2033AB003012366215817422C0E07582331236621581740CC0E0758232123662158174FFF6
:2033CB00C0E0758243123662158174FFC0E07582441236621581D007C007743CC0E0758255
:2033EB007C12366215817420C0E075827D12366215817432C0E075827E1236621581786645
:20340B007410F27866E2FEC00675823412366215817428C0E075823512366215817582009D
:20342B001235C5D0077E00EE907B4593FDC39F50060EBE0C0040F0EEFF907B4593FE7863E9
:20344B00F2BE200040047E0D80027E2D75820DC007C006123E93AA82AB83ACF0FDD006D088
:20346B0007EA4B4C4D600B7863E2FD247F4003430602C007C006758270123662158174234B
:20348B00C0E075827112366215817444C0E075821D1236621581D0077863E2FEBEC80050C5
:2034AB0012C007740AC0E075821E1236621581D0078010C0077402C0E075821E123662159D
:2034CB0081D007788EE2B4433A7E00EE75F00DA42452FC747B35F0FDEF2CF582E43DF58340
:2034EB00E493FDEE907B3993FCC007C006C0058C821236621581D006D0070EBE0C0040CB5C
:20350B000235C3788EE2B447397E00EE75F00DA424EEFC747B35F0FDEF2CF582E43DF583BE
:20352B00E493FDEE907B3993FCC007C006C0058C821236621581D006D0070EBE0C0040CB1B
:20354B008076788EE2B486397E00EE75F00DA4248AFC747C35F0FDEF2CF582E43DF583E4C2
:20356B0093FDEE907B3993FCC007C006C0058C821236621581D006D0070EBE0C0040CB803F
:20358B00377E00EE75F00DA42426FC747D35F0FDEF2CF582E43DF583E493FDEE907B3993AA
:2035AB00FCC007C006C0058C821236621581D006D0070EBE0C0040CBD322E582900525F0CE
:2035CB007406C0E075826D1236621581900525E0FFF582C007124302AE82D007BEFF0280AE
:2035EB00078EFC7865EFF222EFC313FF907DC293F5FCEF2FFF7865EFF2227865E2F58222E3
:20360B00AF83E582900526F0EFA3F0900526E0FEA3E0FF8E047859ECF28F05785AEDF22018
:20362B002334C007C006C005C00575823A1236621581D005D006D007C006C005C0067582D6
:20364B003B123662158175823F1236621581758240123662158122AF82A2A89238C2A875B1
:20366B00A700C294C2B774804FF58630B1FDA8811818868630B1FD74805584FFBF8002805D
:20368B00F6C2B7D29475A700A23892A822AF82A2A89238C2A875A700C294C2B78F8630B168
:2036AB00FD75860030B1FD74805584FFBF800280F6AF86C2B7D29475A700A23892A88F8251
:2036CB0022AF8275A700C294C2B775867F30B7FD8586E0E58124FDF886050886068F041F08
:2036EB00EC6016C2B775860030B7FD8D828E83E586F0A3AD82AE8380E4C2B7D29475A70028
:20370B0022758203123698758204023698AF82AE83ADF0FC7877EFF208EEF208EDF208EC49
:20372B00F27876E2C313FF18E213FE18E213FB18E213FA7877E22AFA08E23BFB08E23EFE92
:20374B0008E23FFF78739006CAE2F008E2A3F008E2A3F008E2A3F08A828B838EF0EF026EAB
:20376B003CE4C0E07582051236621581E4C0E0758206123662158112370C7481C0E07582A0
:20378B00071236621581900002125C17308707125C4850F8C322E4C0E075820512366215E0
:2037AB00817402C0E07582061236621581900014125C17125C484013758203123698758227
:2037CB0004123698E58230E1EAD322C322AF82AE83ADF0FC787BEFF208EEF208EDF208EC2C
:2037EB00F2787BC3E2F5F0E495F008E2F5F0743895F008E2F5F0749C95F008E2F5F0741C23
:20380B0095F040030238CD787CE224C8F208E23463F208E234E3F29006CAE4F0742DA3F04C
:20382B007431A3F07401A3F0787BE2F58208E2F58308E2F5F008E2126E3CAA82900528EA47
:20384B00F09006F0EAF0E4A3F0A3F0A3F0902D0075F03174011271AAAC82AD83AEF0FF7808
:20386B007BE2C39CF208E29DF208E29EF208E29FF278737471F2087402F208E4F208F2789F
:20388B007BE2F58208E2F58308E2F5F008E2123718787BC0E0E582F208E583F208E5F0F2B0
:2038AB00D0E008F2787BE225E0F208E233F208E233F208E233F2900528E0FF74204FF002E9
:2038CB00398E787CE224E4F208E234B1F208E234F1F29006CA7480F07496A3F07498A3F004
:2038EB00E4A3F0787BE2F58208E2F58308E2F5F008E2126E3CAC82900528ECF09006F0ECEA
:20390B00F0E4A3F0A3F0A3F090968075F098E41271AAAC82AD83AEF0FF787BE2C39CF20832
:20392B00E29DF208E29EF208E29FF278737471F2087402F208E4F208F2787BE2F58208E2D6
:20394B00F58308E2F5F008E2123718787BC0E0E582F208E583F208E5F0F2D0E008F2787B10
:20396B00E225E0F208E233F208E233F208E233F2181818E225E0F208E233F208E233F208EF
:20398B00E233F2900528E0FF74404FF0787BE2FC08E2FDC005C004E0C0E0758275123662AF
:2039AB001581D004D0058D07C005C004C0077582761236621581D004D005C004758277123F
:2039CB00366215812275A70FAE86E4CE25E0CE33CE25E0CE33FFE58523235403FD7C0042E0
:2039EB0006EC420775A700D2EC20ECFDADBE7C00AABD7B00EA4204EB4205ECC39EFEED9F9C
:203A0B00FF9007017402F0E4A3F08E828F831273A2E5828583F02421FCE435F08C82F583AF
:203A2B0022E582900529F0E0FF24FC4068EF2F2F903A3F73023A4B023AA0023AA0023A70E9
:203A4B007418C0E075820D1236621581758208123698AF82741F5F4480FFC007758208124E
:203A6B003662158122758208123698AF82741F5F4420FFC0077582081236621581740AC042
:203A8B00E075820D1236621581E4C0E075820E123662158122758208123698AF8253071F83
:203AAB00C0077582081236621581740AC0E075820D12366215817404C0E075820E123662CC
:203ACB00158122C027C0E0C0F0C082C083C007C006C005C004C003C002C001C000C0D07546
:203AEB00D000758204123698AF82758203C007123698AE82D007EE30E4497857E2FC7D00C2
:203B0B0074322CFCE43DFDC374FC9CE49D5003023BD97857E22424FCE43404FDC007C0065A
:203B2B00C004C0057582321236CC158115817857E22432F2758226123698E582D006D0077E
:203B4B007858F2EF30E611D21C758226C006123698E582D0067858F2202304EE20E06FEE40
:203B6B0030E16975824B123698E582FF2403405E7857C3E2F5F0EF95F040537857C3E29F00
:203B8B0050227857E22424FDE43404FE7857D3E29FF4FCC007C005C0068C821236CC15817B
:203BAB001581D0077856EFF2D21BE4C0E07582051236621581E4C0E0758206123662158170
:203BCB007402C0E07582071236621581801E7890E2FE08E2FFBEFF05BFFF02800C0EBE003D
:203BEB00010F7890EEF208EFF21231C4D0D0D000D001D002D003D004D005D006D007D08343
:093C0B00D082D0F0D0E0D02732C5
:207B28006F76657273697A6564207061636B6574001C1F2021222324252A6E6F7202040839
:207B48001013182030406080C0FA2727272E1601050B9A888A8C8D0303030303030303030E
:207B680003030303F4FA7D3F69A77D535E7D5E3F30200001020100010101010102024183CE
:207B8800060C37C406895D065D0CAA8912254A4C9C25378625864AAB000102040201020348
:207BA800020202040785080E12728A0E18BB0EBBEAFF1D1D1D1E1E1E2030415050505010DE
:207BC8002041839BC4080C101820314062C58912A69C314A6293C5270003060D1A1E263386
:207BE8004D669ACDFEFE2B2B2B2E1601050B9A888A8C8D03030303030303030303030303A5
:207C0800F4FA7D3F69A77D535E7D5E3F30200001020100010101010102024183060C37C42C
:207C280006895D065D0CAA8912254A4C9C25378625864AAB000102040201020302020204AA
:207C48000785080E12728A0E18BB0EBBEAFF1E1E1E21212121304150505050102041839BBB
:207C6800C4080C101820314062C58912A69C314A6293C5270003060D1A1E26334D669ACD4A
:207C8800FEFE010101010101050B9A888A8C8D03030303030303030303030303D0E8F4FA38
:207CA800D3A77D535E7D5E3F30E0602000000001010101010202102041839BC406895D061C
:207CC8005D0CAA62C58912A69C25378625864AAB00000001010102030202020407234485FE
:207CE80008398A0E18BB0EBBEAFF1C1C1C1C1C1E20304150505050102041839BC4080C102C
:207D08001820314062C58912A69C314A6293C5270003060D1A1E26334D669ACDFEFE010193
:207D280001010101050B9A888A8C8D03030303030303030303030303D0E8F4FAD3A77D534B
:207D48005E7D5E3F30E0602000000001010101010202102041839BC406895D065D0CAA6250
:207D6800C58912A69C25378625864AAB0000000101010203020202040723448508398A0EF9
:207D880018BB0EBBEAFF1E1E1E1E1E1E20304150505050102041839BC4080C1018203140B1
:207DA80062C58912A69C314A6293C5270003060D1A1E26334D669ACDFEFEEBE6E0DAD3CE72
:0A7DC800C9C4BEB8B2ABA49688503F
:203C140075B7A575B7F122D310AF01C3C0D0123C14758F0790000074FFF0758F00D0D09204
:203C3400AF22D310AF01C3C0D0AE82AF83758F048E828F83E493FF758F008F82D0D092AFC1
:203C540022D310AF01C3C0D0AE82AF83C007C006123C14D006D007758F058E828F83787F28
:0A3C7400E2F0758F00D0D092AF226D
:02F7FE003DC20A
:203C7E00AF82BF1100400122EF24F05003023D2DEF2F2F903C9573023CC5023CC7023CD1C8
:203C9E00023CE3023CE5023CF7023D09023CF7023D2D023D2D023D2D023D2D023D2D023DB5
:203CBE002D023D2D023D1BC322AF4A8F82125A3E922222C3E4954A7401954BE4954CE4956B
:203CDE004D504CC322D322C3741E954AE4954BE4954CE4954D5038C322C37401954AE49583
:203CFE004BE4954CE4954D5026C322C37402954AE4954BE4954CE4954D5014C322C374830B
:203D1E00954AE4954BE4954CE4954D5002C322D322AF827880E2F54A08E2F54B08E2F54C8C
:203D3E0008E2F54D8F82C007123C7ED007400122BF0402801FBF0603023E35BF0703023EB1
:203D5E0072BF0B02802DBF0C02806FBF0E03023E4A023E727880E2F582C0071235C5123626
:203D7E0005AE82D0077880EEF208E4F208F208F2023E727884E4F208F208F208F278887489
:203D9E0064F208E4F208F208F27880E2F58208E2F58308E2F5F008E2C007124233AB82AC4A
:203DBE0083ADF0FED0077880EBF208ECF208EDF208EEF27821EBF2023E727880E2F5F00877
:203DDE00E242F008E242F008E245F0604278847419F208E4F208F208F2788874DCF208E459
:203DFE00F208F208F27880E2F58208E2F58308E2F5F008E2C007124233AB82AC83ADF0FE0E
:203E1E00D0077880EBF208ECF208EDF208EEF278807929E2F3803D7880E2FE90059BF07887
:203E3E0080EEF208E4F208F208F280287880E2F5F008E242F008E242F008E245F024FF92BF
:203E5E002450047E0180027E007880EEF208E4F208F208F2EF75F004A4242AF58274053534
:203E7E00F0F5837880E2F008E2A3F008E2A3F008E2A3F0D322AF82BF11004007900000E4CA
:203E9E00F5F022EF75F004A4242AF582740535F0F583E0FCA3E0FDA3E0FEA3E08C828D83A8
:203EBE008EF02285824E85834F90058EE0FCA3E0FD900590E0FB8C018D028B007F00E82CDF
:203EDE00F8EF3DFFC3E998EA9F5041E9C39CFEEA9DFFEE254EFEEF354FFF89828A83C007C7
:203EFE00C006C005C004C003C002C001123C36A882D001D002D003D004D005D006D0078E07
:203F1E00828F83E8F009B900B10A80AE854E0C854F0D8B82C002C001120847AE82AF83D089
:203F3E0001D002740129FCE43AFD8C828D83C007C006C002C001123C36AD82D001D0028DCA
:203F5E00047D0089828A83C005C004123C36AB82D004D005D006D0077A00EB4205EA42043E
:203F7E00EEB50506EFB504028002C322D322858250858351900591E0FCA3E0FD900593E035
:203F9E00FB8C528D538B027F00EA2CFAEF3DFFC3E5529AE5539F5036E552C39CFEE5539DA9
:203FBE00FFEE2550F582EF3551F583787FE0F2855282855383C005C004C003123C55D003DE
:203FDE00D004D0050552E4B552BB055380B785500C85510D8B82120847AE82AF838E0478F0
:203FFE007FECF2855282855383C007C006123C55D006D00774012552FCE43553FD787FEF7E
:20401E00F28C828D83023C55D310AF01C3C0D012416A900000123C36E582FF24BB4005BFDF
:20403E0030005004C302410690058E7401F0E4A3F0900590EFF090052A123EC14003024179
:20405E0006758200123E93AC82AD83AEF0FFBC1A0BBD0008BE0005BF00028004C3024106AD
:20407E007F00EF75F004A4242AFD740535F0FE8D828E83E0F54AA3E0F54BA3E0F54CA3E077
:20409E00F54D8F82C007C006C005123C7ED005D006D0074032EF75F007A424D2FB747D3587
:2040BE00F0FC8B828C83A3A3A3E493F9A3E493FAA3E493FBA3E493FC8D828E83E9F0EAA3BC
:2040DE00F0EBA3F0ECA3F00FBF4400409590058E7481F07401A3F09005907420F090056E32
:2040FE00123EC140028001D333D0D092AF1322D310AF01C3C0D090052A741AF0E4A3F0A375
:20411E00F0A3F0123C1B787F7444F2900000123C559005917401F0E4A3F09005937444F0EF
:20413E0090052A123F8C787F7420F2900180123C559005917481F07401A3F09005937420C5
:20415E00F090056E123F8CD0D092AF227F00EF75F004A4242AFD740535F0FEEF75F007A40D
:20417E0024D2FB747D35F0FC8B828C83A3A3A3E493F9A3E493FAA3E493FBA3E493FC8D825B
:20419E008E83E9F0EAA3F0EBA3F0ECA3F00FBF110040BB22AF827E008F037C007D40EE75C4
:2041BE00F007A424D2F582747D35F0F583E493F8A3E493F9A3E493FA9006E6E8F0E9A3F0E5
:2041DE00EAA3F08B828C838DF0C007C0061270ADE5828583F0D006D00745F060060EBE116B
:2041FE000040B58E8222AF82BF11005021EF75F007A424D2F582747D35F0F583E493FDA3F7
:20421E00E493FEA3E493FF8D828E838FF02290000075F00022AC82AD83AEF0FF7884C3E27E
:20423E00F5F0EC95F008E2F5F0ED95F008E2F5F0EE95F008E2F5F0EF95F0500D7884E2FC0D
:20425E0008E2FD08E2FE08E2FF7888C3E29C08E29D08E29E08E29F500D7888E2FC08E2FD8D
:20427E0008E2FE08E2FF8C828D838EF0EF22D310AF01C3C0D0AE82AF83758F0175B7A5750F
:20429E00B7F18E828F83E58124FDF8E6F0758F00D0D092AF22E493F58222E582FF24E1401F
:2042BE0041A8811818B6FF0280387E0074DE2FFC74FB3EFD8C828D83C007C0061242B3ADD3
:2042DE0082D006D007BDFF1A74DE2FFF74FB3EFEA8811818E6C0E08F828E8312428C158119
:2042FE00D322C322AF827E007D00ED90F7DE93FC62060DBD1F0040F290F7FDE493FDBDFF82
:20431E0002801690F7FDE493FDB5060DEF24E14008EF90F7DE93F582227582FF22AF827EA4
:20433E000074DE2FFF74FB3EFE8F828E830242B37F0090FBFDC0071242B3AE82D007BEFF82
:20435E006A7E008E047D008C028D0374DE2AFA74FB3BFB8A828B83C007C006C005C00412CD
:20437E0042B3AB82D004D005D006D007EB6207BBFF1BC004C0057449C0E0747EC0E0748012
:20439E00C0E012082DE58124FBF581C3220EBE1F0040B0C00790FBFD12428C158174FEC066
:2043BE00E090FBFF12428C1581D322C322AF82BF3000400DEF24C640088F06EE24D0F582A9
:2043DE0022BF4100400DEF24B940088F0674C92EF58222BF6100400BEF2499400674A92FFA
:2043FE00F5822275820022AF83E582900596F0EFA3F0900596E0FEA3E0FF900594E0F554DA
:20441E00A3E0F555788DE4F2788D798CC3E3F5F0E295F05068788DE275F002A4FAABF02E6D
:20443E00F582EB3FF583E0F582C007C006C003C0021243CBAD82D002D003D006D007EDC48A
:20445E0054F0FD0ABA00010BEA2EF582EB3FF583E0F582C007C006C0051243CBAC82D00530
:20447E00D006D007EC2DFD788DE22554F582E43555F583EDF0788DE22401F2808B22AF8265
:20449E009005987462F07E00C3EE9F5033EE246EFCE43405FD7B009006D97498F07405A322
:2044BE00F0E4A3F09006DC04F0E4A3F08C828D838BF0C007C006126FA2D006D0070E80C84E
:2044DE0022AF83E582900599F0EFA3F0758210123E93AC8253040F0CECC40354F8FF900546
:2044FE0099E0FDA3E0FE8D028E037C008A828B838CF0C007C006C005127622AB82D005D0A7
:20451E0006D007EF75F002A4FAACF08B56755700C3E5569AE55764808CF063F08095F05087
:20453E002C8F82C004C00212449CD002D004C002C004C056C0577466C0E0747EC0E074804F
:20455E00C0E012082DE58124F9F581D3228F037C00C007C006C005C003C004748AC0E0746F
:20457E007EC0E07480C0E012082DE58124FBF581D005D006D007900594746EF07405A3F0A0
:20459E00788CEFF28D828E83124405D322758210123E93AC8253040F7D000CECC40354F8A2
:2045BE00FF7E00C3EE9F505FEE246EF582E43405F583E0FD24F0401DC007C0067496C0E050
:2045DE00747EC0E07480C0E012082D158115811581D006D007EE246EF582E43405F583E075
:2045FE00FD7C00C007C006C005C0047498C0E0747EC0E07480C0E012082DE58124FBF581FA
:20461E00D006D0070E809C749BC0E0747EC0E07480C0E012082D1581158115812290056EA2
:01463E002259
:207DD2009D7E801A000000A47E8039000000B17E8040000000BB7E8019000000C17E80146D
:207DF200000000C97E8000000000CD7E8001000000D57E8000000000DF7E8000000000E846
:207E12007E8000000000F17E8000000000FE7E8064000000097F8000000000127F800000EA
:207E320000001D7F8000000000247F80830000002F7F800000000064426D206C6576656CF5
:207E5200202575206E6F742063616C696272617465640A004552524F52202D204B65792070
:207E72006C656E6774683A25752C2052657175697265642025750A006B6579206C656E2081
:207E920025640A0030002578000A00464F524D41540053455249414C5F53504545440041CC
:207EB20049525F5350454544004E45544944005458504F57455200454343004D41564C4954
:207ED2004E4B004F5050524553454E44004D494E5F46524551004D41585F46524551004E15
:207EF200554D5F4348414E4E454C5300445554595F4359434C45004C42545F52535349008C
:207F12004D414E4348455354455200525453435453004D41585F57494E444F5700454E438F
:0E7F320052595054494F4E5F4C4556454C0035
:060400000204A1023ACE45
:01040B0032BE
:0104130032B6
:01041B0032AE
:0304230002508FF5
:03042B00025C5917
:010433003296
:01043B00328E
:010443003286
:01044B00327E
:010453003276
:01045B00326E
:010463003266
:01046B00325E
:03047300025BCF5A
:01047B00324E
:010483003246
:01048B00323E
:010493003236
:03049B0002617F7C
:0305240002049E30
:03049E0002463FD4
:20463F00AFC4788EEFF2AFC3788FEFF2124026400312416A758206123E93AC8290059BEC05
:20465F00F0758205123E93AC82AD83AEF0FFEC4D4E4F24FF922375820E123E93AC82AD837D
:20467F00AEF0FFEC4D4E4F24FF922412470B1247AC1231C44015745BC0E0747FC0E0748014
:20469F00C0E01246D1158115811581758210123E93AC828C8212620140157475C0E0747F04
:2046BF00C0E07480C0E01246D11581158115810219F4907F8E75F080127509E58124FCFF16
:2046DF00C007E58124FBF886820886830886F012058A1581907F9975F080127509D2AFD239
:2046FF00AC9003E8125C5043EF1080FEAFD974BF5FF5D975B28F75B64075A90075FF807E5D
:20471F005E7F011EBEFF011FEE4F70F775EF0675D4CF75D5F875D6CF75A41075A70F75A4B2
:20473F001075A70075E10143E24143A5F5E5A675A6FF75A70F43A5F5E5A675A6FF75A70026
:20475F0075844075B00075850043B001D29475A700C289125CFF758201123E93AC828C829D
:20477F0012525A75B800D2AFC295C296D2EF75BCF975BA0075BB1B75D10775D98875DF0023
:20479F0075DA4275FC8075D84075E340221232034015749AC0E0747FC0E07480C0E0124668
:2047BF00D1158115811581788EE2B44302801C788EE2B447028044788EE2B48602806C7899
:2047DF008EE2B491030248780248A790059C7490F074D1A3F074CFA3F07419A3F09005A027
:2047FF007470F0745EA3F074EAA3F07419A3F09005A8740AF07853F20248DF90059C74809A
:20481F00F074A1A3F07403A3F0741CA3F09005A074C0F074E3A3F07412A3F0741CA3F090A5
:20483F0005A8740AF07853F20248DF90059CE4F074A1A3F074BCA3F07433A3F09005A07405
:20485F0080F07425A3F074DBA3F07433A3F09005A8740AF07853F2806790059C74C0F07469
:20487F00CAA3F07489A3F07436A3F09005A0E4F07428A3F023A3F07437A3F09005A87414FE
:20489F00F078537432F2803890059CE4F0A3F0A3F0A3F09005A0F0A3F0A3F0A3F09005A815
:2048BF00F0788EE2FE7F00C006C00774B2C0E0747FC0E07480C0E01246D1E58124FBF581E6
:2048DF0075820A123E93AC82AD83AEF0FFEC4D4E4F601175820A123E93AC82AD83AEF0FFB4
:2048FF007853ECF2758208123E93AC82AD83AEF0FFEC4D4E4F6039758208123E93AC82ADE7
:20491F0083AEF0FF9006F0ECF0EDA3F0EEA3F0EFA3F09003E8E4F5F01271AAAC82AD83AEF6
:20493F00F0FF90059CECF0EDA3F0EEA3F0EFA3F0758209123E93AC82AD83AEF0FFEC4D4E74
:20495F004F6039758209123E93AC82AD83AEF0FF9006F0ECF0EDA3F0EEA3F0EFA3F09003FA
:20497F00E8E4F5F01271AAAC82AD83AEF0FF9005A0ECF0EDA3F0EEA3F0EFA3F0758204129E
:20499F003E93AC82AD83AEF0FFEC4D4E4F6012758204123E93AC82AD83AEF0FF9005A8ECE2
:2049BF00F09005A8E0FF7E007D007C007884E4F208F208F208F27888741EF208E4F208F239
:2049DF0008F28F828E838DF0EC124233AC827853E2FB7D007E007F0078847401F208E4F21B
:2049FF0008F208F278887432F208E4F208F208F28B828D838EF0EFC004124233AB82AD8308
:204A1F00AEF0FFD0047853EBF2788EE2B44302801E788EE2B44703024AF1788EE2B4860397
:204A3F00024B96788EE2B49103024C3B024CDD90059CE0FBA3E0FDA3E0FEA3E0FF78847491
:204A5F0080F2087423F20874ADF2087418F27888E4F208740BF208746BF208741BF28B82D5
:204A7F008D838EF0EFC004124233AB82AD83AEF0FF90059CEBF0EDA3F0EEA3F0EFA3F09036
:204A9F0005A0E0FBA3E0FDA3E0FEA3E0FF78847480F2087423F20874ADF2087418F27888E0
:204ABF00E4F208740BF208746BF208741BF28B828D838EF0EF124233AB82AD83AEF0FFD04B
:204ADF00049005A0EBF0EDA3F0EEA3F0EFA3F0024D0090059CE0FBA3E0FDA3E0FEA3E0FF42
:204AFF0078847480F2087474F20874D2F208741AF278887480F20874CEF2087434F20874CB
:204B1F001DF28B828D838EF0EFC004124233AB82AD83AEF0FF90059CEBF0EDA3F0EEA3F08B
:204B3F00EFA3F09005A0E0FBA3E0FDA3E0FEA3E0FF78847480F2087474F20874D2F20874C1
:204B5F001AF278887480F20874CEF2087434F208741DF28B828D838EF0EF124233AB82ADF0
:204B7F0083AEF0FFD0049005A0EBF0EDA3F0EEA3F0EFA3F0024D0090059CE0FBA3E0FDA311
:204B9F00E0FEA3E0FF78847440F20874B6F208749AF2087432F278887440F2087410F208FC
:204BBF0074FDF2087434F28B828D838EF0EFC004124233AB82AD83AEF0FF90059CEBF0ED09
:204BDF00A3F0EEA3F0EFA3F09005A0E0FBA3E0FDA3E0FEA3E0FF78847440F20874B6F208BF
:204BFF00749AF2087432F278887440F2087410F20874FDF2087434F28B828D838EF0EF1229
:204C1F004233AB82AD83AEF0FFD0049005A0EBF0EDA3F0EEA3F0EFA3F0024D0090059CE03F
:204C3F00FBA3E0FDA3E0FEA3E0FF7884E4F20874A1F20874BCF2087433F2788874C0F208FD
:204C5F0074F7F20874BAF2087437F28B828D838EF0EFC004124233AB82AD83AEF0FF9005A7
:204C7F009CEBF0EDA3F0EEA3F0EFA3F09005A0E0FBA3E0FDA3E0FEA3E0FF7884E4F208743A
:204C9F00A1F20874BCF2087433F2788874C0F20874F7F20874BAF2087437F28B828D838E94
:204CBF00F0EF124233AB82AD83AEF0FFD0049005A0EBF0EDA3F0EEA3F0EFA3F08023788E65
:204CDF00E2FE7F00C004C006C00774B2C0E0747FC0E07480C0E01246D1E58124FBF581D024
:204CFF00049005A0E0FBA3E0FDA3E0FEA3E0FF90059CE0F558A3E0F559A3E0F55AA3E0F585
:204D1F005BEBB55825EDB55921EEB55A1DEFB55B199005A074402558F074423559A3F0740D
:204D3F000F355AA3F0E4355BA3F075820BC004123E93AB827821EBF27F007E007D0078845A
:204D5F00E4F208F208F208F278887464F208E4F208F208F28B828F838EF0ED124233AB8296
:204D7F007821EBF27880EBF208E4F208F208F275820B123D2F75820C123E93AB82AD83AE86
:204D9F00F0FFD0047829EBF2EB60377F007E007D0078847419F208E4F208F208F2788874F6
:204DBF00DCF208E4F208F208F28B828F838EF0EDC004124233AB82AD83AEF0FFD0047829F0
:204DDF00EBF2C00478297980E2F309E4F309F309F375820CC004123D2F9006CA74E8F07467
:204DFF0003A3F0E4A3F0A3F0855882855983855AF0E55B126E3CAB82AD83AEF0FF7880EB8C
:204E1F00F208EDF208EEF208EFF2758208123D2FD0049005A0E0F55CA3E0F55DA3E0F55E67
:204E3F00A3E0F55F9006CA74E8F07403A3F0E4A3F0A3F0855C82855D83855EF0E55F126E5D
:204E5F003CAA82AC83AEF0FF7880EAF208ECF208EEF208EFF2758209C004123D2F785379EE
:204E7F0080E2F309E4F309F309F375820A123D2FD004E55CC39558FCE55D9559FDE55E95A1
:204E9F005AFEE55F955BFF7853E2FA7B0074022AFAE43BFB9006CAEAF0EBA3F0EB3395E047
:204EBF00A3F0A3F08C828D838EF0EF126E3CAC82AD83AEF0FF9005A4ECF0EDA3F0EEA3F055
:204EDF00EFA3F0EFC313FFEE13FEED13FDEC1390059C2558F0ED3559A3F0EE355AA3F0EFC7
:204EFF00355BA3F0758203123E93AC82C004126D4AD0047853C3E2F5F0740595F0D004409D
:204F1F0003024FADC004C004126CF0AE82AF839006E4EEF0EFA3F090027112708DAE82AF4E
:204F3F0083D0048E5CEFF55D3395E0F55EF55F9005A4E0FAA3E0FCA3E0FEA3E0FF90068EC8
:204F5F00EAF0ECA3F0EEA3F0EFA3F0855C82855D83855EF0E55FC0041269FC85825C858351
:204F7F005D85F05EF55FD00490059CE0FAA3E0FBA3E0FEA3E0FF90059CE55C2AF0E55D3B25
:204F9F00A3F0E55E3EA3F0E55F3FA3F0D00490059CE0FBA3E0FDA3E0FEA3E08B828D838E26
:204FBF00F0C00412323AD0049005A4E0FBA3E0FDA3E0FEA3E08B828D838EF0C0041232761B
:204FDF00758203123E93AB82AD83AEF0FF785390068EE2F0E4A3F0A3F0A3F08B828D838ED2
:204FFF00F0EF1269FC1232C5758202123E931232ECD0044037758202C004123E931232EC0C
:20501F00D0044028758202C004123E931232ECD0044019C00474C9C0E0747FC0E07480C050
:20503F00E01246D1158115811581D004C004122F4EAF827880EFF208E4F208F208F275828C
:20505F0002123D2F758203123E9312360BD0048C821235C5123605AF827880EFF208E4F25E
:10507F0008F208F2758204123D2F122D1502213508
:207F40005246442053694B20322E30206F6E205246443930304100322E30006661696C650A
:207F60006420746F20656E61626C65207265636569766572006661696C656420746F2069AD
:207F80006E697469616C69736520616573000A2A2A50414E49432A2A0000726164696F5F3B
:207FA000696E697469616C697365206661696C65640062616420626F6172642066726571F4
:207FC00075656E637920256400726164696F5F636F6E666967757265206661696C6564001F
:1205120078A6742CF2087401F278A87490F2087401F233
:20508F00C027C0E0C0F0C082C083C007C006C005C004C003C002C001C000C0D075D0001044
:2050AF0098030251A4AF9930160E3017030251A48F821224D80251A48F82C00712256ED00F
:2050CF000778AAE22401FD08E23400FEBD4409BE04067D007E00800B78AAE22401FD08E210
:2050EF003400FE78ACE2B5050708E2B50602803A78AAE2240CF58208E23407F583EFF078A8
:20510F00AAE22401FD08E23400FEBD4409BE04067D007E00800B78AAE22401FD08E234001A
:20512F00FE78AAEDF208EEF2801B7896E2FD08E2FEBDFF05BEFF02800C0DBD00010E789616
:20514F00EDF208EEF278AA79ACC3E3F5F0E295F009E3F5F008E295F0401B78ACE22444FD3A
:20516F0008E23404FE78AAD3E29DF4B3FDB308E29EF4FE801578AC79AAE3F5F0C3E295F0ED
:20518F00FD09E3F5F008E295F0FEC3ED9411EE94005002D28210990302522178AE79B0E2F6
:2051AF00F5F0E3B5F00B08E2F5F009E3B5F002805F3024203083172016149005A9E0FEE0A3
:2051CF007004D225804CEE149005A9F080069005A97408F078B0E22450F58208E2340BF516
:2051EF0083E0FF78B0E22401FD08E23400FEBD0009BE02067D007E00800B78B0E22401FDB8
:20520F0008E23400FE78B0EDF208EEF28F998002D225D0D0D000D001D002D003D004D00544
:20522F00D006D007D083D082D0F0D0E0D0273278AE79B0E2F5F0E3B5F00A08E2F5F009E311
:20524F00B5F001223025030256F822AF82C2AC78AAE4F208F278ACF208F278AEF208F27882
:20526F00B0F208F278B2F208F278B4F208F2D225C28EAE89740F5E4420F5898F82125A6433
:20528F00D28E759810C282D2AC22AF82C0071256A4AD82AE83D007C3ED9401EE940050024A
:2052AF00C3228F821252B8D322AF82A2AC9238C2AC78AEE22401FD08E23400FEBD0009BE57
:2052CF0002067D007E00800B78AEE22401FD08E23400FE78B0E2B5050708E2B506028044B5
:2052EF0078AEE22450F58208E2340BF583EFF078AEE22401FE08E23400FFBE0009BF020656
:20530F007E007F00800B78AEE22401FE08E23400FF78AEEEF208EFF2302524C0271256F8FF
:20532F00D027801B7894E2FE08E2FFBEFF05BFFF02800C0EBE00010F7894EEF208EFF2A296
:20534F003892AC2278B279B4E2F5F0E3B5F00C08E2F5F009E3B5F003025450126196E5827B
:20536F00700302545078B4E22450FE08E2340DFF8E828F83E07011D22610AF02C22678B40B
:20538F00E4F208F2A22692AF78B4E22401FE08E23400FFEE2450FEEF340DFF78B4E22450C6
:2053AF00F58208E2340DF583E090066DF090066E74AAF07405A3F090067074B6F07400A39C
:2053CF00F07460A3F08E828F831264EBE582601574E0C0E0747FC0E07480C0E01246D115AF
:2053EF00811581158178B679B8E2F39005AA12556C78B4E22450F58208E2340DF583E0FF30
:20540F0078B6F278B4E22450F58208E2340DF583E4F0D22610AF02C2267E000FBF00010EF1
:20542F0078B4E22FF208E23EF278B4C3E294A808E29402400678B4E4F208F2A22692AFD369
:20544F0022C322AF83E5829005CAF0EFA3F0126196E582700302555778B2E22401FE08E222
:20546F003400FF74A8C39EFE74029FFF78B7E2FC7D00C3EE9CEF9D500678B2E4F208F2C0E8
:20548F0005C004125B85AE82AF83D004D005C3EE9CEF9D501B7894E2FE08E2FFBEFF04BF9E
:2054AF00FF01220EBE00010F7894EEF208EFF22278B2E22450F58208E2340DF58378B7E23D
:2054CF00F078B2E22401FE08E23400FFEE2450FEEF340DFF8E608F617562009005CAE0FA04
:2054EF00A3E0FF9006D9EAF0EFA3F0E4A3F09006DCECF0EDA3F08560828561838562F01252
:20550F006FA2D22710AF02C22778B7E2FE7F000EBE00010F78B2E22EF208E23FF278B2C32A
:20552F00E294A808E29402400B78B2E22458F208E234FDF2A22792AF78B2E22450F58208E3
:20554F00E2340DF583E4F0229005CAE0FEA3E0FF78B779B8E2F38E828F8302556CAF83E5BB
:20556F00829005CCF0EFA3F078B8E27001221256A4AE82AF8378B8E2FC7D00C3EE9CEF9D50
:20558F00501F78B8EEF27894E2FE08E2FFBEFF05BFFF02800C0EBE00010F7894EEF208EFDB
:2055AF00F278B8E2FF78AED3E29400F4B3FDB308E29402F4FE8F037C00C3ED9BEE9C500866
:2055CF0078AEE2FEC3E49EFF78AEE22450FD08E2340BFE7C009005CCE0FAA3E0FB9006D92E
:2055EF00EAF0EBA3F0E4A3F09006DCEFF0E4A3F08D828E838CF0C007C003C002126FA2D02A
:20560F0002D003D0079005CCEF2AF0E43BA3F078B8E2C39FF2D22810AF02C2287E0078AE04
:20562F00E22FF208E23EF278AEC308E29402400678AFE224FEF2A22892AF78B8E260449021
:20564F0005CCE0FEA3E0FF9006D9EEF0EFA3F0E4A3F078B8E2FE7F009006DCEEF0EFA3F063
:20566F00900B5075F000C007C006126FA2D006D007D22810AF02C22878AEEEF208EFF2A238
:20568F002892AFD22810AF02C2283025031256F8A22892AF22A2AC9229C2AC78AE79B0C37F
:2056AF00E3F5F0E295F009E3F5F008E295F0401B78B0E22400FE08E23402FF78AED3E29E4D
:2056CF00F4B3FEB308E29FF4FF801578B079AEE3F5F0C3E295F0FE09E3F5F008E295F0FFD4
:2056EF00A22992AC8E828F832230240730830420160122C225D29922A2AC922AC2AC78AAD5
:20570F0079ACE2F5F0E3B5F00B08E2F5F009E3B5F002803A78ACE2240CF58208E23407F518
:20572F0083E0FF78ACE22401FD08E23400FEBD4409BE04067D007E00800B78ACE22401FD34
:20574F0008E23400FE78ACEDF208EEF280027F0078AA79ACC3E3F5F0E295F009E3F5F00820
:20576F00E295F0401B78ACE22444FD08E23404FE78AAD3E29DF4B3FDB308E29EF4FE8015F3
:20578F0078AC79AAE3F5F0C3E295F0FD09E3F5F008E295F0FEC374229DE49E5002C282A2D6
:2057AF002A92AC8F8222A2AC922BC2AC78ACE2240CF58208E23407F583E0FFA22B92AC8F03
:2057CF008222AF83E5829005CEF0EFA3F0A2AC922CC2AC9005CEE0FEA3E0FF78ACE22EFE39
:2057EF0008E23FFF9006F47444F07404A3F08E828F83127216AE82AF83EE240CF582EF345F
:20580F0007F583E0FFA22C92AC8F8222AF83E5829005D0F0EFA3F0125996AE82AF8378B9D8
:20582F00E2FC7D00C3EE9CEF9D5002C3228C038D0278ACD3E29444F4B3FCB308E29404F453
:20584F00FDC3EC9BED9A501078ACD3E29444F4B3FBB308E29404F4FA9005D0E0FCA3E0FDD4
:20586F008C638D6475650078ACE2240CFE08E23407FF9006D9EEF0EFA3F0E4A3F09006DC4F
:20588F00EBF0EAA3F08563828564838565F0C005C004C003C002126FA2D002D003D004D077
:2058AF00058B0678B9E2C39EF29005D0EB2CF0EA3DA3F0D22D10AF02C22D78ACE22BF208DD
:2058CF00E23AF278ACC3E2944408E29404400B78ACE224BCF208E234FBF2A22D92AF78B919
:2058EF00E260489005D0E0FEA3E0FF7D009006D9740CF07407A3F0E4A3F078B9E2FB7C00DF
:20590F009006DCEBF0ECA3F08E828F838DF0C004C003126FA2D003D004D22D10AF02C22D0D
:20592F0078ACEBF208ECF2A22D92AFD22D10AF02C22D78AA79ACC3E3F5F0E295F009E3F598
:20594F00F008E295F0401B78ACE22444FE08E23404FF78AAD3E29EF4B3FEB308E29FF4FFA8
:20596F00801578AC79AAE3F5F0C3E295F0FE09E3F5F008E295F0FFC374229EE49F5002C27F
:20598F0082A22D92AFD322A2AC922EC2AC78AA79ACC3E3F5F0E295F009E3F5F008E295F07C
:2059AF00401778AA79ACE3F5F0C3E295F0FE09E3F5F008E295F0FF801978ACD3E29444F4CD
:2059CF00B3FCB308E29404F4FD78AAE22CFE08E23DFFA22E92AC8E828F8322125996AE820C
:2059EF00AF837444C39EFE74049FC423CEC423541F6ECE541FCE6ECEFF9006E4EEF0EFA387
:205A0F00F090006412708DAE82AF839006887488F0E4A3F08E828F83026962AF82BF0A0AAE
:205A2F0075820DC0071252B8D0078F820252B8AF827E00BE0900501BEE75F003A42403F585
:205A4F0082748035F0F583E493FDEFB50502D3220E80E0C322AF827E00BE0900501BEE7579
:205A6F00F003A42403F582748035F0F583E493FDEFB5050280030E80E09005D2EEF0BE0935
:205A8F00069005D27406F09005D2E075F003A42403FD748035F0FE8D828E83A3E493F58DD6
:205AAF00AC8E5304F48D828E83A3A3E4934CF58E9006F0EFF0E4A3F0A3F0A3F090007DE4B3
:205ACF00F5F01271AA02114478B279B4C3E3F5F0E295F009E3F5F008E295F0401B78B4E25C
:205AEF0024A8FE08E23402FF78B2D3E29EF4B3FEB308E29FF4FF801578B479B2E3F5F0C3E6
:205B0F00E295F0FE09E3F5F008E295F0FF78A6C3E2F5F0EE95F008E2F5F0EF95F05002D34F
:205B2F0022C32278B279B4C3E3F5F0E295F009E3F5F008E295F0401B78B4E224A8FE08E2A9
:205B4F003402FF78B2D3E29EF4B3FEB308E29FF4FF801578B479B2E3F5F0C3E295F0FE09CB
:205B6F00E3F5F008E295F0FF78A8C3E29E08E29F5002D322C32278B279B4C3E3F5F0E2956F
:205B8F00F009E3F5F008E295F0401B78B4E224A8FE08E23402FF78B2D3E29EF4B3FEB30897
:205BAF00E29FF4FF801578B479B2E3F5F0C3E295F0FE09E3F5F008E295F0FF8E828F832203
:207FE0006572726F72207768696C6520747279696E6720746F20646563727970742064615E
:1E800000746100012C02029602042C0009960013600126B001392B08739608E6CB0874
:20803E00000000000000000000000000000000000000000000000000000000000000000022
:20805E00000000000000000000000000000000000000000000000000000000000000000002
:20807E000000000000000000000000000000000000000000000000000000000000000000E2
:20809E000000000000000000000000000000000000000000000000000000000000000000C2
:205BCF00C027C0E0C0F0C082C083C007C006C005C004C003C002C001C000C0D075D0007594
:205BEF0091041225BBE56660021566D0D0D000D001D002D003D004D005D006D007D083D088
:205C0F0082D0F0D0E0D02732AE82AF83C3EE94F6EF940940047566FF2274092EFEE43FFF26
:205C2F00900688740AF0E4A3F08E828F83126962AE828E662285826622E566B40100922FBD
:205C4F0022125C17125C4850FB22C027C0E0C0F0C082C083C007C006C005C004C003C00214
:205C6F00C001C000C0D075D00075C80474012567F567E43568F56830240312523ED0D0D0DA
:205C8F0000D001D002D003D004D005D006D007D083D082D0F0D0E0D02732AFCDAECCEFB551
:205CAF00CDF88F05E4FFFCEE4207EC42058F828D8322AE67AF68C007C006125CA9AC82AD45
:205CCF0083D006D007EEB567E9EFB568E5EEC40354F8FF7E00EDC403CCC40354076CCC54F5
:205CEF0007CC6CCCFDEC4206ED42078E828F83227592407593B075910443E68075CA007579
:0C5D0F00CB0075C804D2AD2285CC8222E6
:205D1B00E5829005DBF0E0FFBF03028005BF070040047582012274035F2402C40354F8FE48
:205D3B009005D9E0FCA3E0C454F0CCC4CC6CCC54F0CC6CFD9005DCECF0EDA3F075A7027506
:205D5B00E90075EA00ADD274A75DF5D275D10375C90575D6019005D7E0FCA3E0FD9005DE0F
:205D7B00ECF0EDA3F09005DEE0F5CA9005DFE0F5CB75CF008ECEE4F5CCF5CDEF30E21290DC
:205D9B0005D3E0FDA3E0FE9005DEEDF0EEA3F080109005D5E0FDA3E0FE9005DEEDF0EEA3A8
:205DBB00F075D10475C90675D6009005DEE0F5CA9005DFE0F5CB9005DCE0F5CE9005DDE073
:205DDB00F5CFE4F5CCF5CDEF30E2129005D5E0FDA3E0FE9005DEEDF0EEA3F080109005D3D9
:205DFB00E0FDA3E0FE9005DEEDF0EEA3F075D10675C98875D6009005DEE0F5CA9005DFE096
:205E1B00F5CB9005DCE0F5CE9005DDE0F5CF75CD0075CC00AED374A75EF5D343D25875EA6C
:205E3B00008FE943E90843E720E5D330E6FB75E90075EA00AFD274A75FF5D2AFD374A75F0D
:065E5B00F5D37582002260
:205E6100AF83E5829005E3F0EFA3F09005E2E0FFBF030040047582012274022FC40354F870
:205E8100FE75A70275E90075EA00ADD274A75DF5D275D10375C90575D6009005E3E0FCA39C
:205EA100E0FD9005E5ECF0EDA3F09005E5E0F5CA9005E6E0F5CB75CF008ECE75CC0075CDD7
:205EC1000075D10475C90675D60075CA0075CB0075CF0075CE1075CC0075CD0075D106758E
:205EE100C98875D6009005E0E0FCA3E0FD9005E5ECF0EDA3F09005E5E0F5CA9005E6E0F5F5
:205F0100CB75CF008ECE75CD00EF600575CC10800375CC00AED374A75EF5D343D25875EADC
:205F2100048FE943E90443E90843E720E5D330E6FBEF6022AFD274A75FF5D275D10675CCAD
:205F41000075CE10AFD374875FF5D343D24043E720E5D330E6FB75E90075EA00AFD274A788
:0E5F61005FF5D2AFD374A75FF5D3758200222F
:205F6F00E5829005F1F0E0FFBF03028005BF070040047582012274035F2402C40354F8FEDC
:205F8F009005EFE0FCA3E0FD8C02C454F0CAC4CA6ACA54F0CA6AFB9005F2EAF0EBA3F01C82
:205FAF00BCFF011D9005EFECF0EDA3F075A70275E90075EA00ADD274875DF5D275D10375E2
:205FCF00C90575D6009005EDE0FCA3E0FD9005F4ECF0EDA3F09005F4E0F5CA9005F5E0F54F
:205FEF00CB75CF008ECEE4F5CCF5CDEF30E2129005E7E0FDA3E0FE9005F4EDF0EEA3F0806C
:20600F00109005E9E0FDA3E0FE9005F4EDF0EEA3F075D10475C90675D6009005F4E0F5CA9D
:20602F009005F5E0F5CB75CE1075CF0075CC0075CD0075D10575C90775D6009005EBE0FDD5
:20604F00A3E0FE9005F4EDF0EEA3F09005F4E0F5CA9005F5E0F5CB75CE10E4F5CFF5CCF5C6
:20606F00CDEF30E2129005E9E0FDA3E0FE9005F4EDF0EEA3F080109005E7E0FDA3E0FE9074
:20608F0005F4EDF0EEA3F075D10675C98875D6009005F4E0F5CA9005F5E0F5CB75CE107523
:2060AF00CF0075CD0075CC00AED374875EF5D343D278EF30E20575EA01800375EA028FE98E
:2060CF0043E90843E720E5D330E6FB9005EFE0F5F0A3E045F07003026167AFE974F75FF5D5
:2060EF00E9AFD274875FF5D275D10375D60175CC0075CD0075D1049005F2E0F5CE9005F3F2
:20610F00E0F5CF75D1059005E9E0FEA3E0FF9005F4EEF0EFA3F09005F4E0F5CA9005F5E028
:20612F00F5CB9005F2E0F5CE9005F3E0F5CF75CC0075CD0075D1069005F2E0F5CE9005F3B9
:20614F00E0F5CFAFD374875FF5D343D27843E90843E720E5D330E6FB75E90075EA00AFD2D6
:10616F0074875FF5D2AFD374875FF5D37582002242
:20617F00C0E0C007C0D075D000AFE774DF5FF5E7D0D0D007D0E032900658E0F58222E58279
:20619F00900659F0E0900658F02212463BE5828583F09005F6F0E5F0A3F022AF83E5829001
:2061BF00065CF0EFA3F090065AE0FEA3E0FF90065CE0FCA3E0FD7B108E828F83E493FAA38D
:2061DF00AE82AF838C828D83EAF0A3AC82AD8390065CECF0EDA3F0DBDF90065CECF0EDA3DF
:2061FF00F022E58290065EF075820012619D90065EE0FF740F5FFE7002D3221EC007C00657
:20621F001261A9D0069005F6E0FCA3E0FD9005E074F8F07405A3F09005E2EEF08C828D8336
:20623F00125E61E582D0076002C322EFC4540FFE53060FBE00028005BE0118802A90065AB7
:20625F00742EF07480A3F0900618C0071261BAD007801490065A742EF07480A3F090061842
:20627F00C0071261BAD0078F8212619DD322AF83E582900660F0EFA3F0900660E0FEA3E0C6
:20629F00FF7D0090065FE0FCFA7B009006D9EEF0EFA3F0EDA3F09006DCEAF0EBA3F090066E
:2062BF003875F000C004126FA2D004740F5C900662D39410F4F07F00900662E0FEC3EF9E90
:2062DF005034EF2C2438FDE43406FE7B009006D97462F07406A3F0E4A3F09006DC04F0E40D
:2062FF00A3F08D828E838BF0C007C004126FA2D004D0070F80C290063822AF83E582900688
:20631F0069F0EFA3F0900663E0FF7003F58222C007126196AE82D007740F5EFDBD010280AA
:20633F000ABD0202800DBD031A801090066B7404F0801690066B7405F0800E90066B74060A
:20635F00F0800690066B7404F0EEC4540FFE53060F900669E0FCA3E0FD90065FEFF08C8287
:20637F008D83C007C00612628DAC82AD83D006D007EFC4540FFF0FBE00028008BE010280A8
:20639F005E02647490066BE0F569900664E0FAA3E0FB9005F6E0F56AA3E0F56B8F017E005A
:2063BF009005E7ECF0EDA3F09005E9EAF0EBA3F09005EB7418F07406A3F09005EDE56AF046
:2063DF00E56BA3F09005EFE9F0EEA3F0856982C007125F6FE582D00790066CF00264CC90D4
:2063FF00065A741EF07480A3F0900628C007C005C0041261BAD004D005D00790066BE0F584
:20641F006A900664E0FAA3E0FB9005F6E0F56CA3E0F56D8F017E00900677ECF0EDA3F090E9
:20643F000679EAF0EBA3F090067B7428F07406A3F090067DE56CF0E56DA3F090067FE9F095
