:0804FA00C200C201C202C203EC
:20052700AF822004058F820257AA78067905C3E3F5F0E295F0501A7806E2FE780604F2908C
:2005470000BAE0FCA3E0FDEE2CF582E43DF583EFF022AF83E5829000BDF0EFA3F09000BDAE
:20056700E0FEA3E0FF9000BAEEF0EFA3F07806E4F29000BCE07805F2D20422C2047806E25D
:20058700F58222AD82AE83AFF08D828E838FF01274B1FC700122BC25028003020814C2030E
:2005A700C202C201C2000DBD00010E8D828E838FF01274B1FBBB6802800CBB6C10D2000D7A
:2005C700BD000A0E8007D2020DBD00010E8D828E838FF01274B1FBBB63028030BB640280C9
:2005E70018BB6F02802BBB7302800ABB7502800EBB78238010D201801D75080A8018750899
:200607000AD2038011750810D203800A7508008005750808D203300171A8811818E624FD19
:20062700FBA8811818A6038B01870909870A09870B1919C005C006C007AA09AB0AAF0B8A35
:20064700828B838FF01274B1D007D006D0057003020825C005C006C007AA09AB0AAF0B8A2B
:20066700828B838FF01274B1FA0509E4B50902050A8A82C007C006C005120527D005D0062B
:20068700D007D007D006D00580A930036D300026A8811818E624FCFBA8811818A6038B01F3
:2006A7007801E7F209E708F209E708F209E708F219191902077230021DA8811818E614F9C2
:2006C700A8811818A60187037801EBF208E4F208F208F2020772A8811818E624FEFBA88161
:2006E7001818A6038B018702098703197801EAF208EBF208E4F208F28071300025A88118C0
:2007070018E624FCFBA8811818A6038B017801E7F209E708F209E708F209E708F2191919D0
:200727008049300221A8811818E614FBA8811818A6038B0187037801EBF2EB3395E008F24D
:2007470008F208F28025A8811818E624FEFBA8811818A6038B018702098703197801EAF285
:2007670008EBF2EB3395E008F208F2E50870030207FE300333900698747AF0E4A3F0744002
:20078700A3F090069BE508F07801E2F58208E2F58308E2F5F008E2C007C006C0051268BD3B
:2007A700D005D006D00780319006C1747AF0E4A3F07440A3F09006C4E508F07801E2F58203
:2007C70008E2F58308E2F5F008E2C007C006C0051269D3D005D006D007797AE7FB603F8BD6
:2007E70082C007C006C005C001120527D001D005D006D0070980E47801E2F582C007C00600
:20080700C005120527D005D006D00780118C82C007C006C005120527D005D006D0070DBDD1
:2008270000010E020590E58124FCFFC007E58124FBF886820886830886F012058A15812252
:20084700AF827E007D00AB0CAC0D8F021FEA603B8B828C83E0FAA3AB82AC83ED2DF9ED309B
:20086700E714890009E89076C1936EFDE99076C193F86AFE80D4890009E89075C193F86E07
:1B088700FDE99075C193F96AFE80BF8D07E4FDFCEE4205EC42078D828F832259
:2075C1000000102120423063408450A560C670E781089129A14AB16BC18CD1ADE1CEF1EFAA
:2075E100123102103273225252B5429472F762D693398318B37BA35AD3BDC39CF3FFE3DE6A
:20760100246234430420140164E674C744A45485A56AB54B85289509E5EEF5CFC5ACD58D29
:20762100365326721611063076D766F6569546B4B75BA77A97198738F7DFE7FED79DC7BCE9
:2076410048C458E5688678A70840186128023823C9CCD9EDE98EF9AF89489969A90AB92BA9
:207661005AF54AD47AB76A961A710A503A332A12DBFDCBDCFBBFEB9E9B798B58BB3BAB1A69
:207681006CA67C874CE45CC52C223C030C601C41EDAEFD8FCDECDDCDAD2ABD0B8D689D4929
:2076A1007E976EB65ED54EF43E132E321E510E70FF9FEFBEDFDDCFFCBF1BAF3A9F598F78E9
:2076C100918881A9B1CAA1EBD10CC12DF14EE16F108000A130C220E35004402570466067A9
:2076E10083B99398A3FBB3DAC33DD31CE37FF35E02B1129022F332D2423552146277725669
:20770100B5EAA5CB95A88589F56EE54FD52CC50D34E224C314A00481746664475424440528
:20772100A7DBB7FA879997B8E75FF77EC71DD73C26D336F2069116B06657767646155634E8
:20774100D94CC96DF90EE92F99C889E9B98AA9AB584448657806682718C008E1388228A3A8
:20776100CB7DDB5CEB3FFB1E8BF99BD8ABBBBB9A4A755A546A377A160AF11AD02AB33A9268
:20778100FD2EED0FDD6CCD4DBDAAAD8B9DE88DC97C266C075C644C453CA22C831CE00CC128
:2077A100EF1FFF3ECF5DDF7CAF9BBFBA8FD99FF86E177E364E555E742E933EB20ED11EF0E8
:2008A200AF829002CDE0F5759000BF74FFF0A3F07406257524CCF582E43402F583EFF074B7
:2008C200072575FF7D01C3ED9F505AED24CCF582E43402F583E0FC9000BFE0FAA3E0FB8A0C
:2008E20000E86CF576C454F062768B027B00A87679008806E46202EE6203E9C40354F8C8CB
:20090200C403C868C854F8C868F9E86202E96203E576C4540FFE7C009000BFEE6AF0EC6B1D
:20092200A3F00D80A17406257524CCFEE43402FF9000BFE0FCA3E0FD8C028E828F83EAF0A4
:200942007407257524CCF582E43402F5838D04ECF0229002CC74FEF09002CD7409F07807ED
:20096200E2FF780704F29002CEEFF09002CF7433F09002D07444F09002D1746DF07890E2C0
:20098200FE08E2FF9002D2EEF0EFA3F0789AE2FE08E2FF9002D475F000EE126DC2A3EF1231
:2009A2006DC212576AAF829002D875F000EF126DC2789EE2FF9002D675F000EF126DC27897
:2009C200A2E2FF9002D775F000EF126DC2789FE2FF9002D975F000EF126DC278A3E2FF9010
:2009E20002DA75F000EF126DC27582B91208A2125424AE82AF83C3EE9411EF9400500122E0
:0B0A020078B87411F29002CC0252ECA4
:200A0D00AE82AF83A3E0FDBD09178E828F83E0FCBCFE0E74052EFBE43FFC8B828C83E06027
:200A2D0038ED24F640358E828F83E0FDBDFD2C74072EFCE43FFD8C828D83E0701E74082E15
:200A4D00FCE43FFD8C828D83E0701074092EFEE43FFF8E828F83E07002D20A22E5829002B9
:200A6D00BBF09002B9E4F0780AF212571685820E85830F9002BBE0FDC3E50E9408E50F947C
:200A8D00005003020BDE900000C005125551858210D00575110874FEB51002800E74FDB597
:200AAD00100280079002B9E0F5822274FDB5101BE5112404F511900002C005125551E582E1
:200ACD00D00530E006740D2511F511900001C005125551858210D00585111275130074FFC4
:200AED00C39512FAE49513FF851014751500C3E5149AE51564808FF063F08095F040030277
:200B0D000BDEE5122514FEE5133515FF8D027B009002B9E0F516C005AC167D00EAC39CFAE9
:200B2D00EB9DFBC3EA9EEB64808FF063F08095F0D0055003020BDEE5122514FEE5133515B1
:200B4D00FFC3E50E9EE50F9F5003020BDEE5112510F510E51624BDFEE43401FF78B9E5101C
:200B6D00F28E828F83C00512559B9002B9E0FF7810E22FFC08E23400FE7B00EF24BDFFE484
:200B8D003401FA9006DAEFF0EAA3F0E4A3F09006DDE510F0E4A3F08C828E838BF0126D22CC
:200BAD009002B9E0FF7810E22FFF08E23400FE8F828E83120A0DD0059002B9E02510F0AC2E
:200BCD00107F00E50EC39CF50EE50F9FF50F020A859002B9E0F58222AF83E5829002C0F05D
:200BED00EFA3F0125F16E58260569002BDE0FEA3E0FF9002BFE0FD9002C0E0FBA3E0FC90A9
:200C0D000664EDF0900665EBF0ECA3F090066774BCF07402A3F0E4A3F08E828F8312609961
:200C2D00E582601574C1C0E07477C0E07480C0E012446E1581158115819002BCE0F582228A
:200C4D009002C0E0FEA3E0FF7D009002BDE0FBA3E0FC8B178C188D199002BFE0F9F87C0025
:200C6D009006DAE517F0E518A3F0E519A3F09006DDE8F0ECA3F08E828F838DF0C001126D41
:200C8D0022D001898222AF82C007125F16E582D0076017EF24EF400475820022EF24DF4062
:200CAD00027F0FEF24E050027F1F200903020D6B9002B9E0FE8E1A751B00EF24DF50027FEA
:200CCD00208F027B00C3EA951AEB951B506EAB1A9002B9EBC39FF09002C2E0FAA3E0FB909D
:200CED0002BD74BDF07401A3F09002BFEFF08A828B83C007120BE5AB82D0078B1A751B00B3
:200D0D00EF24BDFAE43401FB8A1D8B1E751F009002B9E0FC7D009006DAE51DF0E51EA3F068
:200D2D00E51FA3F09006DDECF0EDA3F09001BD75F000126D22D206AC1A8C8222C209D2067B
:200D4D009002C2E0FCA3E0FD9002BD74BDF07401A3F09002BFEEF08C828D83020BE5C20657
:200D6D00C00712571685821A85831BD0073008309002B9E0FEC3EF9E500475820022D205E0
:200D8D00C2089002C2E0FCA3E0FD9002BD74BDF07401A3F09002BFEEF08C828D83020BE515
:200DAD00C2058F057E00C3ED951AEE951B50048D1A8E1B9002B9E4F0E51A451B7003F58244
:200DCD002290059CE07045E51A451B603B9002C2E0FDA3E0FEAC1A78B9ECF28D828E83C0BD
:200DED000412559BD00450209002B9ECF09002C2E0FDA3E0FE9002BDEDF0EEA3F09002BFC5
:200E0D00ECF09001BD020BE575820022780AE2B401028003020EA17401B51A06E4B51B0241
:200E2D008002806C125A41AD82AE83780BD3E29DF4B3FDB308E29EF4FE780DC3E29D08E2D3
:200E4D009E50499002B9E0FE04F0EE24BDFEE43401FDC006C005125487AC82D005D0068E6F
:200E6D00828D83ECF0780AE4F29002C2E0FDA3E0FE9002B9E0FC9002BD74BDF07401A3F04E
:200E8D009002BFECF08D828E83020BE575820022780AE4F2780AE27003020F26780AE2FD26
:200EAD007E00C3E51A9DE51B9E505A125A41AD82AE83780BD3E29DF4B3FDB308E29EF4FE4D
:200ECD00780DC3E29D08E29E5037AC1A78B9ECF29001BDC00412559BD0049002B9ECF078D3
:200EED000AE4F29002C2E0FDA3E0FE9002BD74BDF07401A3F09002BFECF08D828E83020B81
:200F0D00E5758200229002C2E0FDA3E0FE7810EDF208EEF28F82020A69E51A451B7003026B
:200F2D00110D900000C00712555185821CD00774FEB51C02800A74FDB51C0280030210DBFA
:200F4D007401B51A06E4B51B028002802F9002B9E0600302110D780A7401F2125A41E582A8
:200F6D008583F0780BF208E5F0F27808E2FC08E2FD780DECF208EDF275820022900001C02F
:200F8D0007125551AD82D007780AEDF2BDE60050208D037C0074192BFBE43CFC780FE2FACD
:200FAD007E00C3EA9BEE64808CF063F08095F05036780AE4F29002B9E0FE04F0EE24BDFEF0
:200FCD00E43401FCC007C006C004125487AB82D004D006D0078E828C83EBF0151A74FFB5B2
:200FED001A02151B020F2674082DFE780AF274FDB51C25780A74042EF2C37402951AE49564
:20100D001B5015900002C007125551E582D00730E006780AE2240DF29002B9E06056125A0A
:20102D0041E5828583F0780BF208E5F0F2780AE2FD7E0078089006E5E2F008E2A3F08D8287
:20104D008E83126E0DE5828583F0780DF208E5F0F29002C2E0FDA3E0FE9002B9E0FC9002D5
:20106D00BD74BDF07401A3F09002BFECF08D828E83020BE5780AE2FD7E00C3E51A9DE51B00
:20108D009E5037125A41E5828583F0780BF208E5F0F2780AE2FD7E0078089006E5E2F0081A
:2010AD00E2A3F08D828E83126E0DE5828583F0780DF208E5F0F2758200229002C2E0FDA36F
:2010CD00E0FE7810EDF208EEF28F82020A699002B9E0FE04F0EE24BDFEE43401FDC007C0C9
:2010ED0006C005125487AC82D005D006D0078E828D83ECF0151A74FFB51A02151B020F26A5
:20110D009002C2E0FEA3E0FF9002B9E0FD9002BD74BDF07401A3F09002BFEDF08E828F831E
:20112D00020BE5A20522A20622D20822E5829002C4F0E0780FF222AF83E5829002C5F0EF2A
:20114D00A3F09002C5E0FEA3E0FF9006CBEEF0EFA3F0E4A3F0A3F090000075F001E4126B16
:20116D00BCAC82AD83AEF0FF0CBC00090DBD00050EBE00010F7808ECF208EDF222E58290D1
:20118D0002C9F0200B3B9002C7E0FEA3E0FF7D009002C9E0FCFA7B009006DAEEF0EFA3F06F
:2011AD00EDA3F09006DDEAF0EBA3F09000C175F000C004126D22D0049002BAECF0C207C334
:2011CD002220073F9002C9E0FF9002BAE0FEEFB506319002C7E0FDA3E0FE9006FAEDF0EE29
:2011ED00A3F0E4A3F09006FDEFF0E4A3F09000C175F000127043E5828583F045F07004C2AA
:20120D0007D322D207C322AF83E5829002CAF0EFA3F07812C3E2F5F074FC95F050057812B8
:20122D0074FCF29002CAE0FEA3E0FF9006DAEEF0EFA3F0E4A3F078129006DDE2F0E4A3F0F6
:15124D009001BD75F000126D2278129002B9E2F0C205D20922CD
:2077C1006572726F72207768696C6520747279696E6720746F20656E63727970742064617B
:0377E100746100D0
:060502009003C9740AF029
:2012620078A0E2FE08E2FF78A3E2FD7C00789FE2FB8B288C2978A2E2FB8B2A8C2B789EE25E
:20128200FB7A00C006C007C005C004C028C029C02AC02BC003C00274E4C0E07477C0E0749F
:2012A20080C0E012082DE58124F3F5817826E2FE7F00C007C00612384FAC82AD83D006D0AB
:2012C20007789CE2F52A08E2F52B789AE2F52808E2F5297898E2F52C08E2F52D7896E2F5C9
:2012E2002E08E2F52F7894E2F53008E2F5317890E2F53208E2F5337892E2FA08E2FBC006D9
:20130200C007C004C005C02AC02BC028C029C02CC02DC02EC02FC030C031C032C033C00297
:20132200C0037410C0E07478C0E07480C0E012082DE58124EBF58178A0E4F208F2229003D5
:20134200C8E0FF30E00302126222AF827E00781D9006E5E2F008E2A3F08F828E83126E0D7C
:20136200AE82AF83781BE22EFE08E23F8E82F58322AF827813E2F5347814E2FC08E2FD7805
:2013820031E230E6467401B534107819E2FA08E2FB7814EAF208EBF280467402B534028028
:2013A200057403B5340F78137403F278147401F208E4F2802B7813E4F27830E2FA08E25424
:2013C2001FFB7814EAF208EBF2801578137402F27830E2FA08E2541FFB7814EAF208EBF2F3
:2013E2007813E2B40203EF6004C2138002D213A213920C7813E26002C20D7850E2540270D5
:20140200012278147945D3E29CF4B3F3B308E29DF409F37813E2B5346EC007781BE2FA0846
:20142200E2FB9007027402F0E4A3F08A828B83C003C002127122AE82AF83D002D00378454F
:20144200C3E2F5F0EE95F008E2F5F0EF648063F08095F0D0074030E49AFAE49BFB900702C1
:201462007402F0E4A3F08A828B83C007127122AB82AE83D0077845C3E29B08E264808EF089
:2014820063F08095F0504B7E007813E2FA7B00AC347D00C007C006C002C003C004C005748B
:2014A2004FC0E07478C0E07480C0E012082DE58124F7F5817845E2C0E008E2C0E07462C07E
:2014C200E07478C0E07480C0E012082DE58124FBF58122AE82AF83781FC3E29E08E29F5091
:2014E20008781FE4F208F2800A781FE2C39EF208E29FF27814C3E2F5F0EE95F008E2F5F052
:20150200EF95F050030217407813E2FC7D000CBC00010D9006ED7404F0E4A3F08C828D836D
:20152200C007C006126EC1AC82AD83D006D0077813ECF27814D3E29EF4B3FEB308E29FF4B3
:20154200FF7813E260067813E2B402107816E2FC08E2FD7814ECF208EDF2800E7819E2FCE3
:2015620008E2FD7814ECF208EDF27813E260067813E2B40125C007C006122C41123048D0B1
:2015820006D0077853C3E2F5F0740195F0500B782AE4F208F2782EF208F27813E2600302EC
:2015A2001733C006C0077821E2FC7D007826E2F5358D36ECC39535FEED9536FFBE640ABFD8
:2015C2000007D007D006021733D007D006C006C007C007C006C005C0047822E2C0E008E2B3
:2015E200C0E008E2C0E008E2C0E090333375F073743F126AEB85823785833885F039F53AF2
:20160200E58124FCF581D004D005D006D0077827E2F58208E2F583C005C0041272B1AA8232
:20162200AB83AEF0FFD004D005C007C006C005C004C002C003C006C00790000075F0A07403
:2016420040126AEB85823B85833C85F03DF53EE58124FCF581D004D005D006D0077819791A
:2016620016E3C5F0E225F0FE09E3C5F008E235F0CE25E0CE33FF8E828F83C005C004127213
:20168200B1AA82AB83AEF0FFC002C003C006C007853B82853C83853DF0E53E1273EEAA8294
:2016A200AB83AEF0FFE58124FCF581C002C003C006C0078537828538838539F0E53A127181
:2016C20093AA82AB83AEF0FFE58124FCF581D004D0057822EAF208EBF208EEF208EFF27835
:2016E20027E4F208F2ECC39535FCED9536FD8C828D83127269AC82AD83AEF0FFC007C00634
:20170200C004C005C006C0077822E2F58208E2F58308E2F5F008E2126DDDE58124FCF5814B
:20172200D006D007E58224FF9214B39210D007D006C20CC20D781FE4F208F20214F578142D
:20174200E2C39EF208E29FF2227813E2FE7F0074022EFEE43FFF9006ED7404F0E4A3F08E17
:20176200828F83126EC1AE827813EEF222123484E582FF24EB40057826E4F22212384FE53D
:20178200828583F0249CFEE5F034FFFFC3E49E74808FF063F08095F0E433FD700C7826E2E8
:2017A20060077826E214F28037C3740A9E74808FF063F08095F050087826E2240AF2802041
:2017C200C374059E74808FF063F08095F050087826E22405F28009ED60067826E22401F2FC
:2017E2007821E2FE7F007826E2FC7D00EEC39CFEEF9DFFC3EE9414EF6480948050087821EF
:201802007926E224ECF322300F099003C9E4F0C20F80079003C9E02401F09003C9E0FFBF05
:2018220002005004C2958006A20E9295B20EEF24D740030218C09003C97405F0125A97E528
:201842008230E0597814E2FE08E2FF7819C3E29E08E29F5017781BD3E29EF4B3FCB308E25C
:201862009FF4FD7814ECF208EDF2800878147401F208E4F27850E2540260227814E2C0E09C
:2018820008E2C0E0C006C007746EC0E07478C0E07480C0E012082DE58124F9F5817850E2A3
:2018A200540260157488C0E07478C0E07480C0E012082D158115811581C219122CA3900347
:2018C200C9E0603D122DCAAF827E00789EE29006E5F0E4A3F0900003C007C006126E0DACD5
:2018E20082AD83D006D007EC2FFCED3EC313CC13CCC313CC13CCFD789EECF278A0E4F2085C
:20190200F29003C9E0FF24FA50179006D7E4F09006D87404F0E4A3F09000A275F060126C10
:20192200FA78509003C8E2F0D2119003CAE02401F0E0FFBF040812176F9003CAE4F022905C
:2019420003D175F0001273D6E5828583F02401FEE435F0FF9006DA74D1F07403A3F0E4A331
:20196200F09006DDEEF0EFA3F090003475F060126D22D21222AF82BF02004017EF24EF40E7
:20198200129002CCE0FEBE520A9002CDE0FEBE54028002D3229006DA74CCF07402A3F0E488
:2019A200A3F09006DDEFF0E4A3F09003D175F000C007126D22D007EF24D1F582E43403F556
:2019C20083E4F09003D17441F0784FEFF2D2179000BC74FCF09002CC1205591225FC120550
:2019E20082E582FF600A7812EFF29002CC121214C322125A41784AE582F208E583F2784AC1
:201A0200794CE2F308E209F378FF762A78FFB62A0280157497C0E07478C0E07480C0E01262
:201A2200446E158115811581784EE2B44102801574A4C0E07478C0E07480C0E012446E154B
:201A420081158115811225FC9003C8E060081213409003C8E4F0300A0E90059CE06008208C
:201A62001605C20A120954122C31123149125A41AA82AB83786774CCF2087402F2900047B4
:201A820075F060C003C002122CD3D002D0034003021C5DD20FD219C003C002122CA3122D15
:201AA200CAAD82D002D0037C00789EE29006E5F0E4A3F0900007C005C004C003C002126E0B
:201AC2000DAE82AF83D002D003D004D005EE2DFEEF3CC423CEC423541F6ECE541FCE6ECE3B
:201AE200789EEEF278A0E2FE08E2FF0EBE00010F78A0EEF208EFF2781FE4F208F27847E248
:201B0200B402005003021A0E7847E224FC24CCFEE43402FF9006DAEEF0EFA3F0E4A3F090F1
:201B220006DD7404F0E4A3F090003075F060C003C002126D22D002D0037847E214141414A0
:201B4200F27830E2FE08E2541FFF4E70417847E2603C7847E2B404209006DA74CCF07402E2
:201B6200A3F0E4A3F078479006DDE2F0E4A3F09000A275F060126D2278A0E2FE08E2FF1E47
:201B8200BEFF011F78A0EEF208EFF2021A0E7830E2FE08E2541FFF4E7003021A0E7847E2EB
:201BA200F582C003C002121373D002D003784AEAF208EBF27831E2C4035401FFBF010A787F
:201BC20047E2F58212197740387847E27003021A0E7831E230E503021A0E7831E22354013B
:201BE20024FF920B9002C774CCF07402A3F07847E2F58212118A5003021A0E301603021AEA
:201C02000E750CCC750D027847E2F582120847AE82AF837832E2FC08E2FDEEB50417EFB537
:201C22000513C296784779B7E2F39002CC1251D2D296021A0E789CE2FE08E2FFBEFF06BFEA
:201C4200FF03021A0E789CE2FE08E2FF0EBE00010F789CEEF208EFF2021A0E125A41AA82BD
:201C6200AB83784A7948D3E29AF4B3F3B308E29BF409F37848E2F58208E2F583C003C002A0
:201C82001214D5D002D003784AEAF208EBF2784CD3E29AF4B3FCB308E29BF4FD7E007F0043
:201CA200C3E49C74809DE49E74808FF063F08095F05012C003C002121809D002D003784C7E
:201CC200EAF208EBF27829E27003021D4C122DD0AF827829C3E2F5F0EF95F05016782A7980
:201CE20048E3C5F0E225F0F209E3C5F008E235F0F28036782AE4F208F2782EE2F5F008E2F8
:201D020045F07025126A70AE82AF83782C9006F5E2F008E2A3F08E828F83126F96E5828506
:201D220083F0782EF208E5F0F2782C792EE3C5F0E225F0FE09E3C5F008E235F0FF782AC3DB
:201D4200E29E08E29F5003021A0E7813E26011200C03021A0E7813E2B402028003021A0EF2
:201D6200300D03021A0E781FE2F5F008E245F06003021A0E200F05122DB34005122D9A5059
:201D820011781BE2FE08E2FF781FEEF208EFF2021A0E122DD0AF827E00789FE29006E5F028
:201DA200E4A3F0900003C007C006126E0DAC82AD83D006D007EC2FFCED3EC313CC13CCC36C
:201DC20013CC13CCFD789FECF2301003021A0E7814791BC3E3F5F0E295F009E3F5F008E217
:201DE20095F05003021A0E7814791BE3F5F0C3E295F0FE09E3F5F008E295F0FF781D900665
:201E020089E2F008E2A3F08E828F831266E2AE82AF83BE14005003021A0EEE24FBFEC006EA
:201E2200125F16E582D006600CBE10005003021A0EEE24F0FE7818C3E29E50047818E2FE8E
:201E420030125790003475F060C0061273D6AD82AF83D0068E037C00C3EB9DEC9F403B9018
:201E6200003475F060C0061273D6AD827847EDF29006DA7434F0E4A3F07460A3F09006DD20
:201E8200EDF0E4A3F09002CC75F000126D22D0067831E24420F2C21280559002C274CCF0A4
:201EA2007402A3F08E82C006120C93AF82D0067847EFF2EF6019C007C006121133D006D0F8
:201EC200079215E433FD783113E292E5F280067831E254DFF2750CCC750D028F82C0061247
:201EE2000847AD82AF83D0067832EDF208EFF278477918C3E2F5F0E395F05019C00674BA49
:201F0200C0E07478C0E07480C0E012446E158115811581D0067813E2B40203D38001C392D4
:201F220015E433783113E292E6F2C006121130D0069215E433FF783113E292E7F27813E249
:201F420070447847E2703F30113CBE04004037C2119006DA749EF0E4A3F07460A3F090060C
:201F6200DD7404F0E4A3F09002CC75F000126D2278477404F27830E4F208E254E0F27831DF
:201F8200E2547FF28077125F16E58260487847E2FE7F0074042EFEE43FFFC4CEC4540F6E00
:201FA200CE540FCE6ECE30E30244F00EEEC454F0F58212134CAE82AF837814E2C39EFE0878
:201FC200E29FFF7830EEF208EF541FF5F0E254E045F0F280287847E22404F58212134CAE64
:201FE20082AF837814E2C39EFE08E29FFF7830EEF208EF541FF5F0E254E045F0F2122C2163
:202002001231497847E224CCFEE43402FF7D009006DA7430F0E4A3F07460A3F09006DD7444
:2020220004F0E4A3F08E828F838DF0126D227847E2600E7830E2FE08E2541FFF4E6002C28E
:20204200967847E27002D20D781BE2FE08E2FF781FEEF208EFF27821E2FE7F007826E2FCC6
:202062007D00EEC39CFEEF9DFFBE6405BF000280177847E22404F58212134CAE82AF837801
:2020820027E22EF208E23FF27847E22404FF7819E2FD08E2C313CD13CDFE7814E22DFD08B7
:2020A200E23EFE786F74CCF2087402F27871EDF208EEF28F82123015401A7847E260157877
:2020C20030E2FE08E2541FFF4E60097831E220E5031211367829E2600B782AE4F208F27817
:2020E2002EF208F27847E2600E7830E2FE08E2541FFF4E6002D2967816E2FE08E2C313CEBD
:2021020013CEFF7814C3E2F5F0EE95F008E2F5F0EF95F05012125857500A1258B24008121E
:2021220050D380F61250D3122C31123149123048021A0E122DD6AF829006F1EFF0E4A3F0FD
:20214200A3F0A3F09003E8E4F5F0126F2AAC82AD83AEF0FF9006CBECF0EDA3F0EEA3F0EF40
:20216200A3F090120075F07AE4126BBCAC82AD83AEF0FF74082CFCE43DFDE43EFEE43FFF2D
:20218200EDC4CCC4540F6CCC540FCC6CCCFDEEC454F04DFDEFC4CEC4540F6ECE540FCE6E3A
:2021A200CE74012CFEE43DFF781DEEF208EFF29006E5EEF0EFA3F090000DC007C006126EAD
:2021C2000DE5828583F0D006D007240DFCE435F0FD781BECF208EDF230222E78187474F26F
:2021E200EFCE25E0CE33FF781DEEF208EFF2EFCE25E0CE33CE25E0CE33FFEE2CFCEF3DFDE8
:20220200781BECF208EDF28005781874F8F2781B7919E2F308E2F5F0E325E0C5F033C5F0A3
:20222200F309E5F0F3781D9006F1E2F008E2A3F0E4A3F0A3F07818E2FC7D007E007F008CEF
:20224200828D838EF0EF126F2A85823F85834085F041F542781BE2FA08E2FB7E007F009076
:2022620006F1E53F2AF0E5403BA3F0E5413EA3F0E5423FA3F0900003E4F5F0126F2AAC820F
:20228200AD83AEF0FF9003CDECF0EDA3F0EEA3F0EFA3F0782C7438F2087401F27829E2601C
:2022A2003A788474A8F2087403F208E4F208F27888ECF208EDF208EEF208EFF28C828D83DB
:2022C2008EF0EF12410FAC82AD83AEF0FF9003CDECF0EDA3F0EEA3F0EFA3F09003CDE0FC37
:2022E200A3E0FDA3E0FEA3E0FFC3EC94A8ED9461EE9400EF9400401B7853C3E2F5F0740162
:2023020095F0500F9003CD74A8F07461A3F0E4A3F0A3F075820F123D6FAC82AD83AEF0FF3A
:202322009006F1ECF0EDA3F0EEA3F0EFA3F090003EE4F5F0126F2A85823F85834085F0412F
:20234200F5429003CDE0FAA3E0FBA3E0FEA3E0FFC3E53F9AE5409BE5419EE5429F503975C0
:20236200820F123D6FAC82AD83AEF0FF9006F1ECF0EDA3F0EEA3F0EFA3F090003EE4F5F094
:20238200126F2AAC82AD83AEF0FF9003CDECF0EDA3F0EEA3F0EFA3F09003CDE0FCA3E0FD1A
:2023A200A3E0FEA3E0FFC374FF9C741F9DE49EE49F500F9003CD74FFF0741FA3F0E4A3F052
:2023C200A3F09003CDE0FCA3E0FDA3E0A3E07816ECF208EDF27866E27E0024F6FFEE34FFDB
:2023E200FE9007027402F0E4A3F08F828E83C005C004127122AE82AF83781D9006E5E2F0D3
:2024020008E2A3F08E828F83126E0DAE82AF83D004D005781BE22EF208E23FF2781BD3E28B
:202422009CF4B3FCB308E29DF4FD781D900689E2F008E2A3F08C828D831266E2AE82AF8353
:202442009003CBEEF0EFA3F07818E2FC7D00C3EC9EED9F50089003CBECF0EDA3F09003CB88
:20246200E0FEA3E08E820211397819E2C0E008E2C0E074CFC0E07478C0E07480C0E01208E3
:202482002DE58124FBF5819000011259D07816E2C0E008E2C0E074E3C0E07478C0E0748035
:2024A200C0E012082DE58124FBF5819000011259D07818E2FE7F00C006C00774F8C0E07470
:1624C20078C0E07480C0E012082DE58124FBF5819000010259D05A
:2077E4004C2F5220525353493A2025752F257520204C2F52206E6F6973653A2025752F2507
:207804007520706B74733A2025752000207478653D2575207278653D2575207374783D258A
:2078240075207372783D2575206563633D25752F257520637263653D25752074656D703DE9
:2078440025642064636F3D25750A0054444D3A2025752F2575206C656E3D257520002064E8
:20786400656C74613A2025640A0054444D3A206368616E67652074696D696E672025752F3B
:2078840025750A0054444D3A207363616E6E696E670A00737461636B20626C6F776E0A0044
:2078A40070646174612063616E617279206368616E6765640A006F76657273697A6564202D
:2078C40074646D207061636B65740073696C656E63655F706572696F643A2025750A007490
:2078E400785F77696E646F775F77696474683A2025750A006D61785F646174615F706163C6
:107904006B65745F6C656E6774683A2025750A0050
:0A050800784E7441F278527464F2E8
:2024D800AF828F06BE08028021BE0D028005BE7F36801775820A1257AA784FE224D1F58230
:2024F800E43403F583E4F0D21722784FE260667582081257AA7582201257AA75820812573F
:20251800AA784FE214F222784FE2B4100050408F057E008D828E83C006C005127276E5820D
:202538008583F0D005D00645F0602A8D828E8312733BAD828D07784FE2FE784F04F2EE2408
:20255800D1F582E43403F583EFF08F820257AAC216784FE4F222AF82BF2B0280047851E4B0
:20257800F27851C3E2F5F0740495F0402C7851E275F003A4902590730225B502259F02255D
:202598009F0225A60225B57851E22401F22278517404F278527464F2227851E4F278527431
:2025B80064F2227852E2603B7852E214F27852E270317851E260087851E2B40426800678AB
:2025D800517401F222D2167851E4F29003D17441F09003D27454F09003D3E4F0784F7402E5
:2025F800F2D2172220170122784FE2B40200E433FF701A9003D1E0FEBE52129003D2E0FEC6
:20261800BE540A121941784FE4F2C21722EF60030226949003D1E0FFBF41619003D2E0FF8C
:20263800BF54599003D3E0FF6023BF26028023BF2B028023BF49028023BF4F028028BF50C1
:2026580002801EBF53028027BF5A2E802712269B802A1229DC8025122AE380201228348033
:202678001B122AE0801678527464F2C216800D122935800843EF1080FE1226BD784FE4F232
:20269800C217227418C0E07479C0E07480C0E07414C0E07479C0E07480C0E012082DE581E4
:2026B80024FAF58122741BC0E07479C0E07480C0E07414C0E07479C0E07480C0E012082D6C
:2026D800E58124FAF58122E5812404F5819003E3E4F0A3F0A3F0A3F09003E2E024D1F582FE
:2026F800E43403F583E0FFFD7E008D828E83C007126D96E5828583F0D00745F0606E90030D
:20271800E3E0FBA3E0FCA3E0FDA3E0FE9006F1EBF0ECA3F0EDA3F0EEA3F090000AE4F5F01E
:20273800C007126F2AC8E58124FCC8A68208A68308A6F008F6D0077A00EF24D0FFEA34FFB4
:20275800FA8F053395E0FEFFE58124FDF89003E3ED26F0EA0836A3F0EE0836A3F0EF08368F
:20277800A3F09003E2E02401F00226F0E58124FCF58122E5829003ECF0E0F5449003E7E0C5
:20279800FE754300C3E5439E400122C006C0061227AC800E9003EAE0C0E0A3E0C0E0854398
:2027B8008222A982AA83ABF0FCD006C006C004C003C002C0011227D2800E9003E8E0C0E034
:2027D800A3E0C0E08543822285824585834685F047D001D002D003D004D006AE437F00E587
:2027F80044F83395E0FDC006C001C002C003C004C045C046C047C006C007C000C005742157
:20281800C0E07479C0E07480C0E012082DE58124F2F581D0060543D00602279C9003D4E0A6
:20283800FF6030BF3002802BBF31028048BF32028065BF33030228CCBF34030228ECBF35D8
:202858000302290CBF360302292CBF370302292F022932743CC0E0747DC0E07480C0E0743E
:2028780014C0E07479C0E07480C0E012082DE58124FAF581227452C0E0747DC0E07480C05D
:20289800E07414C0E07479C0E07480C0E012082DE58124FAF58122744EC0E0E4C0E0742E0C
:2028B800C0E07479C0E07480C0E012082DE58124FBF58122788EE2FE7F00C006C007742E47
:2028D800C0E07479C0E07480C0E012082DE58124FBF58122788FE2FE7F00C006C007742E26
:2028F800C0E07479C0E07480C0E012082DE58124FBF581229003E77411F09003E874E0F0ED
:202918007440A3F09003EA746FF0743DA3F075825302278B02246B0212620226BD9003E265
:202938007403F01226DF9003E3E0FCA3E0FDA3E0FEA3E0FFBC110040030226BD9003E2E0E2
:20295800FF24D1F582E43403F583E0FEBE3D02803BBE3F6D8C82123D6FAA82AB83ADF0FEA0
:202978009003E3EAF0EBA3F0EDA3F0EEA3F0C002C003C005C0067432C0E07479C0E0748099
:20299800C0E012082DE58124F9F58122EC60329003E2EF04F0C0041226DFD0049003E3E042
:2029B800FBA3E0FDA3E0FEA3E0FF7880EBF208EDF208EEF208EFF28C82123C0B5003022612
:2029D8009B0226BD9003D4E0FFBF4503022AC2BF46028017BF50028058BF54028056BF559E
:2029F800028014BF57028009022ADD12404602269B123FE902269B9006E77437F07479A37F
:202A1800F07480A3F09003D575F000126E2DE5828583F045F0701775B7A575B7F1758F039D
:202A380090F7FE74FFF0758F0043EF1080FE0226BD02174B9006E7743DF07479A3F07480F7
:202A5800A3F09003D575F000126E2DE5828583F045F070057850E4F2229006E7743EF074F5
:202A780079A3F07480A3F09003D575F000126E2DE5828583F045F070077850E26401F22203
:202A98009006E77444F07479A3F07480A3F09003D575F000126E2DE5828583F045F070076D
:202AB8007850E26402F2220226BD9003D5E0FFBF3D028006BF3F0E0243489003D612427C58
:172AD800500302269B0226BD0226BD9003E27404F01226DF0226BD2E
:2079140025730A004F4B004552524F5200256325753A25733D256C750A0025750A00256C17
:15793400750A00504441544500003D52535349003D54444D00B1
:202AEF00AF83E582900420F0EFA3F0900420E0FEA3E0FF90041FE0FD7C008D027B001ABA0A
:202B0F00FF011B8C007900C3E89AE964808BF063F08095F05046C007C006C005C004126A79
:202B2F0070AA82D004D005D006D0078DF0EA84E5F02EFAE43FFB8A828B83E0F548C005ECA6
:202B4F002EF8E43FFD88828D83E0F98A828B83F088828D83E548F00CD005809E22758203D1
:202B6F00123D6F126ACA758210123D6FAC82AD83AEF0FFEC4D4E4F60141243D885820C8573
:202B8F00830D758220120847AF83026ACA227F007853C3E2F5F0EF95F0500FEF24EDF58276
:202BAF00E43403F583EFF00F80E6122B6C7853E2FF7E008F047D001CBCFF011D8E027B003C
:202BCF00C3EA9CEB64808DF063F08095F05042C007C006126A70AC82D006D0078FF0EC8424
:202BEF00E5F024EDFCE43403FD8C828D83E0F549C007EE24EDFAE43403FF8A828F83E0FBBD
:202C0F008C828D83F08A828F83E549F00ED00780A2227854E224EDF582E43403F583E0F594
:202C2F0082227855E224EDF582E43403F583E0F582227854E2FE7F000EBE00010F7853E2EA
:202C4F00FC7D009006EDECF0EDA3F08E828F83C005C004126EC1AE82AF83D004D00578544A
:202C6F00EEF230180778547955E2F3227854E270227855E2FE7F000EBE00010F9006EDECCE
:202C8F00F0EDA3F08E828F83126EC1AE82AF837855EEF222A2199218500778557954E2F3F6
:202CAF00227855E2FE7F000EBE00010F78539006EDE2F0E4A3F08E828F83126EC1AE827839
:042CCF0055EEF222AA
:202CD300AFF0AE83E582900520F0EEA3F0EFA3F0201A02C3227856C3E2F5F074FC95F05044
:202CF300051230488045900520E0FDA3E0FEA3E0FF8D828E838FF07856E2126DC27867E287
:202D1300FD08E2FE7F009006DA7424F07404A3F0E4A3F078569006DDE2F0E4A3F08D828E9B
:202D3300838FF0126D22123048D3227890E2FE08E2FFBEFF05BFFF02800C0EBE00010F782B
:202D530090EEF208EFF2C322AF8275A700C294C2B77586FF7869E2FD08E2FE8F041FEC6066
:202D73001130B1FD8D828E83E0F586A3AD82AE8380E930B1FD74805584FFBF800280F6C247
:202D9300B7D29475A70022201A057857E26002D322758231123517E58230E402D322C322A1
:202DB300A2A8921CC2A8101B028006A21C92A8D322A21C92A8C3227858E2F58222758226B9
:202DD3000235177863E2F58222758208123517AF8274014FFEC007C0067582081234E11524
:202DF30081D0075307FEC0077582081234E1158122758208123517AF8274024FFEC007C093
:202E1300067582081234E11581D0075307FDC0077582081234E1158122E582FF2403501914
:202E3300C0077449C0E07479C0E07480C0E012446E158115811581D007C007122DDCD00724
:202E5300C007C00775823E1234E11581D007EFFE24DF50027E20786B7969E2F308E209F3A8
:202E73008E82C007C006122D5BD006D007EFC39EFF786BE22EF208E23400F2C007E4C0E0CC
:202E93007582051234E11581E4C0E07582061234E11581C21BC21D7409C0E075820712340B
:202EB300E11581125A41AC82AD83D007C007C005C004125A41AA82AB83D004D005D007EAE5
:202ED300C39CFAEB9DFB786DC3E2F5F0EA95F008E2F5F0EB95F04003022FF8758203C007B9
:202EF300C005C004123517AB82D004D005D007301D40EF603DEB30E5397E04BF0400500242
:202F13008F06786B7969E2F308E209F38E82C007C006C005C004122D5BD004D005D006D07A
:202F330007EFC39EFF786BE22EF208E23400F2022EBF301D40EF603DEB20E6397E04BF04BC
:202F53000050028F06786B7969E2F308E209F38E82C007C006C005C004122D5BD004D0058E
:202F7300D006D007EFC39EFF786BE22EF208E23400F2022EBFEB30E720122DDC7892E2FA3B
:202F930008E2FEBAFF05BEFF02800C0ABA00010E7892EAF208EEF2C322758202C007C00522
:202FB300C004123517AB82D004D005D007EB30E105D21D022EBF201D03022EBFEB30E10322
:202FD300022EBFEF601D7892E2FE08E2FFBEFF05BFFF02800C0EBE00010F7892EEF208EFE5
:202FF300F2C322D3227892E2FE08E2FFBEFF05BFFF02800C0EBE00010F7892EEF208EFF262
:20301300C322E582900523F0A2A8921FC2A8900523E0FF786F796BE2F308E209F3787179C5
:203033006DE2F308E209F38F82122E2C921EA21F92A8A21E22C2A8C21A7856E4F2C21B780C
:2030530057E4F27413C0E07582051234E115817440C0E07582061234E1158112358B122D31
:20307300DC122E047405C0E07582071234E11581D2A8D3229000321259D075820112351787
:20309300AF82BFFF028005BF05005002C3221235EB758201123517E582FF20E0061235EB86
:2030B300922022EF30E102D322C322AC82AD83AEF0FFC3ED941CEE944EEF940E400E74C00F
:2030D3009C74F79D74BA9E74379F5002C322785BECF208EDF208EEF208EFF28C828D838ED7
:2030F300F0EF123657D322AC82AD83AEF0FFC374F09C74E89D74269EE49F5002C3227873B6
:203113007410F2087427F208E4F208F28C828D838EF0EF123597AC82AD83AEF0FF785FEC92
:20313300F208EDF208EEF208EFF2C00475827A1234E11581D322E582900524F07864E2FF1E
:20315300E0FEB50701227864EEF2C0067582791234E11581C21B227864E2F58222AF82C0A9
:2031730007E4C0E07582051234E11581E4C0E07582061234E1158112358B7415C0E07582C8
:203193000B1234E115817412C0E075820C1234E1158174CCC0E07582091234E11581D007FA
:2031B300EF249B5010C00774C0C0E07582581234E11581D007785BE2FB08E2FC08E2FD08EB
:2031D300E28B828C838DF0C007123657785FE2FB08E208E208E2C00375827A1234E1158198
:2031F300D007302229C0077488C0E07582301234E115817402C0E07582331234E11581E442
:20321300C0E07582321234E11581D0078040C007748DC0E07582301234E115817422C0E0FC
:203233007582331234E11581740CC0E07582321234E1158174FFC0E07582431234E1158184
:2032530074FFC0E07582441234E11581D007C007743CC0E075827C1234E115817420C0E0FE
:2032730075827D1234E115817432C0E075827E1234E1158178667410F27866E2FEC0067545
:2032930082341234E115817428C0E07582351234E11581758200123443D0077E00EE9079B7
:2032B3006693FDC39F50060EBE0C0040F0EEFF90796693FE7863F2BE200040047E0D80025C
:2032D3007E2D75820DC007C006123D6FAA82AB83ACF0FDD006D007EA4B4C4D600B7863E24B
:2032F300FD247F4003430602C007C0067582701234E115817423C0E07582711234E1158180
:203313007444C0E075821D1234E11581D0077863E2FEBEC8005012C007740AC0E075821EFD
:203333001234E11581D0078010C0077402C0E075821E1234E11581D007788EE2B4433A7E39
:2033530000EE75F00DA42473FC747935F0FDEF2CF582E43DF583E493FDEE90795A93FCC075
:2033730007C006C0058C821234E11581D006D0070EBE0C0040CB023441788EE2B447397E3C
:2033930000EE75F00DA4240FFC747A35F0FDEF2CF582E43DF583E493FDEE90795A93FCC098
:2033B30007C006C0058C821234E11581D006D0070EBE0C0040CB8076788EE2B486397E003E
:2033D300EE75F00DA424ABFC747A35F0FDEF2CF582E43DF583E493FDEE90795A93FCC007B5
:2033F300C006C0058C821234E11581D006D0070EBE0C0040CB80377E00EE75F00DA4244730
:20341300FC747B35F0FDEF2CF582E43DF583E493FDEE90795A93FCC007C006C0058C82129B
:2034330034E11581D006D0070EBE0C0040CBD322E582900525F0E0FF7E00EE907BE393FD6F
:20345300C39F50060EBE080040F0900526EEF0BE08069005267407F0900526E0FF907BE38A
:2034730093FE7865EEF2C00775826D1234E11581227865E2F58222AF83E582900527F0EF55
:20349300A3F0900527E0FEA3E0FF8E047859ECF28F05785AEDF2202234C007C006C005C05C
:2034B3000575823A1234E11581D005D006D007C006C005C00675823B1234E1158175823F0E
:2034D3001234E115817582401234E1158122AF82A2A89238C2A875A700C294C2B774804F29
:2034F300F58630B1FDA8811818868630B1FD74805584FFBF800280F6C2B7D29475A700A2FD
:203513003892A822AF82A2A89238C2A875A700C294C2B78F8630B1FD75860030B1FD7480AA
:203533005584FFBF800280F6AF86C2B7D29475A700A23892A88F8222AF8275A700C294C20D
:20355300B775867F30B7FD8586E0E58124FDF886050886068F041FEC6016C2B77586003002
:20357300B7FD8D828E83E586F0A3AD82AE8380E4C2B7D29475A70022758203123517758236
:2035930004023517AF82AE83ADF0FC7877EFF208EEF208EDF208ECF27876E2C313FF18E2A7
:2035B30013FE18E213FB18E213FA7877E22AFA08E23BFB08E23EFE08E23FFF78739006CB29
:2035D300E2F008E2A3F008E2A3F008E2A3F08A828B838EF0EF026BBCE4C0E0758205123419
:2035F300E11581E4C0E07582061234E1158112358B7481C0E07582071234E115819000024F
:203613001259973087071259C850F8C322E4C0E07582051234E115817402C0E07582061215
:2036330034E115819000141259971259C84013758203123517758204123517E58230E1EA8D
:20365300D322C322AF82AE83ADF0FC787BEFF208EEF208EDF208ECF2787BC3E2F5F0E49503
:20367300F008E2F5F0743895F008E2F5F0749C95F008E2F5F0741C95F0400302374C787C43
:20369300E224C8F208E23463F208E234E3F29006CBE4F0742DA3F07431A3F07401A3F078D0
:2036B3007BE2F58208E2F58308E2F5F008E2126BBCAA82900529EAF09006F1EAF0E4A3F033
:2036D300A3F0A3F0902D0075F0317401126F2AAC82AD83AEF0FF787BE2C39CF208E29DF2A4
:2036F30008E29EF208E29FF278737471F2087402F208E4F208F2787BE2F58208E2F5830802
:20371300E2F5F008E2123597787BC0E0E582F208E583F208E5F0F2D0E008F2787BE225E066
:20373300F208E233F208E233F208E233F2900529E0FF74204FF002380D787CE224E4F208C8
:20375300E234B1F208E234F1F29006CB7480F07496A3F07498A3F0E4A3F0787BE2F5820850
:20377300E2F58308E2F5F008E2126BBCAC82900529ECF09006F1ECF0E4A3F0A3F0A3F09092
:20379300968075F098E4126F2AAC82AD83AEF0FF787BE2C39CF208E29DF208E29EF208E276
:2037B3009FF278737471F2087402F208E4F208F2787BE2F58208E2F58308E2F5F008E212E2
:2037D3003597787BC0E0E582F208E583F208E5F0F2D0E008F2787BE225E0F208E233F20860
:2037F300E233F208E233F2181818E225E0F208E233F208E233F208E233F2900529E0FF7441
:20381300404FF0787BE2FC08E2FDC005C004E0C0E07582751234E11581D004D0058D07C02F
:2038330005C004C0077582761234E11581D004D005C0047582771234E1158122D2EC20EC37
:20385300FDAFBE7E00ACBD7D00EC4206ED42078E828F83127269AA82AB83ACF0FDC002C099
:2038730003C004C00590FF2E75F0D1743F126AEBAA82AB83ACF0FDE58124FCF5818A828B16
:20389300838CF0ED127235AE82AF83EE24FFFCEF34FBFD8C828D83127269AA82AB83ACF0E5
:2038B300FD749AC0E014C0E07459C0E07440C0E08A828B838CF0ED1273EEAA82AB83ACF0E9
:2038D300FDE58124FCF581E4C0E0C0E074C8C0E07441C0E08A828B838CF0ED127193AA82C2
:2038F300AB83ACF0FDE58124FCF5818A828B838CF0ED027235E58290052AF0E0FF24FC4071
:2039130068EF2F2F90391B7302392702397C02397C02394C7418C0E075820D1234E1158144
:20393300758208123517AF82741F5F4480FFC0077582081234E1158122758208123517AF80
:2039530082741F5F4420FFC0077582081234E11581740AC0E075820D1234E11581E4C0E097
:2039730075820E1234E1158122758208123517AF8253071FC0077582081234E11581740A48
:20399300C0E075820D1234E115817404C0E075820E1234E1158122C027C0E0C0F0C082C07E
:2039B30083C007C006C005C004C003C002C001C000C0D075D000758204123517AF827582FF
:2039D30003C007123517AE82D007EE30E4497857E2FC7D0074322CFCE43DFDC374FC9CE491
:2039F3009D5003023AB57857E22424FCE43404FDC007C006C004C00575823212354B15815E
:203A130015817857E22432F2758226123517E582D006D0077858F2EF30E611D21B75822693
:203A3300C006123517E582D0067858F2202204EE20E06FEE30E16975824B123517E582FF3F
:203A53002403405E7857C3E2F5F0EF95F040537857C3E29F50227857E22424FDE43404FE99
:203A73007857D3E29FF4FCC007C005C0068C8212354B15811581D0077856EFF2D21AE4C0EC
:203A9300E07582051234E11581E4C0E07582061234E115817402C0E07582071234E115816B
:203AB300801E7890E2FE08E2FFBEFF05BFFF02800C0EBE00010F7890EEF208EFF21230483F
:1D3AD300D0D0D000D001D002D003D004D005D006D007D083D082D0F0D0E0D027325C
:207949006F76657273697A6564207061636B6574001C1F2021222324252A6E6F720204081A
:207969001013182030406080C0FA2727272E1601050B9A888A8C8D030303030303030303EF
:2079890003030303F4FA7D3F69A77D535E7D5E3F30200001020100010101010102024183AF
:2079A900060C37C406895D065D0CAA8912254A4C9C25378625864AAB000102040201020329
:2079C900020202040785080E12728A0E18BB0EBBEAFF1D1D1D1E1E1E2030415050505010BF
:2079E9002041839BC4080C101820314062C58912A69C314A6293C5270003060D1A1E263367
:207A09004D669ACDFEFE2B2B2B2E1601050B9A888A8C8D0303030303030303030303030385
:207A2900F4FA7D3F69A77D535E7D5E3F30200001020100010101010102024183060C37C40D
:207A490006895D065D0CAA8912254A4C9C25378625864AAB0001020402010203020202048B
:207A69000785080E12728A0E18BB0EBBEAFF1E1E1E21212121304150505050102041839B9C
:207A8900C4080C101820314062C58912A69C314A6293C5270003060D1A1E26334D669ACD2B
:207AA900FEFE010101010101050B9A888A8C8D03030303030303030303030303D0E8F4FA19
:207AC900D3A77D535E7D5E3F30E0602000000001010101010202102041839BC406895D06FD
:207AE9005D0CAA62C58912A69C25378625864AAB00000001010102030202020407234485DF
:207B090008398A0E18BB0EBBEAFF1C1C1C1C1C1E20304150505050102041839BC4080C100C
:207B29001820314062C58912A69C314A6293C5270003060D1A1E26334D669ACDFEFE010174
:207B490001010101050B9A888A8C8D03030303030303030303030303D0E8F4FAD3A77D532C
:207B69005E7D5E3F30E0602000000001010101010202102041839BC406895D065D0CAA6231
:207B8900C58912A69C25378625864AAB0000000101010203020202040723448508398A0EDA
:207BA90018BB0EBBEAFF1E1E1E1E1E1E20304150505050102041839BC4080C101820314092
:207BC90062C58912A69C314A6293C5270003060D1A1E26334D669ACDFEFE010205080B0E56
:027BE900111475
:203AF00075B7A575B7F122D310AF01C3C0D0123AF0758F0790000074FFF0758F00D0D09250
:203B1000AF22D310AF01C3C0D0AE82AF83758F048E828F83E493FF758F008F82D0D092AFE6
:203B300022D310AF01C3C0D0AE82AF83C007C006123AF0D006D007758F058E828F83787F73
:0A3B5000E2F0758F00D0D092AF2292
:02F7FE003DC20A
:203B5A00AF82BF1100400122EF24F05003023C09EF2F2F903B7173023BA1023BA3023BADA6
:203B7A00023BBF023BC1023BD3023BE5023BD3023C09023C09023C09023C09023C09023C4E
:203B9A0009023C09023BF7C322AF4A8F821257BE922122C3E4954A7401954BE4954CE49583
:203BBA004D504CC322D322C37414954AE4954BE4954CE4954D5038C322C37401954AE495B2
:203BDA004BE4954CE4954D5026C322C37402954AE4954BE4954CE4954D5014C322C3748330
:203BFA00954AE4954BE4954CE4954D5002C322D322AF827880E2F54A08E2F54B08E2F54CB2
:203C1A0008E2F54D8F82C007123B5AD007400122BF0402801FBF0603023D11BF0703023D21
:203C3A004EBF0B02802DBF0C02806FBF0E03023D26023D4E7880E2F582C00712344312343E
:203C5A0084AE82D0077880EEF208E4F208F208F2023D4E7884E4F208F208F208F278887454
:203C7A0064F208E4F208F208F27880E2F58208E2F58308E2F5F008E2C00712410FAB82AC94
:203C9A0083ADF0FED0077880EBF208ECF208EDF208EEF27821EBF2023D4E7880E2F5F008C1
:203CBA00E242F008E242F008E245F0604278847419F208E4F208F208F2788874DCF208E47E
:203CDA00F208F208F27880E2F58208E2F58308E2F5F008E2C00712410FAB82AC83ADF0FE58
:203CFA00D0077880EBF208ECF208EDF208EEF278807929E2F3803D7880E2FE90059CF078AC
:203D1A0080EEF208E4F208F208F280287880E2F5F008E242F008E242F008E245F024FF92E4
:203D3A002350047E0180027E007880EEF208E4F208F208F2EF75F004A4242BF58274053559
:203D5A00F0F5837880E2F008E2A3F008E2A3F008E2A3F0D322AF82BF11004007900000E4EF
:203D7A00F5F022EF75F004A4242BF582740535F0F583E0FCA3E0FDA3E0FEA3E08C828D83CC
:203D9A008EF02285824E85834F90058FE0FCA3E0FD900591E0FB8C018D028B007F00E82C02
:203DBA00F8EF3DFFC3E998EA9F5041E9C39CFEEA9DFFEE254EFEEF354FFF89828A83C007EC
:203DDA00C006C005C004C003C002C001123B12A882D001D002D003D004D005D006D0078E51
:203DFA00828F83E8F009B900B10A80AE854E0C854F0D8B82C002C001120847AE82AF83D0AF
:203E1A0001D002740129FCE43AFD8C828D83C007C006C002C001123B12AD82D001D0028D14
:203E3A00047D0089828A83C005C004123B12AB82D004D005D006D0077A00EB4205EA420488
:203E5A00EEB50506EFB504028002C322D322858250858351900592E0FCA3E0FD900594E058
:203E7A00FB8C528D538B027F00EA2CFAEF3DFFC3E5529AE5539F5036E552C39CFEE5539DCE
:203E9A00FFEE2550F582EF3551F583787FE0F2855282855383C005C004C003123B31D00328
:203EBA00D004D0050552E4B552BB055380B785500C85510D8B82120847AE82AF838E047815
:203EDA007FECF2855282855383C007C006123B31D006D00774012552FCE43553FD787FEFC8
:203EFA00F28C828D83023B31D310AF01C3C0D0124046900000123B12E582FF24BB4005BF74
:203F1A0030005004C3023FE290058F7401F0E4A3F0900591EFF090052B123D9D4003023FE8
:203F3A00E2758200123D6FAC82AD83AEF0FFBC1A0BBD0008BE0005BF00028004C3023FE241
:203F5A007F00EF75F004A4242BFD740535F0FE8D828E83E0F54AA3E0F54BA3E0F54CA3E09B
:203F7A00F54D8F82C007C006C005123B5AD005D006D0074032EF75F007A424EBFB747B35BA
:203F9A00F0FC8B828C83A3A3A3E493F9A3E493FAA3E493FBA3E493FC8D828E83E9F0EAA3E1
:203FBA00F0EBA3F0ECA3F00FBF4400409590058F7481F07401A3F09005917420F090056F54
:203FDA00123D9D40028001D333D0D092AF1322D310AF01C3C0D090052B741AF0E4A3F0A3BE
:203FFA00F0A3F0123AF7787F7444F2900000123B319005927401F0E4A3F09005947444F05E
:20401A0090052B123E68787F7420F2900180123B319005927481F07401A3F0900594742031
:20403A00F090056F123E68D0D092AF227F00EF75F004A4242BFD740535F0FEEF75F007A455
:20405A0024EBFB747B35F0FC8B828C83A3A3A3E493F9A3E493FAA3E493FBA3E493FC8D8269
:20407A008E83E9F0EAA3F0EBA3F0ECA3F00FBF110040BB22AF827E008F037C007D40EE75E9
:20409A00F007A424EBF582747B35F0F583E493F8A3E493F9A3E493FA9006E7E8F0E9A3F0F2
:2040BA00EAA3F08B828C838DF0C007C006126E2DE5828583F0D006D00745F060060EBE1112
:2040DA000040B58E8222AF82BF11005021EF75F007A424EBF582747B35F0F583E493FDA305
:2040FA00E493FEA3E493FF8D828E838FF02290000075F00022AC82AD83AEF0FF7884C3E2A4
:20411A00F5F0EC95F008E2F5F0ED95F008E2F5F0EE95F008E2F5F0EF95F0500D7884E2FC32
:20413A0008E2FD08E2FE08E2FF7888C3E29C08E29D08E29E08E29F500D7888E2FC08E2FDB2
:20415A0008E2FE08E2FF8C828D838EF0EF22AF82BF3000400DEF24C640088F06EE24D0F5CD
:20417A008222BF4100400DEF24B940088F0674C92EF58222BF6100400BEF2499400674A90D
:20419A002FF5822275820022AF83E582900597F0EFA3F0900597E0FEA3E0FF900595E0F562
:2041BA0054A3E0F555788DE4F2788D798CC3E3F5F0E295F05068788DE275F002A4FAABF0AE
:2041DA002EF582EB3FF583E0F582C007C006C003C002124168AD82D002D003D006D007EDEC
:2041FA00C454F0FD0ABA00010BEA2EF582EB3FF583E0F582C007C006C005124168AC82D03D
:20421A0005D006D007EC2DFD788DE22554F582E43555F583EDF0788DE22401F2808B22AF48
:20423A00829005997462F07E00C3EE9F5033EE246FFCE43405FD7B009006DA7499F07405A5
:20425A00A3F0E4A3F09006DD04F0E4A3F08C828D838BF0C007C006126D22D006D0070E805A
:20427A00C822AF83E58290059AF0EFA3F0758210123D6FAC8253040F0CECC40354F8FF900D
:20429A00059AE0FDA3E0FE8D028E037C008A828B838CF0C007C006C0051273D6AB82D00526
:2042BA00D006D007EF75F002A4FAACF08B56755700C3E5569AE55764808CF063F08095F06E
:2042DA00502C8F82C004C002124239D002D004C002C004C056C0577462C0E0747CC0E07451
:2042FA0080C0E012082DE58124F9F581D3228F037C00C007C006C005C003C0047486C0E0CE
:20431A00747CC0E07480C0E012082DE58124FBF581D005D006D007900595746FF07405A382
:20433A00F0788CEFF28D828E831241A2D322758210123D6FAC8253040F7D000CECC403549B
:20435A00F8FF7E00C3EE9F505FEE246FF582E43405F583E0FD24F0401DC007C0067492C0A1
:20437A00E0747CC0E07480C0E012082D158115811581D006D007EE246FF582E43405F583DC
:20439A00E0FD7C00C007C006C005C0047494C0E0747CC0E07480C0E012082DE58124FBF507
:2043BA0081D006D0070E809C7497C0E0747CC0E07480C0E012082D158115811581229005FC
:0243DA006F2250
:207BEB00997C801A000000A07C8039000000AD7C8040000000B77C8019000000BD7C801474
:207C0B00000000C57C8000000000C97C8001000000D17C8000000000DB7C8000000000E44A
:207C2B007C8000000000ED7C8000000000FA7C8064000000057D80000000000E7D800000ED
:207C4B000000197D8000000000207D80830000002B7D80000000004552524F52202D204BF9
:207C6B006579206C656E6774683A25752C2052657175697265642025750A006B6579206C7F
:207C8B00656E2025640A0030002578000A00464F524D41540053455249414C5F5350454567
:207CAB0044004149525F5350454544004E45544944005458504F57455200454343004D41C3
:207CCB00564C494E4B004F5050524553454E44004D494E5F46524551004D41585F465245D2
:207CEB0051004E554D5F4348414E4E454C5300445554595F4359434C45004C42545F525392
:207D0B005349004D414E4348455354455200525453435453004D41585F57494E444F5700D2
:117D2B00454E4352595054494F4E5F4C4556454C0065
:060400000204A10239AA6A
:01040B0032BE
:0104130032B6
:01041B0032AE
:03042300024E0F77
:03042B000259D99A
:010433003296
:01043B00328E
:010443003286
:01044B00327E
:010453003276
:01045B00326E
:010463003266
:01046B00325E
:0304730002594FDC
:01047B00324E
:010483003246
:01048B00323E
:010493003236
:03049B00025EFFFF
:0305240002049E30
:03049E000243DC3A
:2043DC00AFC4788EEFF2AFC3788FEFF2123F024003124046758206123D6FAC8290059CECD9
:2043FC00F0758205123D6FAC82AD83AEF0FFEC4D4E4F24FF922275820E123D6FAC82AD832E
:20441C00AEF0FFEC4D4E4F24FF92231244A812452C12304840157456C0E0747DC0E07480E6
:20443C00C0E012446E158115811581758210123D6FAC828C82125F8140157470C0E0747D7D
:20445C00C0E07480C0E012446E1581158115810219F4907D8975F0801272BDE58124FCFF36
:20447C00C007E58124FBF886820886830886F012058A1581907D9475F0801272BDD2AFD2F4
:20449C00AC9003E81259D043EF1080FEAFD974BF5FF5D975B28F75B64075A90075FF807E45
:2044BC005E7F011EBEFF011FEE4F70F775EF0675A41075A70F75A41075A70075E10143E2E4
:2044DC004043A5F575A70F43A5F5E5A675A6FF75A70075844075B00075850043B001D29428
:2044FC0075A700C289125A7F758201123D6FAC828C82124FDA75B800D2AFD295D296D2EFE3
:20451C0075BCF975BA0075BB1B75D10775E3402212308740157495C0E0747DC0E07480C0C8
:20453C00E012446E158115811581788EE2B44302801C788EE2B447028044788EE2B48602AF
:20455C00806C788EE2B491030245F802462790059D7490F074D1A3F074CFA3F07419A3F081
:20457C009005A17470F0745EA3F074EAA3F07419A3F09005A9740AF07853F202465F9005FA
:20459C009D7480F074A1A3F07403A3F0741CA3F09005A174C0F074E3A3F07412A3F0741CBC
:2045BC00A3F09005A9740AF07853F202465F90059DE4F074A1A3F074BCA3F07433A3F09001
:2045DC0005A17480F07425A3F074DBA3F07433A3F09005A9740AF07853F2806790059D74F7
:2045FC00C0F074CAA3F07489A3F07436A3F09005A1E4F07428A3F023A3F07437A3F090058F
:20461C00A97414F078537432F2803890059DE4F0A3F0A3F0A3F09005A1F0A3F0A3F0A3F0A4
:20463C009005A9F0788EE2FE7F00C006C00774ADC0E0747DC0E07480C0E012446EE581240A
:20465C00FBF58175820A123D6FAC82AD83AEF0FFEC4D4E4F601175820A123D6FAC82AD83AF
:20467C00AEF0FF7853ECF2758208123D6FAC82AD83AEF0FFEC4D4E4F6039758208123D6FF4
:20469C00AC82AD83AEF0FF9006F1ECF0EDA3F0EEA3F0EFA3F09003E8E4F5F0126F2AAC8200
:2046BC00AD83AEF0FF90059DECF0EDA3F0EEA3F0EFA3F0758209123D6FAC82AD83AEF0FFC7
:2046DC00EC4D4E4F6039758209123D6FAC82AD83AEF0FF9006F1ECF0EDA3F0EEA3F0EFA3A0
:2046FC00F09003E8E4F5F0126F2AAC82AD83AEF0FF9005A1ECF0EDA3F0EEA3F0EFA3F075BA
:20471C008204123D6FAC82AD83AEF0FFEC4D4E4F6012758204123D6FAC82AD83AEF0FF90B2
:20473C0005A9ECF09005A9E0FF7E007D007C007884E4F208F208F208F278887414F208E419
:20475C00F208F208F28F828E838DF0EC12410FAC827853E2FB7D007E007F0078847401F2B7
:20477C0008E4F208F208F278887432F208E4F208F208F28B828D838EF0EFC00412410FAB86
:20479C0082AD83AEF0FFD0047853EBF2788EE2B44302801E788EE2B44703024871788EE22A
:2047BC00B48603024916788EE2B491030249BB024A5D90059DE0FBA3E0FDA3E0FEA3E0FFD0
:2047DC0078847480F2087423F20874ADF2087418F27888E4F208740BF208746BF208741BEA
:2047FC00F28B828D838EF0EFC00412410FAB82AD83AEF0FF90059DEBF0EDA3F0EEA3F0EF04
:20481C00A3F09005A1E0FBA3E0FDA3E0FEA3E0FF78847480F2087423F20874ADF208741833
:20483C00F27888E4F208740BF208746BF208741BF28B828D838EF0EF12410FAB82AD83AEC2
:20485C00F0FFD0049005A1EBF0EDA3F0EEA3F0EFA3F0024A8090059DE0FBA3E0FDA3E0FE0B
:20487C00A3E0FF78847480F2087474F20874D2F208741AF278887480F20874CEF20874343C
:20489C00F208741DF28B828D838EF0EFC00412410FAB82AD83AEF0FF90059DEBF0EDA3F048
:2048BC00EEA3F0EFA3F09005A1E0FBA3E0FDA3E0FEA3E0FF78847480F2087474F20874D233
:2048DC00F208741AF278887480F20874CEF2087434F208741DF28B828D838EF0EF12410F07
:2048FC00AB82AD83AEF0FFD0049005A1EBF0EDA3F0EEA3F0EFA3F0024A8090059DE0FBA3BE
:20491C00E0FDA3E0FEA3E0FF78847440F20874B6F208749AF2087432F278887440F208740B
:20493C0010F20874FDF2087434F28B828D838EF0EFC00412410FAB82AD83AEF0FF90059D70
:20495C00EBF0EDA3F0EEA3F0EFA3F09005A1E0FBA3E0FDA3E0FEA3E0FF78847440F208742B
:20497C00B6F208749AF2087432F278887440F2087410F20874FDF2087434F28B828D838EEF
:20499C00F0EF12410FAB82AD83AEF0FFD0049005A1EBF0EDA3F0EEA3F0EFA3F0024A8090FC
:2049BC00059DE0FBA3E0FDA3E0FEA3E0FF7884E4F20874A1F20874BCF2087433F2788874BB
:2049DC00C0F20874F7F20874BAF2087437F28B828D838EF0EFC00412410FAB82AD83AEF02C
:2049FC00FF90059DEBF0EDA3F0EEA3F0EFA3F09005A1E0FBA3E0FDA3E0FEA3E0FF7884E498
:204A1C00F20874A1F20874BCF2087433F2788874C0F20874F7F20874BAF2087437F28B8249
:204A3C008D838EF0EF12410FAB82AD83AEF0FFD0049005A1EBF0EDA3F0EEA3F0EFA3F08099
:204A5C0023788EE2FE7F00C004C006C00774ADC0E0747DC0E07480C0E012446EE58124FB32
:204A7C00F581D0049005A1E0FBA3E0FDA3E0FEA3E0FF90059DE0F558A3E0F559A3E0F55A3A
:204A9C00A3E0F55BEBB55825EDB55921EEB55A1DEFB55B199005A174402558F07442355921
:204ABC00A3F0740F355AA3F0E4355BA3F075820BC004123D6FAB827821EBF27F007E007DFA
:204ADC00007884E4F208F208F208F278887464F208E4F208F208F28B828F838EF0ED124181
:204AFC000FAB827821EBF27880EBF208E4F208F208F275820B123C0B75820C123D6FAB82F8
:204B1C00AD83AEF0FFD0047829EBF2EB60377F007E007D0078847419F208E4F208F208F211
:204B3C00788874DCF208E4F208F208F28B828F838EF0EDC00412410FAB82AD83AEF0FFD0CB
:204B5C00047829EBF2C00478297980E2F309E4F309F309F375820CC004123C0B9006CB74B7
:204B7C00E8F07403A3F0E4A3F0A3F0855882855983855AF0E55B126BBCAB82AD83AEF0FF2B
:204B9C007880EBF208EDF208EEF208EFF2758208123C0BD0049005A1E0F55CA3E0F55DA361
:204BBC00E0F55EA3E0F55F9006CB74E8F07403A3F0E4A3F0A3F0855C82855D83855EF0E58E
:204BDC005F126BBCAA82AC83AEF0FF7880EAF208ECF208EEF208EFF2758209C004123C0B81
:204BFC0078537980E2F309E4F309F309F375820A123C0BD004E55CC39558FCE55D9559FDE0
:204C1C00E55E955AFEE55F955BFF7853E2FA7B0074022AFAE43BFB9006CBEAF0EBA3F0EB9B
:204C3C003395E0A3F0A3F08C828D838EF0EF126BBCAC82AD83AEF0FF9005A5ECF0EDA3F035
:204C5C00EEA3F0EFA3F0EFC313FFEE13FEED13FDEC1390059D2558F0ED3559A3F0EE355A4C
:204C7C00A3F0EF355BA3F0758203123D6FAC82C004126ACAD0047853C3E2F5F0740595F05C
:204C9C00D0044003024D2DC004C004126A70AE82AF839006E5EEF0EFA3F0900271126E0D24
:204CBC00AE82AF83D0048E5CEFF55D3395E0F55EF55F9005A5E0FAA3E0FCA3E0FEA3E0FF92
:204CDC0090068FEAF0ECA3F0EEA3F0EFA3F0855C82855D83855EF0E55FC00412677C858298
:204CFC005C85835D85F05EF55FD00490059DE0FAA3E0FBA3E0FEA3E0FF90059DE55C2AF0C2
:204D1C00E55D3BA3F0E55E3EA3F0E55F3FA3F0D00490059DE0FBA3E0FDA3E0FEA3E08B82CB
:204D3C008D838EF0C0041230BED0049005A5E0FBA3E0FDA3E0FEA3E08B828D838EF0C00439
:204D5C001230FA758203123D6FAB82AD83AEF0FF785390068FE2F0E4A3F0A3F0A3F08B82DD
:204D7C008D838EF0EF12677C123149758202123D6F123170D0044037758202C004123D6FE9
:204D9C00123170D0044028758202C004123D6F123170D0044019C00474C4C0E0747DC0E080
:204DBC007480C0E012446E158115811581D004C004122DD6AF827880EFF208E4F208F20826
:204DDC00F2758202123C0B758203123D6F12348AD0048C82123443123484AF827880EFF2AC
:134DFC0008E4F208F208F2758204123C0B122B9D0221354C
:207D3C005246442053694B20322E30206F6E20484D2D54525000322E30006661696C6564AA
:207D5C0020746F20656E61626C65207265636569766572006661696C656420746F20696EA9
:207D7C00697469616C69736520616573000A2A2A50414E49432A2A0000726164696F5F6946
:207D9C006E697469616C697365206661696C65640062616420626F617264206672657175EE
:1F7DBC00656E637920256400726164696F5F636F6E666967757265206661696C6564009B
:1205120078A6742CF2087401F278A87490F2087401F233
:204E0F00C027C0E0C0F0C082C083C007C006C005C004C003C002C001C000C0D075D00010C6
:204E2F009803024F24AF9930160E301703024F248F821224D8024F248F82C00712256ED017
:204E4F000778AAE22401FD08E23400FEBD4409BE04067D007E00800B78AAE22401FD08E292
:204E6F003400FE78ACE2B5050708E2B50602803A78AAE2240DF58208E23407F583EFF07829
:204E8F00AAE22401FD08E23400FEBD4409BE04067D007E00800B78AAE22401FD08E234009D
:204EAF00FE78AAEDF208EEF2801B7896E2FD08E2FEBDFF05BEFF02800C0DBD00010E789699
:204ECF00EDF208EEF278AA79ACC3E3F5F0E295F009E3F5F008E295F0401B78ACE22444FDBD
:204EEF0008E23404FE78AAD3E29DF4B3FDB308E29EF4FE801578AC79AAE3F5F0C3E295F070
:204F0F00FD09E3F5F008E295F0FEC3ED9411EE94005002D282109903024FA178AE79B0E2FB
:204F2F00F5F0E3B5F00B08E2F5F009E3B5F002805F3023203083172016149005AAE0FEE025
:204F4F007004D224804CEE149005AAF080069005AA7408F078B0E22451F58208E2340BF596
:204F6F0083E0FF78B0E22401FD08E23400FEBD0009BE02067D007E00800B78B0E22401FD3A
:204F8F0008E23400FE78B0EDF208EEF28F998002D224D0D0D000D001D002D003D004D005C8
:204FAF00D006D007D083D082D0F0D0E0D0273278AE79B0E2F5F0E3B5F00A08E2F5F009E394
:204FCF00B5F0012230240302547822AF82C2AC78AAE4F208F278ACF208F278AEF208F27888
:204FEF00B0F208F278B2F208F278B4F208F2D224C28EAE89740F5E4420F5898F821257E43A
:20500F00D28E759810C282D2AC22AF82C007125424AD82AE83D007C3ED9401EE940050024E
:20502F00C3228F82125038D322AF82A2AC9238C2AC78AEE22401FD08E23400FEBD0009BE5B
:20504F0002067D007E00800B78AEE22401FD08E23400FE78B0E2B5050708E2B50602804437
:20506F0078AEE22451F58208E2340BF583EFF078AEE22401FE08E23400FFBE0009BF0206D7
:20508F007E007F00800B78AEE22401FE08E23400FF78AEEEF208EFF2302424C02712547805
:2050AF00D027801B7894E2FE08E2FFBEFF05BFFF02800C0EBE00010F7894EEF208EFF2A219
:2050CF003892AC2278B279B4E2F5F0E3B5F00C08E2F5F009E3B5F0030251D0125F16E58203
:2050EF0070030251D078B4E22451FE08E2340DFF8E828F83E07011D22510AF02C22578B412
:20510F00E4F208F2A22592AF78B4E22401FE08E23400FFEE2451FEEF340DFF78B4E2245147
:20512F00F58208E2340DF583E090066EF090066F74ABF07405A3F090067174B6F07400A31A
:20514F00F07460A3F08E828F8312626BE582601574DBC0E0747DC0E07480C0E012446E151F
:20516F00811581158178B679B8E2F39005AB1252EC78B4E22451F58208E2340DF583E0FF33
:20518F0078B6F278B4E22451F58208E2340DF583E4F0D22510AF02C2257E000FBF00010E75
:2051AF0078B4E22FF208E23EF278B4C3E294A808E29402400678B4E4F208F2A22592AFD3ED
:2051CF0022C322AF83E5829005CBF0EFA3F0125F16E58270030252D778B2E22401FE08E2A9
:2051EF003400FF74A8C39EFE74029FFF78B7E2FC7D00C3EE9CEF9D500678B2E4F208F2C06B
:20520F0005C004125905AE82AF83D004D005C3EE9CEF9D501B7894E2FE08E2FFBEFF04BFA2
:20522F00FF01220EBE00010F7894EEF208EFF22278B2E22451F58208E2340DF58378B7E2BE
:20524F00F078B2E22401FE08E23400FFEE2451FEEF340DFF8E608F617562009005CBE0FA84
:20526F00A3E0FF9006DAEAF0EFA3F0E4A3F09006DDECF0EDA3F08560828561838562F012D2
:20528F006D22D22610AF02C22678B7E2FE7F000EBE00010F78B2E22EF208E23FF278B2C331
:2052AF00E294A808E29402400B78B2E22458F208E234FDF2A22692AF78B2E22451F5820866
:2052CF00E2340DF583E4F0229005CBE0FEA3E0FF78B779B8E2F38E828F830252ECAF83E5C0
:2052EF00829005CDF0EFA3F078B8E2700122125424AE82AF8378B8E2FC7D00C3EE9CEF9D54
:20530F00501F78B8EEF27894E2FE08E2FFBEFF05BFFF02800C0EBE00010F7894EEF208EF5D
:20532F00F278B8E2FF78AED3E29400F4B3FDB308E29402F4FE8F037C00C3ED9BEE9C5008E8
:20534F0078AEE2FEC3E49EFF78AEE22451FD08E2340BFE7C009005CDE0FAA3E0FB9006DAAD
:20536F00EAF0EBA3F0E4A3F09006DDEFF0E4A3F08D828E838CF0C007C003C002126D22D02D
:20538F0002D003D0079005CDEF2AF0E43BA3F078B8E2C39FF2D22710AF02C2277E0078AE88
:2053AF00E22FF208E23EF278AEC308E29402400678AFE224FEF2A22792AF78B8E2604490A5
:2053CF0005CDE0FEA3E0FF9006DAEEF0EFA3F0E4A3F078B8E2FE7F009006DDEEF0EFA3F0E3
:2053EF00900B5175F000C007C006126D22D006D007D22710AF02C22778AEEEF208EFF2A23E
:20540F002792AFD22710AF02C227302403125478A22792AF22A2AC9228C2AC78AE79B0C389
:20542F00E3F5F0E295F009E3F5F008E295F0401B78B0E22400FE08E23402FF78AED3E29ECF
:20544F00F4B3FEB308E29FF4FF801578B079AEE3F5F0C3E295F0FE09E3F5F008E295F0FF56
:20546F00A22892AC8E828F832230230730830420160122C224D29922A2AC9229C2AC78AA5B
:20548F0079ACE2F5F0E3B5F00B08E2F5F009E3B5F002803A78ACE2240DF58208E23407F59A
:2054AF0083E0FF78ACE22401FD08E23400FEBD4409BE04067D007E00800B78ACE22401FDB7
:2054CF0008E23400FE78ACEDF208EEF280027F0078AA79ACC3E3F5F0E295F009E3F5F008A3
:2054EF00E295F0401B78ACE22444FD08E23404FE78AAD3E29DF4B3FDB308E29EF4FE801576
:20550F0078AC79AAE3F5F0C3E295F0FD09E3F5F008E295F0FEC374229DE49E5002C282A258
:20552F002992AC8F8222A2AC922AC2AC78ACE2240DF58208E23407F583E0FFA22A92AC8F87
:20554F008222AF83E5829005CFF0EFA3F0A2AC922BC2AC9005CFE0FEA3E0FF78ACE22EFEBA
:20556F0008E23FFF9006F57444F07404A3F08E828F83126F96AE82AF83EE240DF582EF3462
:20558F0007F583E0FFA22B92AC8F8222AF83E5829005D1F0EFA3F0125716AE82AF8378B9DD
:2055AF00E2FC7D00C3EE9CEF9D5002C3228C038D0278ACD3E29444F4B3FCB308E29404F4D6
:2055CF00FDC3EC9BED9A501078ACD3E29444F4B3FBB308E29404F4FA9005D1E0FCA3E0FD56
:2055EF008C638D6475650078ACE2240DFE08E23407FF9006DAEEF0EFA3F0E4A3F09006DDCF
:20560F00EBF0EAA3F08563828564838565F0C005C004C003C002126D22D002D003D004D07B
:20562F00058B0678B9E2C39EF29005D1EB2CF0EA3DA3F0D22C10AF02C22C78ACE22BF20860
:20564F00E23AF278ACC3E2944408E29404400B78ACE224BCF208E234FBF2A22C92AF78B99C
:20566F00E260489005D1E0FEA3E0FF7D009006DA740DF07407A3F0E4A3F078B9E2FB7C005E
:20568F009006DDEBF0ECA3F08E828F838DF0C004C003126D22D003D004D22C10AF02C22C13
:2056AF0078ACEBF208ECF2A22C92AFD22C10AF02C22C78AA79ACC3E3F5F0E295F009E3F51E
:2056CF00F008E295F0401B78ACE22444FE08E23404FF78AAD3E29EF4B3FEB308E29FF4FF2B
:2056EF00801578AC79AAE3F5F0C3E295F0FE09E3F5F008E295F0FFC374229EE49F5002C202
:20570F0082A22C92AFD322A2AC922DC2AC78AA79ACC3E3F5F0E295F009E3F5F008E295F000
:20572F00401778AA79ACE3F5F0C3E295F0FE09E3F5F008E295F0FF801978ACD3E29444F44F
:20574F00B3FCB308E29404F4FD78AAE22CFE08E23DFFA22D92AC8E828F8322125716AE8211
:20576F00AF837444C39EFE74049FC423CEC423541F6ECE541FCE6ECEFF9006E5EEF0EFA308
:20578F00F0900064126E0DAE82AF839006897488F0E4A3F08E828F830266E2AF82BF0A0A35
:2057AF0075820DC007125038D0078F82025038AF827E00BE0900501BEE75F003A424FEF511
:2057CF0082747D35F0F583E493FDEFB50502D3220E80E0C322AF827E00BE0900501BEE75FF
:2057EF00F003A424FEF582747D35F0F583E493FDEFB5050280030E80E09005D3EEF0BE09BF
:20580F00069005D37406F09005D3E075F003A424FEFD747D35F0FE8D828E83A3E493F58D5E
:20582F00AC8E5304F48D828E83A3A3E4934CF58E9006F1EFF0E4A3F0A3F0A3F090007DE434
:20584F00F5F0126F2A02114478B279B4C3E3F5F0E295F009E3F5F008E295F0401B78B4E260
:20586F0024A8FE08E23402FF78B2D3E29EF4B3FEB308E29FF4FF801578B479B2E3F5F0C368
:20588F00E295F0FE09E3F5F008E295F0FF78A6C3E2F5F0EE95F008E2F5F0EF95F05002D3D2
:2058AF0022C32278B279B4C3E3F5F0E295F009E3F5F008E295F0401B78B4E224A8FE08E22C
:2058CF003402FF78B2D3E29EF4B3FEB308E29FF4FF801578B479B2E3F5F0C3E295F0FE094E
:2058EF00E3F5F008E295F0FF78A8C3E29E08E29F5002D322C32278B279B4C3E3F5F0E295F2
:20590F00F009E3F5F008E295F0401B78B4E224A8FE08E23402FF78B2D3E29EF4B3FEB30819
:20592F00E29FF4FF801578B479B2E3F5F0C3E295F0FE09E3F5F008E295F0FF8E828F832285
:207DDB006572726F72207768696C6520747279696E6720746F206465637279707420646165
:1E7DFB00746100012C02029602042C0009960013600126B001392B08739608E6CB087C
:207E3900000000000000000000000000000000000000000000000000000000000000000029
:207E5900000000000000000000000000000000000000000000000000000000000000000009
:207E79000000000000000000000000000000000000000000000000000000000000000000E9
:207E99000000000000000000000000000000000000000000000000000000000000000000C9
:20594F00C027C0E0C0F0C082C083C007C006C005C004C003C002C001C000C0D075D0007516
:20596F0091041225BBE56660021566D0D0D000D001D002D003D004D005D006D007D083D00A
:20598F0082D0F0D0E0D02732AE82AF83C3EE94F6EF940940047566FF2274092EFEE43FFFA9
:2059AF00900689740AF0E4A3F08E828F831266E2AE828E662285826622E566B40100922EC3
:2059CF00221259971259C850FB22C027C0E0C0F0C082C083C007C006C005C004C003C0029D
:2059EF00C001C000C0D075D00075C80474012567F567E43568F568302303124FBED0D0D0E1
:205A0F0000D001D002D003D004D005D006D007D083D082D0F0D0E0D02732AFCDAECCEFB5D3
:205A2F00CDF88F05E4FFFCEE4207EC42058F828D8322AE67AF68C007C006125A29AC82AD49
:205A4F0083D006D007EEB567E9EFB568E5EEC40354F8FF7E00EDC403CCC40354076CCC5477
:205A6F0007CC6CCCFDEC4206ED42078E828F83227592407593B075910443E68075CA0075FB
:0C5A8F00CB0075C804D2AD2285CC822269
:205A9B00E5829005DCF0E0FFBF03028005BF070040047582012274035F2402C40354F8FECA
:205ABB009005DAE0FCA3E0C454F0CCC4CC6CCC54F0CC6CFD9005DDECF0EDA3F075A7027587
:205ADB00E90075EA00ADD274A75DF5D275D10375C90575D6019005D8E0FCA3E0FD9005DF90
:205AFB00ECF0EDA3F09005DFE0F5CA9005E0E0F5CB75CF008ECEE4F5CCF5CDEF30E212905D
:205B1B0005D4E0FDA3E0FE9005DFEDF0EEA3F080109005D6E0FDA3E0FE9005DFEDF0EEA326
:205B3B00F075D10475C90675D6009005DFE0F5CA9005E0E0F5CB9005DDE0F5CE9005DEE0F1
:205B5B00F5CFE4F5CCF5CDEF30E2129005D6E0FDA3E0FE9005DFEDF0EEA3F080109005D458
:205B7B00E0FDA3E0FE9005DFEDF0EEA3F075D10675C98875D6009005DFE0F5CA9005E0E015
:205B9B00F5CB9005DDE0F5CE9005DEE0F5CF75CD0075CC00AED374A75EF5D343D25875EAED
:205BBB00008FE943E90843E720E5D330E6FB75E90075EA00AFD274A75FF5D2AFD374A75F90
:065BDB00F5D375820022E3
:205BE100AF83E5829005E4F0EFA3F09005E3E0FFBF030040047582012274022FC40354F8F1
:205C0100FE75A70275E90075EA00ADD274A75DF5D275D10375C90575D6009005E4E0FCA31D
:205C2100E0FD9005E6ECF0EDA3F09005E6E0F5CA9005E7E0F5CB75CF008ECE75CC0075CD56
:205C41000075D10475C90675D60075CA0075CB0075CF0075CE1075CC0075CD0075D1067510
:205C6100C98875D6009005E1E0FCA3E0FD9005E6ECF0EDA3F09005E6E0F5CA9005E7E0F573
:205C8100CB75CF008ECE75CD00EF600575CC10800375CC00AED374A75EF5D343D25875EA5F
:205CA100048FE943E90443E90843E720E5D330E6FBEF6022AFD274A75FF5D275D10675CC30
:205CC1000075CE10AFD374875FF5D343D24043E720E5D330E6FB75E90075EA00AFD274A70B
:0E5CE1005FF5D2AFD374A75FF5D375820022B2
:205CEF00E5829005F2F0E0FFBF03028005BF070040047582012274035F2402C40354F8FE5E
:205D0F009005F0E0FCA3E0FD8C02C454F0CAC4CA6ACA54F0CA6AFB9005F3EAF0EBA3F01C02
:205D2F00BCFF011D9005F0ECF0EDA3F075A70275E90075EA00ADD274875DF5D275D1037563
:205D4F00C90575D6009005EEE0FCA3E0FD9005F5ECF0EDA3F09005F5E0F5CA9005F6E0F5CD
:205D6F00CB75CF008ECEE4F5CCF5CDEF30E2129005E8E0FDA3E0FE9005F5EDF0EEA3F080EC
:205D8F00109005EAE0FDA3E0FE9005F5EDF0EEA3F075D10475C90675D6009005F5E0F5CA1D
:205DAF009005F6E0F5CB75CE1075CF0075CC0075CD0075D10575C90775D6009005ECE0FD56
:205DCF00A3E0FE9005F5EDF0EEA3F09005F5E0F5CA9005F6E0F5CB75CE10E4F5CFF5CCF546
:205DEF00CDEF30E2129005EAE0FDA3E0FE9005F5EDF0EEA3F080109005E8E0FDA3E0FE90F4
:205E0F0005F5EDF0EEA3F075D10675C98875D6009005F5E0F5CA9005F6E0F5CB75CE1075A2
:205E2F00CF0075CD0075CC00AED374875EF5D343D278EF30E20575EA01800375EA028FE910
:205E4F0043E90843E720E5D330E6FB9005F0E0F5F0A3E045F07003025EE7AFE974F75FF5D9
:205E6F00E9AFD274875FF5D275D10375D60175CC0075CD0075D1049005F3E0F5CE9005F472
:205E8F00E0F5CF75D1059005EAE0FEA3E0FF9005F5EEF0EFA3F09005F5E0F5CA9005F6E0A7
:205EAF00F5CB9005F3E0F5CE9005F4E0F5CF75CC0075CD0075D1069005F3E0F5CE9005F438
:205ECF00E0F5CFAFD374875FF5D343D27843E90843E720E5D330E6FB75E90075EA00AFD259
:105EEF0074875FF5D2AFD374875FF5D375820022C5
:205EFF00C0E0C007C0D075D000AFE774DF5FF5E7D0D0D007D0E032900659E0F58222E582FB
:205F1F0090065AF0E0900659F0221243D8E5828583F09005F7F0E5F0A3F022AF83E58290E6
:205F3F00065DF0EFA3F090065BE0FEA3E0FF90065DE0FCA3E0FD7B108E828F83E493FAA30C
:205F5F00AE82AF838C828D83EAF0A3AC82AD8390065DECF0EDA3F0DBDF90065DECF0EDA35F
:205F7F00F022E58290065FF0758200125F1D90065FE0FF740F5FFE7002D3221EC007C00659
:205F9F00125F29D0069005F7E0FCA3E0FD9005E174F9F07405A3F09005E3EEF08C828D8337
:205FBF00125BE1E582D0076002C322EFC4540FFE53060FBE00028005BE0118802A90065BBC
:205FDF007429F0747EA3F0900619C007125F3AD007801490065B7429F0747EA3F090061952
:205FFF00C007125F3AD0078F82125F1DD322AF83E582900661F0EFA3F0900661E0FEA3E04B
:20601F00FF7D00900660E0FCFA7B009006DAEEF0EFA3F0EDA3F09006DDEAF0EBA3F09006ED
:20603F003975F000C004126D22D004740F5C900663D39410F4F07F00900663E0FEC3EF9E91
:20605F005034EF2C2439FDE43406FE7B009006DA7463F07406A3F0E4A3F09006DD04F0E48B
:20607F00A3F08D828E838BF0C007C004126D22D004D0070F80C290063922AF83E58290068B
:20609F006AF0EFA3F0900664E0FF7003F58222C007125F16AE82D007740F5EFDBD010280AD
:2060BF000ABD0202800DBD031A801090066C7404F0801690066C7405F0800E90066C74068A
:2060DF00F0800690066C7404F0EEC4540FFE53060F90066AE0FCA3E0FD900660EFF08C8207
:2060FF008D83C007C00612600DAC82AD83D006D007EFC4540FFF0FBE00028008BE010280AD
:20611F005E0261F490066CE0F569900665E0FAA3E0FB9005F7E0F56AA3E0F56B8F017E005C
:20613F009005E8ECF0EDA3F09005EAEAF0EBA3F09005EC7419F07406A3F09005EEE56AF0C3
:20615F00E56BA3F09005F0E9F0EEA3F0856982C007125CEFE582D00790066DF002624C9059
:20617F00065B7419F0747EA3F0900629C007C005C004125F3AD004D005D00790066CE0F58C
:20619F006A900665E0FAA3E0FB9005F7E0F56CA3E0F56D8F017E00900678ECF0EDA3F09069
:2061BF00067AEAF0EBA3F090067C7429F07406A3F090067EE56CF0E56DA3F0900680E9F013
:2061DF00EEA3F0856A82C007126444E582D00790066DF0805890066CE0F56C900665E0FA0C
:2061FF00A3E0FB9005F7E0F56AA3E0F56B8F017E009005E8ECF0EDA3F09005EAEAF0EBA386
:20621F00F09005EC7419F07406A3F09005EEE56AF0E56BA3F09005F0E9F0EEA3F0856C826D
:20623F00C007125CEFE582D00790066DF0900667E0FCA3E0FDA3E0FEEFC454F08C828D83FB
:20625F008EF0126DC290066DE0F58222AF83E582900674F0EFA3F090066EE0FF7003F58202
:20627F0022C007125F16AE82D007740F5EFDBD0102800ABD0202800CBD0319800F9006769F
:20629F00E4F080159006767401F0800D9006767402F08005900676E4F0EEC4540FFE530635
:2062BF000FEFC4540FFD900674E0FBA3E0FCBE00028008BE0102805A0263B3C0079006766B
:2062DF00E0FE90066FE0F9A3E0FA8D007F009005E8E9F0EAA3F09005EAEBF0ECA3F0900519
:2062FF00EC7419F07406A3F09005EE74F9F07405A3F09005F0E8F0EFA3F08E82C007C005A2
:20631F00125CEFE582D005D007900677F0D007026407C00790065B7419F0747EA3F090065D
:20633F0029C007C005C004C003125F3AD003D004D005D007900676E0F56E90066FE0F9A334
:20635F00E0FA9005F7E0F56FA3E0F5708D067F00900678E9F0EAA3F090067AEBF0ECA3F0AC
:20637F0090067C7429F07406A3F090067EE56FF0E570A3F0900680EEF0EFA3F0856E82C067
:20639F0007C005126444E582D005D007900677F0D0078054C007900676E0FE90066FE0F90E
:2063BF00A3E0FA8D007F009005E8E9F0EAA3F09005EAEBF0ECA3F09005EC7419F07406A36E
:2063DF00F09005EE74F9F07405A3F09005F0E8F0EFA3F08E82C007C005125CEFE582D005AE
:2063FF00D007900677F0D007900671E0FBA3E0FCA3E0FEED75F010A424FFFAE5F034FFFDC9
:20641F0090066FE0F8A3E0F9EA28F582ED39F583E0FDEFC39D8B828C838EF0126DC2900640
:05643F0077E0F5822268
:207E1900F0F1F2F3F4F5F6F7F8F9FAFBFCFDFEFF000102030405060708090A0B0C0D0E0F59
:20644400E582900682F0E0FFBF03028005BF070040047582012274035F2402C40354F8FE70
