:08050200C200C201C202C203E3
:20052F00AF822004058F820257CE78067905C3E3F5F0E295F0501A7806E2FE780604F29060
:20054F0000EFE0FCA3E0FDEE2CF582E43DF583EFF022AF83E5829000F2F0EFA3F09000F207
:20056F00E0FEA3E0FF9000EFEEF0EFA3F07806E4F29000F1E07805F2D20422C2047806E2EB
:20058F00F58222AD82AE83AFF08D828E838FF01274A1FC700122BC2502800302081CC2030E
:2005AF00C202C201C2000DBD00010E8D828E838FF01274A1FBBB6802800CBB6C10D2000D82
:2005CF00BD000A0E8007D2020DBD00010E8D828E838FF01274A1FBBB63028030BB640280D1
:2005EF0018BB6F02802BBB7302800ABB7502800EBB78238010D201801D75080A8018750891
:20060F000AD2038011750810D203800A7508008005750808D203300171A8811818E624FD11
:20062F00FBA8811818A6038B01870909870A09870B1919C005C006C007AA09AB0AAF0B8A2D
:20064F00828B838FF01274A1D007D006D005700302082DC005C006C007AA09AB0AAF0B8A2B
:20066F00828B838FF01274A1FA0509E4B50902050A8A82C007C006C00512052FD005D0062B
:20068F00D007D007D006D00580A930036D300026A8811818E624FCFBA8811818A6038B01EB
:2006AF007801E7F209E708F209E708F209E708F219191902077A30021DA8811818E614F9B2
:2006CF00A8811818A60187037801EBF208E4F208F208F202077AA8811818E624FEFBA88151
:2006EF001818A6038B018702098703197801EAF208EBF208E4F208F28071300025A88118B8
:20070F0018E624FCFBA8811818A6038B017801E7F209E708F209E708F209E708F2191919C8
:20072F008049300221A8811818E614FBA8811818A6038B0187037801EBF2EB3395E008F245
:20074F0008F208F28025A8811818E624FEFBA8811818A6038B018702098703197801EAF27D
:20076F0008EBF2EB3395E008F208F2E5087003020806300333900702747AF0E4A3F0744086
:20078F00A3F0900705E508F07801E2F58208E2F58308E2F5F008E2C007C006C0051268E1A4
:2007AF00D005D006D007803190072B747AF0E4A3F07440A3F090072EE508F07801E2F58225
:2007CF0008E2F58308E2F5F008E2C007C006C0051269F7D005D006D007797AE7FB603F8BAA
:2007EF0082C007C006C005C00112052FD001D005D006D0070980E47801E2F582C007C006F0
:20080F00C00512052FD005D006D00780118C82C007C006C00512052FD005D006D0070DBDB9
:20082F0000010E020598E58124FCFFC007E58124FBF886820886830886F01205921581223A
:20084F00AF827E007D00AB0CAC0D8F021FEA603B8B828C83E0FAA3AB82AC83ED2DF9ED3093
:20086F00E714890009E8907644936EFDE990764493F86AFE80D4890009E890754493F86E76
:1B088F00FDE990754493F96AFE80BF8D07E4FDFCEE4205EC42078D828F8322CE
:207544000000102120423063408450A560C670E781089129A14AB16BC18CD1ADE1CEF1EF27
:20756400123102103273225252B5429472F762D693398318B37BA35AD3BDC39CF3FFE3DEE7
:20758400246234430420140164E674C744A45485A56AB54B85289509E5EEF5CFC5ACD58DA7
:2075A400365326721611063076D766F6569546B4B75BA77A97198738F7DFE7FED79DC7BC67
:2075C40048C458E5688678A70840186128023823C9CCD9EDE98EF9AF89489969A90AB92B27
:2075E4005AF54AD47AB76A961A710A503A332A12DBFDCBDCFBBFEB9E9B798B58BB3BAB1AE7
:207604006CA67C874CE45CC52C223C030C601C41EDAEFD8FCDECDDCDAD2ABD0B8D689D49A6
:207624007E976EB65ED54EF43E132E321E510E70FF9FEFBEDFDDCFFCBF1BAF3A9F598F7866
:20764400918881A9B1CAA1EBD10CC12DF14EE16F108000A130C220E3500440257046606726
:2076640083B99398A3FBB3DAC33DD31CE37FF35E02B1129022F332D24235521462777256E6
:20768400B5EAA5CB95A88589F56EE54FD52CC50D34E224C314A004817466644754244405A6
:2076A400A7DBB7FA879997B8E75FF77EC71DD73C26D336F2069116B0665776764615563466
:2076C400D94CC96DF90EE92F99C889E9B98AA9AB584448657806682718C008E1388228A326
:2076E400CB7DDB5CEB3FFB1E8BF99BD8ABBBBB9A4A755A546A377A160AF11AD02AB33A92E6
:20770400FD2EED0FDD6CCD4DBDAAAD8B9DE88DC97C266C075C644C453CA22C831CE00CC1A5
:20772400EF1FFF3ECF5DDF7CAF9BBFBA8FD99FF86E177E364E555E742E933EB20ED11EF065
:2008AA00AF82900302E0F5759000F474FFF0A3F0740625752401F582E43403F583EFF0740E
:2008CA00072575FF7D01C3ED9F505AED2401F582E43403F583E0FC9000F4E0FAA3E0FB8A99
:2008EA0000E86CF576C454F062768B027B00A87679008806E46202EE6203E9C40354F8C8C3
:20090A00C403C868C854F8C868F9E86202E96203E576C4540FFE7C009000F4EE6AF0EC6BE0
:20092A00A3F00D80A1740625752401FEE43403FF9000F4E0FCA3E0FD8C028E828F83EAF031
:20094A00740725752401F582E43403F5838D04ECF02290030174FEF09003027409F0780743
:20096A00E2FF780704F2900303EFF09003047433F09003057444F0900306746DF078C5E2AB
:20098A00FE08E2FF900307EEF0EFA3F078CFE2FE08E2FF90030975F000EE126DE6A3EF1264
:2009AA006DE612578FAF8290030D75F000EF126DE678D3E2FF90030B75F000EF126DE6785D
:2009CA00D7E2FF90030C75F000EF126DE678D4E2FF90030E75F000EF126DE678D8E2FF90B5
:2009EA00030F75F000EF126DE67582B91208AA125452AE82AF83C3EE9411EF940050012248
:0B0A0A0078ED7411F290030102531A02
:200A1500AE82AF83A3E0FDBD09178E828F83E0FCBCFE0E74052EFBE43FFC8B828C83E0601F
:200A350038ED24F640358E828F83E0FDBDFD2C74072EFCE43FFD8C828D83E0701E74082E0D
:200A5500FCE43FFD8C828D83E0701074092EFEE43FFF8E828F83E07002D20A22E5829002B1
:200A7500F0F09002EEE4F0780AF212573B85820E85830F9002F0E0FDC3E50E9408E50F94B0
:200A9500005003020BE6900000C00512557F858210D00575110874FEB51002800E74FDB559
:200AB500100280079002EEE0F5822274FDB5101BE5112404F511900002C00512557FE58276
:200AD500D00530E006740D2511F511900001C00512557F858210D00585111275130074FF8E
:200AF500C39512FAE49513FF851014751500C3E5149AE51564808FF063F08095F04003026F
:200B15000BE6E5122514FEE5133515FF8D027B009002EEE0F516C005AC167D00EAC39CFAA4
:200B3500EB9DFBC3EA9EEB64808FF063F08095F0D0055003020BE6E5122514FEE5133515A1
:200B5500FFC3E50E9EE50F9F5003020BE6E5112510F510E51624F2FEE43401FF78EEE510A2
:200B7500F28E828F83C0051255C89002EEE0FF7810E22FFC08E23400FE7B00EF24F2FFE4E5
:200B95003401FA900744EFF0EAA3F0E4A3F0900747E510F0E4A3F08C828E838BF0126D46CA
:200BB5009002EEE0FF7810E22FFF08E23400FE8F828E83120A15D0059002EEE02510F0ACB4
:200BD500107F00E50EC39CF50EE50F9FF50F020A8D9002EEE0F58222AF83E5829002F5F0E3
:200BF500EFA3F0125F3AE58260569002F2E0FEA3E0FF9002F4E0FD9002F5E0FBA3E0FC90DE
:200C150006CEEDF09006CFEBF0ECA3F09006D174F1F07402A3F0E4A3F08E828F831260BDC2
:200C3500E58260157444C0E07477C0E07480C0E012448F1581158115819002F1E0F58222A9
:200C55009002F5E0FEA3E0FF7D009002F2E0FBA3E0FC8B178C188D199002F4E0F9F87C007E
:200C7500900744E517F0E518A3F0E519A3F0900747E8F0ECA3F08E828F838DF0C001126D63
:200C950046D001898222AF82C007125F3AE582D0076017EF24EF400475820022EF24DF4012
:200CB500027F0FEF24E050027F1F200903020D739002EEE0FE8E1A751B00EF24DF50027FA5
:200CD500208F027B00C3EA951AEB951B506EAB1A9002EEEBC39FF09002F7E0FAA3E0FB902B
:200CF50002F274F2F07401A3F09002F4EFF08A828B83C007120BEDAB82D0078B1A751B0004
:200D1500EF24F2FAE43401FB8A1D8B1E751F009002EEE0FC7D00900744E51DF0E51EA3F08B
:200D3500E51FA3F0900747ECF0EDA3F09001F275F000126D46D206AC1A8C8222C209D206AF
:200D55009002F7E0FCA3E0FD9002F274F2F07401A3F09002F4EEF08C828D83020BEDC20673
:200D7500C00712573B85821A85831BD0073008309002EEE0FEC3EF9E500475820022D2057E
:200D9500C2089002F7E0FCA3E0FD9002F274F2F07401A3F09002F4EEF08C828D83020BED31
:200DB500C2058F057E00C3ED951AEE951B50048D1A8E1B9002EEE4F0E51A451B7003F58207
:200DD50022900606E07045E51A451B603B9002F7E0FDA3E0FEAC1A78EEECF28D828E83C0E0
:200DF500041255C8D00450209002EEECF09002F7E0FDA3E0FE9002F2EDF0EEA3F09002F4BC
:200E1500ECF09001F2020BED75820022780AE2B401028003020EA97401B51A06E4B51B02F4
:200E35008002806C125A65AD82AE83780BD3E29DF4B3FDB308E29EF4FE780DC3E29D08E2A7
:200E55009E50499002EEE0FE04F0EE24F2FEE43401FDC006C0051254B5AC82D005D0068ECF
:200E7500828D83ECF0780AE4F29002F7E0FDA3E0FE9002EEE0FC9002F274F2F07401A3F072
:200E95009002F4ECF08D828E83020BED75820022780AE4F2780AE27003020F2E780AE2FDD9
:200EB5007E00C3E51A9DE51B9E505A125A65AD82AE83780BD3E29DF4B3FDB308E29EF4FE21
:200ED500780DC3E29D08E29E5037AC1A78EEECF29001F2C0041255C8D0049002EEECF078FF
:200EF5000AE4F29002F7E0FDA3E0FE9002F274F2F07401A3F09002F4ECF08D828E83020BA5
:200F1500ED758200229002F7E0FDA3E0FE7810EDF208EEF28F82020A71E51A451B7003021E
:200F35001115900000C00712557F85821CD00774FEB51C02800A74FDB51C0280030210E3B4
:200F55007401B51A06E4B51B028002802F9002EEE06003021115780A7401F2125A65E5823F
:200F75008583F0780BF208E5F0F27808E2FC08E2FD780DECF208EDF275820022900001C027
:200F95000712557FAD82D007780AEDF2BDE60050208D037C0074192BFBE43CFC780FE2FA97
:200FB5007E00C3EA9BEE64808CF063F08095F05036780AE4F29002EEE0FE04F0EE24F2FE7E
:200FD500E43401FCC007C006C0041254B5AB82D004D006D0078E828C83EBF0151A74FFB57C
:200FF5001A02151B020F2E74082DFE780AF274FDB51C25780A74042EF2C37402951AE49554
:201015001B5015900002C00712557FE582D00730E006780AE2240DF29002EEE06056125A9F
:2010350065E5828583F0780BF208E5F0F2780AE2FD7E00780890074FE2F008E2A3F08D82F0
:201055008E83126E31E5828583F0780DF208E5F0F29002F7E0FDA3E0FE9002EEE0FC90023F
:20107500F274F2F07401A3F09002F4ECF08D828E83020BED780AE2FD7E00C3E51A9DE51B51
:201095009E5037125A65E5828583F0780BF208E5F0F2780AE2FD7E00780890074FE2F00883
:2010B500E2A3F08D828E83126E31E5828583F0780DF208E5F0F2758200229002F7E0FDA30E
:2010D500E0FE7810EDF208EEF28F82020A719002EEE0FE04F0EE24F2FEE43401FDC007C04F
:2010F50006C0051254B5AC82D005D006D0078E828D83ECF0151A74FFB51A02151B020F2E67
:201115009002F7E0FEA3E0FF9002EEE0FD9002F274F2F07401A3F09002F4EDF08E828F830D
:20113500020BEDA20522A20622D20822E5829002F9F0E0780FF222AF83E5829002FAF0EFB0
:20115500A3F09002FAE0FEA3E0FF900735EEF0EFA3F0E4A3F0A3F090000075F001E4126B6E
:20117500E0AC82AD83AEF0FF0CBC00090DBD00050EBE00010F7808ECF208EDF222E58290A5
:2011950002FEF0200B3B9002FCE0FEA3E0FF7D009002FEE0FCFA7B00900744EEF0EFA3F05D
:2011B500EDA3F0900747EAF0EBA3F09000F675F000C004126D46D0049002EFECF0C207C333
:2011D5002220073F9002FEE0FF9002EFE0FEEFB506319002FCE0FDA3E0FE900764EDF0EE17
:2011F500A3F0E4A3F0900767EFF0E4A3F09000F675F000127067E5828583F045F07004C2DE
:2012150007D322D207C322AF83E5829002FFF0EFA3F07812C3E2F5F074FC95F0500578127B
:2012350074FCF29002FFE0FEA3E0FF900744EEF0EFA3F0E4A3F07812900747E2F0E4A3F0E3
:151255009001F275F000126D4678129002EEE2F0C205D2092237
:207744006572726F72207768696C6520747279696E6720746F20656E6372797074206461F8
:037764007461004D
:06050A009003FE740AF0EC
:20126A0078D5E2FE08E2FF78D8E2FD7C0078D4E2FB8B288C2978D7E2FB8B2A8C2B78D3E24D
:20128A00FB7A00C006C007C005C004C028C029C02AC02BC003C0027467C0E07477C0E07414
:2012AA0080C0E0120835E58124F3F5817826E2FE7F00C007C0061238A1AC82AD83D006D049
:2012CA000778D1E2F52A08E2F52B78CFE2F52808E2F52978CDE2F52C08E2F52D78CBE2F5ED
:2012EA002E08E2F52F78C9E2F53008E2F53178C5E2F53208E2F53378C7E2FA08E2FBC00632
:20130A00C007C004C005C02AC02BC028C029C02CC02DC02EC02FC030C031C032C033C0028F
:20132A00C0037493C0E07477C0E07480C0E0120835E58124EBF58178D5E4F208F22290030E
:20134A00FDE0FF30E00302126A22AF827E00781D90074FE2F008E2A3F08F828E83126E31A8
:20136A00AE82AF83781BE22EFE08E23F8E82F58322AF827813E2F5347814E2FC08E2FD78FD
:20138A0031E230E6467401B534107819E2FA08E2FB7814EAF208EBF280467402B534028020
:2013AA00057403B5340F78137403F278147401F208E4F2802B7813E4F27830E2FA08E2541C
:2013CA001FFB7814EAF208EBF2801578137402F27830E2FA08E2541FFB7814EAF208EBF2EB
:2013EA007813E2B40203EF6004C2138002D213A213920C7813E26002C20D7885E254027098
:20140A0001227814797AD3E29CF4B3F3B308E29DF409F37813E2B5346EC007781BE2FA0809
:20142A00E2FB90076C7402F0E4A3F08A828B83C003C002127146AE82AF83D002D003787A84
:20144A00C3E2F5F0EE95F008E2F5F0EF648063F08095F0D0074030E49AFAE49BFB90076C4F
:20146A007402F0E4A3F08A828B83C007127146AB82AE83D007787AC3E29B08E264808EF028
:20148A0063F08095F0504B7E007813E2FA7B00AC347D00C007C006C002C003C004C0057483
:2014AA00D2C0E07477C0E07480C0E0120835E58124F7F581787AE2C0E008E2C0E074E5C034
:2014CA00E07477C0E07480C0E0120835E58124FBF58122AE82AF83781FC3E29E08E29F5082
:2014EA0008781FE4F208F2800A781FE2C39EF208E29FF27814C3E2F5F0EE95F008E2F5F04A
:20150A00EF95F050030217487813E2FC7D000CBC00010D9007577404F0E4A3F08C828D83F2
:20152A00C007C006126EE5AC82AD83D006D0077813ECF27814D3E29EF4B3FEB308E29FF487
:20154A00FF7813E260067813E2B402107816E2FC08E2FD7814ECF208EDF2800E7819E2FCDB
:20156A0008E2FD7814ECF208EDF27813E260067813E2B40125C007C006122C8D123094D011
:20158A0006D0077888C3E2F5F0740195F0500B782AE4F208F2782EF208F27813E2600302AF
:2015AA00173BC006C0077821E2FC7D007826E2F5358D36ECC39535FEED9536FFBE640ABFC8
:2015CA000007D007D00602173BD007D006C006C007C007C006C005C0047822E2C0E008E2A3
:2015EA00C0E008E2C0E008E2C0E090333375F073743F126B0F85823785833885F039F53AC5
:20160A00E58124FCF581D004D005D006D0077827E2F58208E2F583C005C0041272A1AA823A
:20162A00AB83AEF0FFD004D005C007C006C005C004C002C003C006C00790000075F0A074FB
:20164A0040126B0F85823B85833C85F03DF53EE58124FCF581D004D005D006D007781979ED
:20166A0016E3C5F0E225F0FE09E3C5F008E235F0CE25E0CE33FF8E828F83C005C00412720B
:20168A00A1AA82AB83AEF0FFC002C003C006C007853B82853C83853DF0E53E1273DEAA82AC
:2016AA00AB83AEF0FFE58124FCF581C002C003C006C0078537828538838539F0E53A127179
:2016CA00B7AA82AB83AEF0FFE58124FCF581D004D0057822EAF208EBF208EEF208EFF27809
:2016EA0027E4F208F2ECC39535FCED9536FD8C828D83127259AC82AD83AEF0FFC007C0063C
:20170A00C004C005C006C0077822E2F58208E2F58308E2F5F008E2126E01E58124FCF5811E
:20172A00D006D007E58224FF9214B39210D007D006C20CC20D781FE4F208F20214FD78141D
:20174A00E2C39EF208E29FF2227813E2FE7F0074022EFEE43FFF9007577404F0E4A3F08EA4
:20176A00828F83126EE5AE827813EEF2221234D6E582FF24EB40057826E4F2221238A1E56D
:20178A00828583F0249CFEE5F034FFFFC3E49E74808FF063F08095F0E433FD700C7826E2E0
:2017AA0060077826E214F28037C3740A9E74808FF063F08095F050087826E2240AF2802039
:2017CA00C374059E74808FF063F08095F050087826E22405F28009ED60067826E22401F2F4
:2017EA007821E2FE7F007826E2FC7D00EEC39CFEEF9DFFC3EE9414EF6480948050087821E7
:20180A007926E224ECF322300F099003FEE4F0C20F80079003FEE02401F09003FEE0FFBF5E
:20182A0002005004D2B78006A20E92B7B20EEF24D740030218C89003FE7405F0125ABBE56B
:20184A008230E0597814E2FE08E2FF7819C3E29E08E29F5017781BD3E29EF4B3FCB308E254
:20186A009FF4FD7814ECF208EDF2800878147401F208E4F27885E2540260227814E2C0E05F
:20188A0008E2C0E0C006C00774F1C0E07477C0E07480C0E0120835E58124F9F5817885E2DC
:2018AA0054026015740BC0E07478C0E07480C0E0120835158115811581C219122CEF900368
:2018CA00FEE0603D122E16AF827E0078D3E290074FF0E4A3F0900003C007C006126E31AC87
:2018EA0082AD83D006D007EC2FFCED3EC313CC13CCC313CC13CCFD78D3ECF278D5E4F208EA
:20190A00F29003FEE0FF24FA5017900741E4F09007427404F0E4A3F09000D775F060126DC7
:20192A001E78859003FDE2F0D2119003FFE02401F0E0FFBF04081217779003FFE4F0229054
:20194A00040675F0001273C6E5828583F02401FEE435F0FF9007447406F07404A3F0E4A362
:20196A00F0900747EEF0EFA3F090003475F060126D46D21222AF82BF02004017EF24BA4085
:20198A0012900301E0FEBE520A900302E0FEBE54028002D3229007447401F07403A3F0E473
:2019AA00A3F0900747EFF0E4A3F090040675F000C007126D46D007EF2406F582E43404F553
:2019CA0083E4F09004067441F07884EFF2D2179000F174FCF0900301120561122604120561
:2019EA008AE582FF600A7812EFF290030112121CC322125A65787FE582F208E583F2787FE5
:201A0A007981E2F308E209F378FF762A78FFB62A028015741AC0E07478C0E07480C0E012A2
:201A2A00448F1581158115817883E2B4410280157427C0E07478C0E07480C0E012448F1549
:201A4A0081158115811226049003FDE060081213489003FDE4F0300A0E900606E06008209E
:201A6A001605C20A12095C122C7D123195125A65AA82AB83789C7401F2087403F290007C48
:201A8A0075F060C003C002122D1FD002D0034003021C65D20FD219C003C002122CEF122E6B
:201AAA0016AD82D002D0037C0078D3E290074FF0E4A3F0900007C005C004C003C002126E17
:201ACA0031AE82AF83D002D003D004D005EE2DFEEF3CC423CEC423541F6ECE541FCE6ECE0F
:201AEA0078D3EEF278D5E2FE08E2FF0EBE00010F78D5EEF208EFF2781FE4F208F2787CE26C
:201B0A00B402005003021A16787CE224FC2401FEE43403FF900744EEF0EFA3F0E4A3F0900B
:201B2A0007477404F0E4A3F090003075F060C003C002126D46D002D003787CE214141414D4
:201B4A00F27830E2FE08E2541FFF4E7041787CE2603C787CE2B404209007447401F07403CF
:201B6A00A3F0E4A3F0787C900747E2F0E4A3F09000D775F060126D4678D5E2FE08E2FF1E11
:201B8A00BEFF011F78D5EEF208EFF2021A167830E2FE08E2541FFF4E7003021A16787CE269
:201BAA00F582C003C00212137BD002D003787FEAF208EBF27831E2C4035401FFBF010A783A
:201BCA007CE2F58212197F4038787CE27003021A167831E230E503021A167831E2235401B1
:201BEA0024FF920B9002FC7401F07403A3F0787CE2F5821211925003021A16301603021A32
:201C0A0016750C01750D03787CE2F58212084FAE82AF837832E2FC08E2FDEEB50417EFB5B4
:201C2A000513D2B6787C79ECE2F3900301125200C2B6021A1678D1E2FE08E2FFBEFF06BF96
:201C4A00FF03021A1678D1E2FE08E2FF0EBE00010F78D1EEF208EFF2021A16125A65AA8217
:201C6A00AB83787F797DD3E29AF4B3F3B308E29BF409F3787DE2F58208E2F583C003C002F9
:201C8A001214DDD002D003787FEAF208EBF27881D3E29AF4B3FCB308E29BF4FD7E007F00C9
:201CAA00C3E49C74809DE49E74808FF063F08095F05012C003C002121811D002D003788139
:201CCA00EAF208EBF27829E27003021D54122E1CAF827829C3E2F5F0EF95F05016782A7923
:201CEA007DE3C5F0E225F0F209E3C5F008E235F0F28036782AE4F208F2782EE2F5F008E2BB
:201D0A0045F07025126A94AE82AF83782C90075FE2F008E2A3F08E828F83126FBAE582854B
:201D2A0083F0782EF208E5F0F2782C792EE3C5F0E225F0FE09E3C5F008E235F0FF782AC3D3
:201D4A00E29E08E29F5003021A167813E26011200C03021A167813E2B402028003021A16D2
:201D6A00300D03021A16781FE2F5F008E245F06003021A16200F05122DFF4005122DE650A9
:201D8A0011781BE2FE08E2FF781FEEF208EFF2021A16122E1CAF827E0078D4E290074FF02B
:201DAA00E4A3F0900003C007C006126E31AC82AD83D006D007EC2FFCED3EC313CC13CCC340
:201DCA0013CC13CCFD78D4ECF2301003021A167814791BC3E3F5F0E295F009E3F5F008E2D2
:201DEA0095F05003021A167814791BE3F5F0C3E295F0FE09E3F5F008E295F0FF781D900655
:201E0A00F3E2F008E2A3F08E828F83126706AE82AF83BE14005003021A16EE24FBFEC0064B
:201E2A00125F3AE582D006600CBE10005003021A16EE24F0FE7818C3E29E50047818E2FE5A
:201E4A0030125790003475F060C0061273C6AD82AF83D0068E037C00C3EB9DEC9F403B9020
:201E6A00003475F060C0061273C6AD82787CEDF29007447434F0E4A3F07460A3F09007471D
:201E8A00EDF0E4A3F090030175F000126D46D0067831E24420F2C21280559002F77401F0D8
:201EAA007403A3F08E82C006120C9BAF82D006787CEFF2EF6019C007C00612113BD006D0AA
:201ECA00079215E433FD783113E292E5F280067831E254DFF2750C01750D038F82C0061209
:201EEA00084FAD82AF83D0067832EDF208EFF2787C7918C3E2F5F0E395F05019C006743D81
:201F0A00C0E07478C0E07480C0E012448F158115811581D0067813E2B40203D38001C392AB
:201F2A0015E433783113E292E6F2C006121138D0069215E433FF783113E292E7F27813E239
:201F4A007044787CE2703F30113CBE04004037C21190074474D3F0E4A3F07460A3F090072E
:201F6A00477404F0E4A3F090030175F000126D46787C7404F27830E4F208E254E0F27831DE
:201F8A00E2547FF28077125F3AE5826048787CE2FE7F0074042EFEE43FFFC4CEC4540F6E9F
:201FAA00CE540FCE6ECE30E30244F00EEEC454F0F582121354AE82AF837814E2C39EFE0868
:201FCA00E29FFF7830EEF208EF541FF5F0E254E045F0F28028787CE22404F582121354AE1F
:201FEA0082AF837814E2C39EFE08E29FFF7830EEF208EF541FF5F0E254E045F0F2122C6D0F
:20200A00123195787CE22401FEE43403FF7D009007447430F0E4A3F07460A3F090074774AF
:20202A0004F0E4A3F08E828F838DF0126D46787CE2600E7830E2FE08E2541FFF4E6002D21D
:20204A00B6787CE27002D20D781BE2FE08E2FF781FEEF208EFF27821E2FE7F007826E2FC69
:20206A007D00EEC39CFEEF9DFFBE6405BF00028017787CE22404F582121354AE82AF8378BC
:20208A0027E22EF208E23FF2787CE22404FF7819E2FD08E2C313CD13CDFE7814E22DFD087A
:2020AA00E23EFE78A47401F2087403F278A6EDF208EEF28F82123061401A787CE26015784E
:2020CA0030E2FE08E2541FFF4E60097831E220E50312113E7829E2600B782AE4F208F27807
:2020EA002EF208F2787CE2600E7830E2FE08E2541FFF4E6002C2B67816E2FE08E2C313CE70
:20210A0013CEFF7814C3E2F5F0EE95F008E2F5F0EF95F0501212587B500A1258D6400812CE
:20212A00510180F6125101122C7D123195123094021A16122E22AF8290075BEFF0E4A3F0F3
:20214A00A3F0A3F09003E8E4F5F0126F4EAC82AD83AEF0FF900735ECF0EDA3F0EEA3F0EFA9
:20216A00A3F090120075F07AE4126BE0AC82AD83AEF0FF74082CFCE43DFDE43EFEE43FFF01
:20218A00EDC4CCC4540F6CCC540FCC6CCCFDEEC454F04DFDEFC4CEC4540F6ECE540FCE6E32
:2021AA00CE74012CFEE43DFF781DEEF208EFF290074FEEF0EFA3F090000DC007C006126E3A
:2021CA0031E5828583F0D006D007240DFCE435F0FD781BECF208EDF230222E78187474F243
:2021EA00EFCE25E0CE33FF781DEEF208EFF2EFCE25E0CE33CE25E0CE33FFEE2CFCEF3DFDE0
:20220A00781BECF208EDF28005781874F8F2781B7919E2F308E2F5F0E325E0C5F033C5F09B
:20222A00F309E5F0F3781D90075BE2F008E2A3F0E4A3F0A3F07818E2FC7D007E007F008C7C
:20224A00828D838EF0EF126F4E85823F85834085F041F542781BE2FA08E2FB7E007F00904A
:20226A00075BE53F2AF0E5403BA3F0E5413EA3F0E5423FA3F0900003E4F5F0126F4EAC8278
:20228A00AD83AEF0FF900402ECF0EDA3F0EEA3F0EFA3F0782C7438F2087401F27829E260DE
:2022AA003A78B974A8F2087403F208E4F208F278BDECF208EDF208EEF208EFF28C828D8369
:2022CA008EF0EF12412DAC82AD83AEF0FF900402ECF0EDA3F0EEA3F0EFA3F0900402E0FCA5
:2022EA00A3E0FDA3E0FEA3E0FFC3EC94A8ED9461EE9400EF9400401B7888C3E2F5F0740125
:20230A0095F0500F90040274A8F07461A3F0E4A3F0A3F075820F123D8DAC82AD83AEF0FFDE
:20232A0090075BECF0EDA3F0EEA3F0EFA3F090003EE4F5F0126F4E85823F85834085F04198
:20234A00F542900402E0FAA3E0FBA3E0FEA3E0FFC3E53F9AE5409BE5419EE5429F50397582
:20236A00820F123D8DAC82AD83AEF0FF90075BECF0EDA3F0EEA3F0EFA3F090003EE4F5F003
:20238A00126F4EAC82AD83AEF0FF900402ECF0EDA3F0EEA3F0EFA3F0900402E0FCA3E0FD82
:2023AA00A3E0FEA3E0FFC374FF9C741F9DE49EE49F500F90040274FFF0741FA3F0E4A3F014
:2023CA00A3F0900402E0FCA3E0FDA3E0A3E07816ECF208EDF2789BE27E0024F6FFEE34FF68
:2023EA00FE90076C7402F0E4A3F08F828E83C005C004127146AE82AF83781D90074FE2F0D2
:20240A0008E2A3F08E828F83126E31AE82AF83D004D005781BE22EF208E23FF2781BD3E25F
:20242A009CF4B3FCB308E29DF4FD781D9006F3E2F008E2A3F08C828D83126706AE82AF83BC
:20244A00900400EEF0EFA3F07818E2FC7D00C3EC9EED9F5008900400ECF0EDA3F0900400DE
:20246A00E0FEA3E08E820211417819E2C0E008E2C0E07452C0E07478C0E07480C0E0120850
:20248A0035E58124FBF5819000011259F47816E2C0E008E2C0E07466C0E07478C0E074807E
:2024AA00C0E0120835E58124FBF5819000011259F47818E2FE7F00C006C007747BC0E074B9
:1624CA0078C0E07480C0E0120835E58124FBF5819000010259F426
:207767004C2F5220525353493A2025752F257520204C2F52206E6F6973653A2025752F2584
:207787007520706B74733A2025752000207478653D2575207278653D2575207374783D2508
:2077A70075207372783D2575206563633D25752F257520637263653D25752074656D703D67
:2077C70025642064636F3D25750A0054444D3A2025752F2575206C656E3D25752000206466
:2077E700656C74613A2025640A0054444D3A206368616E67652074696D696E672025752FB9
:2078070025750A0054444D3A207363616E6E696E670A00737461636B20626C6F776E0A00C1
:2078270070646174612063616E617279206368616E6765640A006F76657273697A656420AA
:2078470074646D207061636B65740073696C656E63655F706572696F643A2025750A00740D
:20786700785F77696E646F775F77696474683A2025750A006D61785F646174615F70616343
:107887006B65745F6C656E6774683A2025750A00CE
:0A05100078837441F278877464F276
:2024E000AF828F06BE08028021BE0D028005BE7F36801775820A1257CE7884E22406F5829A
:20250000E43404F583E4F0D217227884E260667582081257CE7582201257CE7582081257B8
:20252000CE7884E214F2227884E2B4450050408F057E008D828E83C006C005127266E58252
:202540008583F0D005D00645F0602A8D828E8312732BAD828D077884E2FE788404F2EE24A6
:2025600006F582E43404F583EFF08F820257CEC2167884E4F222AF82BF2B0280047886E4E4
:20258000F27886C3E2F5F0740495F0402C7886E275F003A4902598730225BD0225A70225D3
:2025A000A70225AE0225BD7886E22401F22278867404F278877464F2227886E4F278877408
:2025C00064F2227887E2603B7887E214F27887E270317886E260087886E2B404268006789A
:2025E000867401F222D2167886E4F29004067441F09004077454F0900408E4F0788474029C
:20260000F2D21722201701227884E2B40200E433FF701A900406E0FEBE5212900407E0FE1C
:20262000BE540A1219497884E4F2C21722EF600302269C900406E0FFBF4161900407E0FFD3
:20264000BF5459900408E0FF6023BF26028023BF2B028023BF49028023BF4F028028BF5083
:2026600002801EBF53028027BF5A2E80271226A3802A1229E48025122AEB802012283C800B
:202680001B122AE8801678877464F2C216800D12293D800843EF1080FE1226C57884E4F2A8
:2026A000C21722749BC0E07478C0E07480C0E07497C0E07478C0E07480C0E0120835E581D0
:2026C00024FAF58122749EC0E07478C0E07480C0E07497C0E07478C0E07480C0E012083558
:2026E000E58124FAF58122E5812404F58190044DE4F0A3F0A3F0A3F090044CE02406F582EB
:20270000E43404F583E0FFFD7E008D828E83C007126DBAE5828583F0D00745F0606E9004DE
:202720004DE0FBA3E0FCA3E0FDA3E0FE90075BEBF0ECA3F0EDA3F0EEA3F090000AE4F5F041
:20274000C007126F4EC8E58124FCC8A68208A68308A6F008F6D0077A00EF24D0FFEA34FF88
:20276000FA8F053395E0FEFFE58124FDF890044DED26F0EA0836A3F0EE0836A3F0EF08361C
:20278000A3F090044CE02401F00226F8E58124FCF58122E582900456F0E0F544900451E074
:2027A000FE754300C3E5439E400122C006C0061227B4800E900454E0C0E0A3E0C0E085431D
:2027C0008222A982AA83ABF0FCD006C006C004C003C002C0011227DA800E900452E0C0E0B9
:2027E000A3E0C0E08543822285824585834685F047D001D002D003D004D006AE437F00E57F
:2028000044F83395E0FDC006C001C002C003C004C045C046C047C006C007C000C00574A4CB
:20282000C0E07478C0E07480C0E0120835E58124F2F581D0060543D0060227A4900409E059
:20284000FF6030BF3002802BBF31028048BF32028065BF33030228D4BF34030228F4BF35C0
:2028600003022914BF3603022934BF370302293702293A74BFC0E0747CC0E07480C0E07494
:2028800097C0E07478C0E07480C0E0120835E58124FAF5812274D8C0E0747CC0E07480C046
:2028A000E07497C0E07478C0E07480C0E0120835E58124FAF581227481C0E0E4C0E074B1C4
:2028C000C0E07478C0E07480C0E0120835E58124FBF5812278C3E2FE7F00C006C00774B180
:2028E000C0E07478C0E07480C0E0120835E58124FBF5812278C4E2FE7F00C006C00774B15F
:20290000C0E07478C0E07480C0E0120835E58124FBF581229004517411F090045274FEF0E9
:202920007440A3F0900454748DF0743DA3F075825302279302247302126A0226C590044C49
:202940007403F01226E790044DE0FCA3E0FDA3E0FEA3E0FFBC110040030226C590044CE0F4
:20296000FF2406F582E43404F583E0FEBE3D02803BBE3F6D8C82123D8DAA82AB83ADF0FE44
:2029800090044DEAF0EBA3F0EDA3F0EEA3F0C002C003C005C00674B5C0E07478C0E07480A4
:2029A000C0E0120835E58124F9F58122EC603290044CEF04F0C0041226E7D00490044DE054
:2029C000FBA3E0FDA3E0FEA3E0FF78B5EBF208EDF208EEF208EFF28C82123C2950030226B7
:2029E000A30226C5900409E0FFBF4503022ACABF46028017BF50028058BF54028056BF5548
:202A0000028014BF57028009022AE51240640226A31240070226A390075174BAF07478A334
:202A2000F07480A3F090040A75F000126E51E5828583F045F0701775B7A575B7F1758F033B
:202A400090F7FE74FFF0758F0043EF1080FE0226C502175390075174C0F07478A3F07480F2
:202A6000A3F090040A75F000126E51E5828583F045F070057885E4F22290075174C1F07470
:202A800078A3F07480A3F090040A75F000126E51E5828583F045F070077885E26401F2226D
:202AA00090075174C7F07478A3F07480A3F090040A75F000126E51E5828583F045F070071E
:202AC0007885E26402F2220226C590040AE0FFBF3D028006BF3F0E02436690040B12429A6B
:202AE00050030226A30226C50226C590044C7404F01226E7900409E0FFBF413C90040AE041
:202B0000FFBF3D3490044C7405F01226E790044DE0FCA3E0FDA3E0FEA3E0FFBC0111BD0053
:1B2B20000EBE000BBF00087582021238FD80067582031238FD0226A30226C53D
:2078970025730A004F4B004552524F5200256325753A25733D256C750A0025750A00256C95
:1578B700750A00504441544500003D52535349003D54444D002F
:202B3B00AF83E58290048AF0EFA3F090048AE0FEA3E0FF900489E0FD7C008D027B001ABA7F
:202B5B00FF011B8C007900C3E89AE964808BF063F08095F05046C007C006C005C004126A2D
:202B7B0094AA82D004D005D006D0078DF0EA84E5F02EFAE43FFB8A828B83E0F548C005EC36
:202B9B002EF8E43FFD88828D83E0F98A828B83F088828D83E548F00CD005809E2275820385
:202BBB00123D8D126AEE758210123D8DAC82AD83AEF0FFEC4D4E4F60141243F685820C85A9
:202BDB00830D75822012084FAF83026AEE227F007888C3E2F5F0EF95F0500FEF2457F5825F
:202BFB00E43404F583EFF00F80E6122BB87888E2FF7E008F047D001CBCFF011D8E027B006E
:202C1B00C3EA9CEB64808DF063F08095F05042C007C006126A94AC82D006D0078FF0EC84B3
:202C3B00E5F02457FCE43404FD8C828D83E0F549C007EE2457FAE43404FF8A828F83E0FB9A
:202C5B008C828D83F08A828F83E549F00ED00780A2227889E22457F582E43404F583E0F5A8
:202C7B008222788AE22457F582E43404F583E0F582227889E2FE7F000EBE00010F7888E294
:202C9B00FC7D00900757ECF0EDA3F08E828F83C005C004126EE5AE82AF83D004D00578893A
:202CBB00EEF23018077889798AE2F3227889E27022788AE2FE7F000EBE00010F900757EC43
:202CDB00F0EDA3F08E828F83126EE5AE82AF83788AEEF222A21992185007788A7989E2F3E7
:202CFB0022788AE2FE7F000EBE00010F7888900757E2F0E4A3F08E828F83126EE5AE8278F4
:042D1B008AEEF22228
:202D1F00AFF0AE83E58290058AF0EEA3F0EFA3F0201A02C322788BC3E2F5F074FC95F05058
:202D3F0005123094804590058AE0FDA3E0FEA3E0FF8D828E838FF0788BE2126DE6789CE2F6
:202D5F00FD08E2FE7F00900744748EF07404A3F0E4A3F0788B900747E2F0E4A3F08D828EDA
:202D7F00838FF0126D46123094D32278C5E2FE08E2FFBEFF05BFFF02800C0EBE00010F783A
:202D9F00C5EEF208EFF2C322AF8275A702C2A3C2FF75A3FF789EE2FD08E2FE8F041FEC603A
:202DBF001130F9FD8D828E83E0F5A3A3AD82AE8380E930F9FD748055A1FFBF800280F6C231
:202DDF00FFD2A375A70022201A05788CE26002D322758231123569E58230E402D322C32277
:202DFF00A2A8921CC2A8101B028006A21C92A8D322A21C92A8C322788DE2F5822275822638
:202E1F000235697898E2F58222758208123569AF8274014FFEC007C00675820812353315AB
:202E3F0081D0075307FEC007758208123533158122758208123569AF8274024FFEC007C0A1
:202E5F00067582081235331581D0075307FDC007758208123533158122E582FF2403501922
:202E7F00C00774CCC0E07478C0E07480C0E012448F158115811581D007C007122E28D007E8
:202E9F00C007C00775823E1235331581D007EFFE24DF50027E2078A0799EE2F308E209F39F
:202EBF008E82C007C006122DA7D006D007EFC39EFF78A0E22EF208E23400F2C007E4C0E0FF
:202EDF007582051235331581E4C0E07582061235331581C21BC21D7409C0E0758207123518
:202EFF00331581125A65AC82AD83D007C007C005C004125A65AA82AB83D004D005D007EAFF
:202F1F00C39CFAEB9DFB78A2C3E2F5F0EA95F008E2F5F0EB95F04003023044758203C007EA
:202F3F00C005C004123569AB82D004D005D007301D40EF603DEB30E5397E04BF04005002A3
:202F5F008F0678A0799EE2F308E209F38E82C007C006C005C004122DA7D004D005D006D078
:202F7F0007EFC39EFF78A0E22EF208E23400F2022F0B301D40EF603DEB20E6397E04BF04EE
:202F9F000050028F0678A0799EE2F308E209F38E82C007C006C005C004122DA7D004D0058C
:202FBF00D006D007EFC39EFF78A0E22EF208E23400F2022F0BEB30E720122E2878C7E2FAEB
:202FDF0008E2FEBAFF05BEFF02800C0ABA00010E78C7EAF208EEF2C322758202C007C005A1
:202FFF00C004123569AB82D004D005D007EB30E105D21D022F0B201D03022F0BEB30E103EA
:20301F00022F0BEF601D78C7E2FE08E2FFBEFF05BFFF02800C0EBE00010F78C7EEF208EFE1
:20303F00F2C322D32278C7E2FE08E2FFBEFF05BFFF02800C0EBE00010F78C7EEF208EFF2AB
:20305F00C322E58290058DF0A2A8921FC2A890058DE0FF78A479A0E2F308E209F378A67906
:20307F00A2E2F308E209F38F82122E78921EA21F92A8A21E22C2A8C21A788BE4F2C21B780A
:20309F008CE4F27413C0E075820512353315817440C0E075820612353315811235DD122EB7
:2030BF0028122E507405C0E07582071235331581D2A8D3229000321259F4758201123569DA
:2030DF00AF82BFFF028005BF05005002C32212363D758201123569E582FF20E00612363D42
:2030FF00922022EF30E102D322C322AC82AD83AEF0FFC3ED941CEE944EEF940E400E74C0C3
:20311F009C74F79D74BA9E74379F5002C3227890ECF208EDF208EEF208EFF28C828D838E55
:20313F00F0EF1236A9D322AC82AD83AEF0FFC374F09C74E89D74269EE49F5002C32278A8E2
:20315F007410F2087427F208E4F208F28C828D838EF0EF1235E9AC82AD83AEF0FF7894ECBF
:20317F00F208EDF208EEF208EFF2C00475827A1235331581D322E58290058EF07899E2FFE0
:20319F00E0FEB50701227899EEF2C0067582791235331581C21B227899E2F58222AF82C0A0
:2031BF0007E4C0E07582051235331581E4C0E075820612353315811235DD7415C0E0758284
:2031DF000B12353315817412C0E075820C12353315817582001238FD74B6C0E07582091262
:2031FF0035331581D007EF249B5010C00774C0C0E07582581235331581D0077890E2FB080F
:20321F00E2FC08E2FD08E28B828C838DF0C0071236A97894E2FB08E208E208E2C00375822E
:20323F007A1235331581D007302229C0077488C0E075823012353315817402C0E0758233B9
:20325F001235331581E4C0E07582321235331581D0078040C007748DC0E0758230123533E2
:20327F0015817422C0E07582331235331581740CC0E0758232123533158174FFC0E07582C6
:20329F0043123533158174FFC0E07582441235331581D007C007743CC0E075827C12353383
:2032BF0015817420C0E075827D12353315817432C0E075827E1235331581789B7410F278D5
:2032DF009BE2FEC00675823412353315817428C0E07582351235331581758200123495D039
:2032FF00077E00EE9078E993FDC39F50060EBE0C0040F0EEFF9078E993FE7898F2BE2000AC
:20331F0040047E0D80027E2D75820DC007C006123D8DAA82AB83ACF0FDD006D007EA4B4C04
:20333F004D600B7898E2FD247F4003430602C007C00675827012353315817423C0E0758264
:20335F007112353315817444C0E075821D1235331581D0077898E2FEBEC8005012C0077467
:20337F000AC0E075821E1235331581D0078010C0077402C0E075821E1235331581D00778A7
:20339F00C3E2B4433A7E00EE75F00DA424F6FC747835F0FDEF2CF582E43DF583E493FDEE05
:2033BF009078DD93FCC007C006C0058C821235331581D006D0070EBE0C0040CB0234937839
:2033DF00C3E2B447397E00EE75F00DA42492FC747935F0FDEF2CF582E43DF583E493FDEE25
:2033FF009078DD93FCC007C006C0058C821235331581D006D0070EBE0C0040CB807678C309
:20341F00E2B486397E00EE75F00DA4242EFC747A35F0FDEF2CF582E43DF583E493FDEE903B
:20343F0078DD93FCC007C006C0058C821235331581D006D0070EBE0C0040CB80377E00EE66
:20345F0075F00DA424CAFC747A35F0FDEF2CF582E43DF583E493FDEE9078DD93FCC007C0B5
:20347F0006C0058C821235331581D006D0070EBE0C0040CBD322E58290058FF0E0FF7E00E7
:20349F00EE907B6693FDC39F50060EBE080040F0900590EEF0BE08069005907407F090056E
:2034BF0090E0FF907B6693FE789AEEF2C00775826D123533158122789AE2F58222AF83E589
:2034DF0082900591F0EFA3F0900591E0FEA3E0FF8E04788EECF28F05788FEDF2202234C007
:2034FF0007C006C005C00575823A1235331581D005D006D007C006C005C00675823B1235C9
:20351F0033158175823F1235331581758240123533158122AF82A2A89238C2A875A702C285
:20353F00A3C2FF74804FF5A330F9FDA881181886A330F9FD748055A1FFBF800280F6C2FFFE
:20355F00D2A375A700A23892A822AF82A2A89238C2A875A702C2A3C2FF8FA330F9FD75A322
:20357F000030F9FD748055A1FFBF800280F6AFA3C2FFD2A375A700A23892A88F8222AF824A
:20359F0075A702C2A3C2FF75A37F30FFFD85A3E0E58124FDF886050886068F041FEC60164B
:2035BF00C2FF75A30030FFFD8D828E83E5A3F0A3AD82AE8380E4C2FFD2A375A7002275827D
:2035DF0003123569758204023569AF82AE83ADF0FC78ACEFF208EEF208EDF208ECF278ABA6
:2035FF00E2C313FF18E213FE18E213FB18E213FA78ACE22AFA08E23BFB08E23EFE08E23F42
:20361F00FF78A8900735E2F008E2A3F008E2A3F008E2A3F08A828B838EF0EF026BE0E4C0DF
:20363F00E07582051235331581E4C0E075820612353315811235DD7481C0E07582071235F0
:20365F003315819000021259BB3081071259EC50F8C322E4C0E07582051235331581740288
:20367F00C0E075820612353315819000141259BB1259EC401375820312356975820412351E
:20369F0069E58230E1EAD322C322AF82AE83ADF0FC78B0EFF208EEF208EDF208ECF278B085
:2036BF00C3E2F5F0E495F008E2F5F0743895F008E2F5F0749C95F008E2F5F0741C95F04070
:2036DF000302379E78B1E224C8F208E23463F208E234E3F2900735E4F0742DA3F07431A386
:2036FF00F07401A3F078B0E2F58208E2F58308E2F5F008E2126BE0AA82900593EAF09007F5
:20371F005BEAF0E4A3F0A3F0A3F0902D0075F0317401126F4EAC82AD83AEF0FF78B0E2C359
:20373F009CF208E29DF208E29EF208E29FF278A87471F2087402F208E4F208F278B0E2F530
:20375F008208E2F58308E2F5F008E21235E978B0C0E0E582F208E583F208E5F0F2D0E00873
:20377F00F278B0E225E0F208E233F208E233F208E233F2900593E0FF74204FF002385F781F
:20379F00B1E224E4F208E234B1F208E234F1F29007357480F07496A3F07498A3F0E4A3F058
:2037BF0078B0E2F58208E2F58308E2F5F008E2126BE0AC82900593ECF090075BECF0E4A36A
:2037DF00F0A3F0A3F090968075F098E4126F4EAC82AD83AEF0FF78B0E2C39CF208E29DF28F
:2037FF0008E29EF208E29FF278A87471F2087402F208E4F208F278B0E2F58208E2F583088B
:20381F00E2F5F008E21235E978B0C0E0E582F208E583F208E5F0F2D0E008F278B0E225E09D
:20383F00F208E233F208E233F208E233F2181818E225E0F208E233F208E233F208E233F2FC
:20385F00900593E0FF74404FF078B0E2FC08E2FDC005C004E0C0E07582751235331581D00D
:20387F0004D0058D07C005C004C0077582761235331581D004D005C0047582771235331585
:20389F00812275A70FAEBEE4CE25E0CE33CE25E0CE33FFE5BD23235403FD7C004206EC4216
:2038BF000775A700D2EC20ECFDADBE7C00AABD7B00EA4204EB4205ECC39EFEED9FFF900767
:2038DF006C7402F0E4A3F08E828F83127146E5828583F0242DFCE435F08C82F58322E582D1
:2038FF00900594F0E0FF24FC4068EF2F2F9039107302391C0239710239710239417418C0D9
:20391F00E075820D1235331581758208123569AF82741F5F4480FFC00775820812353315AA
:20393F008122758208123569AF82741F5F4420FFC0077582081235331581740AC0E07582A5
:20395F000D1235331581E4C0E075820E123533158122758208123569AF8253071FC00775DB
:20397F0082081235331581740AC0E075820D12353315817404C0E075820E1235331581220D
:20399F00C027C0E0C0F0C082C083C007C006C005C004C003C002C001C000C0D075D00075E6
:2039BF008204123569AF82758203C007123569AE82D007EE30E449788CE2FC7D0074322C8D
:2039DF00FCE43DFDC374FC9CE49D5003023AAA788CE2248EFCE43404FDC007C006C004C067
:2039FF000575823212359D15811581788CE22432F2758226123569E582D006D007788DF264
:203A1F00EF30E611D21B758226C006123569E582D006788DF2202204EE20E06FEE30E169B2
:203A3F0075824B123569E582FF2403405E788CC3E2F5F0EF95F04053788CC3E29F50227883
:203A5F008CE2248EFDE43404FE788CD3E29FF4FCC007C005C0068C8212359D15811581D088
:203A7F0007788BEFF2D21AE4C0E07582051235331581E4C0E075820612353315817402C0F9
:203A9F00E07582071235331581801E78C5E2FE08E2FFBEFF05BFFF02800C0EBE00010F7813
:203ABF00C5EEF208EFF2123094D0D0D000D001D002D003D004D005D006D007D083D082D0D2
:063ADF00F0D0E0D0273218
:2078CC006F76657273697A6564207061636B6574001C1F2021222324252A6E6F7202040898
:2078EC001013182030406080C0FA2727272E1601050B9A888A8C8D0303030303030303036D
:20790C0003030303F4FA7D3F69A77D535E7D5E3F302000010201000101010101020241832C
:20792C00060C37C406895D065D0CAA8912254A4C9C25378625864AAB0001020402010203A6
:20794C00020202040785080E12728A0E18BB0EBBEAFF1D1D1D1E1E1E20304150505050103C
:20796C002041839BC4080C101820314062C58912A69C314A6293C5270003060D1A1E2633E4
:20798C004D669ACDFEFE2B2B2B2E1601050B9A888A8C8D0303030303030303030303030303
:2079AC00F4FA7D3F69A77D535E7D5E3F30200001020100010101010102024183060C37C48B
:2079CC0006895D065D0CAA8912254A4C9C25378625864AAB00010204020102030202020409
:2079EC000785080E12728A0E18BB0EBBEAFF1E1E1E21212121304150505050102041839B1A
:207A0C00C4080C101820314062C58912A69C314A6293C5270003060D1A1E26334D669ACDA8
:207A2C00FEFE010101010101050B9A888A8C8D03030303030303030303030303D0E8F4FA96
:207A4C00D3A77D535E7D5E3F30E0602000000001010101010202102041839BC406895D067A
:207A6C005D0CAA62C58912A69C25378625864AAB000000010101020302020204072344855C
:207A8C0008398A0E18BB0EBBEAFF1C1C1C1C1C1E20304150505050102041839BC4080C108A
:207AAC001820314062C58912A69C314A6293C5270003060D1A1E26334D669ACDFEFE0101F2
:207ACC0001010101050B9A888A8C8D03030303030303030303030303D0E8F4FAD3A77D53AA
:207AEC005E7D5E3F30E0602000000001010101010202102041839BC406895D065D0CAA62AF
:207B0C00C58912A69C25378625864AAB0000000101010203020202040723448508398A0E57
:207B2C0018BB0EBBEAFF1E1E1E1E1E1E20304150505050102041839BC4080C10182031400F
:207B4C0062C58912A69C314A6293C5270003060D1A1E26334D669ACDFEFE010205080B0ED3
:027B6C001114F2
:203AE50075B7A575B7F122D310AF01C3C0D0AF8474035F4430F584C007123AE5D007758F02
:203B05000390000074FFF0758F008F84D0D092AF22D310AF01C3C0D0AE82AF83AD847403A0
:203B25005D4430F584758F008E828F83E493FF758F008D848F82D0D092AF22D310AF01C31B
:203B4500C0D0AE82AF83AD8474035D4430F584C007C006C005123AE5D005D006D007758F73
:133B6500058E828F8378B4E2F08D84758F00D0D092AF2210
:02F7FE003DC20A
:203B7800AF82BF1100400122EF24F05003023C27EF2F2F903B8F73023BBF023BC1023BCBF2
:203B9800023BDD023BDF023BF1023C03023BF1023C27023C27023C27023C27023C27023C03
:203BB80027023C27023C15C322AF4A8F821257E2922122C3E4954A7401954BE4954CE495E6
:203BD8004D504CC322D322C37414954AE4954BE4954CE4954D5038C322C37401954AE49594
:203BF8004BE4954CE4954D5026C322C37402954AE4954BE4954CE4954D5014C322C3748312
:203C1800954AE4954BE4954CE4954D5002C322D322AF8278B5E2F54A08E2F54B08E2F54C5E
:203C380008E2F54D8F82C007123B78D007400122BF0402801FBF0603023D2FBF0703023DC7
:203C58006CBF0B02802DBF0C02806FBF0E03023D44023D6C78B5E2F582C00712349512343F
:203C7800D6AE82D00778B5EEF208E4F208F208F2023D6C78B9E4F208F208F208F278BD7427
:203C980064F208E4F208F208F278B5E2F58208E2F58308E2F5F008E2C00712412DAB82AC23
:203CB80083ADF0FED00778B5EBF208ECF208EDF208EEF27821EBF2023D6C78B5E2F5F0081B
:203CD800E242F008E242F008E245F0604278B97419F208E4F208F208F278BD74DCF208E4F6
:203CF800F208F208F278B5E2F58208E2F58308E2F5F008E2C00712412DAB82AC83ADF0FEE7
:203D1800D00778B5EBF208ECF208EDF208EEF278B57929E2F3803D78B5E2FE900606F07883
:203D3800B5EEF208E4F208F208F2802878B5E2F5F008E242F008E242F008E245F024FF925C
:203D58002350047E0180027E0078B5EEF208E4F208F208F2EF75F004A42495F5827405359C
:203D7800F0F58378B5E2F008E2A3F008E2A3F008E2A3F0D322AF82BF11004007900000E49C
:203D9800F5F022EF75F004A42495F582740535F0F583E0FCA3E0FDA3E0FEA3E08C828D8344
:203DB8008EF02285824E85834F9005F9E0FCA3E0FD9005FBE0FB8C018D028B007F00E82C10
:203DD800F8EF3DFFC3E998EA9F5041E9C39CFEEA9DFFEE254EFEEF354FFF89828A83C007CE
:203DF800C006C005C004C003C002C001123B16A882D001D002D003D004D005D006D0078E2F
:203E1800828F83E8F009B900B10A80AE854E0C854F0D8B82C002C00112084FAE82AF83D088
:203E380001D002740129FCE43AFD8C828D83C007C006C002C001123B16AD82D001D0028DF2
:203E5800047D0089828A83C005C004123B16AB82D004D005D006D0077A00EB4205EA420466
:203E7800EEB50506EFB504028002C322D3228582508583519005FCE0FCA3E0FD9005FEE066
:203E9800FB8C528D538B027F00EA2CFAEF3DFFC3E5529AE5539F5036E552C39CFEE5539DB0
:203EB800FFEE2550F582EF3551F58378B4E0F2855282855383C005C004C003123B40D003C6
:203ED800D004D0050552E4B552BB055380B785500C85510D8B8212084FAE82AF838E0478EF
:203EF800B4ECF2855282855383C007C006123B40D006D00774012552FCE43553FD78B4EF31
:203F1800F28C828D83023B40D310AF01C3C0D0124064900000123B16E582FF24BB4005BF24
:203F380030005004C30240009005F97401F0E4A3F09005FBEFF0900595123DBB400302404E
:203F580000758200123D8DAC82AD83AEF0FFBC1A0BBD0008BE0005BF00028004C3024000C8
:203F78007F00EF75F004A42495FD740535F0FE8D828E83E0F54AA3E0F54BA3E0F54CA3E013
:203F9800F54D8F82C007C006C005123B78D005D006D0074032EF75F007A4246EFB747B35FB
:203FB800F0FC8B828C83A3A3A3E493F9A3E493FAA3E493FBA3E493FC8D828E83E9F0EAA3C3
:203FD800F0EBA3F0ECA3F00FBF440040959005F97481F07401A3F09005FB7420F09005D9F8
:203FF800123DBB40028001D333D0D092AF1322D310AF01C3C0D0900595741AF0E4A3F0A318
:20401800F0A3F0123AEC78B47444F2900000123B409005FC7401F0E4A3F09005FE7444F032
:20403800900595123E8678B47420F2900180123B409005FC7481F07401A3F09005FE742073
:20405800F09005D9123E86D0D092AF227F00EF75F004A42495FD740535F0FEEF75F007A445
:20407800246EFB747B35F0FC8B828C83A3A3A3E493F9A3E493FAA3E493FBA3E493FC8D82C8
:204098008E83E9F0EAA3F0EBA3F0ECA3F00FBF110040BB22AF827E008F037C007D40EE75CB
:2040B800F007A4246EF582747B35F0F583E493F8A3E493F9A3E493FA900751E8F0E9A3F0E6
:2040D800EAA3F08B828C838DF0C007C006126E51E5828583F0D006D00745F060060EBE11D0
:2040F8000040B58E8222AF82BF11005021EF75F007A4246EF582747B35F0F583E493FDA364
:20411800E493FEA3E493FF8D828E838FF02290000075F00022AC82AD83AEF0FF78B9C3E250
:20413800F5F0EC95F008E2F5F0ED95F008E2F5F0EE95F008E2F5F0EF95F0500D78B9E2FCDF
:2041580008E2FD08E2FE08E2FF78BDC3E29C08E29D08E29E08E29F500D78BDE2FC08E2FD2A
:2041780008E2FE08E2FF8C828D838EF0EF22AF82BF3000400DEF24C640088F06EE24D0F5AF
:204198008222BF4100400DEF24B940088F0674C92EF58222BF6100400BEF2499400674A9EF
:2041B8002FF5822275820022AF83E582900601F0EFA3F0900601E0FEA3E0FF9005FFE0F504
:2041D80054A3E0F55578C2E4F278C279C1C3E3F5F0E295F0506878C2E275F002A4FAABF0BC
:2041F8002EF582EB3FF583E0F582C007C006C003C002124186AD82D002D003D006D007EDB0
:20421800C454F0FD0ABA00010BEA2EF582EB3FF583E0F582C007C006C005124186AC82D000
:2042380005D006D007EC2DFD78C2E22554F582E43555F583EDF078C2E22401F2808B22AFC0
:20425800829006037462F07E00C3EE9F5033EE24D9FCE43405FD7B009007447403F07406DC
:20427800A3F0E4A3F090074704F0E4A3F08C828D838BF0C007C006126D46D006D0070E80AD
:20429800C822AF83E582900604F0EFA3F0758210123D8DAC8253040F0CECC40354F8FF9066
:2042B8000604E0FDA3E0FE8D028E037C008A828B838CF0C007C006C0051273C6AB82D005AD
:2042D800D006D007EF75F002A4FAACF08B56755700C3E5569AE55764808CF063F08095F050
:2042F800502C8F82C004C002124257D002D004C002C004C056C05774E5C0E0747BC0E07493
:2043180080C0E0120835E58124F9F581D3228F037C00C007C006C005C003C0047409C0E024
:20433800747CC0E07480C0E0120835E58124FBF581D005D006D0079005FF74D9F07405A388
:20435800F078C1EFF28D828E831241C0D322758210123D8DAC8253040F7D000CECC403540C
:20437800F8FF7E00C3EE9F505FEE24D9F582E43405F583E0FD24F0401DC007C0067415C096
:20439800E0747CC0E07480C0E0120835158115811581D006D007EE24D9F582E43405F5834C
:2043B800E0FD7C00C007C006C005C0047417C0E0747CC0E07480C0E0120835E58124FBF55E
:2043D80081D006D0070E809C741AC0E0747CC0E07480C0E012083515811581158122900553
:0243F800D922C8
:207B6E001C7C801A000000237C8039000000307C80400000003A7C8019000000407C801462
:207B8E00000000487C80000000004C7C8001000000547C80000000005E7C80000000006739
:207BAE007C8000000000707C80000000007D7C8064000000887C8000000000917C80000061
:207BCE0000009C7C8000000000A37C8083000000AE7C80000000004552524F52202D204BF1
:207BEE006579206C656E6774683A25752C2052657175697265642025750A006B6579206CFD
:207C0E00656E2025640A0030002578000A00464F524D41540053455249414C5F53504545E4
:207C2E0044004149525F5350454544004E45544944005458504F57455200454343004D4140
:207C4E00564C494E4B004F5050524553454E44004D494E5F46524551004D41585F4652454F
:207C6E0051004E554D5F4348414E4E454C5300445554595F4359434C45004C42545F52530F
:207C8E005349004D414E4348455354455200525453435453004D41585F57494E444F570050
:117CAE00454E4352595054494F4E5F4C4556454C00E3
:060400000204A902399F6D
:01040B0032BE
:0104130032B6
:01041B0032AE
:03042300024E3D49
:03042B000259FD76
:010433003296
:01043B00328E
:010443003286
:01044B00327E
:010453003276
:01045B00326E
:010463003266
:01046B00325E
:03047300025973B8
:01047B00324E
:010483003246
:01048B00323E
:010493003236
:01049B00322E
:0304A300025F23D2
:03052C000204A620
:0304A6000243FA14
:2043FA00758433AFC478C3EFF2AFC378C4EFF2123F204003124064758206123D8DAC829058
:20441A000606ECF0758205123D8DAC82AD83AEF0FFEC4D4E4F24FF922275820E123D8DAC8D
:20443A0082AD83AEF0FFEC4D4E4F24FF92231244C912455A123094401574DCC0E0747CC0CA
:20445A00E07480C0E012448F158115811581758210123D8DAC828C82125FA5401574F6C073
:20447A00E0747CC0E07480C0E012448F1581158115810219FC907D0F75F0801272ADE581C8
:20449A0024FCFFC007E58124FBF886820886830886F01205921581907D1A75F0801272AD8C
:2044BA00D2AFD2AC9003E81259F443EF1080FEAFD974BF5FF5D943B28075B64075A90075EE
:2044DA00FF807E5E7F011EBEFF011FEE4F70F775EF0675D4CF75D5FF75D62875A41075A7C5
:2044FA000F75A41075A70075E10143E24143A6FD75A70F43A5F575A6FD43B1C043A1C075BE
:20451A00A70275A14075F80075A20043F801D2A375A700C289125AA3758201123D8DAC82D5
:20453A008C8212500875B800D2AFC2B7C2B6D2EF75BCF975BA0075BB1B75D10775E34022DE
:20455A001230D34015741BC0E0747DC0E07480C0E012448F15811581158178C3E2B44302C6
:20457A00801C78C3E2B44702804478C3E2B48602806C78C3E2B4910302462602465590065C
:20459A00077490F074D1A3F074CFA3F07419A3F090060B7470F0745EA3F074EAA3F07419E0
:2045BA00A3F0900613740AF07888F202468D9006077480F074A1A3F07403A3F0741CA3F01A
:2045DA0090060B74C0F074E3A3F07412A3F0741CA3F0900613740AF07888F202468D900662
:2045FA0007E4F074A1A3F074BCA3F07433A3F090060B7480F07425A3F074DBA3F07433A344
:20461A00F0900613740AF07888F2806790060774C0F074CAA3F07489A3F07436A3F09006AB
:20463A000BE4F07428A3F023A3F07437A3F09006137414F078887432F28038900607E4F07C
:20465A00A3F0A3F0A3F090060BF0A3F0A3F0A3F0900613F078C3E2FE7F00C006C0077433D6
:20467A00C0E0747DC0E07480C0E012448FE58124FBF58175820A123D8DAC82AD83AEF0FFA3
:20469A00EC4D4E4F601175820A123D8DAC82AD83AEF0FF7888ECF2758208123D8DAC82AD4D
:2046BA0083AEF0FFEC4D4E4F6039758208123D8DAC82AD83AEF0FF90075BECF0EDA3F0EE3F
:2046DA00A3F0EFA3F09003E8E4F5F0126F4EAC82AD83AEF0FF900607ECF0EDA3F0EEA3F023
:2046FA00EFA3F0758209123D8DAC82AD83AEF0FFEC4D4E4F6039758209123D8DAC82AD839E
:20471A00AEF0FF90075BECF0EDA3F0EEA3F0EFA3F09003E8E4F5F0126F4EAC82AD83AEF082
:20473A00FF90060BECF0EDA3F0EEA3F0EFA3F0758204123D8DAC82AD83AEF0FFEC4D4E4FB8
:20475A006012758204123D8DAC82AD83AEF0FF900613ECF0900613E0FF7E007D007C0078FF
:20477A00B9E4F208F208F208F278BD7414F208E4F208F208F28F828E838DF0EC12412DAC6A
:20479A00827888E2FB7D007E007F0078B97401F208E4F208F208F278BD7432F208E4F20809
:2047BA00F208F28B828D838EF0EFC00412412DAB82AD83AEF0FFD0047888EBF278C3E2B4A9
:2047DA004302801E78C3E2B4470302489F78C3E2B4860302494478C3E2B491030249E90254
:2047FA004A8B900607E0FBA3E0FDA3E0FEA3E0FF78B97480F2087423F20874ADF208741878
:20481A00F278BDE4F208740BF208746BF208741BF28B828D838EF0EFC00412412DAB82ADFE
:20483A0083AEF0FF900607EBF0EDA3F0EEA3F0EFA3F090060BE0FBA3E0FDA3E0FEA3E0FF44
:20485A0078B97480F2087423F20874ADF2087418F278BDE4F208740BF208746BF208741B01
:20487A00F28B828D838EF0EF12412DAB82AD83AEF0FFD00490060BEBF0EDA3F0EEA3F0EFE8
:20489A00A3F0024AAE900607E0FBA3E0FDA3E0FEA3E0FF78B97480F2087474F20874D2F23D
:2048BA0008741AF278BD7480F20874CEF2087434F208741DF28B828D838EF0EFC004124131
:2048DA002DAB82AD83AEF0FF900607EBF0EDA3F0EEA3F0EFA3F090060BE0FBA3E0FDA3E01D
:2048FA00FEA3E0FF78B97480F2087474F20874D2F208741AF278BD7480F20874CEF208748A
:20491A0034F208741DF28B828D838EF0EF12412DAB82AD83AEF0FFD00490060BEBF0EDA3E8
:20493A00F0EEA3F0EFA3F0024AAE900607E0FBA3E0FDA3E0FEA3E0FF78B97440F20874B66C
:20495A00F208749AF2087432F278BD7440F2087410F20874FDF2087434F28B828D838EF0A2
:20497A00EFC00412412DAB82AD83AEF0FF900607EBF0EDA3F0EEA3F0EFA3F090060BE0FB79
:20499A00A3E0FDA3E0FEA3E0FF78B97440F20874B6F208749AF2087432F278BD7440F208F4
:2049BA007410F20874FDF2087434F28B828D838EF0EF12412DAB82AD83AEF0FFD0049006EC
:2049DA000BEBF0EDA3F0EEA3F0EFA3F0024AAE900607E0FBA3E0FDA3E0FEA3E0FF78B9E44A
:2049FA00F20874A1F20874BCF2087433F278BD74C0F20874F7F20874BAF2087437F28B8237
:204A1A008D838EF0EFC00412412DAB82AD83AEF0FF900607EBF0EDA3F0EEA3F0EFA3F09036
:204A3A00060BE0FBA3E0FDA3E0FEA3E0FF78B9E4F20874A1F20874BCF2087433F278BD7463
:204A5A00C0F20874F7F20874BAF2087437F28B828D838EF0EF12412DAB82AD83AEF0FFD084
:204A7A000490060BEBF0EDA3F0EEA3F0EFA3F0802378C3E2FE7F00C004C006C0077433C024
:204A9A00E0747DC0E07480C0E012448FE58124FBF581D00490060BE0FBA3E0FDA3E0FEA323
:204ABA00E0FF900607E0F558A3E0F559A3E0F55AA3E0F55BEBB55825EDB55921EEB55A1D6A
:204ADA00EFB55B1990060B74402558F074423559A3F0740F355AA3F0E4355BA3F075820B5D
:204AFA00C004123D8DAB827821EBF27F007E007D0078B9E4F208F208F208F278BD7464F2EB
:204B1A0008E4F208F208F28B828F838EF0ED12412DAB827821EBF278B5EBF208E4F208F21A
:204B3A0008F275820B123C2975820C123D8DAB82AD83AEF0FFD0047829EBF2EB60377F00BC
:204B5A007E007D0078B97419F208E4F208F208F278BD74DCF208E4F208F208F28B828F8356
:204B7A008EF0EDC00412412DAB82AD83AEF0FFD0047829EBF2C004782979B5E2F309E4F3D8
:204B9A0009F309F375820CC004123C2990073574E8F07403A3F0E4A3F0A3F085588285595C
:204BBA0083855AF0E55B126BE0AB82AD83AEF0FF78B5EBF208EDF208EEF208EFF275820831
:204BDA00123C29D00490060BE0F55CA3E0F55DA3E0F55EA3E0F55F90073574E8F07403A3EA
:204BFA00F0E4A3F0A3F0855C82855D83855EF0E55F126BE0AA82AC83AEF0FF78B5EAF2085C
:204C1A00ECF208EEF208EFF2758209C004123C29788879B5E2F309E4F309F309F375820AB4
:204C3A00123C29D004E55CC39558FCE55D9559FDE55E955AFEE55F955BFF7888E2FA7B003B
:204C5A0074022AFAE43BFB900735EAF0EBA3F0EB3395E0A3F0A3F08C828D838EF0EF126BA1
:204C7A00E0AC82AD83AEF0FF90060FECF0EDA3F0EEA3F0EFA3F0EFC313FFEE13FEED13FD7B
:204C9A00EC139006072558F0ED3559A3F0EE355AA3F0EF355BA3F0758203123D8DAC82C0FD
:204CBA0004126AEED0047888C3E2F5F0740595F0D0044003024D5BC004C004126A94AE8287
:204CDA00AF8390074FEEF0EFA3F0900271126E31AE82AF83D0048E5CEFF55D3395E0F55E32
:204CFA00F55F90060FE0FAA3E0FCA3E0FEA3E0FF9006F9EAF0ECA3F0EEA3F0EFA3F0855C79
:204D1A0082855D83855EF0E55FC0041267A085825C85835D85F05EF55FD004900607E0FA64
:204D3A00A3E0FBA3E0FEA3E0FF900607E55C2AF0E55D3BA3F0E55E3EA3F0E55F3FA3F0D0D6
:204D5A0004900607E0FBA3E0FDA3E0FEA3E08B828D838EF0C00412310AD00490060FE0FB39
:204D7A00A3E0FDA3E0FEA3E08B828D838EF0C004123146758203123D8DAB82AD83AEF0FFDD
:204D9A0078889006F9E2F0E4A3F0A3F0A3F08B828D838EF0EF1267A0123195758202123D38
:204DBA008D1231BCD0044037758202C004123D8D1231BCD0044028758202C004123D8D1283
:204DDA0031BCD0044019C004744AC0E0747DC0E07480C0E012448F158115811581D004C01D
:204DFA0004122E22AF8278B5EFF208E4F208F208F2758202123C29758203123D8D1234DCBA
:204E1A00D0048C821234951234D6AF8278B5EFF208E4F208F208F2758204123C29122BE9F6
:034E3A0002213D15
:207CBF005246442053694B20322E302D45206F6E205246443930305500322E3000666169D9
:207CDF006C656420746F20656E61626C65207265636569766572006661696C656420746FE9
:207CFF0020696E697469616C69736520616573000A2A2A50414E49432A2A00007261646904
:207D1F006F5F696E697469616C697365206661696C65640062616420626F6172642066727F
:207D3F00657175656E637920256400726164696F5F636F6E666967757265206661696C6530
:027D5F006400BE
:12051A0078DB7490F2087401F278DD74F4F2087401F2F9
:204E3D00C027C0E0C0F0C082C083C007C006C005C004C003C002C001C000C0D075D0001098
:204E5D009803024F52AF9930160E301703024F528F821224E0024F528F82C007122576D04F
:204E7D000778DFE22401FD08E23400FEBD0009BE0C067D007E00800B78DFE22401FD08E236
:204E9D003400FE78E1E2B5050708E2B50602803A78DFE22477F58208E23407F583EFF07827
:204EBD00DFE22401FD08E23400FEBD0009BE0C067D007E00800B78DFE22401FD08E2340041
:204EDD00FE78DFEDF208EEF2801B78CBE2FD08E2FEBDFF05BEFF02800C0DBD00010E78CBCC
:204EFD00EDF208EEF278DF79E1C3E3F5F0E295F009E3F5F008E295F0401B78E1E22400FD34
:204F1D0008E2340CFE78DFD3E29DF4B3FDB308E29EF4FE801578E179DFE3F5F0C3E295F09A
:204F3D00FD09E3F5F008E295F0FEC3ED9411EE94005002D282109903024FCF78E379E5E235
:204F5D00F5F0E3B5F00B08E2F5F009E3B5F002805F302320308317201614900614E0FEE08C
:204F7D007004D224804CEE14900614F080069006147408F078E5E22477F58208E23413F52F
:204F9D0083E0FF78E5E22401FD08E23400FEBD0009BE08067D007E00800B78E5E22401FD9C
:204FBD0008E23400FE78E5EDF208EEF28F998002D224D0D0D000D001D002D003D004D00565
:204FDD00D006D007D083D082D0F0D0E0D0273278E379E5E2F5F0E3B5F00A08E2F5F009E3FC
:204FFD00B5F001223024030254A622AF82C2AC78DFE4F208F278E1F208F278E3F208F2788D
:20501D00E5F208F278E7F208F278E9F208F2D224C28EAE89740F5E4420F5898F8212580847
:20503D00D28E759810C282D2AC22AF82C007125452AD82AE83D007C3ED9401EE94005002F2
:20505D00C3228F82125066D322AF82A2AC9238C2AC78E3E22401FD08E23400FEBD0009BECA
:20507D0008067D007E00800B78E3E22401FD08E23400FE78E5E2B5050708E2B50602804499
:20509D0078E3E22477F58208E23413F583EFF078E3E22401FE08E23400FFBE0009BF08060B
:2050BD007E007F00800B78E3E22401FE08E23400FF78E3EEF208EFF2302424C0271254A63F
:2050DD00D027801B78C9E2FE08E2FFBEFF05BFFF02800C0EBE00010F78C9EEF208EFF2A281
:2050FD003892AC2278E779E9E2F5F0E3B5F00C08E2F5F009E3B5F0030251FE125F3AE58219
:20511D0070030251FE78E9E22477FE08E2341BFF8E828F83E07011D22510AF02C22578E917
:20513D00E4F208F2A22592AF78E9E22401FE08E23400FFEE2477FEEF341BFF78E9E2247755
:20515D00F58208E2341BF583E09006D8F09006D97415F07406A3F09006DB74EBF07400A300
:20517D00F07460A3F08E828F8312628FE58260157461C0E0747DC0E07480C0E012448F1526
:20519D00811581158178EB79EDE2F390061512531A78E9E22477F58208E2341BF583E0FF98
:2051BD0078EBF278E9E22477F58208E2341BF583E4F0D22510AF02C2257E000FBF00010EA9
:2051DD0078E9E22FF208E23EF278E9C3E294FC08E29403400678E9E4F208F2A22592AFD3CB
:2051FD0022C322AF83E582900635F0EFA3F0125F3AE582700302530578E7E22401FE08E288
:20521D003400FF74FCC39EFE74039FFF78ECE2FC7D00C3EE9CEF9D500678E7E4F208F2C07D
:20523D0005C004125929AE82AF83D004D005C3EE9CEF9D501B78C9E2FE08E2FFBEFF04BF1B
:20525D00FF01220EBE00010F78C9EEF208EFF22278E7E22477F58208E2341BF58378ECE2BD
:20527D00F078E7E22401FE08E23400FFEE2477FEEF341BFF8E608F61756200900635E0FA82
:20529D00A3E0FF900744EAF0EFA3F0E4A3F0900747ECF0EDA3F08560828561838562F012CE
:2052BD006D46D22610AF02C22678ECE2FE7F000EBE00010F78E7E22EF208E23FF278E7C340
:2052DD00E294FC08E29403400B78E7E22404F208E234FCF2A22692AF78E7E22477F58208A8
:2052FD00E2341BF583E4F022900635E0FEA3E0FF78EC79EDE2F38E828F8302531AAF83E580
:20531D0082900637F0EFA3F078EDE2700122125452AE82AF8378EDE2FC7D00C3EE9CEF9D22
:20533D00501F78EDEEF278C9E2FE08E2FFBEFF05BFFF02800C0EBE00010F78C9EEF208EF90
:20535D00F278EDE2FF78E3D3E29400F4B3FDB308E29408F4FE8F037C00C3ED9BEE9C50084A
:20537D0078E3E2FEC3E49EFF78E3E22477FD08E23413FE7C00900637E0FAA3E0FB90074411
:20539D00EAF0EBA3F0E4A3F0900747EFF0E4A3F08D828E838CF0C007C003C002126D46D070
:2053BD0002D003D007900637EF2AF0E43BA3F078EDE2C39FF2D22710AF02C2277E0078E385
:2053DD00E22FF208E23EF278E3C308E29408400678E4E224F8F2A22792AF78EDE2604490D8
:2053FD000637E0FEA3E0FF900744EEF0EFA3F0E4A3F078EDE2FE7F00900747EEF0EFA3F03F
:20541D0090137775F000C007C006126D46D006D007D22710AF02C22778E3EEF208EFF2A288
:20543D002792AFD22710AF02C2273024031254A6A22792AF22A2AC9228C2AC78E379E5C3C3
:20545D00E3F5F0E295F009E3F5F008E295F0401B78E5E22400FE08E23408FF78E3D3E29E31
:20547D00F4B3FEB308E29FF4FF801578E579E3E3F5F0C3E295F0FE09E3F5F008E295F0FFBE
:20549D00A22892AC8E828F832230230730830420160122C224D29922A2AC9229C2AC78DFF8
:2054BD0079E1E2F5F0E3B5F00B08E2F5F009E3B5F002803A78E1E22477F58208E23407F598
:2054DD0083E0FF78E1E22401FD08E23400FEBD0009BE0C067D007E00800B78E1E22401FD5B
:2054FD0008E23400FE78E1EDF208EEF280027F0078DF79E1C3E3F5F0E295F009E3F5F008D6
:20551D00E295F0401B78E1E22400FD08E2340CFE78DFD3E29DF4B3FDB308E29EF4FE801519
:20553D0078E179DFE3F5F0C3E295F0FD09E3F5F008E295F0FEC374229DE49E5002C282A2C0
:20555D002992AC8F8222A2AC922AC2AC78E1E22477F58208E23407F583E0FFA22A92AC8FBA
:20557D008222AF83E582900639F0EFA3F0A2AC922BC2AC900639E0FEA3E0FF78E1E22EFE81
:20559D0008E23FFF90075FE4F0740CA3F08E828F83126FBAAE82AF83EE2477F582EF340700
:2055BD00F583E0FFA22B92AC8F8222AF83E58290063BF0EFA3F012573BAE82AF8378EEE20F
:2055DD00FC7D00C3EE9CEF9D5002C3228C038D0278E1D3E29400F4B3FCB308E2940CF4FD94
:2055FD00C3EC9BED9A501078E1D3E29400F4B3FBB308E2940CF4FA90063BE0FCA3E0FD8C35
:20561D00638D6475650078E1E22477FE08E23407FF900744EEF0EFA3F0E4A3F0900747EBCC
:20563D00F0EAA3F08563828564838565F0C005C004C003C002126D46D002D003D004D0050F
:20565D008B0678EEE2C39EF290063BEB2CF0EA3DA3F0D22C10AF02C22C78E1E22BF208E280
:20567D003AF278E1C308E2940C400678E2E224F4F2A22C92AF78EEE2604890063BE0FEA35E
:20569D00E0FF7D009007447477F07407A3F0E4A3F078EEE2FB7C00900747EBF0ECA3F08ED1
:2056BD00828F838DF0C004C003126D46D003D004D22C10AF02C22C78E1EBF208ECF2A22C32
:2056DD0092AFD22C10AF02C22C78DF79E1C3E3F5F0E295F009E3F5F008E295F0401B78E128
:2056FD00E22400FE08E2340CFF78DFD3E29EF4B3FEB308E29FF4FF801578E179DFE3F5F0D4
:20571D00C3E295F0FE09E3F5F008E295F0FFC374229EE49F5002C282A22C92AFD322A2ACA3
:20573D00922DC2AC78DF79E1C3E3F5F0E295F009E3F5F008E295F0401778DF79E1E3F5F06C
:20575D00C3E295F0FE09E3F5F008E295F0FF801978E1D3E29400F4B3FCB308E2940CF4FDB9
:20577D0078DFE22CFE08E23DFFA22D92AC8E828F832212573BAE82AF83E4C39EFE740C9FCA
:20579D00C423CEC423541F6ECE541FCE6ECEFF90074FEEF0EFA3F0900064126E31AE82AF5B
:2057BD00839006F37480F023A3F08E828F83026706AF82BF0A0A75820DC007125066D00727
:2057DD008F82025066AF827E00BE0900501BEE75F003A42484F582747D35F0F583E493FDE7
:2057FD00EFB50502D3220E80E0C322AF827E00BE0900501BEE75F003A42484F582747D3579
:20581D00F0F583E493FDEFB5050280030E80E090063DEEF0BE090690063D7406F090063D65
:20583D00E075F003A42484FD747D35F0FE8D828E83A3E493F58DAC8E5304F48D828E83A3A2
:20585D00A3E4934CF58E90075BEFF0E4A3F0A3F0A3F090007DE4F5F0126F4E02114C78E771
:20587D0079E9C3E3F5F0E295F009E3F5F008E295F0401B78E9E224FCFE08E23403FF78E73C
:20589D00D3E29EF4B3FEB308E29FF4FF801578E979E7E3F5F0C3E295F0FE09E3F5F008E2C3
:2058BD0095F0FF78DBC3E2F5F0EE95F008E2F5F0EF95F05002D322C32278E779E9C3E3F52C
:2058DD00F0E295F009E3F5F008E295F0401B78E9E224FCFE08E23403FF78E7D3E29EF4B3DF
:2058FD00FEB308E29FF4FF801578E979E7E3F5F0C3E295F0FE09E3F5F008E295F0FF78DD84
:20591D00C3E29E08E29F5002D322C32278E779E9C3E3F5F0E295F009E3F5F008E295F0403F
:20593D001B78E9E224FCFE08E23403FF78E7D3E29EF4B3FEB308E29FF4FF801578E979E7D2
:16595D00E3F5F0C3E295F0FE09E3F5F008E295F0FF8E828F8322C1
:207D61006572726F72207768696C6520747279696E6720746F2064656372797074206461DF
:1E7D8100746100012C02029602042C0009960013600126B001392B08739608E6CB08F6
:207DBF000000000000000000000000000000000000000000000000000000000000000000A4
:207DDF00000000000000000000000000000000000000000000000000000000000000000084
:207DFF00000000000000000000000000000000000000000000000000000000000000000064
:207E1F00000000000000000000000000000000000000000000000000000000000000000043
:20597300C027C0E0C0F0C082C083C007C006C005C004C003C002C001C000C0D075D00075F2
:2059930091041225C3E56660021566D0D0D000D001D002D003D004D005D006D007D083D0DE
:2059B30082D0F0D0E0D02732AE82AF83C3EE94F6EF940940047566FF2274092EFEE43FFF85
:2059D3009006F3740AF0E4A3F08E828F83126706AE828E662285826622E566B40100922E10
:2059F300221259BB1259EC50FB22C027C0E0C0F0C082C083C007C006C005C004C003C00231
:205A1300C001C000C0D075D00075C80474012567F567E43568F568302303124FECD0D0D08E
:205A330000D001D002D003D004D005D006D007D083D082D0F0D0E0D02732AFCDAECCEFB5AF
:205A5300CDF88F05E4FFFCEE4207EC42058F828D8322AE67AF68C007C006125A4DAC82AD01
:205A730083D006D007EEB567E9EFB568E5EEC40354F8FF7E00EDC403CCC40354076CCC5453
:205A930007CC6CCCFDEC4206ED42078E828F83227592407593B075910443E68075CA0075D7
:0C5AB300CB0075C804D2AD2285CC822245
:205ABF00E582900646F0E0FFBF03028005BF070040047582012274035F2402C40354F8FE3B
:205ADF00900644E0FCA3E0C454F0CCC4CC6CCC54F0CC6CFD900647ECF0EDA3F075A702758D
:205AFF00E90075EA00ADD274A75DF5D275D10375C90575D601900642E0FCA3E0FD90064996
:205B1F00ECF0EDA3F0900649E0F5CA90064AE0F5CB75CF008ECEE4F5CCF5CDEF30E2129062
:205B3F00063EE0FDA3E0FE900649EDF0EEA3F08010900640E0FDA3E0FE900649EDF0EEA356
:205B5F00F075D10475C90675D600900649E0F5CA90064AE0F5CB900647E0F5CE900648E021
:205B7F00F5CFE4F5CCF5CDEF30E212900640E0FDA3E0FE900649EDF0EEA3F0801090063EF3
:205B9F00E0FDA3E0FE900649EDF0EEA3F075D10675C98875D600900649E0F5CA90064AE0B0
:205BBF00F5CB900647E0F5CE900648E0F5CF75CD0075CC00AED374A75EF5D343D25875EAF3
:205BDF00008FE943E90843E720E5D330E6FB75E90075EA00AFD274A75FF5D2AFD374A75F6C
:065BFF00F5D375820022BF
:205C0500AF83E58290064EF0EFA3F090064DE0FFBF030040047582012274022FC40354F8F6
:205C2500FE75A70275E90075EA00ADD274A75DF5D275D10375C90575D60090064EE0FCA38E
:205C4500E0FD900650ECF0EDA3F0900650E0F5CA900651E0F5CB75CF008ECE75CC0075CDF1
:205C65000075D10475C90675D60075CA0075CB0075CF0075CE1075CC0075CD0075D10675EC
:205C8500C98875D60090064BE0FCA3E0FD900650ECF0EDA3F0900650E0F5CA900651E0F5A3
:205CA500CB75CF008ECE75CD00EF600575CC10800375CC00AED374A75EF5D343D25875EA3B
:205CC500048FE943E90443E90843E720E5D330E6FBEF6022AFD274A75FF5D275D10675CC0C
:205CE5000075CE10AFD374875FF5D343D24043E720E5D330E6FB75E90075EA00AFD274A7E7
:0E5D05005FF5D2AFD374A75FF5D3758200228D
:205D1300E58290065CF0E0FFBF03028005BF070040047582012274035F2402C40354F8FECE
:205D330090065AE0FCA3E0FD8C02C454F0CAC4CA6ACA54F0CA6AFB90065DEAF0EBA3F01C08
:205D5300BCFF011D90065AECF0EDA3F075A70275E90075EA00ADD274875DF5D275D10375D4
:205D7300C90575D600900658E0FCA3E0FD90065FECF0EDA3F090065FE0F5CA900660E0F5FD
:205D9300CB75CF008ECEE4F5CCF5CDEF30E212900652E0FDA3E0FE90065FEDF0EEA3F080F2
:205DB30010900654E0FDA3E0FE90065FEDF0EEA3F075D10475C90675D60090065FE0F5CAB8
:205DD300900660E0F5CB75CE1075CF0075CC0075CD0075D10575C90775D600900656E0FD5C
:205DF300A3E0FE90065FEDF0EEA3F090065FE0F5CA900660E0F5CB75CE10E4F5CFF5CCF5E1
:205E1300CDEF30E212900654E0FDA3E0FE90065FEDF0EEA3F08010900652E0FDA3E0FE908E
:205E3300065FEDF0EEA3F075D10675C98875D60090065FE0F5CA900660E0F5CB75CE10753D
:205E5300CF0075CD0075CC00AED374875EF5D343D278EF30E20575EA01800375EA028FE9EC
:205E730043E90843E720E5D330E6FB90065AE0F5F0A3E045F07003025F0BAFE974F75FF525
:205E9300E9AFD274875FF5D275D10375D60175CC0075CD0075D10490065DE0F5CE90065E78
:205EB300E0F5CF75D105900654E0FEA3E0FF90065FEEF0EFA3F090065FE0F5CA900660E0D7
:205ED300F5CB90065DE0F5CE90065EE0F5CF75CC0075CD0075D10690065DE0F5CE90065E68
:205EF300E0F5CFAFD374875FF5D343D27843E90843E720E5D330E6FB75E90075EA00AFD235
:105F130074875FF5D2AFD374875FF5D375820022A0
:205F2300C0E0C007C0D075D000AFE774DF5FF5E7D0D0D007D0E0329006C3E0F58222E5826C
:205F43009006C4F0E09006C3F0221243F6E5828583F0900661F0E5F0A3F022AF83E5829065
:205F630006C7F0EFA3F09006C5E0FEA3E0FF9006C7E0FCA3E0FD7B108E828F83E493FAA3AA
:205F8300AE82AF838C828D83EAF0A3AC82AD839006C7ECF0EDA3F0DBDF9006C7ECF0EDA367
:205FA300F022E5829006C9F0758200125F419006C9E0FF740F5FFE7002D3221EC007C0063D
:205FC300125F4DD006900661E0FCA3E0FD90064B7463F07406A3F090064DEEF08C828D8343
:205FE300125C05E582D0076002C322EFC4540FFE53060FBE00028005BE0118802A9006C509
:2060030074AFF0747DA3F0900683C007125F5ED00780149006C574AFF0747DA3F0900683C1
:20602300C007125F5ED0078F82125F41D322AF83E5829006CBF0EFA3F09006CBE0FEA3E00A
:20604300FF7D009006CAE0FCFA7B00900744EEF0EFA3F0EDA3F0900747EAF0EBA3F0900689
:20606300A375F000C004126D46D004740F5C9006CDD39410F4F07F009006CDE0FEC3EF9E0B
:206083005034EF2C24A3FDE43406FE7B0090074474CDF07406A3F0E4A3F090074704F0E4BD
:2060A300A3F08D828E838BF0C007C004126D46D004D0070F80C29006A322AF83E5829006D9
:2060C300D4F0EFA3F09006CEE0FF7003F58222C007125F3AAE82D007740F5EFDBD01028091
:2060E3000ABD0202800DBD031A80109006D67404F080169006D67405F0800E9006D6740628
:20610300F080069006D67404F0EEC4540FFE53060F9006D4E0FCA3E0FD9006CAEFF08C82A4
:206123008D83C007C006126031AC82AD83D006D007EFC4540FFF0FBE00028008BE01028064
:206143005E0262189006D6E0F5699006CFE0FAA3E0FB900661E0F56AA3E0F56B8F017E00D4
:20616300900652ECF0EDA3F0900654EAF0EBA3F09006567483F07406A3F0900658E56AF089
:20618300E56BA3F090065AE9F0EEA3F0856982C007125D13E582D0079006D7F00262709017
:2061A30006C5749FF0747DA3F0900693C007C005C004125F5ED004D005D0079006D6E0F581
:2061C3006A9006CFE0FAA3E0FB900661E0F56CA3E0F56D8F017E009006E2ECF0EDA3F09006
:2061E30006E4EAF0EBA3F09006E67493F07406A3F09006E8E56CF0E56DA3F09006EAE9F0DD
:20620300EEA3F0856A82C007126468E582D0079006D7F080589006D6E0F56C9006CFE0FA85
:20622300A3E0FB900661E0F56AA3E0F56B8F017E00900652ECF0EDA3F0900654EAF0EBA320
:20624300F09006567483F07406A3F0900658E56AF0E56BA3F090065AE9F0EEA3F0856C829E
:20626300C007125D13E582D0079006D7F09006D1E0FCA3E0FDA3E0FEEFC454F08C828D83DE
:206283008EF0126DE69006D7E0F58222AF83E5829006DEF0EFA3F09006D8E0FF7003F5827C
:2062A30022C007125F3AAE82D007740F5EFDBD0102800ABD0202800CBD0319800F9006E0ED
:2062C300E4F080159006E07401F0800D9006E07402F080059006E0E4F0EEC4540FFE5306D3
:2062E3000FEFC4540FFD9006DEE0FBA3E0FCBE00028008BE0102805A0263D7C0079006E04F
:20630300E0FE9006D9E0F9A3E0FA8D007F00900652E9F0EAA3F0900654EBF0ECA3F09006B3
:20632300567483F07406A3F09006587463F07406A3F090065AE8F0EFA3F08E82C007C00568
:20634300125D13E582D005D0079006E1F0D00702642BC0079006C5749FF0747DA3F0900697
:2063630093C007C005C004C003125F5ED003D004D005D0079006E0E0F56E9006D9E0F9A3AE
:20638300E0FA900661E0F56FA3E0F5708D067F009006E2E9F0EAA3F09006E4EBF0ECA3F049
:2063A3009006E67493F07406A3F09006E8E56FF0E570A3F09006EAEEF0EFA3F0856E82C09B
:2063C30007C005126468E582D005D0079006E1F0D0078054C0079006E0E0FE9006D9E0F988
:2063E300A3E0FA8D007F00900652E9F0EAA3F0900654EBF0ECA3F09006567483F07406A39F
:20640300F09006587463F07406A3F090065AE8F0EFA3F08E82C007C005125D13E582D00523
:20642300D0079006E1F0D0079006DBE0FBA3E0FCA3E0FEED75F010A424FFFAE5F034FFFDD0
:206443009006D9E0F8A3E0F9EA28F582ED39F583E0FDEFC39D8B828C838EF0126DE690068E
:05646300E1E0F58222DA
