:08050200C200C201C202C203E3
:20052F00AF822004058F82025A6278067905C3E3F5F0E295F0501A7806E2FE780604F290C9
:20054F0000EFE0FCA3E0FDEE2CF582E43DF583EFF022AF83E5829000F2F0EFA3F09000F207
:20056F00E0FEA3E0FF9000EFEEF0EFA3F07806E4F29000F1E07805F2D20422C2047806E2EB
:20058F00F58222AD82AE83AFF08D828E838FF0127735FC700122BC2502800302081CC20377
:2005AF00C202C201C2000DBD00010E8D828E838FF0127735FBBB6802800CBB6C10D2000DEB
:2005CF00BD000A0E8007D2020DBD00010E8D828E838FF0127735FBBB63028030BB6402803A
:2005EF0018BB6F02802BBB7302800ABB7502800EBB78238010D201801D75080A8018750891
:20060F000AD2038011750810D203800A7508008005750808D203300171A8811818E624FD11
:20062F00FBA8811818A6038B01870909870A09870B1919C005C006C007AA09AB0AAF0B8A2D
:20064F00828B838FF0127735D007D006D005700302082DC005C006C007AA09AB0AAF0B8A94
:20066F00828B838FF0127735FA0509E4B50902050A8A82C007C006C00512052FD005D00694
:20068F00D007D007D006D00580A930036D300026A8811818E624FCFBA8811818A6038B01EB
:2006AF007801E7F209E708F209E708F209E708F219191902077A30021DA8811818E614F9B2
:2006CF00A8811818A60187037801EBF208E4F208F208F202077AA8811818E624FEFBA88151
:2006EF001818A6038B018702098703197801EAF208EBF208E4F208F28071300025A88118B8
:20070F0018E624FCFBA8811818A6038B017801E7F209E708F209E708F209E708F2191919C8
:20072F008049300221A8811818E614FBA8811818A6038B0187037801EBF2EB3395E008F245
:20074F0008F208F28025A8811818E624FEFBA8811818A6038B018702098703197801EAF27D
:20076F0008EBF2EB3395E008F208F2E5087003020806300333900701747AF0E4A3F0744087
:20078F00A3F0900704E508F07801E2F58208E2F58308E2F5F008E2C007C006C005126B750E
:2007AF00D005D006D007803190072A747AF0E4A3F07440A3F090072DE508F07801E2F58227
:2007CF0008E2F58308E2F5F008E2C007C006C005126C8BD005D006D007797AE7FB603F8B13
:2007EF0082C007C006C005C00112052FD001D005D006D0070980E47801E2F582C007C006F0
:20080F00C00512052FD005D006D00780118C82C007C006C00512052FD005D006D0070DBDB9
:20082F0000010E020598E58124FCFFC007E58124FBF886820886830886F01205921581223A
:20084F00AF827E007D00AB0CAC0D8F021FEA603B8B828C83E0FAA3AB82AC83ED2DF9ED3093
:20086F00E714890009E89078D8936EFDE99078D893F86AFE80D4890009E89077D893F86EB4
:1B088F00FDE99077D893F96AFE80BF8D07E4FDFCEE4205EC42078D828F832238
:2077D8000000102120423063408450A560C670E781089129A14AB16BC18CD1ADE1CEF1EF91
:2077F800123102103273225252B5429472F762D693398318B37BA35AD3BDC39CF3FFE3DE51
:20781800246234430420140164E674C744A45485A56AB54B85289509E5EEF5CFC5ACD58D10
:20783800365326721611063076D766F6569546B4B75BA77A97198738F7DFE7FED79DC7BCD0
:2078580048C458E5688678A70840186128023823C9CCD9EDE98EF9AF89489969A90AB92B90
:207878005AF54AD47AB76A961A710A503A332A12DBFDCBDCFBBFEB9E9B798B58BB3BAB1A50
:207898006CA67C874CE45CC52C223C030C601C41EDAEFD8FCDECDDCDAD2ABD0B8D689D4910
:2078B8007E976EB65ED54EF43E132E321E510E70FF9FEFBEDFDDCFFCBF1BAF3A9F598F78D0
:2078D800918881A9B1CAA1EBD10CC12DF14EE16F108000A130C220E3500440257046606790
:2078F80083B99398A3FBB3DAC33DD31CE37FF35E02B1129022F332D2423552146277725650
:20791800B5EAA5CB95A88589F56EE54FD52CC50D34E224C314A0048174666447542444050F
:20793800A7DBB7FA879997B8E75FF77EC71DD73C26D336F2069116B06657767646155634CF
:20795800D94CC96DF90EE92F99C889E9B98AA9AB584448657806682718C008E1388228A38F
:20797800CB7DDB5CEB3FFB1E8BF99BD8ABBBBB9A4A755A546A377A160AF11AD02AB33A924F
:20799800FD2EED0FDD6CCD4DBDAAAD8B9DE88DC97C266C075C644C453CA22C831CE00CC10F
:2079B800EF1FFF3ECF5DDF7CAF9BBFBA8FD99FF86E177E364E555E742E933EB20ED11EF0CF
:2008AA00AF82900302E0F5759000F474FFF0A3F0740625752401F582E43403F583EFF0740E
:2008CA00072575FF7D01C3ED9F505AED2401F582E43403F583E0FC9000F4E0FAA3E0FB8A99
:2008EA0000E86CF576C454F062768B027B00A87679008806E46202EE6203E9C40354F8C8C3
:20090A00C403C868C854F8C868F9E86202E96203E576C4540FFE7C009000F4EE6AF0EC6BE0
:20092A00A3F00D80A1740625752401FEE43403FF9000F4E0FCA3E0FD8C028E828F83EAF031
:20094A00740725752401F582E43403F5838D04ECF02290030174FEF09003027409F0780743
:20096A00E2FF780704F2900303EFF09003047433F09003057444F0900306746DF078C5E2AB
:20098A00FE08E2FF900307EEF0EFA3F078CFE2FE08E2FF90030975F000EE12707AA3EF12CD
:2009AA00707A125A23AF8290030D75F000EF12707A78D3E2FF90030B75F000EF12707A7801
:2009CA00D7E2FF90030C75F000EF12707A78D4E2FF90030E75F000EF12707A78D8E2FF9087
:2009EA00030F75F000EF12707A7582B91208AA1256E6AE82AF83C3EE9411EF94005001221B
:0B0A0A0078ED7411F29003010255AE6C
:200A1500AE82AF83A3E0FDBD09178E828F83E0FCBCFE0E74052EFBE43FFC8B828C83E0601F
:200A350038ED24F640358E828F83E0FDBDFD2C74072EFCE43FFD8C828D83E0701E74082E0D
:200A5500FCE43FFD8C828D83E0701074092EFEE43FFF8E828F83E07002D20A22E5829002B1
:200A7500F0F09002EEE4F0780AF21259CF85820E85830F9002F0E0FDC3E50E9408E50F941A
:200A9500005003020BE6900000C005125813858210D00575110874FEB51002800E74FDB5C2
:200AB500100280079002EEE0F5822274FDB5101BE5112404F511900002C005125813E582DF
:200AD500D00530E006740D2511F511900001C005125813858210D00585111275130074FFF7
:200AF500C39512FAE49513FF851014751500C3E5149AE51564808FF063F08095F04003026F
:200B15000BE6E5122514FEE5133515FF8D027B009002EEE0F516C005AC167D00EAC39CFAA4
:200B3500EB9DFBC3EA9EEB64808FF063F08095F0D0055003020BE6E5122514FEE5133515A1
:200B5500FFC3E50E9EE50F9F5003020BE6E5112510F510E51624F2FEE43401FF78EEE510A2
:200B7500F28E828F83C00512585C9002EEE0FF7810E22FFC08E23400FE7B00EF24F2FFE44E
:200B95003401FA900743EFF0EAA3F0E4A3F0900746E510F0E4A3F08C828E838BF0126FDA36
:200BB5009002EEE0FF7810E22FFF08E23400FE8F828E83120A15D0059002EEE02510F0ACB4
:200BD500107F00E50EC39CF50EE50F9FF50F020A8D9002EEE0F58222AF83E5829002F5F0E3
:200BF500EFA3F01261CEE58260569002F2E0FEA3E0FF9002F4E0FD9002F5E0FBA3E0FC9048
:200C150006CDEDF09006CEEBF0ECA3F09006D074F1F07402A3F0E4A3F08E828F831263512E
:200C3500E582601574D8C0E07479C0E07480C0E01247141581158115819002F1E0F582228B
:200C55009002F5E0FEA3E0FF7D009002F2E0FBA3E0FC8B178C188D199002F4E0F9F87C007E
:200C7500900743E517F0E518A3F0E519A3F0900746E8F0ECA3F08E828F838DF0C001126F63
:200C9500DAD001898222AF82C0071261CEE582D0076017EF24EF400475820022EF24DF40E8
:200CB500027F0FEF24E050027F1F200903020D739002EEE0FE8E1A751B00EF24DF50027FA5
:200CD500208F027B00C3EA951AEB951B506EAB1A9002EEEBC39FF09002F7E0FAA3E0FB902B
:200CF50002F274F2F07401A3F09002F4EFF08A828B83C007120BEDAB82D0078B1A751B0004
:200D1500EF24F2FAE43401FB8A1D8B1E751F009002EEE0FC7D00900743E51DF0E51EA3F08C
:200D3500E51FA3F0900746ECF0EDA3F09001F275F000126FDAD206AC1A8C8222C209D2061A
:200D55009002F7E0FCA3E0FD9002F274F2F07401A3F09002F4EEF08C828D83020BEDC20673
:200D7500C0071259CF85821A85831BD0073008309002EEE0FEC3EF9E500475820022D205E8
:200D9500C2089002F7E0FCA3E0FD9002F274F2F07401A3F09002F4EEF08C828D83020BED31
:200DB500C2058F057E00C3ED951AEE951B50048D1A8E1B9002EEE4F0E51A451B7003F58207
:200DD50022900605E07045E51A451B603B9002F7E0FDA3E0FEAC1A78EEECF28D828E83C0E1
:200DF5000412585CD00450209002EEECF09002F7E0FDA3E0FE9002F2EDF0EEA3F09002F425
:200E1500ECF09001F2020BED75820022780AE2B401028003020EA97401B51A06E4B51B02F4
:200E35008002806C125CF9AD82AE83780BD3E29DF4B3FDB308E29EF4FE780DC3E29D08E211
:200E55009E50499002EEE0FE04F0EE24F2FEE43401FDC006C005125749AC82D005D0068E38
:200E7500828D83ECF0780AE4F29002F7E0FDA3E0FE9002EEE0FC9002F274F2F07401A3F072
:200E95009002F4ECF08D828E83020BED75820022780AE4F2780AE27003020F2E780AE2FDD9
:200EB5007E00C3E51A9DE51B9E505A125CF9AD82AE83780BD3E29DF4B3FDB308E29EF4FE8B
:200ED500780DC3E29D08E29E5037AC1A78EEECF29001F2C00412585CD0049002EEECF07868
:200EF5000AE4F29002F7E0FDA3E0FE9002F274F2F07401A3F09002F4ECF08D828E83020BA5
:200F1500ED758200229002F7E0FDA3E0FE7810EDF208EEF28F82020A71E51A451B7003021E
:200F35001115900000C00712581385821CD00774FEB51C02800A74FDB51C0280030210E31D
:200F55007401B51A06E4B51B028002802F9002EEE06003021115780A7401F2125CF9E582A9
:200F75008583F0780BF208E5F0F27808E2FC08E2FD780DECF208EDF275820022900001C027
:200F950007125813AD82D007780AEDF2BDE60050208D037C0074192BFBE43CFC780FE2FA00
:200FB5007E00C3EA9BEE64808CF063F08095F05036780AE4F29002EEE0FE04F0EE24F2FE7E
:200FD500E43401FCC007C006C004125749AB82D004D006D0078E828C83EBF0151A74FFB5E5
:200FF5001A02151B020F2E74082DFE780AF274FDB51C25780A74042EF2C37402951AE49554
:201015001B5015900002C007125813E582D00730E006780AE2240DF29002EEE06056125C06
:20103500F9E5828583F0780BF208E5F0F2780AE2FD7E00780890074EE2F008E2A3F08D825D
:201055008E831270C5E5828583F0780DF208E5F0F29002F7E0FDA3E0FE9002EEE0FC9002A9
:20107500F274F2F07401A3F09002F4ECF08D828E83020BED780AE2FD7E00C3E51A9DE51B51
:201095009E5037125CF9E5828583F0780BF208E5F0F2780AE2FD7E00780890074EE2F008EE
:2010B500E2A3F08D828E831270C5E5828583F0780DF208E5F0F2758200229002F7E0FDA378
:2010D500E0FE7810EDF208EEF28F82020A719002EEE0FE04F0EE24F2FEE43401FDC007C04F
:2010F50006C005125749AC82D005D006D0078E828D83ECF0151A74FFB51A02151B020F2ED0
:201115009002F7E0FEA3E0FF9002EEE0FD9002F274F2F07401A3F09002F4EDF08E828F830D
:20113500020BEDA20522A20622D20822E5829002F9F0E0780FF222AF83E5829002FAF0EFB0
:20115500A3F09002FAE0FEA3E0FF900734EEF0EFA3F0E4A3F0A3F090000075F001E4126E6C
:2011750074AC82AD83AEF0FF0CBC00090DBD00050EBE00010F7808ECF208EDF222E5829011
:2011950002FEF0200B3B9002FCE0FEA3E0FF7D009002FEE0FCFA7B00900743EEF0EFA3F05E
:2011B500EDA3F0900746EAF0EBA3F09000F675F000C004126FDAD0049002EFECF0C207C39E
:2011D5002220073F9002FEE0FF9002EFE0FEEFB506319002FCE0FDA3E0FE900763EDF0EE18
:2011F500A3F0E4A3F0900766EFF0E4A3F09000F675F0001272FBE5828583F045F07004C249
:2012150007D322D207C322AF83E5829002FFF0EFA3F07812C3E2F5F074FC95F0500578127B
:2012350074FCF29002FFE0FEA3E0FF900743EEF0EFA3F0E4A3F07812900746E2F0E4A3F0E5
:151255009001F275F000126FDA78129002EEE2F0C205D20922A1
:2079D8006572726F72207768696C6520747279696E6720746F20656E637279707420646162
:0379F800746100B7
:06050A009003FE740AF0EC
:20126A0078D5E2FE08E2FF78D8E2FD7C0078D4E2FB8B288C2978D7E2FB8B2A8C2B78D3E24D
:20128A00FB7A00C006C007C005C004C028C029C02AC02BC003C00274FBC0E07479C0E0747E
:2012AA0080C0E0120835E58124F3F5817826E2FE7F00C007C0061239D8AC82AD83D006D011
:2012CA000778D1E2F52A08E2F52B78CFE2F52808E2F52978CDE2F52C08E2F52D78CBE2F5ED
:2012EA002E08E2F52F78C9E2F53008E2F53178C5E2F53208E2F53378C7E2FA08E2FBC00632
:20130A00C007C004C005C02AC02BC028C029C02CC02DC02EC02FC030C031C032C033C0028F
:20132A00C0037427C0E0747AC0E07480C0E0120835E58124EBF58178D5E4F208F222900377
:20134A00FDE0FF30E00302126A22AF827E00781D90074EE2F008E2A3F08F828E831270C513
:20136A00AE82AF83781BE22EFE08E23F8E82F58322AF827813E2F5347814E2FC08E2FD78FD
:20138A0031E230E6467401B534107819E2FA08E2FB7814EAF208EBF280467402B534028020
:2013AA00057403B5340F78137403F278147401F208E4F2802B7813E4F27830E2FA08E2541C
:2013CA001FFB7814EAF208EBF2801578137402F27830E2FA08E2541FFB7814EAF208EBF2EB
:2013EA007813E2B40203EF6004C2138002D213A213920C7813E26002C20D7885E254027098
:20140A0001227814797AD3E29CF4B3F3B308E29DF409F37813E2B5346EC007781BE2FA0809
:20142A00E2FB90076B7402F0E4A3F08A828B83C003C0021273DAAE82AF83D002D003787AEF
:20144A00C3E2F5F0EE95F008E2F5F0EF648063F08095F0D0074030E49AFAE49BFB90076B50
:20146A007402F0E4A3F08A828B83C0071273DAAB82AE83D007787AC3E29B08E264808EF092
:20148A0063F08095F0504B7E007813E2FA7B00AC347D00C007C006C002C003C004C0057483
:2014AA0066C0E0747AC0E07480C0E0120835E58124F7F581787AE2C0E008E2C0E07479C009
:2014CA00E0747AC0E07480C0E0120835E58124FBF58122AE82AF83781FC3E29E08E29F507F
:2014EA0008781FE4F208F2800A781FE2C39EF208E29FF27814C3E2F5F0EE95F008E2F5F04A
:20150A00EF95F050030217487813E2FC7D000CBC00010D9007567404F0E4A3F08C828D83F3
:20152A00C007C006127179AC82AD83D006D0077813ECF27814D3E29EF4B3FEB308E29FF4F0
:20154A00FF7813E260067813E2B402107816E2FC08E2FD7814ECF208EDF2800E7819E2FCDB
:20156A0008E2FD7814ECF208EDF27813E260067813E2B40125C007C006122DC11231CCD0A3
:20158A0006D0077888C3E2F5F0740195F0500B782AE4F208F2782EF208F27813E2600302AF
:2015AA00173BC006C0077821E2FC7D007826E2F5358D36ECC39535FEED9536FFBE640ABFC8
:2015CA000007D007D00602173BD007D006C006C007C007C006C005C0047822E2C0E008E2A3
:2015EA00C0E008E2C0E008E2C0E090333375F073743F126DA385823785833885F039F53A2F
:20160A00E58124FCF581D004D005D006D0077827E2F58208E2F583C005C004127535AA82A3
:20162A00AB83AEF0FFD004D005C007C006C005C004C002C003C006C00790000075F0A074FB
:20164A0040126DA385823B85833C85F03DF53EE58124FCF581D004D005D006D00778197957
:20166A0016E3C5F0E225F0FE09E3C5F008E235F0CE25E0CE33FF8E828F83C005C004127508
:20168A0035AA82AB83AEF0FFC002C003C006C007853B82853C83853DF0E53E127672AA8281
:2016AA00AB83AEF0FFE58124FCF581C002C003C006C0078537828538838539F0E53A127476
:2016CA004BAA82AB83AEF0FFE58124FCF581D004D0057822EAF208EBF208EEF208EFF27875
:2016EA0027E4F208F2ECC39535FCED9536FD8C828D831274EDAC82AD83AEF0FFC007C006A6
:20170A00C004C005C006C0077822E2F58208E2F58308E2F5F008E2127095E58124FCF58188
:20172A00D006D007E58224FF9214B39210D007D006C20CC20D781FE4F208F20214FD78141D
:20174A00E2C39EF208E29FF2227813E2FE7F0074022EFEE43FFF9007567404F0E4A3F08EA5
:20176A00828F83127179AE827813EEF22212360DE582FF24EB40057826E4F2221239D8E565
:20178A00828583F0249CFEE5F034FFFFC3E49E74808FF063F08095F0E433FD700C7826E2E0
:2017AA0060077826E214F28037C3740A9E74808FF063F08095F050087826E2240AF2802039
:2017CA00C374059E74808FF063F08095F050087826E22405F28009ED60067826E22401F2F4
:2017EA007821E2FE7F007826E2FC7D00EEC39CFEEF9DFFC3EE9414EF6480948050087821E7
:20180A007926E224ECF322300F099003FEE4F0C20F80079003FEE02401F09003FEE0FFBF5E
:20182A0002005004D2B78006A20E92B7B20EEF24D740030218C89003FE7405F0125D4FE5D4
:20184A008230E0597814E2FE08E2FF7819C3E29E08E29F5017781BD3E29EF4B3FCB308E254
:20186A009FF4FD7814ECF208EDF2800878147401F208E4F27885E2540260227814E2C0E05F
:20188A0008E2C0E0C006C0077485C0E0747AC0E07480C0E0120835E58124F9F5817885E245
:2018AA0054026015749FC0E0747AC0E07480C0E0120835158115811581C21A122E2390039B
:2018CA00FEE0603D122F4AAF827E0078D3E290074EF0E4A3F0900003C007C0061270C5ACBD
:2018EA0082AD83D006D007EC2FFCED3EC313CC13CCC313CC13CCFD78D3ECF278D5E4F208EA
:20190A00F29003FEE0FF24FA5017900740E4F09007417404F0E4A3F09000D775F060126FC7
:20192A00B278859003FDE2F0D2119003FFE02401F0E0FFBF04081217779003FFE4F02290C0
:20194A00040675F00012765AE5828583F02401FEE435F0FF9007437406F07404A3F0E4A3CC
:20196A00F0900746EEF0EFA3F090003475F060126FDAD21222AF82BF02004017EF24BA40F0
:20198A0012900301E0FEBE520A900302E0FEBE54028002D3229007437401F07403A3F0E474
:2019AA00A3F0900746EFF0E4A3F090040675F000C007126FDAD007EF2406F582E43404F5BE
:2019CA0083E4F09004067441F07884EFF2D2179000F174FCF0900301120561122604120561
:2019EA008AE582FF600A7812EFF290030112121CC322125CF9787FE582F208E583F2787F4F
:201A0A007981E2F308E209F378FF762A78FFB62A02801574AEC0E0747AC0E07480C0E0120C
:201A2A0047141581158115817883E2B44102801574BBC0E0747AC0E07480C0E012471415A3
:201A4A0081158115811226049003FDE060081213489003FDE4F0300A0E900605E06008209F
:201A6A001605C20A12095C122DB11232CD125CF9AA82AB83789C7401F2087403F290007C44
:201A8A0075F060C003C002122E53D002D0034003021C65D20FD21AC003C002122E23122FFE
:201AAA004AAD82D002D0037C0078D3E290074EF0E4A3F0900007C005C004C003C0021270E2
:201ACA00C5AE82AF83D002D003D004D005EE2DFEEF3CC423CEC423541F6ECE541FCE6ECE7B
:201AEA0078D3EEF278D5E2FE08E2FF0EBE00010F78D5EEF208EFF2781FE4F208F2787CE26C
:201B0A00B402005003021A16787CE224FC2401FEE43403FF900743EEF0EFA3F0E4A3F0900C
:201B2A0007467404F0E4A3F090003075F060C003C002126FDAD002D003787CE2141414143F
:201B4A00F27830E2FE08E2541FFF4E7041787CE2603C787CE2B404209007437401F07403D0
:201B6A00A3F0E4A3F0787C900746E2F0E4A3F09000D775F060126FDA78D5E2FE08E2FF1E7C
:201B8A00BEFF011F78D5EEF208EFF2021A167830E2FE08E2541FFF4E7003021A16787CE269
:201BAA00F582C003C00212137BD002D003787FEAF208EBF27831E2C4035401FFBF010A783A
:201BCA007CE2F58212197F4038787CE27003021A167831E230E503021A167831E2235401B1
:201BEA0024FF920B9002FC7401F07403A3F0787CE2F5821211925003021A16301603021A32
:201C0A0016750C01750D03787CE2F58212084FAE82AF837832E2FC08E2FDEEB50417EFB5B4
:201C2A000513D2B6787C79ECE2F3900301125494C2B6021A1678D1E2FE08E2FFBEFF06BF00
:201C4A00FF03021A1678D1E2FE08E2FF0EBE00010F78D1EEF208EFF2021A16125CF9AA8281
:201C6A00AB83787F797DD3E29AF4B3F3B308E29BF409F3787DE2F58208E2F583C003C002F9
:201C8A001214DDD002D003787FEAF208EBF27881D3E29AF4B3FCB308E29BF4FD7E007F00C9
:201CAA00C3E49C74809DE49E74808FF063F08095F05012C003C002121811D002D003788139
:201CCA00EAF208EBF27829E27003021D54122F50AF827829C3E2F5F0EF95F05016782A79EE
:201CEA007DE3C5F0E225F0F209E3C5F008E235F0F28036782AE4F208F2782EE2F5F008E2BB
:201D0A0045F07025126D28AE82AF83782C90075EE2F008E2A3F08E828F8312724EE582851E
:201D2A0083F0782EF208E5F0F2782C792EE3C5F0E225F0FE09E3C5F008E235F0FF782AC3D3
:201D4A00E29E08E29F5003021A167813E26011200C03021A167813E2B402028003021A16D2
:201D6A00300D03021A16781FE2F5F008E245F06003021A16200F05122F334005122F1A503D
:201D8A0011781BE2FE08E2FF781FEEF208EFF2021A16122F50AF827E0078D4E290074EF0F7
:201DAA00E4A3F0900003C007C0061270C5AC82AD83D006D007EC2FFCED3EC313CC13CCC3AA
:201DCA0013CC13CCFD78D4ECF2301003021A167814791BC3E3F5F0E295F009E3F5F008E2D2
:201DEA0095F05003021A167814791BE3F5F0C3E295F0FE09E3F5F008E295F0FF781D900655
:201E0A00F2E2F008E2A3F08E828F8312699AAE82AF83BE14005003021A16EE24FBFEC006B6
:201E2A001261CEE582D006600CBE10005003021A16EE24F0FE7818C3E29E50047818E2FEC4
:201E4A0030125790003475F060C00612765AAD82AF83D0068E037C00C3EB9DEC9F403B9089
:201E6A00003475F060C00612765AAD82787CEDF29007437434F0E4A3F07460A3F090074688
:201E8A00EDF0E4A3F090030175F000126FDAD0067831E24420F2C21280559002F77401F042
:201EAA007403A3F08E82C006120C9BAF82D006787CEFF2EF6019C007C00612113BD006D0AA
:201ECA00079215E433FD783113E292E5F280067831E254DFF2750C01750D038F82C0061209
:201EEA00084FAD82AF83D0067832EDF208EFF2787C7918C3E2F5F0E395F05019C00674D1ED
:201F0A00C0E0747AC0E07480C0E0124714158115811581D0067813E2B40203D38001C39221
:201F2A0015E433783113E292E6F2C006121138D0069215E433FF783113E292E7F27813E239
:201F4A007044787CE2703F30113CBE04004037C21190074374D3F0E4A3F07460A3F090072F
:201F6A00467404F0E4A3F090030175F000126FDA787C7404F27830E4F208E254E0F2783149
:201F8A00E2547FF280771261CEE5826048787CE2FE7F0074042EFEE43FFFC4CEC4540F6E09
:201FAA00CE540FCE6ECE30E30244F00EEEC454F0F582121354AE82AF837814E2C39EFE0868
:201FCA00E29FFF7830EEF208EF541FF5F0E254E045F0F28028787CE22404F582121354AE1F
:201FEA0082AF837814E2C39EFE08E29FFF7830EEF208EF541FF5F0E254E045F0F2122DA1DA
:20200A001232CD787CE22401FEE43403FF7D009007437430F0E4A3F07460A3F09007467478
:20202A0004F0E4A3F08E828F838DF0126FDA787CE2600E7830E2FE08E2541FFF4E6002D287
:20204A00B6787CE27002D20D781BE2FE08E2FF781FEEF208EFF27821E2FE7F007826E2FC69
:20206A007D00EEC39CFEEF9DFFBE6405BF00028017787CE22404F582121354AE82AF8378BC
:20208A0027E22EF208E23FF2787CE22404FF7819E2FD08E2C313CD13CDFE7814E22DFD087A
:2020AA00E23EFE78A47401F2087403F278A6EDF208EEF28F82123195401A787CE260157819
:2020CA0030E2FE08E2541FFF4E60097831E220E50312113E7829E2600B782AE4F208F27807
:2020EA002EF208F2787CE2600E7830E2FE08E2541FFF4E6002C2B67816E2FE08E2C313CE70
:20210A0013CEFF7814C3E2F5F0EE95F008E2F5F0EF95F05012125B0F500A125B6A400812A0
:20212A00539580F6125395122DB11232CD1231CC021A16122F56AF8290075AEFF0E4A3F0EC
:20214A00A3F0A3F09003E8E4F5F01271E2AC82AD83AEF0FF900734ECF0EDA3F0EEA3F0EF14
:20216A00A3F090120075F07AE4126E74AC82AD83AEF0FF74082CFCE43DFDE43EFEE43FFF6A
:20218A00EDC4CCC4540F6CCC540FCC6CCCFDEEC454F04DFDEFC4CEC4540F6ECE540FCE6E32
:2021AA00CE74012CFEE43DFF781DEEF208EFF290074EEEF0EFA3F090000DC007C006127039
:2021CA00C5E5828583F0D006D007240DFCE435F0FD781BECF208EDF230232E78187474F2AE
:2021EA00EFCE25E0CE33FF781DEEF208EFF2EFCE25E0CE33CE25E0CE33FFEE2CFCEF3DFDE0
:20220A00781BECF208EDF28005781874F8F2781B7919E2F308E2F5F0E325E0C5F033C5F09B
:20222A00F309E5F0F3781D90075AE2F008E2A3F0E4A3F0A3F07818E2FC7D007E007F008C7D
:20224A00828D838EF0EF1271E285823F85834085F041F542781BE2FA08E2FB7E007F0090B4
:20226A00075AE53F2AF0E5403BA3F0E5413EA3F0E5423FA3F0900003E4F5F01271E2AC82E3
:20228A00AD83AEF0FF900402ECF0EDA3F0EEA3F0EFA3F0782C7438F2087401F27829E260DE
:2022AA003A78B974A8F2087403F208E4F208F278BDECF208EDF208EEF208EFF28C828D8369
:2022CA008EF0EF12426AAC82AD83AEF0FF900402ECF0EDA3F0EEA3F0EFA3F0900402E0FC67
:2022EA00A3E0FDA3E0FEA3E0FFC3EC94A8ED9461EE9400EF9400401B7888C3E2F5F0740125
:20230A0095F0500F90040274A8F07461A3F0E4A3F0A3F075820F123ECAAC82AD83AEF0FFA0
:20232A0090075AECF0EDA3F0EEA3F0EFA3F090003EE4F5F01271E285823F85834085F04103
:20234A00F542900402E0FAA3E0FBA3E0FEA3E0FFC3E53F9AE5409BE5419EE5429F50397582
:20236A00820F123ECAAC82AD83AEF0FF90075AECF0EDA3F0EEA3F0EFA3F090003EE4F5F0C6
:20238A001271E2AC82AD83AEF0FF900402ECF0EDA3F0EEA3F0EFA3F0900402E0FCA3E0FDEC
:2023AA00A3E0FEA3E0FFC374FF9C741F9DE49EE49F500F90040274FFF0741FA3F0E4A3F014
:2023CA00A3F0900402E0FCA3E0FDA3E0A3E07816ECF208EDF2789BE27E0024F6FFEE34FF68
:2023EA00FE90076B7402F0E4A3F08F828E83C005C0041273DAAE82AF83781D90074EE2F03E
:20240A0008E2A3F08E828F831270C5AE82AF83D004D005781BE22EF208E23FF2781BD3E2C9
:20242A009CF4B3FCB308E29DF4FD781D9006F2E2F008E2A3F08C828D8312699AAE82AF8327
:20244A00900400EEF0EFA3F07818E2FC7D00C3EC9EED9F5008900400ECF0EDA3F0900400DE
:20246A00E0FEA3E08E820211417819E2C0E008E2C0E074E6C0E0747AC0E07480C0E01208BA
:20248A0035E58124FBF581900001125C887816E2C0E008E2C0E074FAC0E0747AC0E0748051
:2024AA00C0E0120835E58124FBF581900001125C887818E2FE7F00C006C007740FC0E0748E
:1624CA007BC0E07480C0E0120835E58124FBF581900001025C888C
:2079FB004C2F5220525353493A2025752F257520204C2F52206E6F6973653A2025752F25EE
:207A1B007520706B74733A2025752000207478653D2575207278653D2575207374783D2571
:207A3B0075207372783D2575206563633D25752F257520637263653D25752074656D703DD0
:207A5B0025642064636F3D25750A0054444D3A2025752F2575206C656E3D257520002064CF
:207A7B00656C74613A2025640A0054444D3A206368616E67652074696D696E672025752F22
:207A9B0025750A0054444D3A207363616E6E696E670A00737461636B20626C6F776E0A002B
:207ABB0070646174612063616E617279206368616E6765640A006F76657273697A65642014
:207ADB0074646D207061636B65740073696C656E63655F706572696F643A2025750A007477
:207AFB00785F77696E646F775F77696474683A2025750A006D61785F646174615F706163AD
:107B1B006B65745F6C656E6774683A2025750A0037
:0A05100078837441F278877464F276
:2024E000AF828F06BE08028021BE0D028005BE7F36801775820A125A627884E22406F58203
:20250000E43404F583E4F0D217227884E26066758208125A62758220125A62758208125A87
:20252000627884E214F2227884E2B4450050408F057E008D828E83C006C0051274FAE58228
:202540008583F0D005D00645F0602A8D828E831275BFAD828D077884E2FE788404F2EE2410
:2025600006F582E43404F583EFF08F82025A62C2167884E4F222AF82BF2B0280047886E44D
:20258000F27886C3E2F5F0740495F0402C7886E275F003A4902598730225BD0225A70225D3
:2025A000A70225AE0225BD7886E22401F22278867404F278877464F2227886E4F278877408
:2025C00064F2227887E2603B7887E214F27887E270317886E260087886E2B404268006789A
:2025E000867401F222D2167886E4F29004067441F09004077454F0900408E4F0788474029C
:20260000F2D21722201701227884E2B40200E433FF701A900406E0FEBE5212900407E0FE1C
:20262000BE540A1219497884E4F2C21722EF600302269C900406E0FFBF4161900407E0FFD3
:20264000BF5459900408E0FF6023BF26028023BF2B028023BF49028023BF4F028028BF5083
:2026600002801EBF53028027BF5A2E80271226A3802A1229E48025122AEB802012283C800B
:202680001B122AE8801678877464F2C216800D12293D800843EF1080FE1226C57884E4F2A8
:2026A000C21722742FC0E0747BC0E07480C0E0742BC0E0747BC0E07480C0E0120835E581A2
:2026C00024FAF581227432C0E0747BC0E07480C0E0742BC0E0747BC0E07480C0E01208352A
:2026E000E58124FAF58122E5812404F58190044DE4F0A3F0A3F0A3F090044CE02406F582EB
:20270000E43404F583E0FFFD7E008D828E83C00712704EE5828583F0D00745F0606E900447
:202720004DE0FBA3E0FCA3E0FDA3E0FE90075AEBF0ECA3F0EDA3F0EEA3F090000AE4F5F042
:20274000C0071271E2C8E58124FCC8A68208A68308A6F008F6D0077A00EF24D0FFEA34FFF2
:20276000FA8F053395E0FEFFE58124FDF890044DED26F0EA0836A3F0EE0836A3F0EF08361C
:20278000A3F090044CE02401F00226F8E58124FCF58122E582900456F0E0F544900451E074
:2027A000FE754300C3E5439E400122C006C0061227B4800E900454E0C0E0A3E0C0E085431D
:2027C0008222A982AA83ABF0FCD006C006C004C003C002C0011227DA800E900452E0C0E0B9
:2027E000A3E0C0E08543822285824585834685F047D001D002D003D004D006AE437F00E57F
:2028000044F83395E0FDC006C001C002C003C004C045C046C047C006C007C000C005743837
:20282000C0E0747BC0E07480C0E0120835E58124F2F581D0060543D0060227A4900409E056
:20284000FF6030BF3002802BBF31028048BF32028065BF33030228D4BF34030228F4BF35C0
:2028600003022914BF3603022934BF370302293702293A7478C0E0747FC0E07480C0E074D8
:202880002BC0E0747BC0E07480C0E0120835E58124FAF581227491C0E0747FC0E07480C0F3
:2028A000E0742BC0E0747BC0E07480C0E0120835E58124FAF581227482C0E0E4C0E0744598
:2028C000C0E0747BC0E07480C0E0120835E58124FBF5812278C3E2FE7F00C006C0077445E9
:2028E000C0E0747BC0E07480C0E0120835E58124FBF5812278C4E2FE7F00C006C0077445C8
:20290000C0E0747BC0E07480C0E0120835E58124FBF581229004517411F0900452743BF0A9
:202920007442A3F090045474CAF0743EA3F075825302279302247302126A0226C590044C09
:202940007403F01226E790044DE0FCA3E0FDA3E0FEA3E0FFBC110040030226C590044CE0F4
:20296000FF2406F582E43404F583E0FEBE3D02803BBE3F6D8C82123ECAAA82AB83ADF0FE06
:2029800090044DEAF0EBA3F0EDA3F0EEA3F0C002C003C005C0067449C0E0747BC0E074800D
:2029A000C0E0120835E58124F9F58122EC603290044CEF04F0C0041226E7D00490044DE054
:2029C000FBA3E0FDA3E0FEA3E0FF78B5EBF208EDF208EEF208EFF28C82123D665003022679
:2029E000A30226C5900409E0FFBF4503022ACABF46028017BF50028058BF54028056BF5548
:202A0000028014BF57028009022AE51241A10226A31241440226A3900750744EF0747BA322
:202A2000F07480A3F090040A75F0001270E5E5828583F045F0701775B7A575B7F1758F03A5
:202A400090F7FE74FFF0758F0043EF1080FE0226C50217539007507454F0747BA3F074805C
:202A6000A3F090040A75F0001270E5E5828583F045F070057885E4F2229007507455F07447
:202A80007BA3F07480A3F090040A75F0001270E5E5828583F045F070077885E26401F222D4
:202AA000900750745BF0747BA3F07480A3F090040A75F0001270E5E5828583F045F07007F2
:202AC0007885E26402F2220226C590040AE0FFBF3D028006BF3F0E0245EB90040B12451F5C
:202AE00050030226A30226C50226C590044C7404F01226E790044DE0FCA3E0FDA3E0FEA316
:202B0000E0900409E0FFBF4103022C30BF43028040BF4603022BD2BF4C03022C22BF5002BE
:202B20008003022C6C90040AE0FFBF3D028003022C6C90044C7405F01226E790044DE0FBBC
:202B4000A3E0A3E0A3E08BFC758201123A340226A390044CE0FF2406F582E43404F583E04E
:202B6000FEBE3D028041BE3F028003022C6C8C8212433CAE827D007B007A0090044DEEF07D
:202B8000EDA3F0EBA3F0EAA3F0C006C005C003C0027449C0E0747BC0E07480C0E0120835DB
:202BA000E58124F9F5812290044CEF04F0C0041226E7D00490044DE0FBA3E0A3E0A3E0C07B
:202BC000038C821242EF1581921850030226A30226C590044CE02406F582E43404F583E081
:202BE000FFBF3F028003022C6C8C82124378AF827E007D007C0090044DEFF0EEA3F0EDA365
:202C0000F0ECA3F0C007C006C005C0047449C0E0747BC0E07480C0E0120835E58124F9F5E8
:202C2000812212438B50051226A380030226C52290040AE0FFBF3D3490044C7405F0122621
:202C4000E790044DE0FCA3E0FDA3E0FEA3E0FFBC0111BD000EBE000BBF0008758202123ADF
:0F2C6000348006758203123A340226A30226C579
:207B2B0025730A004F4B004552524F5200256325753A25733D256C750A0025750A00256CFE
:157B4B00750A00504441544500003D52535349003D54444D0098
:202C6F00AF83E58290048AF0EFA3F090048AE0FEA3E0FF900489E0FD7C008D027B001ABA4A
:202C8F00FF011B8C007900C3E89AE964808BF063F08095F05046C007C006C005C004126DF5
:202CAF0028AA82D004D005D006D0078DF0EA84E5F02EFAE43FFB8A828B83E0F548C005EC6D
:202CCF002EF8E43FFD88828D83E0F98A828B83F088828D83E548F00CD005809E2275820350
:202CEF00123ECA126D82758210123ECAAC82AD83AEF0FFEC4D4E4F601412467B85820C85D9
:202D0F00830D75822012084FAF83026D82227F007888C3E2F5F0EF95F0500FEF2457F58292
:202D2F00E43404F583EFF00F80E6122CEC7888E2FF7E008F047D001CBCFF011D8E027B0003
:202D4F00C3EA9CEB64808DF063F08095F05042C007C006126D28AC82D006D0078FF0EC84E7
:202D6F00E5F02457FCE43404FD8C828D83E0F549C007EE2457FAE43404FF8A828F83E0FB65
:202D8F008C828D83F08A828F83E549F00ED00780A2227889E22457F582E43404F583E0F573
:202DAF008222788AE22457F582E43404F583E0F582227889E2FE7F000EBE00010F7888E25F
:202DCF00FC7D00900756ECF0EDA3F08E828F83C005C004127179AE82AF83D004D00578896F
:202DEF00EEF23019077889798AE2F3227889E27022788AE2FE7F000EBE00010F900756EC0E
:202E0F00F0EDA3F08E828F83127179AE82AF83788AEEF222A21A92195007788A7989E2F318
:202E2F0022788AE2FE7F000EBE00010F7888900756E2F0E4A3F08E828F83127179AE827828
:042E4F008AEEF222F3
:202E5300AFF0AE83E58290058AF0EEA3F0EFA3F0201B02C322788BC3E2F5F074FC95F05022
:202E7300051231CC804590058AE0FDA3E0FEA3E0FF8D828E838FF0788BE212707A789CE2F1
:202E9300FD08E2FE7F00900743748EF07404A3F0E4A3F0788B900746E2F0E4A3F08D828EA7
:202EB300838FF0126FDA1231CCD32278C5E2FE08E2FFBEFF05BFFF02800C0EBE00010F7836
:202ED300C5EEF208EFF2C322AF8275A702C2A3C2FF75A3FF789EE2FD08E2FE8F041FEC6005
:202EF3001130F9FD8D828E83E0F5A3A3AD82AE8380E930F9FD748055A1FFBF800280F6C2FC
:202F1300FFD2A375A70022201B05788CE26002D3227582311236A0E58230E402D322C32208
:202F3300A2A8921DC2A8101C028006A21D92A8D322A21D92A8C322788DE2F58222758226FE
:202F53000236A07898E2F582227582081236A0AF8274014FFEC007C00675820812366A15CE
:202F730081D0075307FEC00775820812366A1581227582081236A0AF8274024FFEC007C0FC
:202F93000675820812366A1581D0075307FDC00775820812366A158122E582FF240350197D
:202FB300C0077460C0E0747BC0E07480C0E0124714158115811581D007C007122F5CD0075F
:202FD300C007C00775823E12366A1581D007EFFE24DF50027E2078A0799EE2F308E209F332
:202FF3008E82C007C006122EDBD006D007EFC39EFF78A0E22EF208E23400F2C007E4C0E095
:2030130075820512366A1581E4C0E075820612366A1581C21CC21E7409C0E075820712366F
:203033006A1581125CF9AC82AD83D007C007C005C004125CF9AA82AB83D004D005D007EA66
:20305300C39CFAEB9DFB78A2C3E2F5F0EA95F008E2F5F0EB95F04003023178758203C00780
:20307300C005C0041236A0AB82D004D005D007301E40EF603DEB30E5397E04BF0400500235
:203093008F0678A0799EE2F308E209F38E82C007C006C005C004122EDBD004D005D006D00E
:2030B30007EFC39EFF78A0E22EF208E23400F202303F301E40EF603DEB20E6397E04BF0483
:2030D3000050028F0678A0799EE2F308E209F38E82C007C006C005C004122EDBD004D00522
:2030F300D006D007EFC39EFF78A0E22EF208E23400F202303FEB30E720122F5C78C7E2FA4C
:2031130008E2FEBAFF05BEFF02800C0ABA00010E78C7EAF208EEF2C322758202C007C0056B
:20313300C0041236A0AB82D004D005D007EB30E105D21E02303F201E0302303FEB30E10310
:2031530002303FEF601D78C7E2FE08E2FFBEFF05BFFF02800C0EBE00010F78C7EEF208EF77
:20317300F2C322D32278C7E2FE08E2FFBEFF05BFFF02800C0EBE00010F78C7EEF208EFF276
:20319300C322E58290058DF0A2A89220C2A8D2A590058DE0FF78A479A0E2F308E209F37878
:2031B300A679A2E2F308E209F38F82122FAC921FC2A5A22092A8A21F22C2A8C21B788BE45D
:2031D300F2C21C788CE4F27413C0E075820512366A15817440C0E075820612366A1581121C
:2031F3003714122F5C122F847405C0E075820712366A1581D2A8D322900032125C88758292
:20321300011236A0AF82BFFF028005BF05005002C3221237747582011236A0E582FF20E03E
:2032330006123774922122EF30E102D322C322AC82AD83AEF0FFC3ED941CEE944EEF940E4B
:20325300400E74C09C74F79D74BA9E74379F5002C3227890ECF208EDF208EEF208EFF28CBE
:20327300828D838EF0EF1237E0D322AC82AD83AEF0FFC374F09C74E89D74269EE49F50025A
:20329300C32278A87410F2087427F208E4F208F28C828D838EF0EF123720AC82AD83AEF043
:2032B300FF7894ECF208EDF208EEF208EFF2C00475827A12366A1581D322E58290058EF06E
:2032D3007899E2FFE0FEB50701227899EEF2C00675827912366A1581C21C227899E2F58253
:2032F30022AF82C007E4C0E075820512366A1581E4C0E075820612366A158112371474152A
:20331300C0E075820B12366A15817412C0E075820C12366A1581758200123A3474B6C0E0FE
:2033330075820912366A1581D007EF249B5010C00774C0C0E075825812366A1581D00778CC
:2033530090E2FB08E2FC08E2FD08E28B828C838DF0C0071237E07894E2FB08E208E208E206
:20337300C00375827A12366A1581D007302329C0077488C0E075823012366A15817402C063
:20339300E075823312366A1581E4C0E075823212366A1581D0078040C007748DC0E07582DD
:2033B3003012366A15817422C0E075823312366A1581740CC0E075823212366A158174FFD6
:2033D300C0E075824312366A158174FFC0E075824412366A1581D007C007743CC0E075823D
:2033F3007C12366A15817420C0E075827D12366A15817432C0E075827E12366A1581789BF0
:203413007410F2789BE2FEC00675823412366A15817428C0E075823512366A158175820050
:203433001235CDD0077E00EE907B7D93FDC39F50060EBE0C0040F0EEFF907B7D93FE789834
:20345300F2BE200040047E0D80027E2D75820DC007C006123ECAAA82AB83ACF0FDD006D049
:2034730007EA4B4C4D600B7898E2FD247F4003430602C007C00675827012366A1581742306
:20349300C0E075827112366A15817444C0E075821D12366A1581D0077898E2FEBEC8005078
:2034B30012C007740AC0E075821E12366A1581D0078010C0077402C0E075821E12366A1585
:2034D30081D00778C3E2B4433A7E00EE75F00DA4248AFC747B35F0FDEF2CF582E43DF583CB
:2034F300E493FDEE907B7193FCC007C006C0058C8212366A1581D006D0070EBE0C0040CB14
:203513000235CB78C3E2B447397E00EE75F00DA42426FC747C35F0FDEF2CF582E43DF58340
:20353300E493FDEE907B7193FCC007C006C0058C8212366A1581D006D0070EBE0C0040CBD3
:20355300807678C3E2B486397E00EE75F00DA424C2FC747C35F0FDEF2CF582E43DF583E44D
:2035730093FDEE907B7193FCC007C006C0058C8212366A1581D006D0070EBE0C0040CB80F7
:20359300377E00EE75F00DA4245EFC747D35F0FDEF2CF582E43DF583E493FDEE907B719332
:2035B300FCC007C006C0058C8212366A1581D006D0070EBE0C0040CBD322E58290058FF054
:2035D3007404C0E075826D12366A158190058FE0FFF582C00712433CAE82D007BEFF0280FC
:2035F300078EFC789AEFF222EFC313FF907DFA93F5FCEF2FFF789AEFF222789AE2F5822204
:20361300AF83E582900590F0EFA3F0900590E0FEA3E0FF8E04788EECF28F05788FEDF220D2
:203633002334C007C006C005C00575823A12366A1581D005D006D007C006C005C0067582C6
:203653003B12366A158175823F12366A158175824012366A158122AF82A2A89238C2A87591
:20367300A702C2A3C2FF74804FF5A330F9FDA881181886A330F9FD748055A1FFBF80028015
:20369300F6C2FFD2A375A700A23892A822AF82A2A89238C2A875A702C2A3C2FF8FA330F94B
:2036B300FD75A30030F9FD748055A1FFBF800280F6AFA3C2FFD2A375A700A23892A88F8253
:2036D30022AF8275A702C2A3C2FF75A37F30FFFD85A3E0E58124FDF886050886068F041F25
:2036F300EC6016C2FF75A30030FFFD8D828E83E5A3F0A3AD82AE8380E4C2FFD2A375A700FF
:20371300227582031236A07582040236A0AF82AE83ADF0FC78ACEFF208EEF208EDF208ECFC
:20373300F278ABE2C313FF18E213FE18E213FB18E213FA78ACE22AFA08E23BFB08E23EFE20
:2037530008E23FFF78A8900734E2F008E2A3F008E2A3F008E2A3F08A828B838EF0EF026E03
:2037730074E4C0E075820512366A1581E4C0E075820612366A15811237147481C0E0758248
:203793000712366A1581900002125C4F308107125C8050F8C322E4C0E075820512366A155E
:2037B300817402C0E075820612366A1581900014125C4F125C8040137582031236A075829F
:2037D300041236A0E58230E1EAD322C322AF82AE83ADF0FC78B0EFF208EEF208EDF208ECE7
:2037F300F278B0C3E2F5F0E495F008E2F5F0743895F008E2F5F0749C95F008E2F5F0741CE6
:2038130095F040030238D578B1E224C8F208E23463F208E234E3F2900734E4F0742DA3F09C
:203833007431A3F07401A3F078B0E2F58208E2F58308E2F5F008E2126E74AA82900592EA68
:20385300F090075AEAF0E4A3F0A3F0A3F0902D0075F03174011271E2AC82AD83AEF0FF785D
:20387300B0E2C39CF208E29DF208E29EF208E29FF278A87471F2087402F208E4F208F2782D
:20389300B0E2F58208E2F58308E2F5F008E212372078B0C0E0E582F208E583F208E5F0F236
:2038B300D0E008F278B0E225E0F208E233F208E233F208E233F2900592E0FF74204FF00242
:2038D300399678B1E224E4F208E234B1F208E234F1F29007347480F07496A3F07498A3F054
:2038F300E4A3F078B0E2F58208E2F58308E2F5F008E2126E74AC82900592ECF090075AECA0
:20391300F0E4A3F0A3F0A3F090968075F098E41271E2AC82AD83AEF0FF78B0E2C39CF208BD
:20393300E29DF208E29EF208E29FF278A87471F2087402F208E4F208F278B0E2F58208E264
:20395300F58308E2F5F008E212372078B0C0E0E582F208E583F208E5F0F2D0E008F278B096
:20397300E225E0F208E233F208E233F208E233F2181818E225E0F208E233F208E233F208E7
:20399300E233F2900592E0FF74404FF078B0E2FC08E2FDC005C004E0C0E075827512366A00
:2039B3001581D004D0058D07C005C004C00775827612366A1581D004D005C004758277122F
:2039D300366A15812275A70FAEBEE4CE25E0CE33CE25E0CE33FFE5BD23235403FD7C004260
:2039F30006EC420775A700D2EC20ECFDADBE7C00AABD7B00EA4204EB4205ECC39EFEED9F94
:203A1300FF90076B7402F0E4A3F08E828F831273DAE5828583F0242DFCE435F08C82F583F9
:203A330022E582900593F0E0FF24FC4068EF2F2F903A4773023A53023AA8023AA8023A784F
:203A53007418C0E075820D12366A15817582081236A0AF82741F5F4480FFC0077582081236
:203A7300366A1581227582081236A0AF82741F5F4420FFC00775820812366A1581740AC022
:203A9300E075820D12366A1581E4C0E075820E12366A1581227582081236A0AF8253071F63
:203AB300C00775820812366A1581740AC0E075820D12366A15817404C0E075820E12366AAC
:203AD300158122C027C0E0C0F0C082C083C007C006C005C004C003C002C001C000C0D0753E
:203AF300D0007582041236A0AF82758203C0071236A0AE82D007EE30E449788CE2FC7D0075
:203B130074322CFCE43DFDC374FC9CE49D5003023BE1788CE2248EFCE43404FDC007C006AB
:203B3300C004C0057582321236D415811581788CE22432F27582261236A0E582D006D00731
:203B5300788DF2EF30E611D21C758226C0061236A0E582D006788DF2202304EE20E06FEEC6
:203B730030E16975824B1236A0E582FF2403405E788CC3E2F5F0EF95F04053788CC3E29F86
:203B93005022788CE2248EFDE43404FE788CD3E29FF4FCC007C005C0068C821236D4158197
:203BB3001581D007788BEFF2D21BE4C0E075820512366A1581E4C0E075820612366A158123
:203BD3007402C0E075820712366A1581801E78C5E2FE08E2FFBEFF05BFFF02800C0EBE00F8
:203BF300010F78C5EEF208EFF21231CCD0D0D000D001D002D003D004D005D006D007D083FE
:093C1300D082D0F0D0E0D02732BD
:207B60006F76657273697A6564207061636B6574001C1F2021222324252A6E6F7202040801
:207B80001013182030406080C0FA2727272E1601050B9A888A8C8D030303030303030303D6
:207BA00003030303F4FA7D3F69A77D535E7D5E3F3020000102010001010101010202418396
:207BC000060C37C406895D065D0CAA8912254A4C9C25378625864AAB000102040201020310
:207BE000020202040785080E12728A0E18BB0EBBEAFF1D1D1D1E1E1E2030415050505010A6
:207C00002041839BC4080C101820314062C58912A69C314A6293C5270003060D1A1E26334D
:207C20004D669ACDFEFE2B2B2B2E1601050B9A888A8C8D030303030303030303030303036C
:207C4000F4FA7D3F69A77D535E7D5E3F30200001020100010101010102024183060C37C4F4
:207C600006895D065D0CAA8912254A4C9C25378625864AAB00010204020102030202020472
:207C80000785080E12728A0E18BB0EBBEAFF1E1E1E21212121304150505050102041839B83
:207CA000C4080C101820314062C58912A69C314A6293C5270003060D1A1E26334D669ACD12
:207CC000FEFE010101010101050B9A888A8C8D03030303030303030303030303D0E8F4FA00
:207CE000D3A77D535E7D5E3F30E0602000000001010101010202102041839BC406895D06E4
:207D00005D0CAA62C58912A69C25378625864AAB00000001010102030202020407234485C5
:207D200008398A0E18BB0EBBEAFF1C1C1C1C1C1E20304150505050102041839BC4080C10F3
:207D40001820314062C58912A69C314A6293C5270003060D1A1E26334D669ACDFEFE01015B
:207D600001010101050B9A888A8C8D03030303030303030303030303D0E8F4FAD3A77D5313
:207D80005E7D5E3F30E0602000000001010101010202102041839BC406895D065D0CAA6218
:207DA000C58912A69C25378625864AAB0000000101010203020202040723448508398A0EC1
:207DC00018BB0EBBEAFF1E1E1E1E1E1E20304150505050102041839BC4080C101820314079
:207DE00062C58912A69C314A6293C5270003060D1A1E26334D669ACDFEFEEBE6E0DAD3CE3A
:0A7E0000C9C4BEB8B2ABA496885006
:203C1C0075B7A575B7F122D310AF01C3C0D0AF8474035F4430F584C007123C1CD007758F90
:203C3C000390F80074FFF0758F008F84D0D092AF22D310AF01C3C0D0AE82AF83AD84740370
:203C5C005D4430F584758F004307F88E828F83E493FF758F008D848F82D0D092AF22D31014
:203C7C00AF01C3C0D0AE82AF83AD8474035D4430F584C007C006C005123C1CD005D006D09A
:193C9C0007758F054307F88E828F8378B4E2F08D84758F00D0D092AF2285
:02F7FE003DC20A
:203CB500AF82BF1100400122EF24F05003023D64EF2F2F903CCC73023CFC023CFE023D087D
:203CD500023D1A023D1C023D2E023D40023D2E023D64023D64023D64023D64023D64023D54
:203CF50064023D64023D52C322AF4A8F82125A76922222C3E4954A7401954BE4954CE49557
:203D15004D504CC322D322C3741E954AE4954BE4954CE4954D5038C322C37401954AE4954B
:203D35004BE4954CE4954D5026C322C37402954AE4954BE4954CE4954D5014C322C37483D3
:203D5500954AE4954BE4954CE4954D5002C322D322AF8278B5E2F54A08E2F54B08E2F54C20
:203D750008E2F54D8F82C007123CB5D007400122BF0402801FBF0603023E6CBF0703023E0C
:203D9500A9BF0B02802DBF0C02806FBF0E03023E81023EA978B5E2F582C0071235CD12360D
:203DB5000DAE82D00778B5EEF208E4F208F208F2023EA978B9E4F208F208F208F278BD7474
:203DD50064F208E4F208F208F278B5E2F58208E2F58308E2F5F008E2C00712426AAB82ACA7
:203DF50083ADF0FED00778B5EBF208ECF208EDF208EEF27821EBF2023EA978B5E2F5F0089F
:203E1500E242F008E242F008E245F0604278B97419F208E4F208F208F278BD74DCF208E4B7
:203E3500F208F208F278B5E2F58208E2F58308E2F5F008E2C00712426AAB82AC83ADF0FE6A
:203E5500D00778B5EBF208ECF208EDF208EEF278B57929E2F3803D78B5E2FE900605F07846
:203E7500B5EEF208E4F208F208F2802878B5E2F5F008E242F008E242F008E245F024FF921E
:203E95002450047E0180027E0078B5EEF208E4F208F208F2EF75F004A42494F5827405355E
:203EB500F0F58378B5E2F008E2A3F008E2A3F008E2A3F0D322AF82BF11004007900000E45E
:203ED500F5F022EF75F004A42494F582740535F0F583E0FCA3E0FDA3E0FEA3E08C828D8307
:203EF5008EF02285824E85834F9005F8E0FCA3E0FD9005FAE0FB8C018D028B007F00E82CD4
:203F1500F8EF3DFFC3E998EA9F5041E9C39CFEEA9DFFEE254EFEEF354FFF89828A83C0078F
:203F3500C006C005C004C003C002C001123C4DA882D001D002D003D004D005D006D0078EB8
:203F5500828F83E8F009B900B10A80AE854E0C854F0D8B82C002C00112084FAE82AF83D04A
:203F750001D002740129FCE43AFD8C828D83C007C006C002C001123C4DAD82D001D0028D7C
:203F9500047D0089828A83C005C004123C4DAB82D004D005D006D0077A00EB4205EA4204F0
:203FB500EEB50506EFB504028002C322D3228582508583519005FBE0FCA3E0FD9005FDE02A
:203FD500FB8C528D538B027F00EA2CFAEF3DFFC3E5529AE5539F5036E552C39CFEE5539D72
:203FF500FFEE2550F582EF3551F58378B4E0F2855282855383C005C004C003123C7AD0034D
:20401500D004D0050552E4B552BB055380B785500C85510D8B8212084FAE82AF838E0478B0
:20403500B4ECF2855282855383C007C006123C7AD006D00774012552FCE43553FD78B4EFB7
:20405500F28C828D83023C7AD310AF01C3C0D01241A1900000123C4DE582FF24BB4005BF35
:2040750030005004C302413D9005F87401F0E4A3F09005FAEFF0900594123EF84003024196
:204095003D758200123ECAAC82AD83AEF0FFBC1A0BBD0008BE0005BF00028004C302413DD1
:2040B5007F00EF75F004A42494FD740535F0FE8D828E83E0F54AA3E0F54BA3E0F54CA3E0D6
:2040D500F54D8F82C007C006C005123CB5D005D006D0074032EF75F007A4240AFB747E35E0
:2040F500F0FC8B828C83A3A3A3E493F9A3E493FAA3E493FBA3E493FC8D828E83E9F0EAA385
:20411500F0EBA3F0ECA3F00FBF440040959005F87481F07401A3F09005FA7420F09005D8BC
:20413500123EF840028001D333D0D092AF1322D310AF01C3C0D0900594741AF0E4A3F0A39C
:20415500F0A3F0123C2378B47444F2900000123C7A9005FB7401F0E4A3F09005FD7444F082
:20417500900594123FC378B47420F2900180123C7A9005FB7481F07401A3F09005FD7420BF
:20419500F09005D8123FC3D0D092AF227F00EF75F004A42494FD740535F0FEEF75F007A4CB
:2041B500240AFB747E35F0FC8B828C83A3A3A3E493F9A3E493FAA3E493FBA3E493FC8D82EB
:2041D5008E83E9F0EAA3F0EBA3F0ECA3F00FBF110040BB22AF827E008F037C007D40EE758D
:2041F500F007A4240AF582747E35F0F583E493F8A3E493F9A3E493FA900750E8F0E9A3F00A
:20421500EAA3F08B828C838DF0C007C0061270E5E5828583F0D006D00745F060060EBE11FB
:204235000040B58E8222AF82BF11005021EF75F007A4240AF582747E35F0F583E493FDA386
:20425500E493FEA3E493FF8D828E838FF02290000075F00022AC82AD83AEF0FF78B9C3E212
:20427500F5F0EC95F008E2F5F0ED95F008E2F5F0EE95F008E2F5F0EF95F0500D78B9E2FCA1
:2042950008E2FD08E2FE08E2FF78BDC3E29C08E29D08E29E08E29F500D78BDE2FC08E2FDEC
:2042B50008E2FE08E2FF8C828D838EF0EF22D310AF01C3C0D0AE82AF83758F0175B7A575D8
:2042D500B7F18E828F83E58124FDF8E6F0758F00D0D092AF22E493F58222AF82758433EF47
:2042F50024E14041A8811818B6FF0280387E0074DE2FFC74FF3EFD8C828D83C007C00612F5
:2043150042EAAD82D006D007BDFF1A74DE2FFF74FF3EFEA8811818E6C0E08F828E83124226
:20433500C31581D322C322AF827E007584337D00ED90F7DE93FC62060DBD1F0040F290F7F2
:20435500FDE493FDBDFF02801690F7FDE493FDB5060DEF24E14008EF90F7DE93F582227592
:2043750082FF22AF827E0074DE2FFF74FF3EFE8F828E830242EA7F0075843390FFFDC00759
:204395001242EAAE82D007BEFF6A7E008E047D008C028D0374DE2AFA74FF3BFB8A828B83B8
:2043B500C007C006C005C0041242EAAB82D004D005D006D007EB6207BBFF1BC004C00574EB
:2043D50081C0E0747EC0E07480C0E0120835E58124FBF581C3220EBE1F0040B0C00790FF21
:2043F500FD1242C3158174FEC0E090FFFF1242C31581D322C322AF82BF3000400DEF24C691
:2044150040088F06EE24D0F58222BF4100400DEF24B940088F0674C92EF58222BF610040D5
:204435000BEF2499400674A92FF5822275820022AF83E582900600F0EFA3F0900600E0FE57
:20445500A3E0FF9005FEE0F554A3E0F55578C2E4F278C279C1C3E3F5F0E295F0506878C2D4
:20447500E275F002A4FAABF02EF582EB3FF583E0F582C007C006C003C00212440BAD82D095
:2044950002D003D006D007EDC454F0FD0ABA00010BEA2EF582EB3FF583E0F582C007C006AE
:2044B500C00512440BAC82D005D006D007EC2DFD78C2E22554F582E43555F583EDF078C2F2
:2044D500E22401F2808B22AF829006027462F07E00C3EE9F5033EE24D8FCE43405FD7B0046
:2044F5009007437402F07406A3F0E4A3F090074604F0E4A3F08C828D838BF0C007C0061263
:204515006FDAD006D0070E80C822AF83E582900603F0EFA3F0758210123ECAAC8253040FBF
:204535000CECC40354F8FF900603E0FDA3E0FE8D028E037C008A828B838CF0C007C006C0E6
:204555000512765AAB82D005D006D007EF75F002A4FAACF08B56755700C3E5569AE557643B
:20457500808CF063F08095F0502C8F82C004C0021244DCD002D004C002C004C056C05774C0
:204595009EC0E0747EC0E07480C0E0120835E58124F9F581D3228F037C00C007C006C00505
:2045B500C003C00474C2C0E0747EC0E07480C0E0120835E58124FBF581D005D006D0079007
:2045D50005FE74D8F07405A3F078C1EFF28D828E83124445D322758210123ECAAC8253040B
:2045F5000F7D000CECC40354F8FF7E00C3EE9F505FEE24D8F582E43405F583E0FD24F0406C
:204615001DC007C00674CEC0E0747EC0E07480C0E0120835158115811581D006D007EE2403
:20463500D8F582E43405F583E0FD7C00C007C006C005C00474D0C0E0747EC0E07480C0E008
:20465500120835E58124FBF581D006D0070E809C74D3C0E0747EC0E07480C0E012083515B3
:0A4675008115811581229005D822DD
:207E0A00D57E801A000000DC7E8039000000E97E8040000000F37E8019000000F97E80141C
:207E2A00000000017F8000000000057F80010000000D7F8000000000177F800000000020F1
:207E4A007F8000000000297F8000000000367F8064000000417F80000000004A7F800000CF
:207E6A000000557F80000000005C7F8083000000677F800000000064426D206C6576656C15
:207E8A00202575206E6F742063616C696272617465640A004552524F52202D204B65792038
:207EAA006C656E6774683A25752C2052657175697265642025750A006B6579206C656E2049
:207ECA0025640A0030002578000A00464F524D41540053455249414C5F5350454544004194
:207EEA0049525F5350454544004E45544944005458504F57455200454343004D41564C491C
:207F0A004E4B004F5050524553454E44004D494E5F46524551004D41585F46524551004EDC
:207F2A00554D5F4348414E4E454C5300445554595F4359434C45004C42545F525353490053
:207F4A004D414E4348455354455200525453435453004D41585F57494E444F5700454E4357
:0E7F6A0052595054494F4E5F4C4556454C00FD
:060400000204A9023AD635
:01040B0032BE
:0104130032B6
:01041B0032AE
:030423000250D1B3
:03042B00025C91DF
:010433003296
:01043B00328E
:010443003286
:01044B00327E
:010453003276
:01045B00326E
:010463003266
:01046B00325E
:03047300025C0721
:01047B00324E
:010483003246
:01048B00323E
:010493003236
:01049B00322E
:0304A3000261B73C
:03052C000204A620
:0304A60002467F8C
:20467F00758433AFC478C3EFF2AFC378C4EFF212405D40031241A1758206123ECAAC829016
:20469F000605ECF0758205123ECAAC82AD83AEF0FFEC4D4E4F24FF922375820E123ECAAC8A
:2046BF0082AD83AEF0FFEC4D4E4F24FF922412474E1247EE1231CC40157495C0E0747FC02F
:2046DF00E07480C0E0124714158115811581758210123ECAAC828C82126239401574AFC0D6
:2046FF00E0747FC0E07480C0E01247141581158115810219FC907FC875F080127541E58164
:20471F0024FCFFC007E58124FBF886820886830886F01205921581907FD375F080127541B2
:20473F00D2AFD2AC9003E8125C8843EF1080FEAFD974BF5FF5D943B28075B64075A90075CF
:20475F00FF807E5E7F011EBEFF011FEE4F70F775EF0675D4CF75D5FF75D62875A41075A73D
:20477F000F75A41075A70075E10143E24143A6FD75A70F43A5F575A6FD43B1C043A1C07536
:20479F00A70275A14075F80075A20043F801D2A375A700C289125D37758201123ECAAC8279
:2047BF008C8212529C75B800D2AFC2B7C2B6D2EF75BCF975BA0075BB1B75D10775D9887530
:2047DF00DF0075DA4275FC8075D84075E3402212320B401574D4C0E0747FC0E07480C0E05F
:2047FF0012471415811581158178C3E2B44302801C78C3E2B44702804478C3E2B486028002
:20481F006C78C3E2B491030248BA0248E99006067490F074D1A3F074CFA3F07419A3F09083
:20483F00060A7470F0745EA3F074EAA3F07419A3F0900612740AF07888F2024921900606EF
:20485F007480F074A1A3F07403A3F0741CA3F090060A74C0F074E3A3F07412A3F0741CA386
:20487F00F0900612740AF07888F2024921900606E4F074A1A3F074BCA3F07433A3F090060A
:20489F000A7480F07425A3F074DBA3F07433A3F0900612740AF07888F2806790060674C004
:2048BF00F074CAA3F07489A3F07436A3F090060AE4F07428A3F023A3F07437A3F09006120C
:2048DF007414F078887432F28038900606E4F0A3F0A3F0A3F090060AF0A3F0A3F0A3F090EF
:2048FF000612F078C3E2FE7F00C006C00774ECC0E0747FC0E07480C0E0124714E58124FB51
:20491F00F58175820A123ECAAC82AD83AEF0FFEC4D4E4F601175820A123ECAAC82AD83AE7E
:20493F00F0FF7888ECF2758208123ECAAC82AD83AEF0FFEC4D4E4F6039758208123ECAAC43
:20495F0082AD83AEF0FF90075AECF0EDA3F0EEA3F0EFA3F09003E8E4F5F01271E2AC82AD15
:20497F0083AEF0FF900606ECF0EDA3F0EEA3F0EFA3F0758209123ECAAC82AD83AEF0FFECFC
:20499F004D4E4F6039758209123ECAAC82AD83AEF0FF90075AECF0EDA3F0EEA3F0EFA3F010
:2049BF009003E8E4F5F01271E2AC82AD83AEF0FF90060AECF0EDA3F0EEA3F0EFA3F075823E
:2049DF0004123ECAAC82AD83AEF0FFEC4D4E4F6012758204123ECAAC82AD83AEF0FF9006B1
:2049FF0012ECF0900612E0FF7E007D007C0078B9E4F208F208F208F278BD741EF208E4F220
:204A1F0008F208F28F828E838DF0EC12426AAC827888E2FB7D007E007F0078B97401F20815
:204A3F00E4F208F208F278BD7432F208E4F208F208F28B828D838EF0EFC00412426AAB82B5
:204A5F00AD83AEF0FFD0047888EBF278C3E2B44302801E78C3E2B44703024B3378C3E2B499
:204A7F008603024BD878C3E2B49103024C7D024D1F900606E0FBA3E0FDA3E0FEA3E0FF7859
:204A9F00B97480F2087423F20874ADF2087418F278BDE4F208740BF208746BF208741BF240
:204ABF008B828D838EF0EFC00412426AAB82AD83AEF0FF900606EBF0EDA3F0EEA3F0EFA3C7
:204ADF00F090060AE0FBA3E0FDA3E0FEA3E0FF78B97480F2087423F20874ADF2087418F280
:204AFF0078BDE4F208740BF208746BF208741BF28B828D838EF0EF12426AAB82AD83AEF06E
:204B1F00FFD00490060AEBF0EDA3F0EEA3F0EFA3F0024D42900606E0FBA3E0FDA3E0FEA3F9
:204B3F00E0FF78B97480F2087474F20874D2F208741AF278BD7480F20874CEF2087434F2BD
:204B5F0008741DF28B828D838EF0EFC00412426AAB82AD83AEF0FF900606EBF0EDA3F0EEC0
:204B7F00A3F0EFA3F090060AE0FBA3E0FDA3E0FEA3E0FF78B97480F2087474F20874D2F2CA
:204B9F0008741AF278BD7480F20874CEF2087434F208741DF28B828D838EF0EF12426AABF7
:204BBF0082AD83AEF0FFD00490060AEBF0EDA3F0EEA3F0EFA3F0024D42900606E0FBA3E02A
:204BDF00FDA3E0FEA3E0FF78B97440F20874B6F208749AF2087432F278BD7440F2087410AC
:204BFF00F20874FDF2087434F28B828D838EF0EFC00412426AAB82AD83AEF0FF900606EB0A
:204C1F00F0EDA3F0EEA3F0EFA3F090060AE0FBA3E0FDA3E0FEA3E0FF78B97440F20874B6FB
:204C3F00F208749AF2087432F278BD7440F2087410F20874FDF2087434F28B828D838EF0BA
:204C5F00EF12426AAB82AD83AEF0FFD00490060AEBF0EDA3F0EEA3F0EFA3F0024D42900695
:204C7F0006E0FBA3E0FDA3E0FEA3E0FF78B9E4F20874A1F20874BCF2087433F278BD74C067
:204C9F00F20874F7F20874BAF2087437F28B828D838EF0EFC00412426AAB82AD83AEF0FFCB
:204CBF00900606EBF0EDA3F0EEA3F0EFA3F090060AE0FBA3E0FDA3E0FEA3E0FF78B9E4F2D6
:204CDF000874A1F20874BCF2087433F278BD74C0F20874F7F20874BAF2087437F28B828DB4
:204CFF00838EF0EF12426AAB82AD83AEF0FFD00490060AEBF0EDA3F0EEA3F0EFA3F0802378
:204D1F0078C3E2FE7F00C004C006C00774ECC0E0747FC0E07480C0E0124714E58124FBF57B
:204D3F0081D00490060AE0FBA3E0FDA3E0FEA3E0FF900606E0F558A3E0F559A3E0F55AA3F2
:204D5F00E0F55BEBB55825EDB55921EEB55A1DEFB55B1990060A74402558F074423559A3F1
:204D7F00F0740F355AA3F0E4355BA3F075820BC004123ECAAB827821EBF27F007E007D007B
:204D9F0078B9E4F208F208F208F278BD7464F208E4F208F208F28B828F838EF0ED12426AE6
:204DBF00AB827821EBF278B5EBF208E4F208F208F275820B123D6675820C123ECAAB82ADA7
:204DDF0083AEF0FFD0047829EBF2EB60377F007E007D0078B97419F208E4F208F208F2784C
:204DFF00BD74DCF208E4F208F208F28B828F838EF0EDC00412426AAB82AD83AEF0FFD004E9
:204E1F007829EBF2C004782979B5E2F309E4F309F309F375820CC004123D6690073474E812
:204E3F00F07403A3F0E4A3F0A3F0855882855983855AF0E55B126E74AB82AD83AEF0FF781A
:204E5F00B5EBF208EDF208EEF208EFF2758208123D66D00490060AE0F55CA3E0F55DA3E038
:204E7F00F55EA3E0F55F90073474E8F07403A3F0E4A3F0A3F0855C82855D83855EF0E55FDF
:204E9F00126E74AA82AC83AEF0FF78B5EAF208ECF208EEF208EFF2758209C004123D667856
:204EBF008879B5E2F309E4F309F309F375820A123D66D004E55CC39558FCE55D9559FDE5E7
:204EDF005E955AFEE55F955BFF7888E2FA7B0074022AFAE43BFB900734EAF0EBA3F0EB33E9
:204EFF0095E0A3F0A3F08C828D838EF0EF126E74AC82AD83AEF0FF90060EECF0EDA3F0EE90
:204F1F00A3F0EFA3F0EFC313FFEE13FEED13FDEC139006062558F0ED3559A3F0EE355AA367
:204F3F00F0EF355BA3F0758203123ECAAC82C004126D82D0047888C3E2F5F0740595F0D01D
:204F5F00044003024FEFC004C004126D28AE82AF8390074EEEF0EFA3F09002711270C5AEDD
:204F7F0082AF83D0048E5CEFF55D3395E0F55EF55F90060EE0FAA3E0FCA3E0FEA3E0FF9080
:204F9F0006F8EAF0ECA3F0EEA3F0EFA3F0855C82855D83855EF0E55FC004126A3485825CE2
:204FBF0085835D85F05EF55FD004900606E0FAA3E0FBA3E0FEA3E0FF900606E55C2AF0E59F
:204FDF005D3BA3F0E55E3EA3F0E55F3FA3F0D004900606E0FBA3E0FDA3E0FEA3E08B828DF4
:204FFF00838EF0C004123242D00490060EE0FBA3E0FDA3E0FEA3E08B828D838EF0C00412FF
:20501F00327E758203123ECAAB82AD83AEF0FF78889006F8E2F0E4A3F0A3F0A3F08B828D1C
:20503F00838EF0EF126A341232CD758202123ECA1232F4D0044037758202C004123ECA1221
:20505F0032F4D0044028758202C004123ECA1232F4D0044019C0047403C0E07480C0E074B0
:20507F0080C0E0124714158115811581D004C004122F56AF8278B5EFF208E4F208F208F282
:20509F00758202123D66758203123ECA123613D0048C821235CD12360DAF8278B5EFF20842
:1250BF00E4F208F208F2758204123D66122D1D02213DA9
:207F78005246442053694B20322E302D45206F6E205246443930305000322E300066616922
:207F98006C656420746F20656E61626C65207265636569766572006661696C656420746F2D
:207FB80020696E697469616C69736520616573000A2A2A50414E49432A2A00007261646948
:207FD8006F5F696E697469616C697365206661696C65640062616420626F617264206672C4
:207FF800657175656E637920256400726164696F5F636F6E666967757265206661696C6575
:02801800640002
:12051A0078DB7490F2087401F278DD74F4F2087401F2F9
:2050D100C027C0E0C0F0C082C083C007C006C005C004C003C002C001C000C0D075D0001002
:2050F10098030251E6AF9930160E3017030251E68F821224E00251E68F82C007122576D0F7
:205111000778DFE22401FD08E23400FEBD0009BE0C067D007E00800B78DFE22401FD08E29F
:205131003400FE78E1E2B5050708E2B50602803A78DFE22476F58208E23407F583EFF07891
:20515100DFE22401FD08E23400FEBD0009BE0C067D007E00800B78DFE22401FD08E23400AA
:20517100FE78DFEDF208EEF2801B78CBE2FD08E2FEBDFF05BEFF02800C0DBD00010E78CB35
:20519100EDF208EEF278DF79E1C3E3F5F0E295F009E3F5F008E295F0401B78E1E22400FD9D
:2051B10008E2340CFE78DFD3E29DF4B3FDB308E29EF4FE801578E179DFE3F5F0C3E295F004
:2051D100FD09E3F5F008E295F0FEC3ED9411EE94005002D28210990302526378E379E5E208
:2051F100F5F0E3B5F00B08E2F5F009E3B5F002805F302420308317201614900613E0FEE0F6
:205211007004D225804CEE14900613F080069006137408F078E5E22476F58208E23413F59A
:2052310083E0FF78E5E22401FD08E23400FEBD0009BE08067D007E00800B78E5E22401FD05
:2052510008E23400FE78E5EDF208EEF28F998002D225D0D0D000D001D002D003D004D005CD
:20527100D006D007D083D082D0F0D0E0D0273278E379E5E2F5F0E3B5F00A08E2F5F009E365
:20529100B5F0012230250302573A22AF82C2AC78DFE4F208F278E1F208F278E3F208F2785E
:2052B100E5F208F278E7F208F278E9F208F2D225C28EAE89740F5E4420F5898F82125A9C1A
:2052D100D28E759810C282D2AC22AF82C0071256E6AD82AE83D007C3ED9401EE94005002C6
:2052F100C3228F821252FAD322AF82A2AC9238C2AC78E3E22401FD08E23400FEBD0009BE9E
:2053110008067D007E00800B78E3E22401FD08E23400FE78E5E2B5050708E2B50602804402
:2053310078E3E22476F58208E23413F583EFF078E3E22401FE08E23400FFBE0009BF080675
:205351007E007F00800B78E3E22401FE08E23400FF78E3EEF208EFF2302524C02712573A10
:20537100D027801B78C9E2FE08E2FFBEFF05BFFF02800C0EBE00010F78C9EEF208EFF2A2EA
:205391003892AC2278E779E9E2F5F0E3B5F00C08E2F5F009E3B5F0030254921261CEE58255
:2053B100700302549278E9E22476FE08E2341BFF8E828F83E07011D22610AF02C22678E9E9
:2053D100E4F208F2A22692AF78E9E22401FE08E23400FFEE2476FEEF341BFF78E9E22476C0
:2053F100F58208E2341BF583E09006D7F09006D87414F07406A3F09006DA74EBF07400A36E
:20541100F07460A3F08E828F83126523E5826015741AC0E07480C0E07480C0E012471415B4
:20543100811581158178EB79EDE2F39006141255AE78E9E22476F58208E2341BF583E0FF6D
:2054510078EBF278E9E22476F58208E2341BF583E4F0D22610AF02C2267E000FBF00010E11
:2054710078E9E22FF208E23EF278E9C3E294FC08E29403400678E9E4F208F2A22692AFD333
:2054910022C322AF83E582900634F0EFA3F01261CEE582700302559978E7E22401FE08E2C6
:2054B1003400FF74FCC39EFE74039FFF78ECE2FC7D00C3EE9CEF9D500678E7E4F208F2C0E7
:2054D10005C004125BBDAE82AF83D004D005C3EE9CEF9D501B78C9E2FE08E2FFBEFF04BFEF
:2054F100FF01220EBE00010F78C9EEF208EFF22278E7E22476F58208E2341BF58378ECE228
:20551100F078E7E22401FE08E23400FFEE2476FEEF341BFF8E608F61756200900634E0FAED
:20553100A3E0FF900743EAF0EFA3F0E4A3F0900746ECF0EDA3F08560828561838562F01239
:205551006FDAD22710AF02C22778ECE2FE7F000EBE00010F78E7E22EF208E23FF278E7C311
:20557100E294FC08E29403400B78E7E22404F208E234FCF2A22792AF78E7E22476F5820811
:20559100E2341BF583E4F022900634E0FEA3E0FF78EC79EDE2F38E828F830255AEAF83E554
:2055B10082900636F0EFA3F078EDE27001221256E6AE82AF8378EDE2FC7D00C3EE9CEF9DF7
:2055D100501F78EDEEF278C9E2FE08E2FFBEFF05BFFF02800C0EBE00010F78C9EEF208EFFA
:2055F100F278EDE2FF78E3D3E29400F4B3FDB308E29408F4FE8F037C00C3ED9BEE9C5008B4
:2056110078E3E2FEC3E49EFF78E3E22476FD08E23413FE7C00900636E0FAA3E0FB9007437D
:20563100EAF0EBA3F0E4A3F0900746EFF0E4A3F08D828E838CF0C007C003C002126FDAD044
:2056510002D003D007900636EF2AF0E43BA3F078EDE2C39FF2D22810AF02C2287E0078E3ED
:20567100E22FF208E23EF278E3C308E29408400678E4E224F8F2A22892AF78EDE260449040
:205691000636E0FEA3E0FF900743EEF0EFA3F0E4A3F078EDE2FE7F00900746EEF0EFA3F0AB
:2056B10090137675F000C007C006126FDAD006D007D22810AF02C22878E3EEF208EFF2A25B
:2056D1002892AFD22810AF02C22830250312573AA22892AF22A2AC9229C2AC78E379E5C390
:2056F100E3F5F0E295F009E3F5F008E295F0401B78E5E22400FE08E23408FF78E3D3E29E9B
:20571100F4B3FEB308E29FF4FF801578E579E3E3F5F0C3E295F0FE09E3F5F008E295F0FF27
:20573100A22992AC8E828F832230240730830420160122C225D29922A2AC922AC2AC78DF5D
:2057510079E1E2F5F0E3B5F00B08E2F5F009E3B5F002803A78E1E22476F58208E23407F502
:2057710083E0FF78E1E22401FD08E23400FEBD0009BE0C067D007E00800B78E1E22401FDC4
:2057910008E23400FE78E1EDF208EEF280027F0078DF79E1C3E3F5F0E295F009E3F5F0083F
:2057B100E295F0401B78E1E22400FD08E2340CFE78DFD3E29DF4B3FDB308E29EF4FE801583
:2057D10078E179DFE3F5F0C3E295F0FD09E3F5F008E295F0FEC374229DE49E5002C282A22A
:2057F1002A92AC8F8222A2AC922BC2AC78E1E22476F58208E23407F583E0FFA22B92AC8F22
:205811008222AF83E582900638F0EFA3F0A2AC922CC2AC900638E0FEA3E0FF78E1E22EFEEB
:2058310008E23FFF90075EE4F0740CA3F08E828F8312724EAE82AF83EE2476F582EF3407D4
:20585100F583E0FFA22C92AC8F8222AF83E58290063AF0EFA3F01259CFAE82AF8378EEE2E2
:20587100FC7D00C3EE9CEF9D5002C3228C038D0278E1D3E29400F4B3FCB308E2940CF4FDFD
:20589100C3EC9BED9A501078E1D3E29400F4B3FBB308E2940CF4FA90063AE0FCA3E0FD8C9F
:2058B100638D6475650078E1E22476FE08E23407FF900743EEF0EFA3F0E4A3F0900746EB39
:2058D100F0EAA3F08563828564838565F0C005C004C003C002126FDAD002D003D004D005E3
:2058F1008B0678EEE2C39EF290063AEB2CF0EA3DA3F0D22D10AF02C22D78E1E22BF208E2E9
:205911003AF278E1C308E2940C400678E2E224F4F2A22D92AF78EEE2604890063AE0FEA3C7
:20593100E0FF7D009007437476F07407A3F0E4A3F078EEE2FB7C00900746EBF0ECA3F08E3D
:20595100828F838DF0C004C003126FDAD003D004D22D10AF02C22D78E1EBF208ECF2A22D02
:2059710092AFD22D10AF02C22D78DF79E1C3E3F5F0E295F009E3F5F008E295F0401B78E18F
:20599100E22400FE08E2340CFF78DFD3E29EF4B3FEB308E29FF4FF801578E179DFE3F5F03D
:2059B100C3E295F0FE09E3F5F008E295F0FFC374229EE49F5002C282A22D92AFD322A2AC0C
:2059D100922EC2AC78DF79E1C3E3F5F0E295F009E3F5F008E295F0401778DF79E1E3F5F0D5
:2059F100C3E295F0FE09E3F5F008E295F0FF801978E1D3E29400F4B3FCB308E2940CF4FD23
:205A110078DFE22CFE08E23DFFA22E92AC8E828F83221259CFAE82AF83E4C39EFE740C9F9C
:205A3100C423CEC423541F6ECE541FCE6ECEFF90074EEEF0EFA3F09000641270C5AE82AF2F
:205A5100839006F27480F023A3F08E828F8302699AAF82BF0A0A75820DC0071252FAD00765
:205A71008F820252FAAF827E00BE0900501BEE75F003A4243DF582748035F0F583E493FDFE
:205A9100EFB50502D3220E80E0C322AF827E00BE0900501BEE75F003A4243DF58274803526
:205AB100F0F583E493FDEFB5050280030E80E090063CEEF0BE090690063C7406F090063CD2
:205AD100E075F003A4243DFD748035F0FE8D828E83A3E493F58DAC8E5304F48D828E83A350
:205AF100A3E4934CF58E90075AEFF0E4A3F0A3F0A3F090007DE4F5F01271E202114C78E746
:205B110079E9C3E3F5F0E295F009E3F5F008E295F0401B78E9E224FCFE08E23403FF78E7A5
:205B3100D3E29EF4B3FEB308E29FF4FF801578E979E7E3F5F0C3E295F0FE09E3F5F008E22C
:205B510095F0FF78DBC3E2F5F0EE95F008E2F5F0EF95F05002D322C32278E779E9C3E3F595
:205B7100F0E295F009E3F5F008E295F0401B78E9E224FCFE08E23403FF78E7D3E29EF4B348
:205B9100FEB308E29FF4FF801578E979E7E3F5F0C3E295F0FE09E3F5F008E295F0FF78DDED
:205BB100C3E29E08E29F5002D322C32278E779E9C3E3F5F0E295F009E3F5F008E295F040A9
:205BD1001B78E9E224FCFE08E23403FF78E7D3E29EF4B3FEB308E29FF4FF801578E979E73C
:165BF100E3F5F0C3E295F0FE09E3F5F008E295F0FF8E828F83222B
:20801A006572726F72207768696C6520747279696E6720746F206465637279707420646123
:1E803A00746100012C02029602042C0009960013600126B001392B08739608E6CB083A
:208078000000000000000000000000000000000000000000000000000000000000000000E8
:208098000000000000000000000000000000000000000000000000000000000000000000C8
:2080B8000000000000000000000000000000000000000000000000000000000000000000A8
:2080D800000000000000000000000000000000000000000000000000000000000000000088
:205C0700C027C0E0C0F0C082C083C007C006C005C004C003C002C001C000C0D075D000755B
:205C270091041225C3E56660021566D0D0D000D001D002D003D004D005D006D007D083D047
:205C470082D0F0D0E0D02732AE82AF83C3EE94F6EF940940047566FF2274092EFEE43FFFEE
:205C67009006F2740AF0E4A3F08E828F8312699AAE828E662285826622E566B40100922FE3
:205C870022125C4F125C8050FB22C027C0E0C0F0C082C083C007C006C005C004C003C0026C
:205CA700C001C000C0D075D00075C80474012567F567E43568F568302403125280D0D0D060
:205CC70000D001D002D003D004D005D006D007D083D082D0F0D0E0D02732AFCDAECCEFB519
:205CE700CDF88F05E4FFFCEE4207EC42058F828D8322AE67AF68C007C006125CE1AC82ADD5
:205D070083D006D007EEB567E9EFB568E5EEC40354F8FF7E00EDC403CCC40354076CCC54BC
:205D270007CC6CCCFDEC4206ED42078E828F83227592407593B075910443E68075CA007540
:0C5D4700CB0075C804D2AD2285CC8222AE
:205D5300E582900645F0E0FFBF03028005BF070040047582012274035F2402C40354F8FEA5
:205D7300900643E0FCA3E0C454F0CCC4CC6CCC54F0CC6CFD900646ECF0EDA3F075A70275F8
:205D9300E90075EA00ADD274A75DF5D275D10375C90575D601900641E0FCA3E0FD90064801
:205DB300ECF0EDA3F0900648E0F5CA900649E0F5CB75CF008ECEE4F5CCF5CDEF30E21290CE
:205DD300063DE0FDA3E0FE900648EDF0EEA3F0801090063FE0FDA3E0FE900648EDF0EEA3C4
:205DF300F075D10475C90675D600900648E0F5CA900649E0F5CB900646E0F5CE900647E08F
:205E1300F5CFE4F5CCF5CDEF30E21290063FE0FDA3E0FE900648EDF0EEA3F0801090063D5F
:205E3300E0FDA3E0FE900648EDF0EEA3F075D10675C98875D600900648E0F5CA900649E01C
:205E5300F5CB900646E0F5CE900647E0F5CF75CD0075CC00AED374A75EF5D343D25875EA5E
:205E7300008FE943E90843E720E5D330E6FB75E90075EA00AFD274A75FF5D2AFD374A75FD5
:065E9300F5D37582002228
:205E9900AF83E58290064DF0EFA3F090064CE0FFBF030040047582012274022FC40354F862
:205EB900FE75A70275E90075EA00ADD274A75DF5D275D10375C90575D60090064DE0FCA3F9
:205ED900E0FD90064FECF0EDA3F090064FE0F5CA900650E0F5CB75CF008ECE75CC0075CD5E
:205EF9000075D10475C90675D60075CA0075CB0075CF0075CE1075CC0075CD0075D1067556
:205F1900C98875D60090064AE0FCA3E0FD90064FECF0EDA3F090064FE0F5CA900650E0F510
:205F3900CB75CF008ECE75CD00EF600575CC10800375CC00AED374A75EF5D343D25875EAA4
:205F5900048FE943E90443E90843E720E5D330E6FBEF6022AFD274A75FF5D275D10675CC75
:205F79000075CE10AFD374875FF5D343D24043E720E5D330E6FB75E90075EA00AFD274A750
:0E5F99005FF5D2AFD374A75FF5D375820022F7
:205FA700E58290065BF0E0FFBF03028005BF070040047582012274035F2402C40354F8FE39
:205FC700900659E0FCA3E0FD8C02C454F0CAC4CA6ACA54F0CA6AFB90065CEAF0EBA3F01C74
:205FE700BCFF011D900659ECF0EDA3F075A70275E90075EA00ADD274875DF5D275D103753F
:20600700C90575D600900657E0FCA3E0FD90065EECF0EDA3F090065EE0F5CA90065FE0F56A
:20602700CB75CF008ECEE4F5CCF5CDEF30E212900651E0FDA3E0FE90065EEDF0EEA3F0805D
:2060470010900653E0FDA3E0FE90065EEDF0EEA3F075D10475C90675D60090065EE0F5CA24
:2060670090065FE0F5CB75CE1075CF0075CC0075CD0075D10575C90775D600900655E0FDC7
:20608700A3E0FE90065EEDF0EEA3F090065EE0F5CA90065FE0F5CB75CE10E4F5CFF5CCF54D
:2060A700CDEF30E212900653E0FDA3E0FE90065EEDF0EEA3F08010900651E0FDA3E0FE90FB
:2060C700065EEDF0EEA3F075D10675C98875D60090065EE0F5CA90065FE0F5CB75CE1075AA
:2060E700CF0075CD0075CC00AED374875EF5D343D278EF30E20575EA01800375EA028FE956
:2061070043E90843E720E5D330E6FB900659E0F5F0A3E045F0700302619FAFE974F75FF5F9
:20612700E9AFD274875FF5D275D10375D60175CC0075CD0075D10490065CE0F5CE90065DE3
:20614700E0F5CF75D105900653E0FEA3E0FF90065EEEF0EFA3F090065EE0F5CA90065FE044
:20616700F5CB90065CE0F5CE90065DE0F5CF75CC0075CD0075D10690065CE0F5CE90065DD5
:20618700E0F5CFAFD374875FF5D343D27843E90843E720E5D330E6FB75E90075EA00AFD29E
:1061A70074875FF5D2AFD374875FF5D3758200220A
:2061B700C0E0C007C0D075D000AFE774DF5FF5E7D0D0D007D0E0329006C2E0F58222E582D7
:2061D7009006C3F0E09006C2F02212467BE5828583F0900660F0E5F0A3F022AF83E582904A
:2061F70006C6F0EFA3F09006C4E0FEA3E0FF9006C6E0FCA3E0FD7B108E828F83E493FAA317
:20621700AE82AF838C828D83EAF0A3AC82AD839006C6ECF0EDA3F0DBDF9006C6ECF0EDA3D2
:20623700F022E5829006C8F07582001261D59006C8E0FF740F5FFE7002D3221EC007C00612
:206257001261E1D006900660E0FCA3E0FD90064A7462F07406A3F090064CEEF08C828D831A
:20627700125E99E582D0076002C322EFC4540FFE53060FBE00028005BE0118802A9006C4DD
:206297007468F07480A3F0900682C0071261F2D00780149006C47468F07480A3F090068220
:2062B700C0071261F2D0078F821261D5D322AF83E5829006CAF0EFA3F09006CAE0FEA3E04A
:2062D700FF7D009006C9E0FCFA7B00900743EEF0EFA3F0EDA3F0900746EAF0EBA3F09006F6
:2062F700A275F000C004126FDAD004740F5C9006CCD39410F4F07F009006CCE0FEC3EF9EE2
:206317005034EF2C24A2FDE43406FE7B0090074374CCF07406A3F0E4A3F090074604F0E42A
:20633700A3F08D828E838BF0C007C004126FDAD004D0070F80C29006A222AF83E5829006AD
:20635700D3F0EFA3F09006CDE0FF7003F58222C0071261CEAE82D007740F5EFDBD01028066
:206377000ABD0202800DBD031A80109006D57404F080169006D57405F0800E9006D5740694
:20639700F080069006D57404F0EEC4540FFE53060F9006D3E0FCA3E0FD9006C9EFF08C8211
:2063B7008D83C007C0061262C5AC82AD83D006D007EFC4540FFF0FBE00028008BE01028038
:2063D7005E0264AC9006D5E0F5699006CEE0FAA3E0FB900660E0F56AA3E0F56B8F017E00AB
:2063F700900651ECF0EDA3F0900653EAF0EBA3F09006557482F07406A3F0900657E56AF0F8
:20641700E56BA3F0900659E9F0EEA3F0856982C007125FA7E582D0079006D6F00265049055
:2064370006C47458F07480A3F0900692C007C005C0041261F2D004D005D0079006D5E0F59B
