:0804FA00C200C201C202C203EC
:20052700AF822004058F820257D778067905C3E3F5F0E295F0501A7806E2FE780604F2905F
:2005470000BAE0FCA3E0FDEE2CF582E43DF583EFF022AF83E5829000BDF0EFA3F09000BDAE
:20056700E0FEA3E0FF9000BAEEF0EFA3F07806E4F29000BCE07805F2D20422C2047806E25D
:20058700F58222AD82AE83AFF08D828E838FF01274DEFC700122BC25028003020814C203E1
:2005A700C202C201C2000DBD00010E8D828E838FF01274DEFBBB6802800CBB6C10D2000D4D
:2005C700BD000A0E8007D2020DBD00010E8D828E838FF01274DEFBBB63028030BB6402809C
:2005E70018BB6F02802BBB7302800ABB7502800EBB78238010D201801D75080A8018750899
:200607000AD2038011750810D203800A7508008005750808D203300171A8811818E624FD19
:20062700FBA8811818A6038B01870909870A09870B1919C005C006C007AA09AB0AAF0B8A35
:20064700828B838FF01274DED007D006D0057003020825C005C006C007AA09AB0AAF0B8AFE
:20066700828B838FF01274DEFA0509E4B50902050A8A82C007C006C005120527D005D006FE
:20068700D007D007D006D00580A930036D300026A8811818E624FCFBA8811818A6038B01F3
:2006A7007801E7F209E708F209E708F209E708F219191902077230021DA8811818E614F9C2
:2006C700A8811818A60187037801EBF208E4F208F208F2020772A8811818E624FEFBA88161
:2006E7001818A6038B018702098703197801EAF208EBF208E4F208F28071300025A88118C0
:2007070018E624FCFBA8811818A6038B017801E7F209E708F209E708F209E708F2191919D0
:200727008049300221A8811818E614FBA8811818A6038B0187037801EBF2EB3395E008F24D
:2007470008F208F28025A8811818E624FEFBA8811818A6038B018702098703197801EAF285
:2007670008EBF2EB3395E008F208F2E50870030207FE300333900698747AF0E4A3F0744002
:20078700A3F090069BE508F07801E2F58208E2F58308E2F5F008E2C007C006C0051268EA0E
:2007A700D005D006D00780319006C1747AF0E4A3F07440A3F09006C4E508F07801E2F58203
:2007C70008E2F58308E2F5F008E2C007C006C005126A00D005D006D007797AE7FB603F8BA8
:2007E70082C007C006C005C001120527D001D005D006D0070980E47801E2F582C007C00600
:20080700C005120527D005D006D00780118C82C007C006C005120527D005D006D0070DBDD1
:2008270000010E020590E58124FCFFC007E58124FBF886820886830886F012058A15812252
:20084700AF827E007D00AB0CAC0D8F021FEA603B8B828C83E0FAA3AB82AC83ED2DF9ED309B
:20086700E714890009E89076EE936EFDE99076EE93F86AFE80D4890009E89075EE93F86E80
:1B088700FDE99075EE93F96AFE80BF8D07E4FDFCEE4205EC42078D828F83222C
:2075EE000000102120423063408450A560C670E781089129A14AB16BC18CD1ADE1CEF1EF7D
:20760E00123102103273225252B5429472F762D693398318B37BA35AD3BDC39CF3FFE3DE3C
:20762E00246234430420140164E674C744A45485A56AB54B85289509E5EEF5CFC5ACD58DFC
:20764E00365326721611063076D766F6569546B4B75BA77A97198738F7DFE7FED79DC7BCBC
:20766E0048C458E5688678A70840186128023823C9CCD9EDE98EF9AF89489969A90AB92B7C
:20768E005AF54AD47AB76A961A710A503A332A12DBFDCBDCFBBFEB9E9B798B58BB3BAB1A3C
:2076AE006CA67C874CE45CC52C223C030C601C41EDAEFD8FCDECDDCDAD2ABD0B8D689D49FC
:2076CE007E976EB65ED54EF43E132E321E510E70FF9FEFBEDFDDCFFCBF1BAF3A9F598F78BC
:2076EE00918881A9B1CAA1EBD10CC12DF14EE16F108000A130C220E350044025704660677C
:20770E0083B99398A3FBB3DAC33DD31CE37FF35E02B1129022F332D242355214627772563B
:20772E00B5EAA5CB95A88589F56EE54FD52CC50D34E224C314A004817466644754244405FB
:20774E00A7DBB7FA879997B8E75FF77EC71DD73C26D336F2069116B06657767646155634BB
:20776E00D94CC96DF90EE92F99C889E9B98AA9AB584448657806682718C008E1388228A37B
:20778E00CB7DDB5CEB3FFB1E8BF99BD8ABBBBB9A4A755A546A377A160AF11AD02AB33A923B
:2077AE00FD2EED0FDD6CCD4DBDAAAD8B9DE88DC97C266C075C644C453CA22C831CE00CC1FB
:2077CE00EF1FFF3ECF5DDF7CAF9BBFBA8FD99FF86E177E364E555E742E933EB20ED11EF0BB
:2008A200AF829002CDE0F5759000BF74FFF0A3F07406257524CCF582E43402F583EFF074B7
:2008C200072575FF7D01C3ED9F505AED24CCF582E43402F583E0FC9000BFE0FAA3E0FB8A0C
:2008E20000E86CF576C454F062768B027B00A87679008806E46202EE6203E9C40354F8C8CB
:20090200C403C868C854F8C868F9E86202E96203E576C4540FFE7C009000BFEE6AF0EC6B1D
:20092200A3F00D80A17406257524CCFEE43402FF9000BFE0FCA3E0FD8C028E828F83EAF0A4
:200942007407257524CCF582E43402F5838D04ECF0229002CC74FEF09002CD7409F07807ED
:20096200E2FF780704F29002CEEFF09002CF7433F09002D07444F09002D1746DF07890E2C0
:20098200FE08E2FF9002D2EEF0EFA3F0789AE2FE08E2FF9002D475F000EE126DEFA3EF1204
:2009A2006DEF12579CAF829002D875F000EF126DEF789EE2FF9002D675F000EF126DEF78DE
:2009C200A2E2FF9002D775F000EF126DEF789FE2FF9002D975F000EF126DEF78A3E2FF90B6
:2009E20002DA75F000EF126DEF7582B91208A2125470AE82AF83C3EE9411EF940050012267
:0B0A020078B87411F29002CC02533857
:200A0D00AE82AF83A3E0FDBD09178E828F83E0FCBCFE0E74052EFBE43FFC8B828C83E06027
:200A2D0038ED24F640358E828F83E0FDBDFD2C74072EFCE43FFD8C828D83E0701E74082E15
:200A4D00FCE43FFD8C828D83E0701074092EFEE43FFF8E828F83E07002D20A22E5829002B9
:200A6D00BBF09002B9E4F0780AF212574885820E85830F9002BBE0FDC3E50E9408E50F944A
:200A8D00005003020BDE900000C00512559D858210D00575110874FEB51002800E74FDB54B
:200AAD00100280079002B9E0F5822274FDB5101BE5112404F511900002C00512559DE58295
:200ACD00D00530E006740D2511F511900001C00512559D858210D00585111275130074FF78
:200AED00C39512FAE49513FF851014751500C3E5149AE51564808FF063F08095F040030277
:200B0D000BDEE5122514FEE5133515FF8D027B009002B9E0F516C005AC167D00EAC39CFAE9
:200B2D00EB9DFBC3EA9EEB64808FF063F08095F0D0055003020BDEE5122514FEE5133515B1
:200B4D00FFC3E50E9EE50F9F5003020BDEE5112510F510E51624BDFEE43401FF78B9E5101C
:200B6D00F28E828F83C0051255D59002B9E0FF7810E22FFC08E23400FE7B00EF24BDFFE44A
:200B8D003401FA9006DAEFF0EAA3F0E4A3F09006DDE510F0E4A3F08C828E838BF0126D4F9F
:200BAD009002B9E0FF7810E22FFF08E23400FE8F828E83120A0DD0059002B9E02510F0AC2E
:200BCD00107F00E50EC39CF50EE50F9FF50F020A859002B9E0F58222AF83E5829002C0F05D
:200BED00EFA3F0125F43E58260569002BDE0FEA3E0FF9002BFE0FD9002C0E0FBA3E0FC907C
:200C0D000664EDF0900665EBF0ECA3F090066774BCF07402A3F0E4A3F08E828F831260C634
:200C2D00E582601574EEC0E07477C0E07480C0E01244B81581158115819002BCE0F5822213
:200C4D009002C0E0FEA3E0FF7D009002BDE0FBA3E0FC8B178C188D199002BFE0F9F87C0025
:200C6D009006DAE517F0E518A3F0E519A3F09006DDE8F0ECA3F08E828F838DF0C001126D41
:200C8D004FD001898222AF82C007125F43E582D0076017EF24EF400475820022EF24DF4008
:200CAD00027F0FEF24E050027F1F200903020D6B9002B9E0FE8E1A751B00EF24DF50027FEA
:200CCD00208F027B00C3EA951AEB951B506EAB1A9002B9EBC39FF09002C2E0FAA3E0FB909D
:200CED0002BD74BDF07401A3F09002BFEFF08A828B83C007120BE5AB82D0078B1A751B00B3
:200D0D00EF24BDFAE43401FB8A1D8B1E751F009002B9E0FC7D009006DAE51DF0E51EA3F068
:200D2D00E51FA3F09006DDECF0EDA3F09001BD75F000126D4FD206AC1A8C8222C209D2064E
:200D4D009002C2E0FCA3E0FD9002BD74BDF07401A3F09002BFEEF08C828D83020BE5C20657
:200D6D00C00712574885821A85831BD0073008309002B9E0FEC3EF9E500475820022D205AE
:200D8D00C2089002C2E0FCA3E0FD9002BD74BDF07401A3F09002BFEEF08C828D83020BE515
:200DAD00C2058F057E00C3ED951AEE951B50048D1A8E1B9002B9E4F0E51A451B7003F58244
:200DCD002290059CE07045E51A451B603B9002C2E0FDA3E0FEAC1A78B9ECF28D828E83C0BD
:200DED00041255D5D00450209002B9ECF09002C2E0FDA3E0FE9002BDEDF0EEA3F09002BF8B
:200E0D00ECF09001BD020BE575820022780AE2B401028003020EA17401B51A06E4B51B0241
:200E2D008002806C125A6EAD82AE83780BD3E29DF4B3FDB308E29EF4FE780DC3E29D08E2A6
:200E4D009E50499002B9E0FE04F0EE24BDFEE43401FDC006C0051254D3AC82D005D0068E23
:200E6D00828D83ECF0780AE4F29002C2E0FDA3E0FE9002B9E0FC9002BD74BDF07401A3F04E
:200E8D009002BFECF08D828E83020BE575820022780AE4F2780AE27003020F26780AE2FD26
:200EAD007E00C3E51A9DE51B9E505A125A6EAD82AE83780BD3E29DF4B3FDB308E29EF4FE20
:200ECD00780DC3E29D08E29E5037AC1A78B9ECF29001BDC0041255D5D0049002B9ECF07899
:200EED000AE4F29002C2E0FDA3E0FE9002BD74BDF07401A3F09002BFECF08D828E83020B81
:200F0D00E5758200229002C2E0FDA3E0FE7810EDF208EEF28F82020A69E51A451B7003026B
:200F2D00110D900000C00712559D85821CD00774FEB51C02800A74FDB51C0280030210DBAE
:200F4D007401B51A06E4B51B028002802F9002B9E0600302110D780A7401F2125A6EE5827B
:200F6D008583F0780BF208E5F0F27808E2FC08E2FD780DECF208EDF275820022900001C02F
:200F8D000712559DAD82D007780AEDF2BDE60050208D037C0074192BFBE43CFC780FE2FA81
:200FAD007E00C3EA9BEE64808CF063F08095F05036780AE4F29002B9E0FE04F0EE24BDFEF0
:200FCD00E43401FCC007C006C0041254D3AB82D004D006D0078E828C83EBF0151A74FFB566
:200FED001A02151B020F2674082DFE780AF274FDB51C25780A74042EF2C37402951AE49564
:20100D001B5015900002C00712559DE582D00730E006780AE2240DF29002B9E06056125ABE
:20102D006EE5828583F0780BF208E5F0F2780AE2FD7E0078089006E5E2F008E2A3F08D825A
:20104D008E83126E3AE5828583F0780DF208E5F0F29002C2E0FDA3E0FE9002B9E0FC9002A8
:20106D00BD74BDF07401A3F09002BFECF08D828E83020BE5780AE2FD7E00C3E51A9DE51B00
:20108D009E5037125A6EE5828583F0780BF208E5F0F2780AE2FD7E0078089006E5E2F008ED
:2010AD00E2A3F08D828E83126E3AE5828583F0780DF208E5F0F2758200229002C2E0FDA342
:2010CD00E0FE7810EDF208EEF28F82020A699002B9E0FE04F0EE24BDFEE43401FDC007C0C9
:2010ED0006C0051254D3AC82D005D006D0078E828D83ECF0151A74FFB51A02151B020F2659
:20110D009002C2E0FEA3E0FF9002B9E0FD9002BD74BDF07401A3F09002BFEDF08E828F831E
:20112D00020BE5A20522A20622D20822E5829002C4F0E0780FF222AF83E5829002C5F0EF2A
:20114D00A3F09002C5E0FEA3E0FF9006CBEEF0EFA3F0E4A3F0A3F090000075F001E4126B16
:20116D00E9AC82AD83AEF0FF0CBC00090DBD00050EBE00010F7808ECF208EDF222E58290A4
:20118D0002C9F0200B3B9002C7E0FEA3E0FF7D009002C9E0FCFA7B009006DAEEF0EFA3F06F
:2011AD00EDA3F09006DDEAF0EBA3F09000C175F000C004126D4FD0049002BAECF0C207C307
:2011CD002220073F9002C9E0FF9002BAE0FEEFB506319002C7E0FDA3E0FE9006FAEDF0EE29
:2011ED00A3F0E4A3F09006FDEFF0E4A3F09000C175F000127070E5828583F045F07004C27D
:20120D0007D322D207C322AF83E5829002CAF0EFA3F07812C3E2F5F074FC95F050057812B8
:20122D0074FCF29002CAE0FEA3E0FF9006DAEEF0EFA3F0E4A3F078129006DDE2F0E4A3F0F6
:15124D009001BD75F000126D4F78129002B9E2F0C205D20922A0
:2077EE006572726F72207768696C6520747279696E6720746F20656E63727970742064614E
:03780E00746100A2
:060502009003C9740AF029
:2012620078A0E2FE08E2FF78A3E2FD7C00789FE2FB8B288C2978A2E2FB8B2A8C2B789EE25E
:20128200FB7A00C006C007C005C004C028C029C02AC02BC003C0027411C0E07478C0E07471
:2012A20080C0E012082DE58124F3F5817826E2FE7F00C007C006123899AC82AD83D006D061
:2012C20007789CE2F52A08E2F52B789AE2F52808E2F5297898E2F52C08E2F52D7896E2F5C9
:2012E2002E08E2F52F7894E2F53008E2F5317890E2F53208E2F5337892E2FA08E2FBC006D9
:20130200C007C004C005C02AC02BC028C029C02CC02DC02EC02FC030C031C032C033C00297
:20132200C003743DC0E07478C0E07480C0E012082DE58124EBF58178A0E4F208F2229003A8
:20134200C8E0FF30E00302126222AF827E00781D9006E5E2F008E2A3F08F828E83126E3A4F
:20136200AE82AF83781BE22EFE08E23F8E82F58322AF827813E2F5347814E2FC08E2FD7805
:2013820031E230E6467401B534107819E2FA08E2FB7814EAF208EBF280467402B534028028
:2013A200057403B5340F78137403F278147401F208E4F2802B7813E4F27830E2FA08E25424
:2013C2001FFB7814EAF208EBF2801578137402F27830E2FA08E2541FFB7814EAF208EBF2F3
:2013E2007813E2B40203EF6004C2138002D213A213920C7813E26002C20D7850E2540270D5
:20140200012278147945D3E29CF4B3F3B308E29DF409F37813E2B5346EC007781BE2FA0846
:20142200E2FB9007027402F0E4A3F08A828B83C003C00212714FAE82AF83D002D003784522
:20144200C3E2F5F0EE95F008E2F5F0EF648063F08095F0D0074030E49AFAE49BFB900702C1
:201462007402F0E4A3F08A828B83C00712714FAB82AE83D0077845C3E29B08E264808EF05C
:2014820063F08095F0504B7E007813E2FA7B00AC347D00C007C006C002C003C004C005748B
:2014A2007CC0E07478C0E07480C0E012082DE58124F7F5817845E2C0E008E2C0E0748FC024
:2014C200E07478C0E07480C0E012082DE58124FBF58122AE82AF83781FC3E29E08E29F5091
:2014E20008781FE4F208F2800A781FE2C39EF208E29FF27814C3E2F5F0EE95F008E2F5F052
:20150200EF95F050030217407813E2FC7D000CBC00010D9006ED7404F0E4A3F08C828D836D
:20152200C007C006126EEEAC82AD83D006D0077813ECF27814D3E29EF4B3FEB308E29FF486
:20154200FF7813E260067813E2B402107816E2FC08E2FD7814ECF208EDF2800E7819E2FCE3
:2015620008E2FD7814ECF208EDF27813E260067813E2B40125C007C006122C8512308CD029
:2015820006D0077853C3E2F5F0740195F0500B782AE4F208F2782EF208F27813E2600302EC
:2015A2001733C006C0077821E2FC7D007826E2F5358D36ECC39535FEED9536FFBE640ABFD8
:2015C2000007D007D006021733D007D006C006C007C007C006C005C0047822E2C0E008E2B3
:2015E200C0E008E2C0E008E2C0E090333375F073743F126B1885823785833885F039F53AC4
:20160200E58124FCF581D004D005D006D0077827E2F58208E2F583C005C0041272DEAA8205
:20162200AB83AEF0FFD004D005C007C006C005C004C002C003C006C00790000075F0A07403
:2016420040126B1885823B85833C85F03DF53EE58124FCF581D004D005D006D007781979EC
:2016620016E3C5F0E225F0FE09E3C5F008E235F0CE25E0CE33FF8E828F83C005C004127213
:20168200DEAA82AB83AEF0FFC002C003C006C007853B82853C83853DF0E53E12741BAA8239
:2016A200AB83AEF0FFE58124FCF581C002C003C006C0078537828538838539F0E53A127181
:2016C200C0AA82AB83AEF0FFE58124FCF581D004D0057822EAF208EBF208EEF208EFF27808
:2016E20027E4F208F2ECC39535FCED9536FD8C828D83127296AC82AD83AEF0FFC007C00607
:20170200C004C005C006C0077822E2F58208E2F58308E2F5F008E2126E0AE58124FCF5811D
:20172200D006D007E58224FF9214B39210D007D006C20CC20D781FE4F208F20214F578142D
:20174200E2C39EF208E29FF2227813E2FE7F0074022EFEE43FFF9006ED7404F0E4A3F08E17
:20176200828F83126EEEAE827813EEF2221234CEE582FF24EB40057826E4F222123899E57C
:20178200828583F0249CFEE5F034FFFFC3E49E74808FF063F08095F0E433FD700C7826E2E8
:2017A20060077826E214F28037C3740A9E74808FF063F08095F050087826E2240AF2802041
:2017C200C374059E74808FF063F08095F050087826E22405F28009ED60067826E22401F2FC
:2017E2007821E2FE7F007826E2FC7D00EEC39CFEEF9DFFC3EE9414EF6480948050087821EF
:201802007926E224ECF322300F099003C9E4F0C20F80079003C9E02401F09003C9E0FFBF05
:2018220002005004D2958006A20E9295B20EEF24D740030218C09003C97405F0125AC4E5EB
:201842008230E0597814E2FE08E2FF7819C3E29E08E29F5017781BD3E29EF4B3FCB308E25C
:201862009FF4FD7814ECF208EDF2800878147401F208E4F27850E2540260227814E2C0E09C
:2018820008E2C0E0C006C007749BC0E07478C0E07480C0E012082DE58124F9F5817850E276
:2018A2005402601574B5C0E07478C0E07480C0E012082D158115811581C219122CE79003D6
:2018C200C9E0603D122E0EAF827E00789EE29006E5F0E4A3F0900003C007C006126E3AAC63
:2018E20082AD83D006D007EC2FFCED3EC313CC13CCC313CC13CCFD789EECF278A0E4F2085C
:20190200F29003C9E0FF24FA50179006D7E4F09006D87404F0E4A3F09000A275F060126D0F
:201922002778509003C8E2F0D2119003CAE02401F0E0FFBF040812176F9003CAE4F022902F
:2019420003D175F000127403E5828583F02401FEE435F0FF9006DA74D1F07403A3F0E4A303
:20196200F09006DDEEF0EFA3F090003475F060126D4FD21222AF82BF02004017EF24EF40BA
:20198200129002CCE0FEBE520A9002CDE0FEBE54028002D3229006DA74CCF07402A3F0E488
:2019A200A3F09006DDEFF0E4A3F09003D175F000C007126D4FD007EF24D1F582E43403F529
:2019C20083E4F09003D17441F0784FEFF2D2179000BC74FCF09002CC1205591225FC120550
:2019E20082E582FF600A7812EFF29002CC121214C322125A6E784AE582F208E583F2784A94
:201A0200794CE2F308E209F378FF762A78FFB62A02801574C4C0E07478C0E07480C0E01235
:201A220044B8158115811581784EE2B44102801574D1C0E07478C0E07480C0E01244B8158A
:201A420081158115811225FC9003C8E060081213409003C8E4F0300A0E90059CE06008208C
:201A62001605C20A120954122C7512318D125A6EAA82AB83786774CCF2087402F2900047FF
:201A820075F060C003C002122D17D002D0034003021C5DD20FD219C003C002122CE7122E8B
:201AA2000EAD82D002D0037C00789EE29006E5F0E4A3F0900007C005C004C003C002126EC7
:201AC2003AAE82AF83D002D003D004D005EE2DFEEF3CC423CEC423541F6ECE541FCE6ECE0E
:201AE200789EEEF278A0E2FE08E2FF0EBE00010F78A0EEF208EFF2781FE4F208F27847E248
:201B0200B402005003021A0E7847E224FC24CCFEE43402FF9006DAEEF0EFA3F0E4A3F090F1
:201B220006DD7404F0E4A3F090003075F060C003C002126D4FD002D0037847E21414141473
:201B4200F27830E2FE08E2541FFF4E70417847E2603C7847E2B404209006DA74CCF07402E2
:201B6200A3F0E4A3F078479006DDE2F0E4A3F09000A275F060126D4F78A0E2FE08E2FF1E1A
:201B8200BEFF011F78A0EEF208EFF2021A0E7830E2FE08E2541FFF4E7003021A0E7847E2EB
:201BA200F582C003C002121373D002D003784AEAF208EBF27831E2C4035401FFBF010A787F
:201BC20047E2F58212197740387847E27003021A0E7831E230E503021A0E7831E22354013B
:201BE20024FF920B9002C774CCF07402A3F07847E2F58212118A5003021A0E301603021AEA
:201C02000E750CCC750D027847E2F582120847AE82AF837832E2FC08E2FDEEB50417EFB537
:201C22000513D296784779B7E2F39002CC12521EC296021A0E789CE2FE08E2FFBEFF06BF9D
:201C4200FF03021A0E789CE2FE08E2FF0EBE00010F789CEEF208EFF2021A0E125A6EAA8290
:201C6200AB83784A7948D3E29AF4B3F3B308E29BF409F37848E2F58208E2F583C003C002A0
:201C82001214D5D002D003784AEAF208EBF2784CD3E29AF4B3FCB308E29BF4FD7E007F0043
:201CA200C3E49C74809DE49E74808FF063F08095F05012C003C002121809D002D003784C7E
:201CC200EAF208EBF27829E27003021D4C122E14AF827829C3E2F5F0EF95F05016782A793B
:201CE20048E3C5F0E225F0F209E3C5F008E235F0F28036782AE4F208F2782EE2F5F008E2F8
:201D020045F07025126A9DAE82AF83782C9006F5E2F008E2A3F08E828F83126FC3E58285AC
:201D220083F0782EF208E5F0F2782C792EE3C5F0E225F0FE09E3C5F008E235F0FF782AC3DB
:201D4200E29E08E29F5003021A0E7813E26011200C03021A0E7813E2B402028003021A0EF2
:201D6200300D03021A0E781FE2F5F008E245F06003021A0E200F05122DF74005122DDE50D1
:201D820011781BE2FE08E2FF781FEEF208EFF2021A0E122E14AF827E00789FE29006E5F0E3
:201DA200E4A3F0900003C007C006126E3AAC82AD83D006D007EC2FFCED3EC313CC13CCC33F
:201DC20013CC13CCFD789FECF2301003021A0E7814791BC3E3F5F0E295F009E3F5F008E217
:201DE20095F05003021A0E7814791BE3F5F0C3E295F0FE09E3F5F008E295F0FF781D900665
:201E020089E2F008E2A3F08E828F8312670FAE82AF83BE14005003021A0EEE24FBFEC006BC
:201E2200125F43E582D006600CBE10005003021A0EEE24F0FE7818C3E29E50047818E2FE61
:201E420030125790003475F060C006127403AD82AF83D0068E037C00C3EB9DEC9F403B90EA
:201E6200003475F060C006127403AD827847EDF29006DA7434F0E4A3F07460A3F09006DDF2
:201E8200EDF0E4A3F09002CC75F000126D4FD0067831E24420F2C21280559002C274CCF077
:201EA2007402A3F08E82C006120C93AF82D0067847EFF2EF6019C007C006121133D006D0F8
:201EC200079215E433FD783113E292E5F280067831E254DFF2750CCC750D028F82C0061247
:201EE2000847AD82AF83D0067832EDF208EFF278477918C3E2F5F0E395F05019C00674E71C
:201F0200C0E07478C0E07480C0E01244B8158115811581D0067813E2B40203D38001C3928A
:201F220015E433783113E292E6F2C006121130D0069215E433FF783113E292E7F27813E249
:201F420070447847E2703F30113CBE04004037C2119006DA749EF0E4A3F07460A3F090060C
:201F6200DD7404F0E4A3F09002CC75F000126D4F78477404F27830E4F208E254E0F27831B2
:201F8200E2547FF28077125F43E58260487847E2FE7F0074042EFEE43FFFC4CEC4540F6ED3
:201FA200CE540FCE6ECE30E30244F00EEEC454F0F58212134CAE82AF837814E2C39EFE0878
:201FC200E29FFF7830EEF208EF541FF5F0E254E045F0F280287847E22404F58212134CAE64
:201FE20082AF837814E2C39EFE08E29FFF7830EEF208EF541FF5F0E254E045F0F2122C651F
:2020020012318D7847E224CCFEE43402FF7D009006DA7430F0E4A3F07460A3F09006DD7400
:2020220004F0E4A3F08E828F838DF0126D4F7847E2600E7830E2FE08E2541FFF4E6002D251
:20204200967847E27002D20D781BE2FE08E2FF781FEEF208EFF27821E2FE7F007826E2FCC6
:202062007D00EEC39CFEEF9DFFBE6405BF000280177847E22404F58212134CAE82AF837801
:2020820027E22EF208E23FF27847E22404FF7819E2FD08E2C313CD13CDFE7814E22DFD08B7
:2020A200E23EFE786F74CCF2087402F27871EDF208EEF28F82123059401A7847E260157833
:2020C20030E2FE08E2541FFF4E60097831E220E5031211367829E2600B782AE4F208F27817
:2020E2002EF208F27847E2600E7830E2FE08E2541FFF4E6002C2967816E2FE08E2C313CECD
:2021020013CEFF7814C3E2F5F0EE95F008E2F5F0EF95F05012125884500A1258DF400812C4
:20212200511F80F612511F122C7512318D12308C021A0E122E1AAF829006F1EFF0E4A3F052
:20214200A3F0A3F09003E8E4F5F0126F57AC82AD83AEF0FF9006CBECF0EDA3F0EEA3F0EF13
:20216200A3F090120075F07AE4126BE9AC82AD83AEF0FF74082CFCE43DFDE43EFEE43FFF00
:20218200EDC4CCC4540F6CCC540FCC6CCCFDEEC454F04DFDEFC4CEC4540F6ECE540FCE6E3A
:2021A200CE74012CFEE43DFF781DEEF208EFF29006E5EEF0EFA3F090000DC007C006126EAD
:2021C2003AE5828583F0D006D007240DFCE435F0FD781BECF208EDF230222E78187474F242
:2021E200EFCE25E0CE33FF781DEEF208EFF2EFCE25E0CE33CE25E0CE33FFEE2CFCEF3DFDE8
:20220200781BECF208EDF28005781874F8F2781B7919E2F308E2F5F0E325E0C5F033C5F0A3
:20222200F309E5F0F3781D9006F1E2F008E2A3F0E4A3F0A3F07818E2FC7D007E007F008CEF
:20224200828D838EF0EF126F5785823F85834085F041F542781BE2FA08E2FB7E007F009049
:2022620006F1E53F2AF0E5403BA3F0E5413EA3F0E5423FA3F0900003E4F5F0126F57AC82E2
:20228200AD83AEF0FF9003CDECF0EDA3F0EEA3F0EFA3F0782C7438F2087401F27829E2601C
:2022A2003A788474A8F2087403F208E4F208F27888ECF208EDF208EEF208EFF28C828D83DB
:2022C2008EF0EF124159AC82AD83AEF0FF9003CDECF0EDA3F0EEA3F0EFA3F09003CDE0FCED
:2022E200A3E0FDA3E0FEA3E0FFC3EC94A8ED9461EE9400EF9400401B7853C3E2F5F0740162
:2023020095F0500F9003CD74A8F07461A3F0E4A3F0A3F075820F123DB9AC82AD83AEF0FFF0
:202322009006F1ECF0EDA3F0EEA3F0EFA3F090003EE4F5F0126F5785823F85834085F04102
:20234200F5429003CDE0FAA3E0FBA3E0FEA3E0FFC3E53F9AE5409BE5419EE5429F503975C0
:20236200820F123DB9AC82AD83AEF0FF9006F1ECF0EDA3F0EEA3F0EFA3F090003EE4F5F04A
:20238200126F57AC82AD83AEF0FF9003CDECF0EDA3F0EEA3F0EFA3F09003CDE0FCA3E0FDED
:2023A200A3E0FEA3E0FFC374FF9C741F9DE49EE49F500F9003CD74FFF0741FA3F0E4A3F052
:2023C200A3F09003CDE0FCA3E0FDA3E0A3E07816ECF208EDF27866E27E0024F6FFEE34FFDB
:2023E200FE9007027402F0E4A3F08F828E83C005C00412714FAE82AF83781D9006E5E2F0A6
:2024020008E2A3F08E828F83126E3AAE82AF83D004D005781BE22EF208E23FF2781BD3E25E
:202422009CF4B3FCB308E29DF4FD781D900689E2F008E2A3F08C828D8312670FAE82AF8325
:202442009003CBEEF0EFA3F07818E2FC7D00C3EC9EED9F50089003CBECF0EDA3F09003CB88
:20246200E0FEA3E08E820211397819E2C0E008E2C0E074FCC0E07478C0E07480C0E01208B6
:202482002DE58124FBF5819000011259FD7816E2C0E008E2C0E07410C0E07479C0E07480DA
:2024A200C0E012082DE58124FBF5819000011259FD7818E2FE7F00C006C0077425C0E07416
:1624C20079C0E07480C0E012082DE58124FBF5819000010259FD2C
:207811004C2F5220525353493A2025752F257520204C2F52206E6F6973653A2025752F25D9
:207831007520706B74733A2025752000207478653D2575207278653D2575207374783D255D
:2078510075207372783D2575206563633D25752F257520637263653D25752074656D703DBC
:2078710025642064636F3D25750A0054444D3A2025752F2575206C656E3D257520002064BB
:20789100656C74613A2025640A0054444D3A206368616E67652074696D696E672025752F0E
:2078B10025750A0054444D3A207363616E6E696E670A00737461636B20626C6F776E0A0017
:2078D10070646174612063616E617279206368616E6765640A006F76657273697A65642000
:2078F10074646D207061636B65740073696C656E63655F706572696F643A2025750A007463
:20791100785F77696E646F775F77696474683A2025750A006D61785F646174615F70616398
:107931006B65745F6C656E6774683A2025750A0023
:0A050800784E7441F278527464F2E8
:2024D800AF828F06BE08028021BE0D028005BE7F36801775820A1257D7784FE224D1F58203
:2024F800E43403F583E4F0D21722784FE260667582081257D77582201257D77582081257E5
:20251800D7784FE214F222784FE2B4100050408F057E008D828E83C006C0051272A3E582B3
:202538008583F0D005D00645F0602A8D828E83127368AD828D07784FE2FE784F04F2EE24DB
:20255800D1F582E43403F583EFF08F820257D7C216784FE4F222AF82BF2B0280047851E483
:20257800F27851C3E2F5F0740495F0402C7851E275F003A4902590730225B502259F02255D
:202598009F0225A60225B57851E22401F22278517404F278527464F2227851E4F278527431
:2025B80064F2227852E2603B7852E214F27852E270317851E260087851E2B40426800678AB
:2025D800517401F222D2167851E4F29003D17441F09003D27454F09003D3E4F0784F7402E5
:2025F800F2D2172220170122784FE2B40200E433FF701A9003D1E0FEBE52129003D2E0FEC6
:20261800BE540A121941784FE4F2C21722EF60030226949003D1E0FFBF41619003D2E0FF8C
:20263800BF54599003D3E0FF6023BF26028023BF2B028023BF49028023BF4F028028BF50C1
:2026580002801EBF53028027BF5A2E802712269B802A1229DC8025122AE380201228348033
:202678001B122AE0801678527464F2C216800D122935800843EF1080FE1226BD784FE4F232
:20269800C217227445C0E07479C0E07480C0E07441C0E07479C0E07480C0E012082DE5818A
:2026B80024FAF581227448C0E07479C0E07480C0E07441C0E07479C0E07480C0E012082D12
:2026D800E58124FAF58122E5812404F5819003E3E4F0A3F0A3F0A3F09003E2E024D1F582FE
:2026F800E43403F583E0FFFD7E008D828E83C007126DC3E5828583F0D00745F0606E9003E0
:20271800E3E0FBA3E0FCA3E0FDA3E0FE9006F1EBF0ECA3F0EDA3F0EEA3F090000AE4F5F01E
:20273800C007126F57C8E58124FCC8A68208A68308A6F008F6D0077A00EF24D0FFEA34FF87
:20275800FA8F053395E0FEFFE58124FDF89003E3ED26F0EA0836A3F0EE0836A3F0EF08368F
:20277800A3F09003E2E02401F00226F0E58124FCF58122E5829003ECF0E0F5449003E7E0C5
:20279800FE754300C3E5439E400122C006C0061227AC800E9003EAE0C0E0A3E0C0E0854398
:2027B8008222A982AA83ABF0FCD006C006C004C003C002C0011227D2800E9003E8E0C0E034
:2027D800A3E0C0E08543822285824585834685F047D001D002D003D004D006AE437F00E587
:2027F80044F83395E0FDC006C001C002C003C004C045C046C047C006C007C000C005744E2A
:20281800C0E07479C0E07480C0E012082DE58124F2F581D0060543D00602279C9003D4E0A6
:20283800FF6030BF3002802BBF31028048BF32028065BF33030228CCBF34030228ECBF35D8
:202858000302290CBF360302292CBF370302292F0229327466C0E0747DC0E07480C0E07414
:2028780041C0E07479C0E07480C0E012082DE58124FAF58122747EC0E0747DC0E07480C004
:20289800E07441C0E07479C0E07480C0E012082DE58124FAF581227442C0E0E4C0E0745BBE
:2028B800C0E07479C0E07480C0E012082DE58124FBF58122788EE2FE7F00C006C007745B1A
:2028D800C0E07479C0E07480C0E012082DE58124FBF58122788FE2FE7F00C006C007745BF9
:2028F800C0E07479C0E07480C0E012082DE58124FBF581229003E77411F09003E8742AF0A3
:202918007441A3F09003EA74B9F0743DA3F075825302278B02246B0212620226BD9003E21A
:202938007403F01226DF9003E3E0FCA3E0FDA3E0FEA3E0FFBC110040030226BD9003E2E0E2
:20295800FF24D1F582E43403F583E0FEBE3D02803BBE3F6D8C82123DB9AA82AB83ADF0FE56
:202978009003E3EAF0EBA3F0EDA3F0EEA3F0C002C003C005C006745FC0E07479C0E074806C
:20299800C0E012082DE58124F9F58122EC60329003E2EF04F0C0041226DFD0049003E3E042
:2029B800FBA3E0FDA3E0FEA3E0FF7880EBF208EDF208EEF208EFF28C82123C5550030226C8
:2029D8009B0226BD9003D4E0FFBF4503022AC2BF46028017BF50028058BF54028056BF559E
:2029F800028014BF57028009022ADD12409002269B12403302269B9006E77464F07479A3BD
:202A1800F07480A3F09003D575F000126E5AE5828583F045F0701775B7A575B7F1758F0370
:202A380090F7FE74FFF0758F0043EF1080FE0226BD02174B9006E7746AF07479A3F07480CA
:202A5800A3F09003D575F000126E5AE5828583F045F070057850E4F2229006E7746BF0749B
:202A780079A3F07480A3F09003D575F000126E5AE5828583F045F070077850E26401F222D6
:202A98009006E77471F07479A3F07480A3F09003D575F000126E5AE5828583F045F0700713
:202AB8007850E26402F2220226BD9003D5E0FFBF3D028006BF3F0E0243929003D61242C6C4
:202AD800500302269B0226BD0226BD9003E27404F01226DF9003D4E0FFBF413C9003D5E040
:202AF800FFBF3D349003E27405F01226DF9003E3E0FCA3E0FDA3E0FEA3E0FFBC0111BD003A
:1B2B18000EBE000BBF0008758202123952800675820312395202269B0226BDA9
:2079410025730A004F4B004552524F5200256325753A25733D256C750A0025750A00256CEA
:15796100750A00504441544500003D52535349003D54444D0084
:202B3300AF83E582900420F0EFA3F0900420E0FEA3E0FF90041FE0FD7C008D027B001ABAC5
:202B5300FF011B8C007900C3E89AE964808BF063F08095F05046C007C006C005C004126A35
:202B73009DAA82D004D005D006D0078DF0EA84E5F02EFAE43FFB8A828B83E0F548C005EC35
:202B93002EF8E43FFD88828D83E0F98A828B83F088828D83E548F00CD005809E227582038D
:202BB300123DB9126AF7758210123DB9AC82AD83AEF0FFEC4D4E4F601412442285820C8523
:202BD300830D758220120847AF83026AF7227F007853C3E2F5F0EF95F0500FEF24EDF58205
:202BF300E43403F583EFF00F80E6122BB07853E2FF7E008F047D001CBCFF011D8E027B00B4
:202C1300C3EA9CEB64808DF063F08095F05042C007C006126A9DAC82D006D0078FF0EC84B2
:202C3300E5F024EDFCE43403FD8C828D83E0F549C007EE24EDFAE43403FF8A828F83E0FB78
:202C53008C828D83F08A828F83E549F00ED00780A2227854E224EDF582E43403F583E0F550
:202C730082227855E224EDF582E43403F583E0F582227854E2FE7F000EBE00010F7853E2A6
:202C9300FC7D009006EDECF0EDA3F08E828F83C005C004126EEEAE82AF83D004D0057854D9
:202CB300EEF230180778547955E2F3227854E270227855E2FE7F000EBE00010F9006EDEC8A
:202CD300F0EDA3F08E828F83126EEEAE82AF837855EEF222A2199218500778557954E2F385
:202CF300227855E2FE7F000EBE00010F78539006EDE2F0E4A3F08E828F83126EEEAE8278C8
:042D130055EEF22265
:202D1700AFF0AE83E582900520F0EEA3F0EFA3F0201A02C3227856C3E2F5F074FC95F050FF
:202D37000512308C8045900520E0FDA3E0FEA3E0FF8D828E838FF07856E2126DEF7867E2D1
:202D5700FD08E2FE7F009006DA7424F07404A3F0E4A3F078569006DDE2F0E4A3F08D828E57
:202D7700838FF0126D4F12308CD3227890E2FE08E2FFBEFF05BFFF02800C0EBE00010F7876
:202D970090EEF208EFF2C322AF8275A700C294C2B77586FF7869E2FD08E2FE8F041FEC6022
:202DB7001130B1FD8D828E83E0F586A3AD82AE8380E930B1FD74805584FFBF800280F6C203
:202DD700B7D29475A70022201A057857E26002D322758231123561E58230E402D322C32213
:202DF700A2A8921CC2A8101B028006A21C92A8D322A21C92A8C3227858E2F5822275822675
:202E17000235617863E2F58222758208123561AF8274014FFEC007C00675820812352B1500
:202E370081D0075307FEC00775820812352B158122758208123561AF8274024FFEC007C0B9
:202E57000675820812352B1581D0075307FDC00775820812352B158122E582FF240350193A
:202E7700C0077476C0E07479C0E07480C0E01244B8158115811581D007C007122E20D00724
:202E9700C007C00775823E12352B1581D007EFFE24DF50027E20786B7969E2F308E209F319
:202EB7008E82C007C006122D9FD006D007EFC39EFF786BE22EF208E23400F2C007E4C0E044
:202ED70075820512352B1581E4C0E075820612352B1581C21BC21D7409C0E0758207123530
:202EF7002B1581125A6EAC82AD83D007C007C005C004125A6EAA82AB83D004D005D007EAFD
:202F1700C39CFAEB9DFB786DC3E2F5F0EA95F008E2F5F0EB95F0400302303C758203C0072F
:202F3700C005C004123561AB82D004D005D007301D40EF603DEB30E5397E04BF04005002B3
:202F57008F06786B7969E2F308E209F38E82C007C006C005C004122D9FD004D005D006D0F2
:202F770007EFC39EFF786BE22EF208E23400F2022F03301D40EF603DEB20E6397E04BF0433
:202F97000050028F06786B7969E2F308E209F38E82C007C006C005C004122D9FD004D00506
:202FB700D006D007EFC39EFF786BE22EF208E23400F2022F03EB30E720122E207892E2FA6D
:202FD70008E2FEBAFF05BEFF02800C0ABA00010E7892EAF208EEF2C322758202C007C005DE
:202FF700C004123561AB82D004D005D007EB30E105D21D022F03201D03022F03EB30E1030A
:20301700022F03EF601D7892E2FE08E2FFBEFF05BFFF02800C0EBE00010F7892EEF208EF5B
:20303700F2C322D3227892E2FE08E2FFBEFF05BFFF02800C0EBE00010F7892EEF208EFF21D
:20305700C322E582900523F0A2A8921FC2A8900523E0FF786F796BE2F308E209F378717981
:203077006DE2F308E209F38F82122E70921EA21F92A8A21E22C2A8C21A7856E4F2C21B7884
:2030970057E4F27413C0E075820512352B15817440C0E075820612352B15811235D5122E0C
:2030B70020122E487405C0E075820712352B1581D2A8D3229000321259FD758201123561F9
:2030D700AF82BFFF028005BF05005002C322123635758201123561E582FF20E00612363562
:2030F700922022EF30E102D322C322AC82AD83AEF0FFC3ED941CEE944EEF940E400E74C0CB
:203117009C74F79D74BA9E74379F5002C322785BECF208EDF208EEF208EFF28C828D838E92
:20313700F0EF1236A1D322AC82AD83AEF0FFC374F09C74E89D74269EE49F5002C322787327
:203157007410F2087427F208E4F208F28C828D838EF0EF1235E1AC82AD83AEF0FF785FEC04
:20317700F208EDF208EEF208EFF2C00475827A12352B1581D322E582900524F07864E2FF8F
:20319700E0FEB50701227864EEF2C00675827912352B1581C21B227864E2F58222AF82C01A
:2031B70007E4C0E075820512352B1581E4C0E075820612352B15811235D57415C0E07582A4
:2031D7000B12352B15817412C0E075820C12352B158175820012395274B6C0E07582091224
:2031F700352B1581D007EF249B5010C00774C0C0E075825812352B1581D007785BE2FB085C
:20321700E2FC08E2FD08E28B828C838DF0C0071236A1785FE2FB08E208E208E2C003758273
:203237007A12352B1581D007302229C0077488C0E075823012352B15817402C0E0758233D1
:2032570012352B1581E4C0E075823212352B1581D0078040C007748DC0E075823012352B02
:2032770015817422C0E075823312352B1581740CC0E075823212352B158174FFC0E07582DE
:203297004312352B158174FFC0E075824412352B1581D007C007743CC0E075827C12352BA3
:2032B70015817420C0E075827D12352B15817432C0E075827E12352B158178667410F27822
:2032D70066E2FEC00675823412352B15817428C0E075823512352B158175820012348DD08E
:2032F700077E00EE90799393FDC39F50060EBE0C0040F0EEFF90799393FE7863F2BE200093
:2033170040047E0D80027E2D75820DC007C006123DB9AA82AB83ACF0FDD006D007EA4B4CE0
:203337004D600B7863E2FD247F4003430602C007C00675827012352B15817423C0E07582A9
:203357007112352B15817444C0E075821D12352B1581D0077863E2FEBEC8005012C00774B4
:203377000AC0E075821E12352B1581D0078010C0077402C0E075821E12352B1581D00778BF
:203397008EE2B4433A7E00EE75F00DA424A0FC747935F0FDEF2CF582E43DF583E493FDEE97
:2033B70090798793FCC007C006C0058C8212352B1581D006D0070EBE0C0040CB02348B78A6
:2033D7008EE2B447397E00EE75F00DA4243CFC747A35F0FDEF2CF582E43DF583E493FDEEB7
:2033F70090798793FCC007C006C0058C8212352B1581D006D0070EBE0C0040CB8076788EA3
:20341700E2B486397E00EE75F00DA424D8FC747A35F0FDEF2CF582E43DF583E493FDEE9099
:20343700798793FCC007C006C0058C8212352B1581D006D0070EBE0C0040CB80377E00EECB
:2034570075F00DA42474FC747B35F0FDEF2CF582E43DF583E493FDEE90798793FCC007C067
:2034770006C0058C8212352B1581D006D0070EBE0C0040CBD322E582900525F0E0FF7E0061
:20349700EE907C1093FDC39F50060EBE050040F0900526EEF0BE05069005267404F09005A8
:2034B70026E0FF907C1093FE7865EEF2C00775826D12352B1581227865E2F58222AF83E5C2
:2034D70082900527F0EFA3F0900527E0FEA3E0FF8E047859ECF28F05785AEDF2202234C04D
:2034F70007C006C005C00575823A12352B1581D005D006D007C006C005C00675823B1235D9
:203517002B158175823F12352B158175824012352B158122AF82A2A89238C2A875A700C2A7
:2035370094C2B774804FF58630B1FDA8811818868630B1FD74805584FFBF800280F6C2B78C
:20355700D29475A700A23892A822AF82A2A89238C2A875A700C294C2B78F8630B1FD758614
:203577000030B1FD74805584FFBF800280F6AF86C2B7D29475A700A23892A88F8222AF822B
:2035970075A700C294C2B775867F30B7FD8586E0E58124FDF886050886068F041FEC60162E
:2035B700C2B775860030B7FD8D828E83E586F0A3AD82AE8380E4C2B7D29475A700227582A6
:2035D70003123561758204023561AF82AE83ADF0FC7877EFF208EEF208EDF208ECF2787628
:2035F700E2C313FF18E213FE18E213FB18E213FA7877E22AFA08E23BFB08E23EFE08E23F7F
:20361700FF78739006CBE2F008E2A3F008E2A3F008E2A3F08A828B838EF0EF026BE9E4C07E
:20363700E075820512352B1581E4C0E075820612352B15811235D57481C0E0758207123510
:203657002B15819000021259C43087071259F550F8C322E4C0E075820512352B1581740288
:20367700C0E075820612352B15819000141259C41259F54013758203123561758204123524
:2036970061E58230E1EAD322C322AF82AE83ADF0FC787BEFF208EEF208EDF208ECF2787BFF
:2036B700C3E2F5F0E495F008E2F5F0743895F008E2F5F0749C95F008E2F5F0741C95F04078
:2036D70003023796787CE224C8F208E23463F208E234E3F29006CBE4F0742DA3F07431A336
:2036F700F07401A3F0787BE2F58208E2F58308E2F5F008E2126BE9AA82900529EAF0900694
:20371700F1EAF0E4A3F0A3F0A3F0902D0075F0317401126F57AC82AD83AEF0FF787BE2C3F7
:203737009CF208E29DF208E29EF208E29FF278737471F2087402F208E4F208F2787BE2F5A2
:203757008208E2F58308E2F5F008E21235E1787BC0E0E582F208E583F208E5F0F2D0E008B8
:20377700F2787BE225E0F208E233F208E233F208E233F2900529E0FF74204FF002385778CE
:203797007CE224E4F208E234B1F208E234F1F29006CB7480F07496A3F07498A3F0E4A3F000
:2037B700787BE2F58208E2F58308E2F5F008E2126BE9AC82900529ECF09006F1ECF0E4A373
:2037D700F0A3F0A3F090968075F098E4126F57AC82AD83AEF0FF787BE2C39CF208E29DF2C3
:2037F70008E29EF208E29FF278737471F2087402F208E4F208F2787BE2F58208E2F58308FD
:20381700E2F5F008E21235E1787BC0E0E582F208E583F208E5F0F2D0E008F2787BE225E017
:20383700F208E233F208E233F208E233F2181818E225E0F208E233F208E233F208E233F204
:20385700900529E0FF74404FF0787BE2FC08E2FDC005C004E0C0E075827512352B1581D0BC
:2038770004D0058D07C005C004C00775827612352B1581D004D005C00475827712352B159D
:203897008122D2EC20ECFDAFBE7E00ACBD7D00EC4206ED42078E828F83127296AA82AB83D6
:2038B700ACF0FDC002C003C004C00590FF2E75F0D1743F126B18AA82AB83ACF0FDE5812492
:2038D700FCF5818A828B838CF0ED127262AE82AF83EE24FFFCEF34FBFD8C828D8312729634
:2038F700AA82AB83ACF0FD749AC0E014C0E07459C0E07440C0E08A828B838CF0ED12741B77
:20391700AA82AB83ACF0FDE58124FCF581E4C0E0C0E074C8C0E07441C0E08A828B838CF0B6
:20393700ED1271C0AA82AB83ACF0FDE58124FCF5818A828B838CF0ED027262E58290052AD2
:20395700F0E0FF24FC4068EF2F2F903965730239710239C60239C60239967418C0E0758229
:203977000D12352B1581758208123561AF82741F5F4480FFC00775820812352B1581227529
:203997008208123561AF82741F5F4420FFC00775820812352B1581740AC0E075820D123521
:2039B7002B1581E4C0E075820E12352B158122758208123561AF8253071FC0077582081253
:2039D700352B1581740AC0E075820D12352B15817404C0E075820E12352B158122C027C0C2
:2039F700E0C0F0C082C083C007C006C005C004C003C002C001C000C0D075D000758204129D
:203A17003561AF82758203C007123561AE82D007EE30E4497857E2FC7D0074322CFCE43DF4
:203A3700FDC374FC9CE49D5003023AFF7857E22424FCE43404FDC007C006C004C005758279
:203A570032123595158115817857E22432F2758226123561E582D006D0077858F2EF30E67C
:203A770011D21B758226C006123561E582D0067858F2202204EE20E06FEE30E16975824B5A
:203A9700123561E582FF2403405E7857C3E2F5F0EF95F040537857C3E29F50227857E22482
:203AB70024FDE43404FE7857D3E29FF4FCC007C005C0068C8212359515811581D007785694
:203AD700EFF2D21AE4C0E075820512352B1581E4C0E075820612352B15817402C0E07582E4
:203AF7000712352B1581801E7890E2FE08E2FFBEFF05BFFF02800C0EBE00010F7890EEF25F
:203B170008EFF212308CD0D0D000D001D002D003D004D005D006D007D083D082D0F0D0E086
:033B3700D0273262
:207976006F76657273697A6564207061636B6574001C1F2021222324252A6E6F72020408ED
:207996001013182030406080C0FA2727272E1601050B9A888A8C8D030303030303030303C2
:2079B60003030303F4FA7D3F69A77D535E7D5E3F3020000102010001010101010202418382
:2079D600060C37C406895D065D0CAA8912254A4C9C25378625864AAB0001020402010203FC
:2079F600020202040785080E12728A0E18BB0EBBEAFF1D1D1D1E1E1E203041505050501092
:207A16002041839BC4080C101820314062C58912A69C314A6293C5270003060D1A1E263339
:207A36004D669ACDFEFE2B2B2B2E1601050B9A888A8C8D0303030303030303030303030358
:207A5600F4FA7D3F69A77D535E7D5E3F30200001020100010101010102024183060C37C4E0
:207A760006895D065D0CAA8912254A4C9C25378625864AAB0001020402010203020202045E
:207A96000785080E12728A0E18BB0EBBEAFF1E1E1E21212121304150505050102041839B6F
:207AB600C4080C101820314062C58912A69C314A6293C5270003060D1A1E26334D669ACDFE
:207AD600FEFE010101010101050B9A888A8C8D03030303030303030303030303D0E8F4FAEC
:207AF600D3A77D535E7D5E3F30E0602000000001010101010202102041839BC406895D06D0
:207B16005D0CAA62C58912A69C25378625864AAB00000001010102030202020407234485B1
:207B360008398A0E18BB0EBBEAFF1C1C1C1C1C1E20304150505050102041839BC4080C10DF
:207B56001820314062C58912A69C314A6293C5270003060D1A1E26334D669ACDFEFE010147
:207B760001010101050B9A888A8C8D03030303030303030303030303D0E8F4FAD3A77D53FF
:207B96005E7D5E3F30E0602000000001010101010202102041839BC406895D065D0CAA6204
:207BB600C58912A69C25378625864AAB0000000101010203020202040723448508398A0EAD
:207BD60018BB0EBBEAFF1E1E1E1E1E1E20304150505050102041839BC4080C101820314065
:1F7BF60062C58912A69C314A6293C5270003060D1A1E26334D669ACDFEFE11141B1D1ED8
:203B3A0075B7A575B7F122D310AF01C3C0D0123B3A758F0790000074FFF0758F00D0D092BA
:203B5A00AF22D310AF01C3C0D0AE82AF83758F048E828F83E493FF758F008F82D0D092AF9C
:203B7A0022D310AF01C3C0D0AE82AF83C007C006123B3AD006D007758F058E828F83787FDE
:0A3B9A00E2F0758F00D0D092AF2248
:02F7FE003DC20A
:203BA400AF82BF1100400122EF24F05003023C53EF2F2F903BBB73023BEB023BED023BF7EA
:203BC400023C09023C0B023C1D023C2F023C1D023C53023C53023C53023C53023C53023C1B
:203BE40053023C53023C41C322AF4A8F821257EB922122C3E4954A7401954BE4954CE4952D
:203C04004D504CC322D322C3741E954AE4954BE4954CE4954D5038C322C37401954AE4955D
:203C24004BE4954CE4954D5026C322C37402954AE4954BE4954CE4954D5014C322C37483E5
:203C4400954AE4954BE4954CE4954D5002C322D322AF827880E2F54A08E2F54B08E2F54C67
:203C640008E2F54D8F82C007123BA4D007400122BF0402801FBF0603023D5BBF0703023D43
:203C840098BF0B02802DBF0C02806FBF0E03023D70023D987880E2F582C00712348D1234CC
:203CA400CEAE82D0077880EEF208E4F208F208F2023D987884E4F208F208F208F278887476
:203CC40064F208E4F208F208F27880E2F58208E2F58308E2F5F008E2C007124159AB82AC00
:203CE40083ADF0FED0077880EBF208ECF208EDF208EEF27821EBF2023D987880E2F5F0082D
:203D0400E242F008E242F008E245F0604278847419F208E4F208F208F2788874DCF208E433
:203D2400F208F208F27880E2F58208E2F58308E2F5F008E2C007124159AB82AC83ADF0FEC3
:203D4400D0077880EBF208ECF208EDF208EEF278807929E2F3803D7880E2FE90059CF07861
:203D640080EEF208E4F208F208F280287880E2F5F008E242F008E242F008E245F024FF929A
:203D84002350047E0180027E007880EEF208E4F208F208F2EF75F004A4242BF5827405350F
:203DA400F0F5837880E2F008E2A3F008E2A3F008E2A3F0D322AF82BF11004007900000E4A5
:203DC400F5F022EF75F004A4242BF582740535F0F583E0FCA3E0FDA3E0FEA3E08C828D8382
:203DE4008EF02285824E85834F90058FE0FCA3E0FD900591E0FB8C018D028B007F00E82CB8
:203E0400F8EF3DFFC3E998EA9F5041E9C39CFEEA9DFFEE254EFEEF354FFF89828A83C007A1
:203E2400C006C005C004C003C002C001123B5CA882D001D002D003D004D005D006D0078EBC
:203E4400828F83E8F009B900B10A80AE854E0C854F0D8B82C002C001120847AE82AF83D064
:203E640001D002740129FCE43AFD8C828D83C007C006C002C001123B5CAD82D001D0028D80
:203E8400047D0089828A83C005C004123B5CAB82D004D005D006D0077A00EB4205EA4204F4
:203EA400EEB50506EFB504028002C322D322858250858351900592E0FCA3E0FD900594E00E
:203EC400FB8C528D538B027F00EA2CFAEF3DFFC3E5529AE5539F5036E552C39CFEE5539D84
:203EE400FFEE2550F582EF3551F583787FE0F2855282855383C005C004C003123B7BD00394
:203F0400D004D0050552E4B552BB055380B785500C85510D8B82120847AE82AF838E0478CA
:203F24007FECF2855282855383C007C006123B7BD006D00774012552FCE43553FD787FEF33
:203F4400F28C828D83023B7BD310AF01C3C0D0124090900000123B5CE582FF24BB4005BF4B
:203F640030005004C302402C90058F7401F0E4A3F0900591EFF090052B123DE74003024008
:203F84002C758200123DB9AC82AD83AEF0FFBC1A0BBD0008BE0005BF00028004C302402C18
:203FA4007F00EF75F004A4242BFD740535F0FE8D828E83E0F54AA3E0F54BA3E0F54CA3E051
:203FC400F54D8F82C007C006C005123BA4D005D006D0074032EF75F007A42415FB747C35FB
:203FE400F0FC8B828C83A3A3A3E493F9A3E493FAA3E493FBA3E493FC8D828E83E9F0EAA397
:20400400F0EBA3F0ECA3F00FBF4400409590058F7481F07401A3F09005917420F090056F09
:20402400123DE740028001D333D0D092AF1322D310AF01C3C0D090052B741AF0E4A3F0A329
:20404400F0A3F0123B41787F7444F2900000123B7B9005927401F0E4A3F09005947444F07E
:2040640090052B123EB2787F7420F2900180123B7B9005927481F07401A3F0900594742053
:20408400F090056F123EB2D0D092AF227F00EF75F004A4242BFD740535F0FEEF75F007A4C1
:2040A4002415FB747C35F0FC8B828C83A3A3A3E493F9A3E493FAA3E493FBA3E493FC8D82F4
:2040C4008E83E9F0EAA3F0EBA3F0ECA3F00FBF110040BB22AF827E008F037C007D40EE759F
:2040E400F007A42415F582747C35F0F583E493F8A3E493F9A3E493FA9006E7E8F0E9A3F07D
:20410400EAA3F08B828C838DF0C007C006126E5AE5828583F0D006D00745F060060EBE119A
:204124000040B58E8222AF82BF11005021EF75F007A42415F582747C35F0F583E493FDA38F
:20414400E493FEA3E493FF8D828E838FF02290000075F00022AC82AD83AEF0FF7884C3E259
:20416400F5F0EC95F008E2F5F0ED95F008E2F5F0EE95F008E2F5F0EF95F0500D7884E2FCE8
:2041840008E2FD08E2FE08E2FF7888C3E29C08E29D08E29E08E29F500D7888E2FC08E2FD68
:2041A40008E2FE08E2FF8C828D838EF0EF22AF82BF3000400DEF24C640088F06EE24D0F583
:2041C4008222BF4100400DEF24B940088F0674C92EF58222BF6100400BEF2499400674A9C3
:2041E4002FF5822275820022AF83E582900597F0EFA3F0900597E0FEA3E0FF900595E0F518
:2042040054A3E0F555788DE4F2788D798CC3E3F5F0E295F05068788DE275F002A4FAABF063
:204224002EF582EB3FF583E0F582C007C006C003C0021241B2AD82D002D003D006D007ED57
:20424400C454F0FD0ABA00010BEA2EF582EB3FF583E0F582C007C006C0051241B2AC82D0A8
:2042640005D006D007EC2DFD788DE22554F582E43555F583EDF0788DE22401F2808B22AFFE
:20428400829005997462F07E00C3EE9F5033EE246FFCE43405FD7B009006DA7499F074055B
:2042A400A3F0E4A3F09006DD04F0E4A3F08C828D838BF0C007C006126D4FD006D0070E80E3
:2042C400C822AF83E58290059AF0EFA3F0758210123DB9AC8253040F0CECC40354F8FF9079
:2042E400059AE0FDA3E0FE8D028E037C008A828B838CF0C007C006C005127403AB82D005AE
:20430400D006D007EF75F002A4FAACF08B56755700C3E5569AE55764808CF063F08095F023
:20432400502C8F82C004C002124283D002D004C002C004C056C057748CC0E0747CC0E07492
:2043440080C0E012082DE58124F9F581D3228F037C00C007C006C005C003C00474B0C0E059
:20436400747CC0E07480C0E012082DE58124FBF581D005D006D007900595746FF07405A338
:20438400F0788CEFF28D828E831241ECD322758210123DB9AC8253040F7D000CECC40354BD
:2043A400F8FF7E00C3EE9F505FEE246FF582E43405F583E0FD24F0401DC007C00674BCC02D
:2043C400E0747CC0E07480C0E012082D158115811581D006D007EE246FF582E43405F58392
:2043E400E0FD7C00C007C006C005C00474BEC0E0747CC0E07480C0E012082DE58124FBF593
:2044040081D006D0070E809C74C1C0E0747CC0E07480C0E012082D15811581158122900587
:024424006F2205
:207C1500C37C801A000000CA7C8039000000D77C8040000000E17C8019000000E77C801477
:207C3500000000EF7C8000000000F37C8001000000FB7C8000000000057D80000000000E4D
:207C55007D8000000000177D8000000000247D80640000002F7D8000000000387D80000018
:207C75000000437D80000000004A7D8083000000557D80000000004552524F52202D204B51
:207C95006579206C656E6774683A25752C2052657175697265642025750A006B6579206C55
:207CB500656E2025640A0030002578000A00464F524D41540053455249414C5F535045453D
:207CD50044004149525F5350454544004E45544944005458504F57455200454343004D4199
:207CF500564C494E4B004F5050524553454E44004D494E5F46524551004D41585F465245A8
:207D150051004E554D5F4348414E4E454C5300445554595F4359434C45004C42545F525367
:207D35005349004D414E4348455354455200525453435453004D41585F57494E444F5700A8
:117D5500454E4352595054494F4E5F4C4556454C003B
:060400000204A10239F420
:01040B0032BE
:0104130032B6
:01041B0032AE
:03042300024E5B2B
:03042B00025A066C
:010433003296
:01043B00328E
:010443003286
:01044B00327E
:010453003276
:01045B00326E
:010463003266
:01046B00325E
:0304730002597CAF
:01047B00324E
:010483003246
:01048B00323E
:010493003236
:03049B00025F2CD1
:0305240002049E30
:03049E00024426EF
:20442600AFC4788EEFF2AFC3788FEFF2123F4C4003124090758206123DB9AC8290059CECB0
:20444600F0758205123DB9AC82AD83AEF0FFEC4D4E4F24FF922275820E123DB9AC82AD834F
:20446600AEF0FFEC4D4E4F24FF92231244F212457612308C40157482C0E0747DC0E0748098
:20448600C0E01244B8158115811581758210123DB9AC828C82125FAE4015749CC0E0747D46
:2044A600C0E07480C0E01244B81581158115810219F4907DB575F0801272EAE58124FCFF49
:2044C600C007E58124FBF886820886830886F012058A1581907DC075F0801272EAD2AFD251
:2044E600AC9003E81259FD43EF1080FEAFD974BF5FF5D975B28F75B64075A90075FF807ECE
:204506005E7F011EBEFF011FEE4F70F775EF0675A41075A70F75A41075A70075E10143E299
:204526004043A5F575A70F43A5F5E5A675A6FF75A70075844075B00075850043B001D294DD
:2045460075A700C289125AAC758201123DB9AC828C8212502675B800D2AFC295C296D2EFF4
:2045660075BCF975BA0075BB1B75D10775E340221230CB401574C1C0E0747DC0E07480C00E
:20458600E01244B8158115811581788EE2B44302801C788EE2B447028044788EE2B486021B
:2045A600806C788EE2B4910302464202467190059D7490F074D1A3F074CFA3F07419A3F0A2
:2045C6009005A17470F0745EA3F074EAA3F07419A3F09005A9740AF07853F20246A9900566
:2045E6009D7480F074A1A3F07403A3F0741CA3F09005A174C0F074E3A3F07412A3F0741C72
:20460600A3F09005A9740AF07853F20246A990059DE4F074A1A3F074BCA3F07433A3F0906C
:2046260005A17480F07425A3F074DBA3F07433A3F09005A9740AF07853F2806790059D74AC
:20464600C0F074CAA3F07489A3F07436A3F09005A1E4F07428A3F023A3F07437A3F0900544
:20466600A97414F078537432F2803890059DE4F0A3F0A3F0A3F09005A1F0A3F0A3F0A3F05A
:204686009005A9F0788EE2FE7F00C006C00774D9C0E0747DC0E07480C0E01244B8E581244A
:2046A600FBF58175820A123DB9AC82AD83AEF0FFEC4D4E4F601175820A123DB9AC82AD83D1
:2046C600AEF0FF7853ECF2758208123DB9AC82AD83AEF0FFEC4D4E4F6039758208123DB916
:2046E600AC82AD83AEF0FF9006F1ECF0EDA3F0EEA3F0EFA3F09003E8E4F5F0126F57AC8289
:20470600AD83AEF0FF90059DECF0EDA3F0EEA3F0EFA3F0758209123DB9AC82AD83AEF0FF32
:20472600EC4D4E4F6039758209123DB9AC82AD83AEF0FF9006F1ECF0EDA3F0EEA3F0EFA30B
:20474600F09003E8E4F5F0126F57AC82AD83AEF0FF9005A1ECF0EDA3F0EEA3F0EFA3F07542
:204766008204123DB9AC82AD83AEF0FFEC4D4E4F6012758204123DB9AC82AD83AEF0FF90D4
:2047860005A9ECF09005A9E0FF7E007D007C0078847411F208E4F208F208F27888741EF22C
:2047A60008E4F208F208F28F828E838DF0EC124159AC827853E2FB7D007E007F007884742A
:2047C60001F208E4F208F208F278887432F208E4F208F208F28B828D838EF0EFC004124103
:2047E60059AB82AD83AEF0FFD0047853EBF2788EE2B44302801E788EE2B447030248BD7800
:204806008EE2B48603024962788EE2B49103024A07024AA990059DE0FBA3E0FDA3E0FEA30F
:20482600E0FF78847480F2087423F20874ADF2087418F27888E4F208740BF208746BF2084F
:20484600741BF28B828D838EF0EFC004124159AB82AD83AEF0FF90059DEBF0EDA3F0EEA3BF
:20486600F0EFA3F09005A1E0FBA3E0FDA3E0FEA3E0FF78847480F2087423F20874ADF20896
:204886007418F27888E4F208740BF208746BF208741BF28B828D838EF0EF124159AB82ADD3
:2048A60083AEF0FFD0049005A1EBF0EDA3F0EEA3F0EFA3F0024ACC90059DE0FBA3E0FDA322
:2048C600E0FEA3E0FF78847480F2087474F20874D2F208741AF278887480F20874CEF208BC
:2048E6007434F208741DF28B828D838EF0EFC004124159AB82AD83AEF0FF90059DEBF0ED9F
:20490600A3F0EEA3F0EFA3F09005A1E0FBA3E0FDA3E0FEA3E0FF78847480F2087474F2089B
:2049260074D2F208741AF278887480F20874CEF2087434F208741DF28B828D838EF0EF12C6
:204946004159AB82AD83AEF0FFD0049005A1EBF0EDA3F0EEA3F0EFA3F0024ACC90059DE02B
:20496600FBA3E0FDA3E0FEA3E0FF78847440F20874B6F208749AF2087432F278887440F29F
:20498600087410F20874FDF2087434F28B828D838EF0EFC004124159AB82AD83AEF0FF9002
:2049A600059DEBF0EDA3F0EEA3F0EFA3F09005A1E0FBA3E0FDA3E0FEA3E0FF78847440F2BB
:2049C6000874B6F208749AF2087432F278887440F2087410F20874FDF2087434F28B828D3A
:2049E600838EF0EF124159AB82AD83AEF0FFD0049005A1EBF0EDA3F0EEA3F0EFA3F0024A67
:204A0600CC90059DE0FBA3E0FDA3E0FEA3E0FF7884E4F20874A1F20874BCF2087433F27810
:204A26008874C0F20874F7F20874BAF2087437F28B828D838EF0EFC004124159AB82AD8339
:204A4600AEF0FF90059DEBF0EDA3F0EEA3F0EFA3F09005A1E0FBA3E0FDA3E0FEA3E0FF7817
:204A660084E4F20874A1F20874BCF2087433F2788874C0F20874F7F20874BAF2087437F2A4
:204A86008B828D838EF0EF124159AB82AD83AEF0FFD0049005A1EBF0EDA3F0EEA3F0EFA368
:204AA600F08023788EE2FE7F00C004C006C00774D9C0E0747DC0E07480C0E01244B8E58121
:204AC60024FBF581D0049005A1E0FBA3E0FDA3E0FEA3E0FF90059DE0F558A3E0F559A3E020
:204AE600F55AA3E0F55BEBB55825EDB55921EEB55A1DEFB55B199005A174402558F0744216
:204B06003559A3F0740F355AA3F0E4355BA3F075820BC004123DB9AB827821EBF27F007E54
:204B2600007D007884E4F208F208F208F278887464F208E4F208F208F28B828F838EF0ED0C
:204B4600124159AB827821EBF27880EBF208E4F208F208F275820B123C5575820C123DB9A9
:204B6600AB82AD83AEF0FFD0047829EBF2EB60377F007E007D0078847419F208E4F208F294
:204B860008F2788874DCF208E4F208F208F28B828F838EF0EDC004124159AB82AD83AEF00C
:204BA600FFD0047829EBF2C00478297980E2F309E4F309F309F375820CC004123C55900693
:204BC600CB74E8F07403A3F0E4A3F0A3F0855882855983855AF0E55B126BE9AB82AD83AE64
:204BE600F0FF7880EBF208EDF208EEF208EFF2758208123C55D0049005A1E0F55CA3E0F5DE
:204C06005DA3E0F55EA3E0F55F9006CB74E8F07403A3F0E4A3F0A3F0855C82855D83855E18
:204C2600F0E55F126BE9AA82AC83AEF0FF7880EAF208ECF208EEF208EFF2758209C004127B
:204C46003C5578537980E2F309E4F309F309F375820A123C55D004E55CC39558FCE55D9510
:204C660059FDE55E955AFEE55F955BFF7853E2FA7B0074022AFAE43BFB9006CBEAF0EBA3D6
:204C8600F0EB3395E0A3F0A3F08C828D838EF0EF126BE9AC82AD83AEF0FF9005A5ECF0ED76
:204CA600A3F0EEA3F0EFA3F0EFC313FFEE13FEED13FDEC1390059D2558F0ED3559A3F0EEFE
:204CC600355AA3F0EF355BA3F0758203123DB9AC82C004126AF7D0047853C3E2F5F0740591
:204CE60095F0D0044003024D79C004C004126A9DAE82AF839006E5EEF0EFA3F09002711257
:204D06006E3AAE82AF83D0048E5CEFF55D3395E0F55EF55F9005A5E0FAA3E0FCA3E0FEA37E
:204D2600E0FF90068FEAF0ECA3F0EEA3F0EFA3F0855C82855D83855EF0E55FC0041267A948
:204D460085825C85835D85F05EF55FD00490059DE0FAA3E0FBA3E0FEA3E0FF90059DE55C8A
:204D66002AF0E55D3BA3F0E55E3EA3F0E55F3FA3F0D00490059DE0FBA3E0FDA3E0FEA3E074
:204D86008B828D838EF0C004123102D0049005A5E0FBA3E0FDA3E0FEA3E08B828D838EF061
:204DA600C00412313E758203123DB9AB82AD83AEF0FF785390068FE2F0E4A3F0A3F0A3F04D
:204DC6008B828D838EF0EF1267A912318D758202123DB91231B4D0044037758202C004123F
:204DE6003DB91231B4D0044028758202C004123DB91231B4D0044019C00474F0C0E0747DE2
:204E0600C0E07480C0E01244B8158115811581D004C004122E1AAF827880EFF208E4F208A6
:204E2600F208F2758202123C55758203123DB91234D4D0048C8212348D1234CEAF827880D6
:154E4600EFF208E4F208F208F2758204123C55122BE102213590
:207D66005246442053694B20322E302D45206F6E2052464439303000322E30006661696C1A
:207D8600656420746F20656E61626C65207265636569766572006661696C656420746F208D
:207DA600696E697469616C69736520616573000A2A2A50414E49432A2A0000726164696F0D
:207DC6005F696E697469616C697365206661696C65640062616420626F61726420667265E2
:207DE6007175656E637920256400726164696F5F636F6E666967757265206661696C65648A
:017E0600007B
:1205120078A6742CF2087401F278A87490F2087401F233
:204E5B00C027C0E0C0F0C082C083C007C006C005C004C003C002C001C000C0D075D000107A
:204E7B009803024F70AF9930160E301703024F708F821224D8024F708F82C00712256ED0E7
:204E9B000778AAE22401FD08E23400FEBD0009BE04067D007E00800B78AAE22401FD08E28A
:204EBB003400FE78ACE2B5050708E2B50602803A78AAE2240DF58208E23407F583EFF078DD
:204EDB00AAE22401FD08E23400FEBD0009BE04067D007E00800B78AAE22401FD08E2340095
:204EFB00FE78AAEDF208EEF2801B7896E2FD08E2FEBDFF05BEFF02800C0DBD00010E78964D
:204F1B00EDF208EEF278AA79ACC3E3F5F0E295F009E3F5F008E295F0401B78ACE22400FDB4
:204F3B0008E23404FE78AAD3E29DF4B3FDB308E29EF4FE801578AC79AAE3F5F0C3E295F023
:204F5B00FD09E3F5F008E295F0FEC3ED9411EE94005002D282109903024FED78AE79B0E263
:204F7B00F5F0E3B5F00B08E2F5F009E3B5F002805F3023203083172016149005AAE0FEE0D9
:204F9B007004D224804CEE149005AAF080069005AA7408F078B0E2240DF58208E2340BF58E
:204FBB0083E0FF78B0E22401FD08E23400FEBD0009BE02067D007E00800B78B0E22401FDEE
:204FDB0008E23400FE78B0EDF208EEF28F998002D224D0D0D000D001D002D003D004D0057C
:204FFB00D006D007D083D082D0F0D0E0D0273278AE79B0E2F5F0E3B5F00A08E2F5F009E348
:20501B00B5F001223024030254C422AF82C2AC78AAE4F208F278ACF208F278AEF208F278EF
:20503B00B0F208F278B2F208F278B4F208F2D224C28EAE89740F5E4420F5898F82125811BF
:20505B00D28E759810C282D2AC22AF82C007125470AD82AE83D007C3ED9401EE94005002B6
:20507B00C3228F82125084D322AF82A2AC9238C2AC78AEE22401FD08E23400FEBD0009BEC3
:20509B0002067D007E00800B78AEE22401FD08E23400FE78B0E2B5050708E2B506028044EB
:2050BB0078AEE2240DF58208E2340BF583EFF078AEE22401FE08E23400FFBE0009BF0206CF
:2050DB007E007F00800B78AEE22401FE08E23400FF78AEEEF208EFF2302424C0271254C46D
:2050FB00D027801B7894E2FE08E2FFBEFF05BFFF02800C0EBE00010F7894EEF208EFF2A2CD
:20511B003892AC2278B279B4E2F5F0E3B5F00C08E2F5F009E3B5F00302521C125F43E5823C
:20513B00700302521C78B4E2240DFE08E2340DFF8E828F83E07011D22510AF02C22578B4BC
:20515B00E4F208F2A22592AF78B4E22401FE08E23400FFEE240DFEEF340DFF78B4E2240D83
:20517B00F58208E2340DF583E090066EF090066F74ABF07405A3F090067174B6F07400A3CE
:20519B00F07460A3F08E828F83126298E58260157407C0E0747EC0E07480C0E01244B8152F
:2051BB00811581158178B679B8E2F39005AB12533878B4E2240DF58208E2340DF583E0FFDE
:2051DB0078B6F278B4E2240DF58208E2340DF583E4F0D22510AF02C2257E000FBF00010E6D
:2051FB0078B4E22FF208E23EF278B4C3E294A808E29402400678B4E4F208F2A22592AFD3A1
:20521B0022C322AF83E5829005CBF0EFA3F0125F43E582700302532378B2E22401FE08E2E2
:20523B003400FF74A8C39EFE74029FFF78B7E2FC7D00C3EE9CEF9D500678B2E4F208F2C01E
:20525B0005C004125932AE82AF83D004D005C3EE9CEF9D501B7894E2FE08E2FFBEFF04BF29
:20527B00FF01220EBE00010F7894EEF208EFF22278B2E2240DF58208E2340DF58378B7E2B6
:20529B00F078B2E22401FE08E23400FFEE240DFEEF340DFF8E608F617562009005CBE0FA7C
:2052BB00A3E0FF9006DAEAF0EFA3F0E4A3F09006DDECF0EDA3F08560828561838562F01286
:2052DB006D4FD22610AF02C22678B7E2FE7F000EBE00010F78B2E22EF208E23FF278B2C3B8
:2052FB00E294A808E29402400B78B2E22458F208E234FDF2A22692AF78B2E2240DF582085E
:20531B00E2340DF583E4F0229005CBE0FEA3E0FF78B779B8E2F38E828F83025338AF83E526
:20533B00829005CDF0EFA3F078B8E2700122125470AE82AF8378B8E2FC7D00C3EE9CEF9DBB
:20535B00501F78B8EEF27894E2FE08E2FFBEFF05BFFF02800C0EBE00010F7894EEF208EF11
:20537B00F278B8E2FF78AED3E29400F4B3FDB308E29402F4FE8F037C00C3ED9BEE9C50089C
:20539B0078AEE2FEC3E49EFF78AEE2240DFD08E2340BFE7C009005CDE0FAA3E0FB9006DAA5
:2053BB00EAF0EBA3F0E4A3F09006DDEFF0E4A3F08D828E838CF0C007C003C002126D4FD0B4
:2053DB0002D003D0079005CDEF2AF0E43BA3F078B8E2C39FF2D22710AF02C2277E0078AE3C
:2053FB00E22FF208E23EF278AEC308E29402400678AFE224FEF2A22792AF78B8E260449059
:20541B0005CDE0FEA3E0FF9006DAEEF0EFA3F0E4A3F078B8E2FE7F009006DDEEF0EFA3F096
:20543B00900B0D75F000C007C006126D4FD006D007D22710AF02C22778AEEEF208EFF2A208
:20545B002792AFD22710AF02C2273024031254C4A22792AF22A2AC9228C2AC78AE79B0C3F1
:20547B00E3F5F0E295F009E3F5F008E295F0401B78B0E22400FE08E23402FF78AED3E29E83
:20549B00F4B3FEB308E29FF4FF801578B079AEE3F5F0C3E295F0FE09E3F5F008E295F0FF0A
:2054BB00A22892AC8E828F832230230730830420160122C224D29922A2AC9229C2AC78AA0F
:2054DB0079ACE2F5F0E3B5F00B08E2F5F009E3B5F002803A78ACE2240DF58208E23407F54E
:2054FB0083E0FF78ACE22401FD08E23400FEBD0009BE04067D007E00800B78ACE22401FDAF
:20551B0008E23400FE78ACEDF208EEF280027F0078AA79ACC3E3F5F0E295F009E3F5F00856
:20553B00E295F0401B78ACE22400FD08E23404FE78AAD3E29DF4B3FDB308E29EF4FE80156D
:20555B0078AC79AAE3F5F0C3E295F0FD09E3F5F008E295F0FEC374229DE49E5002C282A20C
:20557B002992AC8F8222A2AC922AC2AC78ACE2240DF58208E23407F583E0FFA22A92AC8F3B
:20559B008222AF83E5829005CFF0EFA3F0A2AC922BC2AC9005CFE0FEA3E0FF78ACE22EFE6E
:2055BB0008E23FFF530703EE240DF582EF3407F583E0FFA22B92AC8F8222AF83E5829005C8
:2055DB00D1F0EFA3F0125748AE82AF8378B9E2FC7D00C3EE9CEF9D5002C3228C038D027828
:2055FB00ACD3E29400F4B3FCB308E29404F4FDC3EC9BED9A501078ACD3E29400F4B3FBB3DF
:20561B0008E29404F4FA9005D1E0FCA3E0FD8C638D6475650078ACE2240DFE08E23407FF2A
:20563B009006DAEEF0EFA3F0E4A3F09006DDEBF0EAA3F08563828564838565F0C005C00404
:20565B00C003C002126D4FD002D003D004D0058B0678B9E2C39EF29005D1EB2CF0EA3DA360
:20567B00F0D22C10AF02C22C78ACE22BF208E23AF278ACC308E29404400678ADE224FCF271
:20569B00A22C92AF78B9E260489005D1E0FEA3E0FF7D009006DA740DF07407A3F0E4A3F07C
:2056BB0078B9E2FB7C009006DDEBF0ECA3F08E828F838DF0C004C003126D4FD003D004D20B
:2056DB002C10AF02C22C78ACEBF208ECF2A22C92AFD22C10AF02C22C78AA79ACC3E3F5F05F
:2056FB00E295F009E3F5F008E295F0401B78ACE22400FE08E23404FF78AAD3E29EF4B3FE2A
:20571B00B308E29FF4FF801578AC79AAE3F5F0C3E295F0FE09E3F5F008E295F0FFC37422DB
:20573B009EE49F5002C282A22C92AFD322A2AC922DC2AC78AA79ACC3E3F5F0E295F009E3F3
:20575B00F5F008E295F0401778AA79ACE3F5F0C3E295F0FE09E3F5F008E295F0FF801978FC
:20577B00ACD3E29400F4B3FCB308E29404F4FD78AAE22CFE08E23DFFA22D92AC8E828F83CD
:20579B0022125748AE82AF83E4C39EFE74049FC423CEC423541F6ECE541FCE6ECEFF900602
:2057BB00E5EEF0EFA3F0900064126E3AAE82E583A2E7CE33CE33CE54018E8222AF82BF0A69
:2057DB000A75820DC007125084D0078F82025084AF827E00BE0900501BEE75F003A4242A0C
:2057FB00F582747E35F0F583E493FDEFB50502D3220E80E0C322AF827E00BE0900501BEE52
:20581B0075F003A4242AF582747E35F0F583E493FDEFB5050280030E80E09005D3EEF0BEF9
:20583B0009069005D37406F09005D3E075F003A4242AFD747E35F0FE8D828E83A3E493F589
:20585B008DAC8E5304F48D828E83A3A3E4934CF58E9006F1EFF0E4A3F0A3F0A3F090007D5F
:20587B00E4F5F0126F5702114478B279B4C3E3F5F0E295F009E3F5F008E295F0401B78B405
:20589B00E224A8FE08E23402FF78B2D3E29EF4B3FEB308E29FF4FF801578B479B2E3F5F01D
:2058BB00C3E295F0FE09E3F5F008E295F0FF78A6C3E2F5F0EE95F008E2F5F0EF95F05002B6
:2058DB00D322C32278B279B4C3E3F5F0E295F009E3F5F008E295F0401B78B4E224A8FE080F
:2058FB00E23402FF78B2D3E29EF4B3FEB308E29FF4FF801578B479B2E3F5F0C3E295F0FE49
:20591B0009E3F5F008E295F0FF78A8C3E29E08E29F5002D322C32278B279B4C3E3F5F0E251
:20593B0095F009E3F5F008E295F0401B78B4E224A8FE08E23402FF78B2D3E29EF4B3FEB360
:20595B0008E29FF4FF801578B479B2E3F5F0C3E295F0FE09E3F5F008E295F0FF8E828F8373
:01597B002209
:207E07006572726F72207768696C6520747279696E6720746F206465637279707420646138
:1E7E2700746100012C02029602042C0009960013600126B001392B08739608E6CB084F
:207E65000000000000000000000000000000000000000000000000000000000000000000FD
:207E85000000000000000000000000000000000000000000000000000000000000000000DD
:207EA5000000000000000000000000000000000000000000000000000000000000000000BD
:207EC50000000000000000000000000000000000000000000000000000000000000000009D
:20597C00C027C0E0C0F0C082C083C007C006C005C004C003C002C001C000C0D075D00075E9
:20599C0091041225BBE56660021566D0D0D000D001D002D003D004D005D006D007D083D0DD
:2059BC0082D0F0D0E0D02732AE82AF83C3EE94F6EF940940047566FF2274092EFEE43FFF7C
:2059DC00900689740AF0E4A3F08E828F8312670FAE828E662285826622E566B40100922E68
:2059FC00221259C41259F550FB22C027C0E0C0F0C082C083C007C006C005C004C003C00216
:205A1C00C001C000C0D075D00075C80474012567F567E43568F56830230312500AD0D0D066
:205A3C0000D001D002D003D004D005D006D007D083D082D0F0D0E0D02732AFCDAECCEFB5A6
:205A5C00CDF88F05E4FFFCEE4207EC42058F828D8322AE67AF68C007C006125A56AC82ADEF
:205A7C0083D006D007EEB567E9EFB568E5EEC40354F8FF7E00EDC403CCC40354076CCC544A
:205A9C0007CC6CCCFDEC4206ED42078E828F83227592407593B075910443E68075CA0075CE
:0C5ABC00CB0075C804D2AD2285CC82223C
:205AC800E5829005DCF0E0FFBF03028005BF070040047582012274035F2402C40354F8FE9D
:205AE8009005DAE0FCA3E0C454F0CCC4CC6CCC54F0CC6CFD9005DDECF0EDA3F075A702755A
:205B0800E90075EA00ADD274A75DF5D275D10375C90575D6019005D8E0FCA3E0FD9005DF62
:205B2800ECF0EDA3F09005DFE0F5CA9005E0E0F5CB75CF008ECEE4F5CCF5CDEF30E212902F
:205B480005D4E0FDA3E0FE9005DFEDF0EEA3F080109005D6E0FDA3E0FE9005DFEDF0EEA3F9
:205B6800F075D10475C90675D6009005DFE0F5CA9005E0E0F5CB9005DDE0F5CE9005DEE0C4
:205B8800F5CFE4F5CCF5CDEF30E2129005D6E0FDA3E0FE9005DFEDF0EEA3F080109005D42B
:205BA800E0FDA3E0FE9005DFEDF0EEA3F075D10675C98875D6009005DFE0F5CA9005E0E0E8
:205BC800F5CB9005DDE0F5CE9005DEE0F5CF75CD0075CC00AED374A75EF5D343D25875EAC0
:205BE800008FE943E90843E720E5D330E6FB75E90075EA00AFD274A75FF5D2AFD374A75F63
:065C0800F5D375820022B5
:205C0E00AF83E5829005E4F0EFA3F09005E3E0FFBF030040047582012274022FC40354F8C3
:205C2E00FE75A70275E90075EA00ADD274A75DF5D275D10375C90575D6009005E4E0FCA3F0
:205C4E00E0FD9005E6ECF0EDA3F09005E6E0F5CA9005E7E0F5CB75CF008ECE75CC0075CD29
:205C6E000075D10475C90675D60075CA0075CB0075CF0075CE1075CC0075CD0075D10675E3
:205C8E00C98875D6009005E1E0FCA3E0FD9005E6ECF0EDA3F09005E6E0F5CA9005E7E0F546
:205CAE00CB75CF008ECE75CD00EF600575CC10800375CC00AED374A75EF5D343D25875EA32
:205CCE00048FE943E90443E90843E720E5D330E6FBEF6022AFD274A75FF5D275D10675CC03
:205CEE000075CE10AFD374875FF5D343D24043E720E5D330E6FB75E90075EA00AFD274A7DE
:0E5D0E005FF5D2AFD374A75FF5D37582002284
:205D1C00E5829005F2F0E0FFBF03028005BF070040047582012274035F2402C40354F8FE30
:205D3C009005F0E0FCA3E0FD8C02C454F0CAC4CA6ACA54F0CA6AFB9005F3EAF0EBA3F01CD5
:205D5C00BCFF011D9005F0ECF0EDA3F075A70275E90075EA00ADD274875DF5D275D1037536
:205D7C00C90575D6009005EEE0FCA3E0FD9005F5ECF0EDA3F09005F5E0F5CA9005F6E0F5A0
:205D9C00CB75CF008ECEE4F5CCF5CDEF30E2129005E8E0FDA3E0FE9005F5EDF0EEA3F080BF
:205DBC00109005EAE0FDA3E0FE9005F5EDF0EEA3F075D10475C90675D6009005F5E0F5CAF0
:205DDC009005F6E0F5CB75CE1075CF0075CC0075CD0075D10575C90775D6009005ECE0FD29
:205DFC00A3E0FE9005F5EDF0EEA3F09005F5E0F5CA9005F6E0F5CB75CE10E4F5CFF5CCF519
:205E1C00CDEF30E2129005EAE0FDA3E0FE9005F5EDF0EEA3F080109005E8E0FDA3E0FE90C6
:205E3C0005F5EDF0EEA3F075D10675C98875D6009005F5E0F5CA9005F6E0F5CB75CE107575
:205E5C00CF0075CD0075CC00AED374875EF5D343D278EF30E20575EA01800375EA028FE9E3
:205E7C0043E90843E720E5D330E6FB9005F0E0F5F0A3E045F07003025F14AFE974F75FF57E
:205E9C00E9AFD274875FF5D275D10375D60175CC0075CD0075D1049005F3E0F5CE9005F445
:205EBC00E0F5CF75D1059005EAE0FEA3E0FF9005F5EEF0EFA3F09005F5E0F5CA9005F6E07A
:205EDC00F5CB9005F3E0F5CE9005F4E0F5CF75CC0075CD0075D1069005F3E0F5CE9005F40B
:205EFC00E0F5CFAFD374875FF5D343D27843E90843E720E5D330E6FB75E90075EA00AFD22C
:105F1C0074875FF5D2AFD374875FF5D37582002297
:205F2C00C0E0C007C0D075D000AFE774DF5FF5E7D0D0D007D0E032900659E0F58222E582CD
:205F4C0090065AF0E0900659F022124422E5828583F09005F7F0E5F0A3F022AF83E582906E
:205F6C00065DF0EFA3F090065BE0FEA3E0FF90065DE0FCA3E0FD7B108E828F83E493FAA3DF
:205F8C00AE82AF838C828D83EAF0A3AC82AD8390065DECF0EDA3F0DBDF90065DECF0EDA332
:205FAC00F022E58290065FF0758200125F4A90065FE0FF740F5FFE7002D3221EC007C006FF
:205FCC00125F56D0069005F7E0FCA3E0FD9005E174F9F07405A3F09005E3EEF08C828D83DD
:205FEC00125C0EE582D0076002C322EFC4540FFE53060FBE00028005BE0118802A90065B61
:20600C007455F0747EA3F0900619C007125F67D007801490065B7455F0747EA3F09006199F
:20602C00C007125F67D0078F82125F4AD322AF83E582900661F0EFA3F0900661E0FEA3E0C3
:20604C00FF7D00900660E0FCFA7B009006DAEEF0EFA3F0EDA3F09006DDEAF0EBA3F09006C0
:20606C003975F000C004126D4FD004740F5C900663D39410F4F07F00900663E0FEC3EF9E37
:20608C005034EF2C2439FDE43406FE7B009006DA7463F07406A3F0E4A3F09006DD04F0E45E
:2060AC00A3F08D828E838BF0C007C004126D4FD004D0070F80C290063922AF83E582900631
:2060CC006AF0EFA3F0900664E0FF7003F58222C007125F43AE82D007740F5EFDBD01028053
:2060EC000ABD0202800DBD031A801090066C7404F0801690066C7405F0800E90066C74065D
:20610C00F0800690066C7404F0EEC4540FFE53060F90066AE0FCA3E0FD900660EFF08C82D9
:20612C008D83C007C00612603AAC82AD83D006D007EFC4540FFF0FBE00028008BE01028052
:20614C005E02622190066CE0F569900665E0FAA3E0FB9005F7E0F56AA3E0F56B8F017E0001
:20616C009005E8ECF0EDA3F09005EAEAF0EBA3F09005EC7419F07406A3F09005EEE56AF096
:20618C00E56BA3F09005F0E9F0EEA3F0856982C007125D1CE582D00790066DF002627990D1
:2061AC00065B7445F0747EA3F0900629C007C005C004125F67D004D005D00790066CE0F506
:2061CC006A900665E0FAA3E0FB9005F7E0F56CA3E0F56D8F017E00900678ECF0EDA3F0903C
:2061EC00067AEAF0EBA3F090067C7429F07406A3F090067EE56CF0E56DA3F0900680E9F0E6
:20620C00EEA3F0856A82C007126471E582D00790066DF0805890066CE0F56C900665E0FAB1
:20622C00A3E0FB9005F7E0F56AA3E0F56B8F017E009005E8ECF0EDA3F09005EAEAF0EBA358
:20624C00F09005EC7419F07406A3F09005EEE56AF0E56BA3F09005F0E9F0EEA3F0856C8240
:20626C00C007125D1CE582D00790066DF0900667E0FCA3E0FDA3E0FEEFC454F08C828D83A0
:20628C008EF0126DEF90066DE0F58222AF83E582900674F0EFA3F090066EE0FF7003F582A8
:2062AC0022C007125F43AE82D007740F5EFDBD0102800ABD0202800CBD0319800F90067645
:2062CC00E4F080159006767401F0800D9006767402F08005900676E4F0EEC4540FFE530608
:2062EC000FEFC4540FFD900674E0FBA3E0FCBE00028008BE0102805A0263E0C00790067611
:20630C00E0FE90066FE0F9A3E0FA8D007F009005E8E9F0EAA3F09005EAEBF0ECA3F09005EB
:20632C00EC7419F07406A3F09005EE74F9F07405A3F09005F0E8F0EFA3F08E82C007C00574
:20634C00125D1CE582D005D007900677F0D007026434C00790065B7445F0747EA3F09006A9
:20636C0029C007C005C004C003125F67D003D004D005D007900676E0F56E90066FE0F9A3DA
:20638C00E0FA9005F7E0F56FA3E0F5708D067F00900678E9F0EAA3F090067AEBF0ECA3F07F
:2063AC0090067C7429F07406A3F090067EE56FF0E570A3F0900680EEF0EFA3F0856E82C03A
:2063CC0007C005126471E582D005D007900677F0D0078054C007900676E0FE90066FE0F9B4
:2063EC00A3E0FA8D007F009005E8E9F0EAA3F09005EAEBF0ECA3F09005EC7419F07406A341
:20640C00F09005EE74F9F07405A3F09005F0E8F0EFA3F08E82C007C005125D1CE582D00552
:20642C00D007900677F0D007900671E0FBA3E0FCA3E0FEED75F010A424FFFAE5F034FFFD9B
:20644C0090066FE0F8A3E0F9EA28F582ED39F583E0FDEFC39D8B828C838EF0126DEF9006E6
:05646C0077E0F582223B
